{
	"contracts/todolist.sol": {
		"TodoList": {
			"abi": [
				{
					"inputs": [],
					"stateMutability": "nonpayable",
					"type": "constructor"
				},
				{
					"anonymous": false,
					"inputs": [
						{
							"indexed": false,
							"internalType": "uint256",
							"name": "id",
							"type": "uint256"
						},
						{
							"indexed": false,
							"internalType": "bool",
							"name": "completed",
							"type": "bool"
						}
					],
					"name": "TaskCompleted",
					"type": "event"
				},
				{
					"anonymous": false,
					"inputs": [
						{
							"indexed": false,
							"internalType": "uint256",
							"name": "id",
							"type": "uint256"
						},
						{
							"indexed": false,
							"internalType": "string",
							"name": "content",
							"type": "string"
						},
						{
							"indexed": false,
							"internalType": "bool",
							"name": "completed",
							"type": "bool"
						}
					],
					"name": "TaskCreated",
					"type": "event"
				},
				{
					"anonymous": false,
					"inputs": [
						{
							"indexed": false,
							"internalType": "uint256",
							"name": "id",
							"type": "uint256"
						}
					],
					"name": "TaskDeleted",
					"type": "event"
				},
				{
					"anonymous": false,
					"inputs": [
						{
							"indexed": false,
							"internalType": "uint256",
							"name": "id",
							"type": "uint256"
						},
						{
							"indexed": false,
							"internalType": "string",
							"name": "content",
							"type": "string"
						}
					],
					"name": "TaskUpdated",
					"type": "event"
				},
				{
					"inputs": [
						{
							"internalType": "string",
							"name": "_content",
							"type": "string"
						}
					],
					"name": "createTask",
					"outputs": [],
					"stateMutability": "nonpayable",
					"type": "function"
				},
				{
					"inputs": [
						{
							"internalType": "uint256",
							"name": "_id",
							"type": "uint256"
						}
					],
					"name": "deleteTask",
					"outputs": [],
					"stateMutability": "nonpayable",
					"type": "function"
				},
				{
					"inputs": [],
					"name": "taskCount",
					"outputs": [
						{
							"internalType": "uint256",
							"name": "",
							"type": "uint256"
						}
					],
					"stateMutability": "view",
					"type": "function"
				},
				{
					"inputs": [
						{
							"internalType": "uint256",
							"name": "",
							"type": "uint256"
						}
					],
					"name": "tasks",
					"outputs": [
						{
							"internalType": "uint256",
							"name": "id",
							"type": "uint256"
						},
						{
							"internalType": "string",
							"name": "content",
							"type": "string"
						},
						{
							"internalType": "bool",
							"name": "completed",
							"type": "bool"
						},
						{
							"internalType": "bool",
							"name": "deleted",
							"type": "bool"
						}
					],
					"stateMutability": "view",
					"type": "function"
				},
				{
					"inputs": [
						{
							"internalType": "uint256",
							"name": "_id",
							"type": "uint256"
						}
					],
					"name": "toggleCompleted",
					"outputs": [],
					"stateMutability": "nonpayable",
					"type": "function"
				},
				{
					"inputs": [
						{
							"internalType": "uint256",
							"name": "_id",
							"type": "uint256"
						},
						{
							"internalType": "string",
							"name": "_content",
							"type": "string"
						}
					],
					"name": "updateTask",
					"outputs": [],
					"stateMutability": "nonpayable",
					"type": "function"
				}
			],
			"devdoc": {
				"kind": "dev",
				"methods": {},
				"version": 1
			},
			"evm": {
				"assembly": "    /* \"contracts/todolist.sol\":60:1703  contract TodoList {... */\n  mstore(0x40, 0x80)\n    /* \"contracts/todolist.sol\":109:110  0 */\n  0x00\n    /* \"contracts/todolist.sol\":85:110  uint public taskCount = 0 */\n  dup1\n  sstore\n    /* \"contracts/todolist.sol\":619:678  constructor() {... */\n  callvalue\n  dup1\n  iszero\n  tag_1\n  jumpi\n  0x00\n  dup1\n  revert\ntag_1:\n  pop\n    /* \"contracts/todolist.sol\":644:670  createTask(\"Task Example\") */\n  tag_4\n  mload(0x40)\n  dup1\n  0x40\n  add\n  0x40\n  mstore\n  dup1\n  0x0c\n  dup2\n  mstore\n  0x20\n  add\n  0x5461736b204578616d706c650000000000000000000000000000000000000000\n  dup2\n  mstore\n  pop\n    /* \"contracts/todolist.sol\":644:654  createTask */\n  shl(0x20, tag_5)\n    /* \"contracts/todolist.sol\":644:670  createTask(\"Task Example\") */\n  0x20\n  shr\n  jump\t// in\ntag_4:\n    /* \"contracts/todolist.sol\":60:1703  contract TodoList {... */\n  jump(tag_6)\n    /* \"contracts/todolist.sol\":686:892  function createTask(string memory _content) public {... */\ntag_5:\n    /* \"contracts/todolist.sol\":748:757  taskCount */\n  0x00\n  dup1\n    /* \"contracts/todolist.sol\":748:760  taskCount ++ */\n  dup2\n  sload\n  dup1\n  swap3\n  swap2\n  swap1\n  tag_8\n  swap1\n  tag_9\n  jump\t// in\ntag_8:\n  swap2\n  swap1\n  pop\n  sstore\n  pop\n    /* \"contracts/todolist.sol\":790:829  Task(taskCount, _content, false, false) */\n  mload(0x40)\n  dup1\n  0x80\n  add\n  0x40\n  mstore\n  dup1\n    /* \"contracts/todolist.sol\":795:804  taskCount */\n  sload(0x00)\n    /* \"contracts/todolist.sol\":790:829  Task(taskCount, _content, false, false) */\n  dup2\n  mstore\n  0x20\n  add\n    /* \"contracts/todolist.sol\":806:814  _content */\n  dup3\n    /* \"contracts/todolist.sol\":790:829  Task(taskCount, _content, false, false) */\n  dup2\n  mstore\n  0x20\n  add\n    /* \"contracts/todolist.sol\":816:821  false */\n  0x00\n    /* \"contracts/todolist.sol\":790:829  Task(taskCount, _content, false, false) */\n  iszero\n  iszero\n  dup2\n  mstore\n  0x20\n  add\n    /* \"contracts/todolist.sol\":823:828  false */\n  0x00\n    /* \"contracts/todolist.sol\":790:829  Task(taskCount, _content, false, false) */\n  iszero\n  iszero\n  dup2\n  mstore\n  pop\n    /* \"contracts/todolist.sol\":771:776  tasks */\n  0x01\n    /* \"contracts/todolist.sol\":771:787  tasks[taskCount] */\n  0x00\n    /* \"contracts/todolist.sol\":777:786  taskCount */\n  dup1\n  sload\n    /* \"contracts/todolist.sol\":771:787  tasks[taskCount] */\n  dup2\n  mstore\n  0x20\n  add\n  swap1\n  dup2\n  mstore\n  0x20\n  add\n  0x00\n  keccak256\n    /* \"contracts/todolist.sol\":771:829  tasks[taskCount] = Task(taskCount, _content, false, false) */\n  0x00\n  dup3\n  add\n  mload\n  dup2\n  0x00\n  add\n  sstore\n  0x20\n  dup3\n  add\n  mload\n  dup2\n  0x01\n  add\n  swap1\n  dup2\n  tag_10\n  swap2\n  swap1\n  tag_11\n  jump\t// in\ntag_10:\n  pop\n  0x40\n  dup3\n  add\n  mload\n  dup2\n  0x02\n  add\n  exp(0x0100, 0x00)\n  dup2\n  sload\n  dup2\n  0xff\n  mul\n  not\n  and\n  swap1\n  dup4\n  iszero\n  iszero\n  mul\n  or\n  swap1\n  sstore\n  pop\n  0x60\n  dup3\n  add\n  mload\n  dup2\n  0x02\n  add\n  exp(0x0100, 0x01)\n  dup2\n  sload\n  dup2\n  0xff\n  mul\n  not\n  and\n  swap1\n  dup4\n  iszero\n  iszero\n  mul\n  or\n  swap1\n  sstore\n  pop\n  swap1\n  pop\n  pop\n    /* \"contracts/todolist.sol\":845:884  TaskCreated(taskCount, _content, false) */\n  0x05d0fb833127fc08168556d0e7ca9554fc3f6bc843b3b7d2bf1c35aea6bab660\n    /* \"contracts/todolist.sol\":857:866  taskCount */\n  sload(0x00)\n    /* \"contracts/todolist.sol\":868:876  _content */\n  dup3\n    /* \"contracts/todolist.sol\":878:883  false */\n  0x00\n    /* \"contracts/todolist.sol\":845:884  TaskCreated(taskCount, _content, false) */\n  mload(0x40)\n  tag_12\n  swap4\n  swap3\n  swap2\n  swap1\n  tag_13\n  jump\t// in\ntag_12:\n  mload(0x40)\n  dup1\n  swap2\n  sub\n  swap1\n  log1\n    /* \"contracts/todolist.sol\":686:892  function createTask(string memory _content) public {... */\n  pop\n  jump\t// out\n    /* \"#utility.yul\":7:187   */\ntag_14:\n    /* \"#utility.yul\":55:132   */\n  0x4e487b7100000000000000000000000000000000000000000000000000000000\n    /* \"#utility.yul\":52:53   */\n  0x00\n    /* \"#utility.yul\":45:133   */\n  mstore\n    /* \"#utility.yul\":152:156   */\n  0x11\n    /* \"#utility.yul\":149:150   */\n  0x04\n    /* \"#utility.yul\":142:157   */\n  mstore\n    /* \"#utility.yul\":176:180   */\n  0x24\n    /* \"#utility.yul\":173:174   */\n  0x00\n    /* \"#utility.yul\":166:181   */\n  revert\n    /* \"#utility.yul\":193:270   */\ntag_15:\n    /* \"#utility.yul\":230:237   */\n  0x00\n    /* \"#utility.yul\":259:264   */\n  dup2\n    /* \"#utility.yul\":248:264   */\n  swap1\n  pop\n    /* \"#utility.yul\":193:270   */\n  swap2\n  swap1\n  pop\n  jump\t// out\n    /* \"#utility.yul\":276:509   */\ntag_9:\n    /* \"#utility.yul\":315:318   */\n  0x00\n    /* \"#utility.yul\":338:362   */\n  tag_46\n    /* \"#utility.yul\":356:361   */\n  dup3\n    /* \"#utility.yul\":338:362   */\n  tag_15\n  jump\t// in\ntag_46:\n    /* \"#utility.yul\":329:362   */\n  swap2\n  pop\n    /* \"#utility.yul\":384:450   */\n  0xffffffffffffffffffffffffffffffffffffffffffffffffffffffffffffffff\n    /* \"#utility.yul\":377:382   */\n  dup3\n    /* \"#utility.yul\":374:451   */\n  sub\n    /* \"#utility.yul\":371:474   */\n  tag_47\n  jumpi\n    /* \"#utility.yul\":454:472   */\n  tag_48\n  tag_14\n  jump\t// in\ntag_48:\n    /* \"#utility.yul\":371:474   */\ntag_47:\n    /* \"#utility.yul\":501:502   */\n  0x01\n    /* \"#utility.yul\":494:499   */\n  dup3\n    /* \"#utility.yul\":490:503   */\n  add\n    /* \"#utility.yul\":483:503   */\n  swap1\n  pop\n    /* \"#utility.yul\":276:509   */\n  swap2\n  swap1\n  pop\n  jump\t// out\n    /* \"#utility.yul\":515:614   */\ntag_16:\n    /* \"#utility.yul\":567:573   */\n  0x00\n    /* \"#utility.yul\":601:606   */\n  dup2\n    /* \"#utility.yul\":595:607   */\n  mload\n    /* \"#utility.yul\":585:607   */\n  swap1\n  pop\n    /* \"#utility.yul\":515:614   */\n  swap2\n  swap1\n  pop\n  jump\t// out\n    /* \"#utility.yul\":620:800   */\ntag_17:\n    /* \"#utility.yul\":668:745   */\n  0x4e487b7100000000000000000000000000000000000000000000000000000000\n    /* \"#utility.yul\":665:666   */\n  0x00\n    /* \"#utility.yul\":658:746   */\n  mstore\n    /* \"#utility.yul\":765:769   */\n  0x41\n    /* \"#utility.yul\":762:763   */\n  0x04\n    /* \"#utility.yul\":755:770   */\n  mstore\n    /* \"#utility.yul\":789:793   */\n  0x24\n    /* \"#utility.yul\":786:787   */\n  0x00\n    /* \"#utility.yul\":779:794   */\n  revert\n    /* \"#utility.yul\":806:986   */\ntag_18:\n    /* \"#utility.yul\":854:931   */\n  0x4e487b7100000000000000000000000000000000000000000000000000000000\n    /* \"#utility.yul\":851:852   */\n  0x00\n    /* \"#utility.yul\":844:932   */\n  mstore\n    /* \"#utility.yul\":951:955   */\n  0x22\n    /* \"#utility.yul\":948:949   */\n  0x04\n    /* \"#utility.yul\":941:956   */\n  mstore\n    /* \"#utility.yul\":975:979   */\n  0x24\n    /* \"#utility.yul\":972:973   */\n  0x00\n    /* \"#utility.yul\":965:980   */\n  revert\n    /* \"#utility.yul\":992:1312   */\ntag_19:\n    /* \"#utility.yul\":1036:1042   */\n  0x00\n    /* \"#utility.yul\":1073:1074   */\n  0x02\n    /* \"#utility.yul\":1067:1071   */\n  dup3\n    /* \"#utility.yul\":1063:1075   */\n  div\n    /* \"#utility.yul\":1053:1075   */\n  swap1\n  pop\n    /* \"#utility.yul\":1120:1121   */\n  0x01\n    /* \"#utility.yul\":1114:1118   */\n  dup3\n    /* \"#utility.yul\":1110:1122   */\n  and\n    /* \"#utility.yul\":1141:1159   */\n  dup1\n    /* \"#utility.yul\":1131:1212   */\n  tag_53\n  jumpi\n    /* \"#utility.yul\":1197:1201   */\n  0x7f\n    /* \"#utility.yul\":1189:1195   */\n  dup3\n    /* \"#utility.yul\":1185:1202   */\n  and\n    /* \"#utility.yul\":1175:1202   */\n  swap2\n  pop\n    /* \"#utility.yul\":1131:1212   */\ntag_53:\n    /* \"#utility.yul\":1259:1261   */\n  0x20\n    /* \"#utility.yul\":1251:1257   */\n  dup3\n    /* \"#utility.yul\":1248:1262   */\n  lt\n    /* \"#utility.yul\":1228:1246   */\n  dup2\n    /* \"#utility.yul\":1225:1263   */\n  sub\n    /* \"#utility.yul\":1222:1306   */\n  tag_54\n  jumpi\n    /* \"#utility.yul\":1278:1296   */\n  tag_55\n  tag_18\n  jump\t// in\ntag_55:\n    /* \"#utility.yul\":1222:1306   */\ntag_54:\n    /* \"#utility.yul\":1043:1312   */\n  pop\n    /* \"#utility.yul\":992:1312   */\n  swap2\n  swap1\n  pop\n  jump\t// out\n    /* \"#utility.yul\":1318:1459   */\ntag_20:\n    /* \"#utility.yul\":1367:1371   */\n  0x00\n    /* \"#utility.yul\":1390:1393   */\n  dup2\n    /* \"#utility.yul\":1382:1393   */\n  swap1\n  pop\n    /* \"#utility.yul\":1413:1416   */\n  dup2\n    /* \"#utility.yul\":1410:1411   */\n  0x00\n    /* \"#utility.yul\":1403:1417   */\n  mstore\n    /* \"#utility.yul\":1447:1451   */\n  0x20\n    /* \"#utility.yul\":1444:1445   */\n  0x00\n    /* \"#utility.yul\":1434:1452   */\n  keccak256\n    /* \"#utility.yul\":1426:1452   */\n  swap1\n  pop\n    /* \"#utility.yul\":1318:1459   */\n  swap2\n  swap1\n  pop\n  jump\t// out\n    /* \"#utility.yul\":1465:1558   */\ntag_21:\n    /* \"#utility.yul\":1502:1508   */\n  0x00\n    /* \"#utility.yul\":1549:1551   */\n  0x20\n    /* \"#utility.yul\":1544:1546   */\n  0x1f\n    /* \"#utility.yul\":1537:1542   */\n  dup4\n    /* \"#utility.yul\":1533:1547   */\n  add\n    /* \"#utility.yul\":1529:1552   */\n  div\n    /* \"#utility.yul\":1519:1552   */\n  swap1\n  pop\n    /* \"#utility.yul\":1465:1558   */\n  swap2\n  swap1\n  pop\n  jump\t// out\n    /* \"#utility.yul\":1564:1671   */\ntag_22:\n    /* \"#utility.yul\":1608:1616   */\n  0x00\n    /* \"#utility.yul\":1658:1663   */\n  dup3\n    /* \"#utility.yul\":1652:1656   */\n  dup3\n    /* \"#utility.yul\":1648:1664   */\n  shl\n    /* \"#utility.yul\":1627:1664   */\n  swap1\n  pop\n    /* \"#utility.yul\":1564:1671   */\n  swap3\n  swap2\n  pop\n  pop\n  jump\t// out\n    /* \"#utility.yul\":1677:2070   */\ntag_23:\n    /* \"#utility.yul\":1746:1752   */\n  0x00\n    /* \"#utility.yul\":1796:1797   */\n  0x08\n    /* \"#utility.yul\":1784:1794   */\n  dup4\n    /* \"#utility.yul\":1780:1798   */\n  mul\n    /* \"#utility.yul\":1819:1916   */\n  tag_60\n    /* \"#utility.yul\":1849:1915   */\n  0xffffffffffffffffffffffffffffffffffffffffffffffffffffffffffffffff\n    /* \"#utility.yul\":1838:1847   */\n  dup3\n    /* \"#utility.yul\":1819:1916   */\n  tag_22\n  jump\t// in\ntag_60:\n    /* \"#utility.yul\":1937:1976   */\n  tag_61\n    /* \"#utility.yul\":1967:1975   */\n  dup7\n    /* \"#utility.yul\":1956:1965   */\n  dup4\n    /* \"#utility.yul\":1937:1976   */\n  tag_22\n  jump\t// in\ntag_61:\n    /* \"#utility.yul\":1925:1976   */\n  swap6\n  pop\n    /* \"#utility.yul\":2009:2013   */\n  dup1\n    /* \"#utility.yul\":2005:2014   */\n  not\n    /* \"#utility.yul\":1998:2003   */\n  dup5\n    /* \"#utility.yul\":1994:2015   */\n  and\n    /* \"#utility.yul\":1985:2015   */\n  swap4\n  pop\n    /* \"#utility.yul\":2058:2062   */\n  dup1\n    /* \"#utility.yul\":2048:2056   */\n  dup7\n    /* \"#utility.yul\":2044:2063   */\n  and\n    /* \"#utility.yul\":2037:2042   */\n  dup5\n    /* \"#utility.yul\":2034:2064   */\n  or\n    /* \"#utility.yul\":2024:2064   */\n  swap3\n  pop\n    /* \"#utility.yul\":1753:2070   */\n  pop\n  pop\n    /* \"#utility.yul\":1677:2070   */\n  swap4\n  swap3\n  pop\n  pop\n  pop\n  jump\t// out\n    /* \"#utility.yul\":2076:2136   */\ntag_24:\n    /* \"#utility.yul\":2104:2107   */\n  0x00\n    /* \"#utility.yul\":2125:2130   */\n  dup2\n    /* \"#utility.yul\":2118:2130   */\n  swap1\n  pop\n    /* \"#utility.yul\":2076:2136   */\n  swap2\n  swap1\n  pop\n  jump\t// out\n    /* \"#utility.yul\":2142:2284   */\ntag_25:\n    /* \"#utility.yul\":2192:2201   */\n  0x00\n    /* \"#utility.yul\":2225:2278   */\n  tag_64\n    /* \"#utility.yul\":2243:2277   */\n  tag_65\n    /* \"#utility.yul\":2252:2276   */\n  tag_66\n    /* \"#utility.yul\":2270:2275   */\n  dup5\n    /* \"#utility.yul\":2252:2276   */\n  tag_15\n  jump\t// in\ntag_66:\n    /* \"#utility.yul\":2243:2277   */\n  tag_24\n  jump\t// in\ntag_65:\n    /* \"#utility.yul\":2225:2278   */\n  tag_15\n  jump\t// in\ntag_64:\n    /* \"#utility.yul\":2212:2278   */\n  swap1\n  pop\n    /* \"#utility.yul\":2142:2284   */\n  swap2\n  swap1\n  pop\n  jump\t// out\n    /* \"#utility.yul\":2290:2365   */\ntag_26:\n    /* \"#utility.yul\":2333:2336   */\n  0x00\n    /* \"#utility.yul\":2354:2359   */\n  dup2\n    /* \"#utility.yul\":2347:2359   */\n  swap1\n  pop\n    /* \"#utility.yul\":2290:2365   */\n  swap2\n  swap1\n  pop\n  jump\t// out\n    /* \"#utility.yul\":2371:2640   */\ntag_27:\n    /* \"#utility.yul\":2481:2520   */\n  tag_69\n    /* \"#utility.yul\":2512:2519   */\n  dup4\n    /* \"#utility.yul\":2481:2520   */\n  tag_25\n  jump\t// in\ntag_69:\n    /* \"#utility.yul\":2542:2633   */\n  tag_70\n    /* \"#utility.yul\":2591:2632   */\n  tag_71\n    /* \"#utility.yul\":2615:2631   */\n  dup3\n    /* \"#utility.yul\":2591:2632   */\n  tag_26\n  jump\t// in\ntag_71:\n    /* \"#utility.yul\":2583:2589   */\n  dup5\n    /* \"#utility.yul\":2576:2580   */\n  dup5\n    /* \"#utility.yul\":2570:2581   */\n  sload\n    /* \"#utility.yul\":2542:2633   */\n  tag_23\n  jump\t// in\ntag_70:\n    /* \"#utility.yul\":2536:2540   */\n  dup3\n    /* \"#utility.yul\":2529:2634   */\n  sstore\n    /* \"#utility.yul\":2447:2640   */\n  pop\n    /* \"#utility.yul\":2371:2640   */\n  pop\n  pop\n  pop\n  jump\t// out\n    /* \"#utility.yul\":2646:2719   */\ntag_28:\n    /* \"#utility.yul\":2691:2694   */\n  0x00\n    /* \"#utility.yul\":2646:2719   */\n  swap1\n  jump\t// out\n    /* \"#utility.yul\":2725:2914   */\ntag_29:\n    /* \"#utility.yul\":2802:2834   */\n  tag_74\n  tag_28\n  jump\t// in\ntag_74:\n    /* \"#utility.yul\":2843:2908   */\n  tag_75\n    /* \"#utility.yul\":2901:2907   */\n  dup2\n    /* \"#utility.yul\":2893:2899   */\n  dup5\n    /* \"#utility.yul\":2887:2891   */\n  dup5\n    /* \"#utility.yul\":2843:2908   */\n  tag_27\n  jump\t// in\ntag_75:\n    /* \"#utility.yul\":2778:2914   */\n  pop\n    /* \"#utility.yul\":2725:2914   */\n  pop\n  pop\n  jump\t// out\n    /* \"#utility.yul\":2920:3106   */\ntag_30:\n    /* \"#utility.yul\":2980:3100   */\ntag_77:\n    /* \"#utility.yul\":2997:3000   */\n  dup2\n    /* \"#utility.yul\":2990:2995   */\n  dup2\n    /* \"#utility.yul\":2987:3001   */\n  lt\n    /* \"#utility.yul\":2980:3100   */\n  iszero\n  tag_79\n  jumpi\n    /* \"#utility.yul\":3051:3090   */\n  tag_80\n    /* \"#utility.yul\":3088:3089   */\n  0x00\n    /* \"#utility.yul\":3081:3086   */\n  dup3\n    /* \"#utility.yul\":3051:3090   */\n  tag_29\n  jump\t// in\ntag_80:\n    /* \"#utility.yul\":3024:3025   */\n  0x01\n    /* \"#utility.yul\":3017:3022   */\n  dup2\n    /* \"#utility.yul\":3013:3026   */\n  add\n    /* \"#utility.yul\":3004:3026   */\n  swap1\n  pop\n    /* \"#utility.yul\":2980:3100   */\n  jump(tag_77)\ntag_79:\n    /* \"#utility.yul\":2920:3106   */\n  pop\n  pop\n  jump\t// out\n    /* \"#utility.yul\":3112:3655   */\ntag_31:\n    /* \"#utility.yul\":3213:3215   */\n  0x1f\n    /* \"#utility.yul\":3208:3211   */\n  dup3\n    /* \"#utility.yul\":3205:3216   */\n  gt\n    /* \"#utility.yul\":3202:3648   */\n  iszero\n  tag_82\n  jumpi\n    /* \"#utility.yul\":3247:3285   */\n  tag_83\n    /* \"#utility.yul\":3279:3284   */\n  dup2\n    /* \"#utility.yul\":3247:3285   */\n  tag_20\n  jump\t// in\ntag_83:\n    /* \"#utility.yul\":3331:3360   */\n  tag_84\n    /* \"#utility.yul\":3349:3359   */\n  dup5\n    /* \"#utility.yul\":3331:3360   */\n  tag_21\n  jump\t// in\ntag_84:\n    /* \"#utility.yul\":3321:3329   */\n  dup2\n    /* \"#utility.yul\":3317:3361   */\n  add\n    /* \"#utility.yul\":3514:3516   */\n  0x20\n    /* \"#utility.yul\":3502:3512   */\n  dup6\n    /* \"#utility.yul\":3499:3517   */\n  lt\n    /* \"#utility.yul\":3496:3545   */\n  iszero\n  tag_85\n  jumpi\n    /* \"#utility.yul\":3535:3543   */\n  dup2\n    /* \"#utility.yul\":3520:3543   */\n  swap1\n  pop\n    /* \"#utility.yul\":3496:3545   */\ntag_85:\n    /* \"#utility.yul\":3558:3638   */\n  tag_86\n    /* \"#utility.yul\":3614:3636   */\n  tag_87\n    /* \"#utility.yul\":3632:3635   */\n  dup6\n    /* \"#utility.yul\":3614:3636   */\n  tag_21\n  jump\t// in\ntag_87:\n    /* \"#utility.yul\":3604:3612   */\n  dup4\n    /* \"#utility.yul\":3600:3637   */\n  add\n    /* \"#utility.yul\":3587:3598   */\n  dup3\n    /* \"#utility.yul\":3558:3638   */\n  tag_30\n  jump\t// in\ntag_86:\n    /* \"#utility.yul\":3217:3648   */\n  pop\n  pop\n    /* \"#utility.yul\":3202:3648   */\ntag_82:\n    /* \"#utility.yul\":3112:3655   */\n  pop\n  pop\n  pop\n  jump\t// out\n    /* \"#utility.yul\":3661:3778   */\ntag_32:\n    /* \"#utility.yul\":3715:3723   */\n  0x00\n    /* \"#utility.yul\":3765:3770   */\n  dup3\n    /* \"#utility.yul\":3759:3763   */\n  dup3\n    /* \"#utility.yul\":3755:3771   */\n  shr\n    /* \"#utility.yul\":3734:3771   */\n  swap1\n  pop\n    /* \"#utility.yul\":3661:3778   */\n  swap3\n  swap2\n  pop\n  pop\n  jump\t// out\n    /* \"#utility.yul\":3784:3953   */\ntag_33:\n    /* \"#utility.yul\":3828:3834   */\n  0x00\n    /* \"#utility.yul\":3861:3912   */\n  tag_90\n    /* \"#utility.yul\":3909:3910   */\n  0x00\n    /* \"#utility.yul\":3905:3911   */\n  not\n    /* \"#utility.yul\":3897:3902   */\n  dup5\n    /* \"#utility.yul\":3894:3895   */\n  0x08\n    /* \"#utility.yul\":3890:3903   */\n  mul\n    /* \"#utility.yul\":3861:3912   */\n  tag_32\n  jump\t// in\ntag_90:\n    /* \"#utility.yul\":3857:3913   */\n  not\n    /* \"#utility.yul\":3942:3946   */\n  dup1\n    /* \"#utility.yul\":3936:3940   */\n  dup4\n    /* \"#utility.yul\":3932:3947   */\n  and\n    /* \"#utility.yul\":3922:3947   */\n  swap2\n  pop\n    /* \"#utility.yul\":3835:3953   */\n  pop\n    /* \"#utility.yul\":3784:3953   */\n  swap3\n  swap2\n  pop\n  pop\n  jump\t// out\n    /* \"#utility.yul\":3958:4253   */\ntag_34:\n    /* \"#utility.yul\":4034:4038   */\n  0x00\n    /* \"#utility.yul\":4180:4209   */\n  tag_92\n    /* \"#utility.yul\":4205:4208   */\n  dup4\n    /* \"#utility.yul\":4199:4203   */\n  dup4\n    /* \"#utility.yul\":4180:4209   */\n  tag_33\n  jump\t// in\ntag_92:\n    /* \"#utility.yul\":4172:4209   */\n  swap2\n  pop\n    /* \"#utility.yul\":4242:4245   */\n  dup3\n    /* \"#utility.yul\":4239:4240   */\n  0x02\n    /* \"#utility.yul\":4235:4246   */\n  mul\n    /* \"#utility.yul\":4229:4233   */\n  dup3\n    /* \"#utility.yul\":4226:4247   */\n  or\n    /* \"#utility.yul\":4218:4247   */\n  swap1\n  pop\n    /* \"#utility.yul\":3958:4253   */\n  swap3\n  swap2\n  pop\n  pop\n  jump\t// out\n    /* \"#utility.yul\":4258:5653   */\ntag_11:\n    /* \"#utility.yul\":4375:4412   */\n  tag_94\n    /* \"#utility.yul\":4408:4411   */\n  dup3\n    /* \"#utility.yul\":4375:4412   */\n  tag_16\n  jump\t// in\ntag_94:\n    /* \"#utility.yul\":4477:4495   */\n  0xffffffffffffffff\n    /* \"#utility.yul\":4469:4475   */\n  dup2\n    /* \"#utility.yul\":4466:4496   */\n  gt\n    /* \"#utility.yul\":4463:4519   */\n  iszero\n  tag_95\n  jumpi\n    /* \"#utility.yul\":4499:4517   */\n  tag_96\n  tag_17\n  jump\t// in\ntag_96:\n    /* \"#utility.yul\":4463:4519   */\ntag_95:\n    /* \"#utility.yul\":4543:4581   */\n  tag_97\n    /* \"#utility.yul\":4575:4579   */\n  dup3\n    /* \"#utility.yul\":4569:4580   */\n  sload\n    /* \"#utility.yul\":4543:4581   */\n  tag_19\n  jump\t// in\ntag_97:\n    /* \"#utility.yul\":4628:4695   */\n  tag_98\n    /* \"#utility.yul\":4688:4694   */\n  dup3\n    /* \"#utility.yul\":4680:4686   */\n  dup3\n    /* \"#utility.yul\":4674:4678   */\n  dup6\n    /* \"#utility.yul\":4628:4695   */\n  tag_31\n  jump\t// in\ntag_98:\n    /* \"#utility.yul\":4722:4723   */\n  0x00\n    /* \"#utility.yul\":4746:4750   */\n  0x20\n    /* \"#utility.yul\":4733:4750   */\n  swap1\n  pop\n    /* \"#utility.yul\":4778:4780   */\n  0x1f\n    /* \"#utility.yul\":4770:4776   */\n  dup4\n    /* \"#utility.yul\":4767:4781   */\n  gt\n    /* \"#utility.yul\":4795:4796   */\n  0x01\n    /* \"#utility.yul\":4790:5408   */\n  dup2\n  eq\n  tag_100\n  jumpi\n    /* \"#utility.yul\":5452:5453   */\n  0x00\n    /* \"#utility.yul\":5469:5475   */\n  dup5\n    /* \"#utility.yul\":5466:5543   */\n  iszero\n  tag_101\n  jumpi\n    /* \"#utility.yul\":5518:5527   */\n  dup3\n    /* \"#utility.yul\":5513:5516   */\n  dup8\n    /* \"#utility.yul\":5509:5528   */\n  add\n    /* \"#utility.yul\":5503:5529   */\n  mload\n    /* \"#utility.yul\":5494:5529   */\n  swap1\n  pop\n    /* \"#utility.yul\":5466:5543   */\ntag_101:\n    /* \"#utility.yul\":5569:5636   */\n  tag_102\n    /* \"#utility.yul\":5629:5635   */\n  dup6\n    /* \"#utility.yul\":5622:5627   */\n  dup3\n    /* \"#utility.yul\":5569:5636   */\n  tag_34\n  jump\t// in\ntag_102:\n    /* \"#utility.yul\":5563:5567   */\n  dup7\n    /* \"#utility.yul\":5556:5637   */\n  sstore\n    /* \"#utility.yul\":5425:5647   */\n  pop\n    /* \"#utility.yul\":4760:5647   */\n  jump(tag_99)\n    /* \"#utility.yul\":4790:5408   */\ntag_100:\n    /* \"#utility.yul\":4842:4846   */\n  0x1f\n    /* \"#utility.yul\":4838:4847   */\n  not\n    /* \"#utility.yul\":4830:4836   */\n  dup5\n    /* \"#utility.yul\":4826:4848   */\n  and\n    /* \"#utility.yul\":4876:4913   */\n  tag_103\n    /* \"#utility.yul\":4908:4912   */\n  dup7\n    /* \"#utility.yul\":4876:4913   */\n  tag_20\n  jump\t// in\ntag_103:\n    /* \"#utility.yul\":4935:4936   */\n  0x00\n    /* \"#utility.yul\":4949:5157   */\ntag_104:\n    /* \"#utility.yul\":4963:4970   */\n  dup3\n    /* \"#utility.yul\":4960:4961   */\n  dup2\n    /* \"#utility.yul\":4957:4971   */\n  lt\n    /* \"#utility.yul\":4949:5157   */\n  iszero\n  tag_106\n  jumpi\n    /* \"#utility.yul\":5042:5051   */\n  dup5\n    /* \"#utility.yul\":5037:5040   */\n  dup10\n    /* \"#utility.yul\":5033:5052   */\n  add\n    /* \"#utility.yul\":5027:5053   */\n  mload\n    /* \"#utility.yul\":5019:5025   */\n  dup3\n    /* \"#utility.yul\":5012:5054   */\n  sstore\n    /* \"#utility.yul\":5093:5094   */\n  0x01\n    /* \"#utility.yul\":5085:5091   */\n  dup3\n    /* \"#utility.yul\":5081:5095   */\n  add\n    /* \"#utility.yul\":5071:5095   */\n  swap2\n  pop\n    /* \"#utility.yul\":5140:5142   */\n  0x20\n    /* \"#utility.yul\":5129:5138   */\n  dup6\n    /* \"#utility.yul\":5125:5143   */\n  add\n    /* \"#utility.yul\":5112:5143   */\n  swap5\n  pop\n    /* \"#utility.yul\":4986:4990   */\n  0x20\n    /* \"#utility.yul\":4983:4984   */\n  dup2\n    /* \"#utility.yul\":4979:4991   */\n  add\n    /* \"#utility.yul\":4974:4991   */\n  swap1\n  pop\n    /* \"#utility.yul\":4949:5157   */\n  jump(tag_104)\ntag_106:\n    /* \"#utility.yul\":5185:5191   */\n  dup7\n    /* \"#utility.yul\":5176:5183   */\n  dup4\n    /* \"#utility.yul\":5173:5192   */\n  lt\n    /* \"#utility.yul\":5170:5349   */\n  iszero\n  tag_107\n  jumpi\n    /* \"#utility.yul\":5243:5252   */\n  dup5\n    /* \"#utility.yul\":5238:5241   */\n  dup10\n    /* \"#utility.yul\":5234:5253   */\n  add\n    /* \"#utility.yul\":5228:5254   */\n  mload\n    /* \"#utility.yul\":5286:5334   */\n  tag_108\n    /* \"#utility.yul\":5328:5332   */\n  0x1f\n    /* \"#utility.yul\":5320:5326   */\n  dup10\n    /* \"#utility.yul\":5316:5333   */\n  and\n    /* \"#utility.yul\":5305:5314   */\n  dup3\n    /* \"#utility.yul\":5286:5334   */\n  tag_33\n  jump\t// in\ntag_108:\n    /* \"#utility.yul\":5278:5284   */\n  dup4\n    /* \"#utility.yul\":5271:5335   */\n  sstore\n    /* \"#utility.yul\":5193:5349   */\n  pop\n    /* \"#utility.yul\":5170:5349   */\ntag_107:\n    /* \"#utility.yul\":5395:5396   */\n  0x01\n    /* \"#utility.yul\":5391:5392   */\n  0x02\n    /* \"#utility.yul\":5383:5389   */\n  dup9\n    /* \"#utility.yul\":5379:5393   */\n  mul\n    /* \"#utility.yul\":5375:5397   */\n  add\n    /* \"#utility.yul\":5369:5373   */\n  dup9\n    /* \"#utility.yul\":5362:5398   */\n  sstore\n    /* \"#utility.yul\":4797:5408   */\n  pop\n  pop\n  pop\n    /* \"#utility.yul\":4760:5647   */\ntag_99:\n  pop\n    /* \"#utility.yul\":4350:5653   */\n  pop\n  pop\n  pop\n    /* \"#utility.yul\":4258:5653   */\n  pop\n  pop\n  jump\t// out\n    /* \"#utility.yul\":5659:5777   */\ntag_35:\n    /* \"#utility.yul\":5746:5770   */\n  tag_110\n    /* \"#utility.yul\":5764:5769   */\n  dup2\n    /* \"#utility.yul\":5746:5770   */\n  tag_15\n  jump\t// in\ntag_110:\n    /* \"#utility.yul\":5741:5744   */\n  dup3\n    /* \"#utility.yul\":5734:5771   */\n  mstore\n    /* \"#utility.yul\":5659:5777   */\n  pop\n  pop\n  jump\t// out\n    /* \"#utility.yul\":5783:5952   */\ntag_36:\n    /* \"#utility.yul\":5867:5878   */\n  0x00\n    /* \"#utility.yul\":5901:5907   */\n  dup3\n    /* \"#utility.yul\":5896:5899   */\n  dup3\n    /* \"#utility.yul\":5889:5908   */\n  mstore\n    /* \"#utility.yul\":5941:5945   */\n  0x20\n    /* \"#utility.yul\":5936:5939   */\n  dup3\n    /* \"#utility.yul\":5932:5946   */\n  add\n    /* \"#utility.yul\":5917:5946   */\n  swap1\n  pop\n    /* \"#utility.yul\":5783:5952   */\n  swap3\n  swap2\n  pop\n  pop\n  jump\t// out\n    /* \"#utility.yul\":5958:6097   */\ntag_37:\n    /* \"#utility.yul\":6047:6053   */\n  dup3\n    /* \"#utility.yul\":6042:6045   */\n  dup2\n    /* \"#utility.yul\":6037:6040   */\n  dup4\n    /* \"#utility.yul\":6031:6054   */\n  mcopy\n    /* \"#utility.yul\":6088:6089   */\n  0x00\n    /* \"#utility.yul\":6079:6085   */\n  dup4\n    /* \"#utility.yul\":6074:6077   */\n  dup4\n    /* \"#utility.yul\":6070:6086   */\n  add\n    /* \"#utility.yul\":6063:6090   */\n  mstore\n    /* \"#utility.yul\":5958:6097   */\n  pop\n  pop\n  pop\n  jump\t// out\n    /* \"#utility.yul\":6103:6205   */\ntag_38:\n    /* \"#utility.yul\":6144:6150   */\n  0x00\n    /* \"#utility.yul\":6195:6197   */\n  0x1f\n    /* \"#utility.yul\":6191:6198   */\n  not\n    /* \"#utility.yul\":6186:6188   */\n  0x1f\n    /* \"#utility.yul\":6179:6184   */\n  dup4\n    /* \"#utility.yul\":6175:6189   */\n  add\n    /* \"#utility.yul\":6171:6199   */\n  and\n    /* \"#utility.yul\":6161:6199   */\n  swap1\n  pop\n    /* \"#utility.yul\":6103:6205   */\n  swap2\n  swap1\n  pop\n  jump\t// out\n    /* \"#utility.yul\":6211:6588   */\ntag_39:\n    /* \"#utility.yul\":6299:6302   */\n  0x00\n    /* \"#utility.yul\":6327:6366   */\n  tag_115\n    /* \"#utility.yul\":6360:6365   */\n  dup3\n    /* \"#utility.yul\":6327:6366   */\n  tag_16\n  jump\t// in\ntag_115:\n    /* \"#utility.yul\":6382:6453   */\n  tag_116\n    /* \"#utility.yul\":6446:6452   */\n  dup2\n    /* \"#utility.yul\":6441:6444   */\n  dup6\n    /* \"#utility.yul\":6382:6453   */\n  tag_36\n  jump\t// in\ntag_116:\n    /* \"#utility.yul\":6375:6453   */\n  swap4\n  pop\n    /* \"#utility.yul\":6462:6527   */\n  tag_117\n    /* \"#utility.yul\":6520:6526   */\n  dup2\n    /* \"#utility.yul\":6515:6518   */\n  dup6\n    /* \"#utility.yul\":6508:6512   */\n  0x20\n    /* \"#utility.yul\":6501:6506   */\n  dup7\n    /* \"#utility.yul\":6497:6513   */\n  add\n    /* \"#utility.yul\":6462:6527   */\n  tag_37\n  jump\t// in\ntag_117:\n    /* \"#utility.yul\":6552:6581   */\n  tag_118\n    /* \"#utility.yul\":6574:6580   */\n  dup2\n    /* \"#utility.yul\":6552:6581   */\n  tag_38\n  jump\t// in\ntag_118:\n    /* \"#utility.yul\":6547:6550   */\n  dup5\n    /* \"#utility.yul\":6543:6582   */\n  add\n    /* \"#utility.yul\":6536:6582   */\n  swap2\n  pop\n    /* \"#utility.yul\":6303:6588   */\n  pop\n    /* \"#utility.yul\":6211:6588   */\n  swap3\n  swap2\n  pop\n  pop\n  jump\t// out\n    /* \"#utility.yul\":6594:6684   */\ntag_40:\n    /* \"#utility.yul\":6628:6635   */\n  0x00\n    /* \"#utility.yul\":6671:6676   */\n  dup2\n    /* \"#utility.yul\":6664:6677   */\n  iszero\n    /* \"#utility.yul\":6657:6678   */\n  iszero\n    /* \"#utility.yul\":6646:6678   */\n  swap1\n  pop\n    /* \"#utility.yul\":6594:6684   */\n  swap2\n  swap1\n  pop\n  jump\t// out\n    /* \"#utility.yul\":6690:6799   */\ntag_41:\n    /* \"#utility.yul\":6771:6792   */\n  tag_121\n    /* \"#utility.yul\":6786:6791   */\n  dup2\n    /* \"#utility.yul\":6771:6792   */\n  tag_40\n  jump\t// in\ntag_121:\n    /* \"#utility.yul\":6766:6769   */\n  dup3\n    /* \"#utility.yul\":6759:6793   */\n  mstore\n    /* \"#utility.yul\":6690:6799   */\n  pop\n  pop\n  jump\t// out\n    /* \"#utility.yul\":6805:7326   */\ntag_13:\n    /* \"#utility.yul\":6968:6972   */\n  0x00\n    /* \"#utility.yul\":7006:7008   */\n  0x60\n    /* \"#utility.yul\":6995:7004   */\n  dup3\n    /* \"#utility.yul\":6991:7009   */\n  add\n    /* \"#utility.yul\":6983:7009   */\n  swap1\n  pop\n    /* \"#utility.yul\":7019:7090   */\n  tag_123\n    /* \"#utility.yul\":7087:7088   */\n  0x00\n    /* \"#utility.yul\":7076:7085   */\n  dup4\n    /* \"#utility.yul\":7072:7089   */\n  add\n    /* \"#utility.yul\":7063:7069   */\n  dup7\n    /* \"#utility.yul\":7019:7090   */\n  tag_35\n  jump\t// in\ntag_123:\n    /* \"#utility.yul\":7137:7146   */\n  dup2\n    /* \"#utility.yul\":7131:7135   */\n  dup2\n    /* \"#utility.yul\":7127:7147   */\n  sub\n    /* \"#utility.yul\":7122:7124   */\n  0x20\n    /* \"#utility.yul\":7111:7120   */\n  dup4\n    /* \"#utility.yul\":7107:7125   */\n  add\n    /* \"#utility.yul\":7100:7148   */\n  mstore\n    /* \"#utility.yul\":7165:7243   */\n  tag_124\n    /* \"#utility.yul\":7238:7242   */\n  dup2\n    /* \"#utility.yul\":7229:7235   */\n  dup6\n    /* \"#utility.yul\":7165:7243   */\n  tag_39\n  jump\t// in\ntag_124:\n    /* \"#utility.yul\":7157:7243   */\n  swap1\n  pop\n    /* \"#utility.yul\":7253:7319   */\n  tag_125\n    /* \"#utility.yul\":7315:7317   */\n  0x40\n    /* \"#utility.yul\":7304:7313   */\n  dup4\n    /* \"#utility.yul\":7300:7318   */\n  add\n    /* \"#utility.yul\":7291:7297   */\n  dup5\n    /* \"#utility.yul\":7253:7319   */\n  tag_41\n  jump\t// in\ntag_125:\n    /* \"#utility.yul\":6805:7326   */\n  swap5\n  swap4\n  pop\n  pop\n  pop\n  pop\n  jump\t// out\n    /* \"contracts/todolist.sol\":60:1703  contract TodoList {... */\ntag_6:\n  dataSize(sub_0)\n  dup1\n  dataOffset(sub_0)\n  0x00\n  codecopy\n  0x00\n  return\nstop\n\nsub_0: assembly {\n        /* \"contracts/todolist.sol\":60:1703  contract TodoList {... */\n      mstore(0x40, 0x80)\n      callvalue\n      dup1\n      iszero\n      tag_1\n      jumpi\n      0x00\n      dup1\n      revert\n    tag_1:\n      pop\n      jumpi(tag_2, lt(calldatasize, 0x04))\n      shr(0xe0, calldataload(0x00))\n      dup1\n      0x111002aa\n      eq\n      tag_3\n      jumpi\n      dup1\n      0x455f5024\n      eq\n      tag_4\n      jumpi\n      dup1\n      0x560f3192\n      eq\n      tag_5\n      jumpi\n      dup1\n      0x86533f6c\n      eq\n      tag_6\n      jumpi\n      dup1\n      0x8d977672\n      eq\n      tag_7\n      jumpi\n      dup1\n      0xb6cb58a5\n      eq\n      tag_8\n      jumpi\n    tag_2:\n      0x00\n      dup1\n      revert\n        /* \"contracts/todolist.sol\":686:892  function createTask(string memory _content) public {... */\n    tag_3:\n      tag_9\n      0x04\n      dup1\n      calldatasize\n      sub\n      dup2\n      add\n      swap1\n      tag_10\n      swap2\n      swap1\n      tag_11\n      jump\t// in\n    tag_10:\n      tag_12\n      jump\t// in\n    tag_9:\n      stop\n        /* \"contracts/todolist.sol\":900:1147  function toggleCompleted(uint _id) public {... */\n    tag_4:\n      tag_13\n      0x04\n      dup1\n      calldatasize\n      sub\n      dup2\n      add\n      swap1\n      tag_14\n      swap2\n      swap1\n      tag_15\n      jump\t// in\n    tag_14:\n      tag_16\n      jump\t// in\n    tag_13:\n      stop\n        /* \"contracts/todolist.sol\":1483:1700  function deleteTask(uint _id) public {... */\n    tag_5:\n      tag_17\n      0x04\n      dup1\n      calldatasize\n      sub\n      dup2\n      add\n      swap1\n      tag_18\n      swap2\n      swap1\n      tag_15\n      jump\t// in\n    tag_18:\n      tag_19\n      jump\t// in\n    tag_17:\n      stop\n        /* \"contracts/todolist.sol\":1155:1475  function updateTask(uint _id, string memory _content) public {... */\n    tag_6:\n      tag_20\n      0x04\n      dup1\n      calldatasize\n      sub\n      dup2\n      add\n      swap1\n      tag_21\n      swap2\n      swap1\n      tag_22\n      jump\t// in\n    tag_21:\n      tag_23\n      jump\t// in\n    tag_20:\n      stop\n        /* \"contracts/todolist.sol\":270:304  mapping(uint => Task) public tasks */\n    tag_7:\n      tag_24\n      0x04\n      dup1\n      calldatasize\n      sub\n      dup2\n      add\n      swap1\n      tag_25\n      swap2\n      swap1\n      tag_15\n      jump\t// in\n    tag_25:\n      tag_26\n      jump\t// in\n    tag_24:\n      mload(0x40)\n      tag_27\n      swap5\n      swap4\n      swap3\n      swap2\n      swap1\n      tag_28\n      jump\t// in\n    tag_27:\n      mload(0x40)\n      dup1\n      swap2\n      sub\n      swap1\n      return\n        /* \"contracts/todolist.sol\":85:110  uint public taskCount = 0 */\n    tag_8:\n      tag_29\n      tag_30\n      jump\t// in\n    tag_29:\n      mload(0x40)\n      tag_31\n      swap2\n      swap1\n      tag_32\n      jump\t// in\n    tag_31:\n      mload(0x40)\n      dup1\n      swap2\n      sub\n      swap1\n      return\n        /* \"contracts/todolist.sol\":686:892  function createTask(string memory _content) public {... */\n    tag_12:\n        /* \"contracts/todolist.sol\":748:757  taskCount */\n      0x00\n      dup1\n        /* \"contracts/todolist.sol\":748:760  taskCount ++ */\n      dup2\n      sload\n      dup1\n      swap3\n      swap2\n      swap1\n      tag_34\n      swap1\n      tag_35\n      jump\t// in\n    tag_34:\n      swap2\n      swap1\n      pop\n      sstore\n      pop\n        /* \"contracts/todolist.sol\":790:829  Task(taskCount, _content, false, false) */\n      mload(0x40)\n      dup1\n      0x80\n      add\n      0x40\n      mstore\n      dup1\n        /* \"contracts/todolist.sol\":795:804  taskCount */\n      sload(0x00)\n        /* \"contracts/todolist.sol\":790:829  Task(taskCount, _content, false, false) */\n      dup2\n      mstore\n      0x20\n      add\n        /* \"contracts/todolist.sol\":806:814  _content */\n      dup3\n        /* \"contracts/todolist.sol\":790:829  Task(taskCount, _content, false, false) */\n      dup2\n      mstore\n      0x20\n      add\n        /* \"contracts/todolist.sol\":816:821  false */\n      0x00\n        /* \"contracts/todolist.sol\":790:829  Task(taskCount, _content, false, false) */\n      iszero\n      iszero\n      dup2\n      mstore\n      0x20\n      add\n        /* \"contracts/todolist.sol\":823:828  false */\n      0x00\n        /* \"contracts/todolist.sol\":790:829  Task(taskCount, _content, false, false) */\n      iszero\n      iszero\n      dup2\n      mstore\n      pop\n        /* \"contracts/todolist.sol\":771:776  tasks */\n      0x01\n        /* \"contracts/todolist.sol\":771:787  tasks[taskCount] */\n      0x00\n        /* \"contracts/todolist.sol\":777:786  taskCount */\n      dup1\n      sload\n        /* \"contracts/todolist.sol\":771:787  tasks[taskCount] */\n      dup2\n      mstore\n      0x20\n      add\n      swap1\n      dup2\n      mstore\n      0x20\n      add\n      0x00\n      keccak256\n        /* \"contracts/todolist.sol\":771:829  tasks[taskCount] = Task(taskCount, _content, false, false) */\n      0x00\n      dup3\n      add\n      mload\n      dup2\n      0x00\n      add\n      sstore\n      0x20\n      dup3\n      add\n      mload\n      dup2\n      0x01\n      add\n      swap1\n      dup2\n      tag_36\n      swap2\n      swap1\n      tag_37\n      jump\t// in\n    tag_36:\n      pop\n      0x40\n      dup3\n      add\n      mload\n      dup2\n      0x02\n      add\n      exp(0x0100, 0x00)\n      dup2\n      sload\n      dup2\n      0xff\n      mul\n      not\n      and\n      swap1\n      dup4\n      iszero\n      iszero\n      mul\n      or\n      swap1\n      sstore\n      pop\n      0x60\n      dup3\n      add\n      mload\n      dup2\n      0x02\n      add\n      exp(0x0100, 0x01)\n      dup2\n      sload\n      dup2\n      0xff\n      mul\n      not\n      and\n      swap1\n      dup4\n      iszero\n      iszero\n      mul\n      or\n      swap1\n      sstore\n      pop\n      swap1\n      pop\n      pop\n        /* \"contracts/todolist.sol\":845:884  TaskCreated(taskCount, _content, false) */\n      0x05d0fb833127fc08168556d0e7ca9554fc3f6bc843b3b7d2bf1c35aea6bab660\n        /* \"contracts/todolist.sol\":857:866  taskCount */\n      sload(0x00)\n        /* \"contracts/todolist.sol\":868:876  _content */\n      dup3\n        /* \"contracts/todolist.sol\":878:883  false */\n      0x00\n        /* \"contracts/todolist.sol\":845:884  TaskCreated(taskCount, _content, false) */\n      mload(0x40)\n      tag_38\n      swap4\n      swap3\n      swap2\n      swap1\n      tag_39\n      jump\t// in\n    tag_38:\n      mload(0x40)\n      dup1\n      swap2\n      sub\n      swap1\n      log1\n        /* \"contracts/todolist.sol\":686:892  function createTask(string memory _content) public {... */\n      pop\n      jump\t// out\n        /* \"contracts/todolist.sol\":900:1147  function toggleCompleted(uint _id) public {... */\n    tag_16:\n        /* \"contracts/todolist.sol\":953:971  Task storage _task */\n      0x00\n        /* \"contracts/todolist.sol\":974:979  tasks */\n      0x01\n        /* \"contracts/todolist.sol\":974:984  tasks[_id] */\n      0x00\n        /* \"contracts/todolist.sol\":980:983  _id */\n      dup4\n        /* \"contracts/todolist.sol\":974:984  tasks[_id] */\n      dup2\n      mstore\n      0x20\n      add\n      swap1\n      dup2\n      mstore\n      0x20\n      add\n      0x00\n      keccak256\n        /* \"contracts/todolist.sol\":953:984  Task storage _task = tasks[_id] */\n      swap1\n      pop\n        /* \"contracts/todolist.sol\":1004:1009  _task */\n      dup1\n        /* \"contracts/todolist.sol\":1004:1017  _task.deleted */\n      0x02\n      add\n      0x01\n      swap1\n      sload\n      swap1\n      0x0100\n      exp\n      swap1\n      div\n      0xff\n      and\n        /* \"contracts/todolist.sol\":1003:1017  !_task.deleted */\n      iszero\n        /* \"contracts/todolist.sol\":995:1043  require(!_task.deleted, \"Task has been deleted\") */\n      tag_41\n      jumpi\n      mload(0x40)\n      0x08c379a000000000000000000000000000000000000000000000000000000000\n      dup2\n      mstore\n      0x04\n      add\n      tag_42\n      swap1\n      tag_43\n      jump\t// in\n    tag_42:\n      mload(0x40)\n      dup1\n      swap2\n      sub\n      swap1\n      revert\n    tag_41:\n        /* \"contracts/todolist.sol\":1073:1078  _task */\n      dup1\n        /* \"contracts/todolist.sol\":1073:1088  _task.completed */\n      0x02\n      add\n      0x00\n      swap1\n      sload\n      swap1\n      0x0100\n      exp\n      swap1\n      div\n      0xff\n      and\n        /* \"contracts/todolist.sol\":1072:1088  !_task.completed */\n      iszero\n        /* \"contracts/todolist.sol\":1054:1059  _task */\n      dup2\n        /* \"contracts/todolist.sol\":1054:1069  _task.completed */\n      0x02\n      add\n      0x00\n        /* \"contracts/todolist.sol\":1054:1088  _task.completed = !_task.completed */\n      0x0100\n      exp\n      dup2\n      sload\n      dup2\n      0xff\n      mul\n      not\n      and\n      swap1\n      dup4\n      iszero\n      iszero\n      mul\n      or\n      swap1\n      sstore\n      pop\n        /* \"contracts/todolist.sol\":1104:1139  TaskCompleted(_id, _task.completed) */\n      0xe21fa966ca5cd02748c0752352d18c48165e61cb55b4c29cccf924b5a95fcff1\n        /* \"contracts/todolist.sol\":1118:1121  _id */\n      dup3\n        /* \"contracts/todolist.sol\":1123:1128  _task */\n      dup3\n        /* \"contracts/todolist.sol\":1123:1138  _task.completed */\n      0x02\n      add\n      0x00\n      swap1\n      sload\n      swap1\n      0x0100\n      exp\n      swap1\n      div\n      0xff\n      and\n        /* \"contracts/todolist.sol\":1104:1139  TaskCompleted(_id, _task.completed) */\n      mload(0x40)\n      tag_44\n      swap3\n      swap2\n      swap1\n      tag_45\n      jump\t// in\n    tag_44:\n      mload(0x40)\n      dup1\n      swap2\n      sub\n      swap1\n      log1\n        /* \"contracts/todolist.sol\":942:1147  {... */\n      pop\n        /* \"contracts/todolist.sol\":900:1147  function toggleCompleted(uint _id) public {... */\n      pop\n      jump\t// out\n        /* \"contracts/todolist.sol\":1483:1700  function deleteTask(uint _id) public {... */\n    tag_19:\n        /* \"contracts/todolist.sol\":1531:1549  Task storage _task */\n      0x00\n        /* \"contracts/todolist.sol\":1552:1557  tasks */\n      0x01\n        /* \"contracts/todolist.sol\":1552:1562  tasks[_id] */\n      0x00\n        /* \"contracts/todolist.sol\":1558:1561  _id */\n      dup4\n        /* \"contracts/todolist.sol\":1552:1562  tasks[_id] */\n      dup2\n      mstore\n      0x20\n      add\n      swap1\n      dup2\n      mstore\n      0x20\n      add\n      0x00\n      keccak256\n        /* \"contracts/todolist.sol\":1531:1562  Task storage _task = tasks[_id] */\n      swap1\n      pop\n        /* \"contracts/todolist.sol\":1582:1587  _task */\n      dup1\n        /* \"contracts/todolist.sol\":1582:1595  _task.deleted */\n      0x02\n      add\n      0x01\n      swap1\n      sload\n      swap1\n      0x0100\n      exp\n      swap1\n      div\n      0xff\n      and\n        /* \"contracts/todolist.sol\":1581:1595  !_task.deleted */\n      iszero\n        /* \"contracts/todolist.sol\":1573:1629  require(!_task.deleted, \"Task has already been deleted\") */\n      tag_47\n      jumpi\n      mload(0x40)\n      0x08c379a000000000000000000000000000000000000000000000000000000000\n      dup2\n      mstore\n      0x04\n      add\n      tag_48\n      swap1\n      tag_49\n      jump\t// in\n    tag_48:\n      mload(0x40)\n      dup1\n      swap2\n      sub\n      swap1\n      revert\n    tag_47:\n        /* \"contracts/todolist.sol\":1656:1660  true */\n      0x01\n        /* \"contracts/todolist.sol\":1640:1645  _task */\n      dup2\n        /* \"contracts/todolist.sol\":1640:1653  _task.deleted */\n      0x02\n      add\n      0x01\n        /* \"contracts/todolist.sol\":1640:1660  _task.deleted = true */\n      0x0100\n      exp\n      dup2\n      sload\n      dup2\n      0xff\n      mul\n      not\n      and\n      swap1\n      dup4\n      iszero\n      iszero\n      mul\n      or\n      swap1\n      sstore\n      pop\n        /* \"contracts/todolist.sol\":1676:1692  TaskDeleted(_id) */\n      0xd078b251d950cc55c44340be1db732337ef4939a76e1367ee271ad2cb19c46af\n        /* \"contracts/todolist.sol\":1688:1691  _id */\n      dup3\n        /* \"contracts/todolist.sol\":1676:1692  TaskDeleted(_id) */\n      mload(0x40)\n      tag_50\n      swap2\n      swap1\n      tag_32\n      jump\t// in\n    tag_50:\n      mload(0x40)\n      dup1\n      swap2\n      sub\n      swap1\n      log1\n        /* \"contracts/todolist.sol\":1520:1700  {... */\n      pop\n        /* \"contracts/todolist.sol\":1483:1700  function deleteTask(uint _id) public {... */\n      pop\n      jump\t// out\n        /* \"contracts/todolist.sol\":1155:1475  function updateTask(uint _id, string memory _content) public {... */\n    tag_23:\n        /* \"contracts/todolist.sol\":1260:1261  0 */\n      0x00\n        /* \"contracts/todolist.sol\":1241:1249  _content */\n      dup2\n        /* \"contracts/todolist.sol\":1235:1257  bytes(_content).length */\n      mload\n        /* \"contracts/todolist.sol\":1235:1261  bytes(_content).length > 0 */\n      gt\n        /* \"contracts/todolist.sol\":1227:1289  require(bytes(_content).length > 0, \"Content cannot be empty\") */\n      tag_52\n      jumpi\n      mload(0x40)\n      0x08c379a000000000000000000000000000000000000000000000000000000000\n      dup2\n      mstore\n      0x04\n      add\n      tag_53\n      swap1\n      tag_54\n      jump\t// in\n    tag_53:\n      mload(0x40)\n      dup1\n      swap2\n      sub\n      swap1\n      revert\n    tag_52:\n        /* \"contracts/todolist.sol\":1300:1318  Task storage _task */\n      0x00\n        /* \"contracts/todolist.sol\":1321:1326  tasks */\n      0x01\n        /* \"contracts/todolist.sol\":1321:1331  tasks[_id] */\n      0x00\n        /* \"contracts/todolist.sol\":1327:1330  _id */\n      dup5\n        /* \"contracts/todolist.sol\":1321:1331  tasks[_id] */\n      dup2\n      mstore\n      0x20\n      add\n      swap1\n      dup2\n      mstore\n      0x20\n      add\n      0x00\n      keccak256\n        /* \"contracts/todolist.sol\":1300:1331  Task storage _task = tasks[_id] */\n      swap1\n      pop\n        /* \"contracts/todolist.sol\":1351:1356  _task */\n      dup1\n        /* \"contracts/todolist.sol\":1351:1364  _task.deleted */\n      0x02\n      add\n      0x01\n      swap1\n      sload\n      swap1\n      0x0100\n      exp\n      swap1\n      div\n      0xff\n      and\n        /* \"contracts/todolist.sol\":1350:1364  !_task.deleted */\n      iszero\n        /* \"contracts/todolist.sol\":1342:1390  require(!_task.deleted, \"Task has been deleted\") */\n      tag_55\n      jumpi\n      mload(0x40)\n      0x08c379a000000000000000000000000000000000000000000000000000000000\n      dup2\n      mstore\n      0x04\n      add\n      tag_56\n      swap1\n      tag_43\n      jump\t// in\n    tag_56:\n      mload(0x40)\n      dup1\n      swap2\n      sub\n      swap1\n      revert\n    tag_55:\n        /* \"contracts/todolist.sol\":1417:1425  _content */\n      dup2\n        /* \"contracts/todolist.sol\":1401:1406  _task */\n      dup2\n        /* \"contracts/todolist.sol\":1401:1414  _task.content */\n      0x01\n      add\n        /* \"contracts/todolist.sol\":1401:1425  _task.content = _content */\n      swap1\n      dup2\n      tag_57\n      swap2\n      swap1\n      tag_37\n      jump\t// in\n    tag_57:\n      pop\n        /* \"contracts/todolist.sol\":1441:1467  TaskUpdated(_id, _content) */\n      0xde038a66d64727fc277f5f5f3d50b98d205e4ae705bfb8ac824cea4877b9be49\n        /* \"contracts/todolist.sol\":1453:1456  _id */\n      dup4\n        /* \"contracts/todolist.sol\":1458:1466  _content */\n      dup4\n        /* \"contracts/todolist.sol\":1441:1467  TaskUpdated(_id, _content) */\n      mload(0x40)\n      tag_58\n      swap3\n      swap2\n      swap1\n      tag_59\n      jump\t// in\n    tag_58:\n      mload(0x40)\n      dup1\n      swap2\n      sub\n      swap1\n      log1\n        /* \"contracts/todolist.sol\":1216:1475  {... */\n      pop\n        /* \"contracts/todolist.sol\":1155:1475  function updateTask(uint _id, string memory _content) public {... */\n      pop\n      pop\n      jump\t// out\n        /* \"contracts/todolist.sol\":270:304  mapping(uint => Task) public tasks */\n    tag_26:\n      mstore(0x20, 0x01)\n      dup1\n      0x00\n      mstore\n      keccak256(0x00, 0x40)\n      0x00\n      swap2\n      pop\n      swap1\n      pop\n      dup1\n      0x00\n      add\n      sload\n      swap1\n      dup1\n      0x01\n      add\n      dup1\n      sload\n      tag_60\n      swap1\n      tag_61\n      jump\t// in\n    tag_60:\n      dup1\n      0x1f\n      add\n      0x20\n      dup1\n      swap2\n      div\n      mul\n      0x20\n      add\n      mload(0x40)\n      swap1\n      dup2\n      add\n      0x40\n      mstore\n      dup1\n      swap3\n      swap2\n      swap1\n      dup2\n      dup2\n      mstore\n      0x20\n      add\n      dup3\n      dup1\n      sload\n      tag_62\n      swap1\n      tag_61\n      jump\t// in\n    tag_62:\n      dup1\n      iszero\n      tag_63\n      jumpi\n      dup1\n      0x1f\n      lt\n      tag_64\n      jumpi\n      0x0100\n      dup1\n      dup4\n      sload\n      div\n      mul\n      dup4\n      mstore\n      swap2\n      0x20\n      add\n      swap2\n      jump(tag_63)\n    tag_64:\n      dup3\n      add\n      swap2\n      swap1\n      0x00\n      mstore\n      keccak256(0x00, 0x20)\n      swap1\n    tag_65:\n      dup2\n      sload\n      dup2\n      mstore\n      swap1\n      0x01\n      add\n      swap1\n      0x20\n      add\n      dup1\n      dup4\n      gt\n      tag_65\n      jumpi\n      dup3\n      swap1\n      sub\n      0x1f\n      and\n      dup3\n      add\n      swap2\n    tag_63:\n      pop\n      pop\n      pop\n      pop\n      pop\n      swap1\n      dup1\n      0x02\n      add\n      0x00\n      swap1\n      sload\n      swap1\n      0x0100\n      exp\n      swap1\n      div\n      0xff\n      and\n      swap1\n      dup1\n      0x02\n      add\n      0x01\n      swap1\n      sload\n      swap1\n      0x0100\n      exp\n      swap1\n      div\n      0xff\n      and\n      swap1\n      pop\n      dup5\n      jump\t// out\n        /* \"contracts/todolist.sol\":85:110  uint public taskCount = 0 */\n    tag_30:\n      sload(0x00)\n      dup2\n      jump\t// out\n        /* \"#utility.yul\":7:82   */\n    tag_66:\n        /* \"#utility.yul\":40:46   */\n      0x00\n        /* \"#utility.yul\":73:75   */\n      0x40\n        /* \"#utility.yul\":67:76   */\n      mload\n        /* \"#utility.yul\":57:76   */\n      swap1\n      pop\n        /* \"#utility.yul\":7:82   */\n      swap1\n      jump\t// out\n        /* \"#utility.yul\":88:205   */\n    tag_67:\n        /* \"#utility.yul\":197:198   */\n      0x00\n        /* \"#utility.yul\":194:195   */\n      dup1\n        /* \"#utility.yul\":187:199   */\n      revert\n        /* \"#utility.yul\":211:328   */\n    tag_68:\n        /* \"#utility.yul\":320:321   */\n      0x00\n        /* \"#utility.yul\":317:318   */\n      dup1\n        /* \"#utility.yul\":310:322   */\n      revert\n        /* \"#utility.yul\":334:451   */\n    tag_69:\n        /* \"#utility.yul\":443:444   */\n      0x00\n        /* \"#utility.yul\":440:441   */\n      dup1\n        /* \"#utility.yul\":433:445   */\n      revert\n        /* \"#utility.yul\":457:574   */\n    tag_70:\n        /* \"#utility.yul\":566:567   */\n      0x00\n        /* \"#utility.yul\":563:564   */\n      dup1\n        /* \"#utility.yul\":556:568   */\n      revert\n        /* \"#utility.yul\":580:682   */\n    tag_71:\n        /* \"#utility.yul\":621:627   */\n      0x00\n        /* \"#utility.yul\":672:674   */\n      0x1f\n        /* \"#utility.yul\":668:675   */\n      not\n        /* \"#utility.yul\":663:665   */\n      0x1f\n        /* \"#utility.yul\":656:661   */\n      dup4\n        /* \"#utility.yul\":652:666   */\n      add\n        /* \"#utility.yul\":648:676   */\n      and\n        /* \"#utility.yul\":638:676   */\n      swap1\n      pop\n        /* \"#utility.yul\":580:682   */\n      swap2\n      swap1\n      pop\n      jump\t// out\n        /* \"#utility.yul\":688:868   */\n    tag_72:\n        /* \"#utility.yul\":736:813   */\n      0x4e487b7100000000000000000000000000000000000000000000000000000000\n        /* \"#utility.yul\":733:734   */\n      0x00\n        /* \"#utility.yul\":726:814   */\n      mstore\n        /* \"#utility.yul\":833:837   */\n      0x41\n        /* \"#utility.yul\":830:831   */\n      0x04\n        /* \"#utility.yul\":823:838   */\n      mstore\n        /* \"#utility.yul\":857:861   */\n      0x24\n        /* \"#utility.yul\":854:855   */\n      0x00\n        /* \"#utility.yul\":847:862   */\n      revert\n        /* \"#utility.yul\":874:1155   */\n    tag_73:\n        /* \"#utility.yul\":957:984   */\n      tag_121\n        /* \"#utility.yul\":979:983   */\n      dup3\n        /* \"#utility.yul\":957:984   */\n      tag_71\n      jump\t// in\n    tag_121:\n        /* \"#utility.yul\":949:955   */\n      dup2\n        /* \"#utility.yul\":945:985   */\n      add\n        /* \"#utility.yul\":1087:1093   */\n      dup2\n        /* \"#utility.yul\":1075:1085   */\n      dup2\n        /* \"#utility.yul\":1072:1094   */\n      lt\n        /* \"#utility.yul\":1051:1069   */\n      0xffffffffffffffff\n        /* \"#utility.yul\":1039:1049   */\n      dup3\n        /* \"#utility.yul\":1036:1070   */\n      gt\n        /* \"#utility.yul\":1033:1095   */\n      or\n        /* \"#utility.yul\":1030:1118   */\n      iszero\n      tag_122\n      jumpi\n        /* \"#utility.yul\":1098:1116   */\n      tag_123\n      tag_72\n      jump\t// in\n    tag_123:\n        /* \"#utility.yul\":1030:1118   */\n    tag_122:\n        /* \"#utility.yul\":1138:1148   */\n      dup1\n        /* \"#utility.yul\":1134:1136   */\n      0x40\n        /* \"#utility.yul\":1127:1149   */\n      mstore\n        /* \"#utility.yul\":917:1155   */\n      pop\n        /* \"#utility.yul\":874:1155   */\n      pop\n      pop\n      jump\t// out\n        /* \"#utility.yul\":1161:1290   */\n    tag_74:\n        /* \"#utility.yul\":1195:1201   */\n      0x00\n        /* \"#utility.yul\":1222:1242   */\n      tag_125\n      tag_66\n      jump\t// in\n    tag_125:\n        /* \"#utility.yul\":1212:1242   */\n      swap1\n      pop\n        /* \"#utility.yul\":1251:1284   */\n      tag_126\n        /* \"#utility.yul\":1279:1283   */\n      dup3\n        /* \"#utility.yul\":1271:1277   */\n      dup3\n        /* \"#utility.yul\":1251:1284   */\n      tag_73\n      jump\t// in\n    tag_126:\n        /* \"#utility.yul\":1161:1290   */\n      swap2\n      swap1\n      pop\n      jump\t// out\n        /* \"#utility.yul\":1296:1604   */\n    tag_75:\n        /* \"#utility.yul\":1358:1362   */\n      0x00\n        /* \"#utility.yul\":1448:1466   */\n      0xffffffffffffffff\n        /* \"#utility.yul\":1440:1446   */\n      dup3\n        /* \"#utility.yul\":1437:1467   */\n      gt\n        /* \"#utility.yul\":1434:1490   */\n      iszero\n      tag_128\n      jumpi\n        /* \"#utility.yul\":1470:1488   */\n      tag_129\n      tag_72\n      jump\t// in\n    tag_129:\n        /* \"#utility.yul\":1434:1490   */\n    tag_128:\n        /* \"#utility.yul\":1508:1537   */\n      tag_130\n        /* \"#utility.yul\":1530:1536   */\n      dup3\n        /* \"#utility.yul\":1508:1537   */\n      tag_71\n      jump\t// in\n    tag_130:\n        /* \"#utility.yul\":1500:1537   */\n      swap1\n      pop\n        /* \"#utility.yul\":1592:1596   */\n      0x20\n        /* \"#utility.yul\":1586:1590   */\n      dup2\n        /* \"#utility.yul\":1582:1597   */\n      add\n        /* \"#utility.yul\":1574:1597   */\n      swap1\n      pop\n        /* \"#utility.yul\":1296:1604   */\n      swap2\n      swap1\n      pop\n      jump\t// out\n        /* \"#utility.yul\":1610:1758   */\n    tag_76:\n        /* \"#utility.yul\":1708:1714   */\n      dup3\n        /* \"#utility.yul\":1703:1706   */\n      dup2\n        /* \"#utility.yul\":1698:1701   */\n      dup4\n        /* \"#utility.yul\":1685:1715   */\n      calldatacopy\n        /* \"#utility.yul\":1749:1750   */\n      0x00\n        /* \"#utility.yul\":1740:1746   */\n      dup4\n        /* \"#utility.yul\":1735:1738   */\n      dup4\n        /* \"#utility.yul\":1731:1747   */\n      add\n        /* \"#utility.yul\":1724:1751   */\n      mstore\n        /* \"#utility.yul\":1610:1758   */\n      pop\n      pop\n      pop\n      jump\t// out\n        /* \"#utility.yul\":1764:2189   */\n    tag_77:\n        /* \"#utility.yul\":1842:1847   */\n      0x00\n        /* \"#utility.yul\":1867:1933   */\n      tag_133\n        /* \"#utility.yul\":1883:1932   */\n      tag_134\n        /* \"#utility.yul\":1925:1931   */\n      dup5\n        /* \"#utility.yul\":1883:1932   */\n      tag_75\n      jump\t// in\n    tag_134:\n        /* \"#utility.yul\":1867:1933   */\n      tag_74\n      jump\t// in\n    tag_133:\n        /* \"#utility.yul\":1858:1933   */\n      swap1\n      pop\n        /* \"#utility.yul\":1956:1962   */\n      dup3\n        /* \"#utility.yul\":1949:1954   */\n      dup2\n        /* \"#utility.yul\":1942:1963   */\n      mstore\n        /* \"#utility.yul\":1994:1998   */\n      0x20\n        /* \"#utility.yul\":1987:1992   */\n      dup2\n        /* \"#utility.yul\":1983:1999   */\n      add\n        /* \"#utility.yul\":2032:2035   */\n      dup5\n        /* \"#utility.yul\":2023:2029   */\n      dup5\n        /* \"#utility.yul\":2018:2021   */\n      dup5\n        /* \"#utility.yul\":2014:2030   */\n      add\n        /* \"#utility.yul\":2011:2036   */\n      gt\n        /* \"#utility.yul\":2008:2120   */\n      iszero\n      tag_135\n      jumpi\n        /* \"#utility.yul\":2039:2118   */\n      tag_136\n      tag_70\n      jump\t// in\n    tag_136:\n        /* \"#utility.yul\":2008:2120   */\n    tag_135:\n        /* \"#utility.yul\":2129:2183   */\n      tag_137\n        /* \"#utility.yul\":2176:2182   */\n      dup5\n        /* \"#utility.yul\":2171:2174   */\n      dup3\n        /* \"#utility.yul\":2166:2169   */\n      dup6\n        /* \"#utility.yul\":2129:2183   */\n      tag_76\n      jump\t// in\n    tag_137:\n        /* \"#utility.yul\":1848:2189   */\n      pop\n        /* \"#utility.yul\":1764:2189   */\n      swap4\n      swap3\n      pop\n      pop\n      pop\n      jump\t// out\n        /* \"#utility.yul\":2209:2549   */\n    tag_78:\n        /* \"#utility.yul\":2265:2270   */\n      0x00\n        /* \"#utility.yul\":2314:2317   */\n      dup3\n        /* \"#utility.yul\":2307:2311   */\n      0x1f\n        /* \"#utility.yul\":2299:2305   */\n      dup4\n        /* \"#utility.yul\":2295:2312   */\n      add\n        /* \"#utility.yul\":2291:2318   */\n      slt\n        /* \"#utility.yul\":2281:2403   */\n      tag_139\n      jumpi\n        /* \"#utility.yul\":2322:2401   */\n      tag_140\n      tag_69\n      jump\t// in\n    tag_140:\n        /* \"#utility.yul\":2281:2403   */\n    tag_139:\n        /* \"#utility.yul\":2439:2445   */\n      dup2\n        /* \"#utility.yul\":2426:2446   */\n      calldataload\n        /* \"#utility.yul\":2464:2543   */\n      tag_141\n        /* \"#utility.yul\":2539:2542   */\n      dup5\n        /* \"#utility.yul\":2531:2537   */\n      dup3\n        /* \"#utility.yul\":2524:2528   */\n      0x20\n        /* \"#utility.yul\":2516:2522   */\n      dup7\n        /* \"#utility.yul\":2512:2529   */\n      add\n        /* \"#utility.yul\":2464:2543   */\n      tag_77\n      jump\t// in\n    tag_141:\n        /* \"#utility.yul\":2455:2543   */\n      swap2\n      pop\n        /* \"#utility.yul\":2271:2549   */\n      pop\n        /* \"#utility.yul\":2209:2549   */\n      swap3\n      swap2\n      pop\n      pop\n      jump\t// out\n        /* \"#utility.yul\":2555:3064   */\n    tag_11:\n        /* \"#utility.yul\":2624:2630   */\n      0x00\n        /* \"#utility.yul\":2673:2675   */\n      0x20\n        /* \"#utility.yul\":2661:2670   */\n      dup3\n        /* \"#utility.yul\":2652:2659   */\n      dup5\n        /* \"#utility.yul\":2648:2671   */\n      sub\n        /* \"#utility.yul\":2644:2676   */\n      slt\n        /* \"#utility.yul\":2641:2760   */\n      iszero\n      tag_143\n      jumpi\n        /* \"#utility.yul\":2679:2758   */\n      tag_144\n      tag_67\n      jump\t// in\n    tag_144:\n        /* \"#utility.yul\":2641:2760   */\n    tag_143:\n        /* \"#utility.yul\":2827:2828   */\n      0x00\n        /* \"#utility.yul\":2816:2825   */\n      dup3\n        /* \"#utility.yul\":2812:2829   */\n      add\n        /* \"#utility.yul\":2799:2830   */\n      calldataload\n        /* \"#utility.yul\":2857:2875   */\n      0xffffffffffffffff\n        /* \"#utility.yul\":2849:2855   */\n      dup2\n        /* \"#utility.yul\":2846:2876   */\n      gt\n        /* \"#utility.yul\":2843:2960   */\n      iszero\n      tag_145\n      jumpi\n        /* \"#utility.yul\":2879:2958   */\n      tag_146\n      tag_68\n      jump\t// in\n    tag_146:\n        /* \"#utility.yul\":2843:2960   */\n    tag_145:\n        /* \"#utility.yul\":2984:3047   */\n      tag_147\n        /* \"#utility.yul\":3039:3046   */\n      dup5\n        /* \"#utility.yul\":3030:3036   */\n      dup3\n        /* \"#utility.yul\":3019:3028   */\n      dup6\n        /* \"#utility.yul\":3015:3037   */\n      add\n        /* \"#utility.yul\":2984:3047   */\n      tag_78\n      jump\t// in\n    tag_147:\n        /* \"#utility.yul\":2974:3047   */\n      swap2\n      pop\n        /* \"#utility.yul\":2770:3057   */\n      pop\n        /* \"#utility.yul\":2555:3064   */\n      swap3\n      swap2\n      pop\n      pop\n      jump\t// out\n        /* \"#utility.yul\":3070:3147   */\n    tag_79:\n        /* \"#utility.yul\":3107:3114   */\n      0x00\n        /* \"#utility.yul\":3136:3141   */\n      dup2\n        /* \"#utility.yul\":3125:3141   */\n      swap1\n      pop\n        /* \"#utility.yul\":3070:3147   */\n      swap2\n      swap1\n      pop\n      jump\t// out\n        /* \"#utility.yul\":3153:3275   */\n    tag_80:\n        /* \"#utility.yul\":3226:3250   */\n      tag_150\n        /* \"#utility.yul\":3244:3249   */\n      dup2\n        /* \"#utility.yul\":3226:3250   */\n      tag_79\n      jump\t// in\n    tag_150:\n        /* \"#utility.yul\":3219:3224   */\n      dup2\n        /* \"#utility.yul\":3216:3251   */\n      eq\n        /* \"#utility.yul\":3206:3269   */\n      tag_151\n      jumpi\n        /* \"#utility.yul\":3265:3266   */\n      0x00\n        /* \"#utility.yul\":3262:3263   */\n      dup1\n        /* \"#utility.yul\":3255:3267   */\n      revert\n        /* \"#utility.yul\":3206:3269   */\n    tag_151:\n        /* \"#utility.yul\":3153:3275   */\n      pop\n      jump\t// out\n        /* \"#utility.yul\":3281:3420   */\n    tag_81:\n        /* \"#utility.yul\":3327:3332   */\n      0x00\n        /* \"#utility.yul\":3365:3371   */\n      dup2\n        /* \"#utility.yul\":3352:3372   */\n      calldataload\n        /* \"#utility.yul\":3343:3372   */\n      swap1\n      pop\n        /* \"#utility.yul\":3381:3414   */\n      tag_153\n        /* \"#utility.yul\":3408:3413   */\n      dup2\n        /* \"#utility.yul\":3381:3414   */\n      tag_80\n      jump\t// in\n    tag_153:\n        /* \"#utility.yul\":3281:3420   */\n      swap3\n      swap2\n      pop\n      pop\n      jump\t// out\n        /* \"#utility.yul\":3426:3755   */\n    tag_15:\n        /* \"#utility.yul\":3485:3491   */\n      0x00\n        /* \"#utility.yul\":3534:3536   */\n      0x20\n        /* \"#utility.yul\":3522:3531   */\n      dup3\n        /* \"#utility.yul\":3513:3520   */\n      dup5\n        /* \"#utility.yul\":3509:3532   */\n      sub\n        /* \"#utility.yul\":3505:3537   */\n      slt\n        /* \"#utility.yul\":3502:3621   */\n      iszero\n      tag_155\n      jumpi\n        /* \"#utility.yul\":3540:3619   */\n      tag_156\n      tag_67\n      jump\t// in\n    tag_156:\n        /* \"#utility.yul\":3502:3621   */\n    tag_155:\n        /* \"#utility.yul\":3660:3661   */\n      0x00\n        /* \"#utility.yul\":3685:3738   */\n      tag_157\n        /* \"#utility.yul\":3730:3737   */\n      dup5\n        /* \"#utility.yul\":3721:3727   */\n      dup3\n        /* \"#utility.yul\":3710:3719   */\n      dup6\n        /* \"#utility.yul\":3706:3728   */\n      add\n        /* \"#utility.yul\":3685:3738   */\n      tag_81\n      jump\t// in\n    tag_157:\n        /* \"#utility.yul\":3675:3738   */\n      swap2\n      pop\n        /* \"#utility.yul\":3631:3748   */\n      pop\n        /* \"#utility.yul\":3426:3755   */\n      swap3\n      swap2\n      pop\n      pop\n      jump\t// out\n        /* \"#utility.yul\":3761:4415   */\n    tag_22:\n        /* \"#utility.yul\":3839:3845   */\n      0x00\n        /* \"#utility.yul\":3847:3853   */\n      dup1\n        /* \"#utility.yul\":3896:3898   */\n      0x40\n        /* \"#utility.yul\":3884:3893   */\n      dup4\n        /* \"#utility.yul\":3875:3882   */\n      dup6\n        /* \"#utility.yul\":3871:3894   */\n      sub\n        /* \"#utility.yul\":3867:3899   */\n      slt\n        /* \"#utility.yul\":3864:3983   */\n      iszero\n      tag_159\n      jumpi\n        /* \"#utility.yul\":3902:3981   */\n      tag_160\n      tag_67\n      jump\t// in\n    tag_160:\n        /* \"#utility.yul\":3864:3983   */\n    tag_159:\n        /* \"#utility.yul\":4022:4023   */\n      0x00\n        /* \"#utility.yul\":4047:4100   */\n      tag_161\n        /* \"#utility.yul\":4092:4099   */\n      dup6\n        /* \"#utility.yul\":4083:4089   */\n      dup3\n        /* \"#utility.yul\":4072:4081   */\n      dup7\n        /* \"#utility.yul\":4068:4090   */\n      add\n        /* \"#utility.yul\":4047:4100   */\n      tag_81\n      jump\t// in\n    tag_161:\n        /* \"#utility.yul\":4037:4100   */\n      swap3\n      pop\n        /* \"#utility.yul\":3993:4110   */\n      pop\n        /* \"#utility.yul\":4177:4179   */\n      0x20\n        /* \"#utility.yul\":4166:4175   */\n      dup4\n        /* \"#utility.yul\":4162:4180   */\n      add\n        /* \"#utility.yul\":4149:4181   */\n      calldataload\n        /* \"#utility.yul\":4208:4226   */\n      0xffffffffffffffff\n        /* \"#utility.yul\":4200:4206   */\n      dup2\n        /* \"#utility.yul\":4197:4227   */\n      gt\n        /* \"#utility.yul\":4194:4311   */\n      iszero\n      tag_162\n      jumpi\n        /* \"#utility.yul\":4230:4309   */\n      tag_163\n      tag_68\n      jump\t// in\n    tag_163:\n        /* \"#utility.yul\":4194:4311   */\n    tag_162:\n        /* \"#utility.yul\":4335:4398   */\n      tag_164\n        /* \"#utility.yul\":4390:4397   */\n      dup6\n        /* \"#utility.yul\":4381:4387   */\n      dup3\n        /* \"#utility.yul\":4370:4379   */\n      dup7\n        /* \"#utility.yul\":4366:4388   */\n      add\n        /* \"#utility.yul\":4335:4398   */\n      tag_78\n      jump\t// in\n    tag_164:\n        /* \"#utility.yul\":4325:4398   */\n      swap2\n      pop\n        /* \"#utility.yul\":4120:4408   */\n      pop\n        /* \"#utility.yul\":3761:4415   */\n      swap3\n      pop\n      swap3\n      swap1\n      pop\n      jump\t// out\n        /* \"#utility.yul\":4421:4539   */\n    tag_82:\n        /* \"#utility.yul\":4508:4532   */\n      tag_166\n        /* \"#utility.yul\":4526:4531   */\n      dup2\n        /* \"#utility.yul\":4508:4532   */\n      tag_79\n      jump\t// in\n    tag_166:\n        /* \"#utility.yul\":4503:4506   */\n      dup3\n        /* \"#utility.yul\":4496:4533   */\n      mstore\n        /* \"#utility.yul\":4421:4539   */\n      pop\n      pop\n      jump\t// out\n        /* \"#utility.yul\":4545:4644   */\n    tag_83:\n        /* \"#utility.yul\":4597:4603   */\n      0x00\n        /* \"#utility.yul\":4631:4636   */\n      dup2\n        /* \"#utility.yul\":4625:4637   */\n      mload\n        /* \"#utility.yul\":4615:4637   */\n      swap1\n      pop\n        /* \"#utility.yul\":4545:4644   */\n      swap2\n      swap1\n      pop\n      jump\t// out\n        /* \"#utility.yul\":4650:4819   */\n    tag_84:\n        /* \"#utility.yul\":4734:4745   */\n      0x00\n        /* \"#utility.yul\":4768:4774   */\n      dup3\n        /* \"#utility.yul\":4763:4766   */\n      dup3\n        /* \"#utility.yul\":4756:4775   */\n      mstore\n        /* \"#utility.yul\":4808:4812   */\n      0x20\n        /* \"#utility.yul\":4803:4806   */\n      dup3\n        /* \"#utility.yul\":4799:4813   */\n      add\n        /* \"#utility.yul\":4784:4813   */\n      swap1\n      pop\n        /* \"#utility.yul\":4650:4819   */\n      swap3\n      swap2\n      pop\n      pop\n      jump\t// out\n        /* \"#utility.yul\":4825:4964   */\n    tag_85:\n        /* \"#utility.yul\":4914:4920   */\n      dup3\n        /* \"#utility.yul\":4909:4912   */\n      dup2\n        /* \"#utility.yul\":4904:4907   */\n      dup4\n        /* \"#utility.yul\":4898:4921   */\n      mcopy\n        /* \"#utility.yul\":4955:4956   */\n      0x00\n        /* \"#utility.yul\":4946:4952   */\n      dup4\n        /* \"#utility.yul\":4941:4944   */\n      dup4\n        /* \"#utility.yul\":4937:4953   */\n      add\n        /* \"#utility.yul\":4930:4957   */\n      mstore\n        /* \"#utility.yul\":4825:4964   */\n      pop\n      pop\n      pop\n      jump\t// out\n        /* \"#utility.yul\":4970:5347   */\n    tag_86:\n        /* \"#utility.yul\":5058:5061   */\n      0x00\n        /* \"#utility.yul\":5086:5125   */\n      tag_171\n        /* \"#utility.yul\":5119:5124   */\n      dup3\n        /* \"#utility.yul\":5086:5125   */\n      tag_83\n      jump\t// in\n    tag_171:\n        /* \"#utility.yul\":5141:5212   */\n      tag_172\n        /* \"#utility.yul\":5205:5211   */\n      dup2\n        /* \"#utility.yul\":5200:5203   */\n      dup6\n        /* \"#utility.yul\":5141:5212   */\n      tag_84\n      jump\t// in\n    tag_172:\n        /* \"#utility.yul\":5134:5212   */\n      swap4\n      pop\n        /* \"#utility.yul\":5221:5286   */\n      tag_173\n        /* \"#utility.yul\":5279:5285   */\n      dup2\n        /* \"#utility.yul\":5274:5277   */\n      dup6\n        /* \"#utility.yul\":5267:5271   */\n      0x20\n        /* \"#utility.yul\":5260:5265   */\n      dup7\n        /* \"#utility.yul\":5256:5272   */\n      add\n        /* \"#utility.yul\":5221:5286   */\n      tag_85\n      jump\t// in\n    tag_173:\n        /* \"#utility.yul\":5311:5340   */\n      tag_174\n        /* \"#utility.yul\":5333:5339   */\n      dup2\n        /* \"#utility.yul\":5311:5340   */\n      tag_71\n      jump\t// in\n    tag_174:\n        /* \"#utility.yul\":5306:5309   */\n      dup5\n        /* \"#utility.yul\":5302:5341   */\n      add\n        /* \"#utility.yul\":5295:5341   */\n      swap2\n      pop\n        /* \"#utility.yul\":5062:5347   */\n      pop\n        /* \"#utility.yul\":4970:5347   */\n      swap3\n      swap2\n      pop\n      pop\n      jump\t// out\n        /* \"#utility.yul\":5353:5443   */\n    tag_87:\n        /* \"#utility.yul\":5387:5394   */\n      0x00\n        /* \"#utility.yul\":5430:5435   */\n      dup2\n        /* \"#utility.yul\":5423:5436   */\n      iszero\n        /* \"#utility.yul\":5416:5437   */\n      iszero\n        /* \"#utility.yul\":5405:5437   */\n      swap1\n      pop\n        /* \"#utility.yul\":5353:5443   */\n      swap2\n      swap1\n      pop\n      jump\t// out\n        /* \"#utility.yul\":5449:5558   */\n    tag_88:\n        /* \"#utility.yul\":5530:5551   */\n      tag_177\n        /* \"#utility.yul\":5545:5550   */\n      dup2\n        /* \"#utility.yul\":5530:5551   */\n      tag_87\n      jump\t// in\n    tag_177:\n        /* \"#utility.yul\":5525:5528   */\n      dup3\n        /* \"#utility.yul\":5518:5552   */\n      mstore\n        /* \"#utility.yul\":5449:5558   */\n      pop\n      pop\n      jump\t// out\n        /* \"#utility.yul\":5564:6184   */\n    tag_28:\n        /* \"#utility.yul\":5749:5753   */\n      0x00\n        /* \"#utility.yul\":5787:5790   */\n      0x80\n        /* \"#utility.yul\":5776:5785   */\n      dup3\n        /* \"#utility.yul\":5772:5791   */\n      add\n        /* \"#utility.yul\":5764:5791   */\n      swap1\n      pop\n        /* \"#utility.yul\":5801:5872   */\n      tag_179\n        /* \"#utility.yul\":5869:5870   */\n      0x00\n        /* \"#utility.yul\":5858:5867   */\n      dup4\n        /* \"#utility.yul\":5854:5871   */\n      add\n        /* \"#utility.yul\":5845:5851   */\n      dup8\n        /* \"#utility.yul\":5801:5872   */\n      tag_82\n      jump\t// in\n    tag_179:\n        /* \"#utility.yul\":5919:5928   */\n      dup2\n        /* \"#utility.yul\":5913:5917   */\n      dup2\n        /* \"#utility.yul\":5909:5929   */\n      sub\n        /* \"#utility.yul\":5904:5906   */\n      0x20\n        /* \"#utility.yul\":5893:5902   */\n      dup4\n        /* \"#utility.yul\":5889:5907   */\n      add\n        /* \"#utility.yul\":5882:5930   */\n      mstore\n        /* \"#utility.yul\":5947:6025   */\n      tag_180\n        /* \"#utility.yul\":6020:6024   */\n      dup2\n        /* \"#utility.yul\":6011:6017   */\n      dup7\n        /* \"#utility.yul\":5947:6025   */\n      tag_86\n      jump\t// in\n    tag_180:\n        /* \"#utility.yul\":5939:6025   */\n      swap1\n      pop\n        /* \"#utility.yul\":6035:6101   */\n      tag_181\n        /* \"#utility.yul\":6097:6099   */\n      0x40\n        /* \"#utility.yul\":6086:6095   */\n      dup4\n        /* \"#utility.yul\":6082:6100   */\n      add\n        /* \"#utility.yul\":6073:6079   */\n      dup6\n        /* \"#utility.yul\":6035:6101   */\n      tag_88\n      jump\t// in\n    tag_181:\n        /* \"#utility.yul\":6111:6177   */\n      tag_182\n        /* \"#utility.yul\":6173:6175   */\n      0x60\n        /* \"#utility.yul\":6162:6171   */\n      dup4\n        /* \"#utility.yul\":6158:6176   */\n      add\n        /* \"#utility.yul\":6149:6155   */\n      dup5\n        /* \"#utility.yul\":6111:6177   */\n      tag_88\n      jump\t// in\n    tag_182:\n        /* \"#utility.yul\":5564:6184   */\n      swap6\n      swap5\n      pop\n      pop\n      pop\n      pop\n      pop\n      jump\t// out\n        /* \"#utility.yul\":6190:6412   */\n    tag_32:\n        /* \"#utility.yul\":6283:6287   */\n      0x00\n        /* \"#utility.yul\":6321:6323   */\n      0x20\n        /* \"#utility.yul\":6310:6319   */\n      dup3\n        /* \"#utility.yul\":6306:6324   */\n      add\n        /* \"#utility.yul\":6298:6324   */\n      swap1\n      pop\n        /* \"#utility.yul\":6334:6405   */\n      tag_184\n        /* \"#utility.yul\":6402:6403   */\n      0x00\n        /* \"#utility.yul\":6391:6400   */\n      dup4\n        /* \"#utility.yul\":6387:6404   */\n      add\n        /* \"#utility.yul\":6378:6384   */\n      dup5\n        /* \"#utility.yul\":6334:6405   */\n      tag_82\n      jump\t// in\n    tag_184:\n        /* \"#utility.yul\":6190:6412   */\n      swap3\n      swap2\n      pop\n      pop\n      jump\t// out\n        /* \"#utility.yul\":6418:6598   */\n    tag_89:\n        /* \"#utility.yul\":6466:6543   */\n      0x4e487b7100000000000000000000000000000000000000000000000000000000\n        /* \"#utility.yul\":6463:6464   */\n      0x00\n        /* \"#utility.yul\":6456:6544   */\n      mstore\n        /* \"#utility.yul\":6563:6567   */\n      0x11\n        /* \"#utility.yul\":6560:6561   */\n      0x04\n        /* \"#utility.yul\":6553:6568   */\n      mstore\n        /* \"#utility.yul\":6587:6591   */\n      0x24\n        /* \"#utility.yul\":6584:6585   */\n      0x00\n        /* \"#utility.yul\":6577:6592   */\n      revert\n        /* \"#utility.yul\":6604:6837   */\n    tag_35:\n        /* \"#utility.yul\":6643:6646   */\n      0x00\n        /* \"#utility.yul\":6666:6690   */\n      tag_187\n        /* \"#utility.yul\":6684:6689   */\n      dup3\n        /* \"#utility.yul\":6666:6690   */\n      tag_79\n      jump\t// in\n    tag_187:\n        /* \"#utility.yul\":6657:6690   */\n      swap2\n      pop\n        /* \"#utility.yul\":6712:6778   */\n      0xffffffffffffffffffffffffffffffffffffffffffffffffffffffffffffffff\n        /* \"#utility.yul\":6705:6710   */\n      dup3\n        /* \"#utility.yul\":6702:6779   */\n      sub\n        /* \"#utility.yul\":6699:6802   */\n      tag_188\n      jumpi\n        /* \"#utility.yul\":6782:6800   */\n      tag_189\n      tag_89\n      jump\t// in\n    tag_189:\n        /* \"#utility.yul\":6699:6802   */\n    tag_188:\n        /* \"#utility.yul\":6829:6830   */\n      0x01\n        /* \"#utility.yul\":6822:6827   */\n      dup3\n        /* \"#utility.yul\":6818:6831   */\n      add\n        /* \"#utility.yul\":6811:6831   */\n      swap1\n      pop\n        /* \"#utility.yul\":6604:6837   */\n      swap2\n      swap1\n      pop\n      jump\t// out\n        /* \"#utility.yul\":6843:7023   */\n    tag_90:\n        /* \"#utility.yul\":6891:6968   */\n      0x4e487b7100000000000000000000000000000000000000000000000000000000\n        /* \"#utility.yul\":6888:6889   */\n      0x00\n        /* \"#utility.yul\":6881:6969   */\n      mstore\n        /* \"#utility.yul\":6988:6992   */\n      0x22\n        /* \"#utility.yul\":6985:6986   */\n      0x04\n        /* \"#utility.yul\":6978:6993   */\n      mstore\n        /* \"#utility.yul\":7012:7016   */\n      0x24\n        /* \"#utility.yul\":7009:7010   */\n      0x00\n        /* \"#utility.yul\":7002:7017   */\n      revert\n        /* \"#utility.yul\":7029:7349   */\n    tag_61:\n        /* \"#utility.yul\":7073:7079   */\n      0x00\n        /* \"#utility.yul\":7110:7111   */\n      0x02\n        /* \"#utility.yul\":7104:7108   */\n      dup3\n        /* \"#utility.yul\":7100:7112   */\n      div\n        /* \"#utility.yul\":7090:7112   */\n      swap1\n      pop\n        /* \"#utility.yul\":7157:7158   */\n      0x01\n        /* \"#utility.yul\":7151:7155   */\n      dup3\n        /* \"#utility.yul\":7147:7159   */\n      and\n        /* \"#utility.yul\":7178:7196   */\n      dup1\n        /* \"#utility.yul\":7168:7249   */\n      tag_192\n      jumpi\n        /* \"#utility.yul\":7234:7238   */\n      0x7f\n        /* \"#utility.yul\":7226:7232   */\n      dup3\n        /* \"#utility.yul\":7222:7239   */\n      and\n        /* \"#utility.yul\":7212:7239   */\n      swap2\n      pop\n        /* \"#utility.yul\":7168:7249   */\n    tag_192:\n        /* \"#utility.yul\":7296:7298   */\n      0x20\n        /* \"#utility.yul\":7288:7294   */\n      dup3\n        /* \"#utility.yul\":7285:7299   */\n      lt\n        /* \"#utility.yul\":7265:7283   */\n      dup2\n        /* \"#utility.yul\":7262:7300   */\n      sub\n        /* \"#utility.yul\":7259:7343   */\n      tag_193\n      jumpi\n        /* \"#utility.yul\":7315:7333   */\n      tag_194\n      tag_90\n      jump\t// in\n    tag_194:\n        /* \"#utility.yul\":7259:7343   */\n    tag_193:\n        /* \"#utility.yul\":7080:7349   */\n      pop\n        /* \"#utility.yul\":7029:7349   */\n      swap2\n      swap1\n      pop\n      jump\t// out\n        /* \"#utility.yul\":7355:7496   */\n    tag_91:\n        /* \"#utility.yul\":7404:7408   */\n      0x00\n        /* \"#utility.yul\":7427:7430   */\n      dup2\n        /* \"#utility.yul\":7419:7430   */\n      swap1\n      pop\n        /* \"#utility.yul\":7450:7453   */\n      dup2\n        /* \"#utility.yul\":7447:7448   */\n      0x00\n        /* \"#utility.yul\":7440:7454   */\n      mstore\n        /* \"#utility.yul\":7484:7488   */\n      0x20\n        /* \"#utility.yul\":7481:7482   */\n      0x00\n        /* \"#utility.yul\":7471:7489   */\n      keccak256\n        /* \"#utility.yul\":7463:7489   */\n      swap1\n      pop\n        /* \"#utility.yul\":7355:7496   */\n      swap2\n      swap1\n      pop\n      jump\t// out\n        /* \"#utility.yul\":7502:7595   */\n    tag_92:\n        /* \"#utility.yul\":7539:7545   */\n      0x00\n        /* \"#utility.yul\":7586:7588   */\n      0x20\n        /* \"#utility.yul\":7581:7583   */\n      0x1f\n        /* \"#utility.yul\":7574:7579   */\n      dup4\n        /* \"#utility.yul\":7570:7584   */\n      add\n        /* \"#utility.yul\":7566:7589   */\n      div\n        /* \"#utility.yul\":7556:7589   */\n      swap1\n      pop\n        /* \"#utility.yul\":7502:7595   */\n      swap2\n      swap1\n      pop\n      jump\t// out\n        /* \"#utility.yul\":7601:7708   */\n    tag_93:\n        /* \"#utility.yul\":7645:7653   */\n      0x00\n        /* \"#utility.yul\":7695:7700   */\n      dup3\n        /* \"#utility.yul\":7689:7693   */\n      dup3\n        /* \"#utility.yul\":7685:7701   */\n      shl\n        /* \"#utility.yul\":7664:7701   */\n      swap1\n      pop\n        /* \"#utility.yul\":7601:7708   */\n      swap3\n      swap2\n      pop\n      pop\n      jump\t// out\n        /* \"#utility.yul\":7714:8107   */\n    tag_94:\n        /* \"#utility.yul\":7783:7789   */\n      0x00\n        /* \"#utility.yul\":7833:7834   */\n      0x08\n        /* \"#utility.yul\":7821:7831   */\n      dup4\n        /* \"#utility.yul\":7817:7835   */\n      mul\n        /* \"#utility.yul\":7856:7953   */\n      tag_199\n        /* \"#utility.yul\":7886:7952   */\n      0xffffffffffffffffffffffffffffffffffffffffffffffffffffffffffffffff\n        /* \"#utility.yul\":7875:7884   */\n      dup3\n        /* \"#utility.yul\":7856:7953   */\n      tag_93\n      jump\t// in\n    tag_199:\n        /* \"#utility.yul\":7974:8013   */\n      tag_200\n        /* \"#utility.yul\":8004:8012   */\n      dup7\n        /* \"#utility.yul\":7993:8002   */\n      dup4\n        /* \"#utility.yul\":7974:8013   */\n      tag_93\n      jump\t// in\n    tag_200:\n        /* \"#utility.yul\":7962:8013   */\n      swap6\n      pop\n        /* \"#utility.yul\":8046:8050   */\n      dup1\n        /* \"#utility.yul\":8042:8051   */\n      not\n        /* \"#utility.yul\":8035:8040   */\n      dup5\n        /* \"#utility.yul\":8031:8052   */\n      and\n        /* \"#utility.yul\":8022:8052   */\n      swap4\n      pop\n        /* \"#utility.yul\":8095:8099   */\n      dup1\n        /* \"#utility.yul\":8085:8093   */\n      dup7\n        /* \"#utility.yul\":8081:8100   */\n      and\n        /* \"#utility.yul\":8074:8079   */\n      dup5\n        /* \"#utility.yul\":8071:8101   */\n      or\n        /* \"#utility.yul\":8061:8101   */\n      swap3\n      pop\n        /* \"#utility.yul\":7790:8107   */\n      pop\n      pop\n        /* \"#utility.yul\":7714:8107   */\n      swap4\n      swap3\n      pop\n      pop\n      pop\n      jump\t// out\n        /* \"#utility.yul\":8113:8173   */\n    tag_95:\n        /* \"#utility.yul\":8141:8144   */\n      0x00\n        /* \"#utility.yul\":8162:8167   */\n      dup2\n        /* \"#utility.yul\":8155:8167   */\n      swap1\n      pop\n        /* \"#utility.yul\":8113:8173   */\n      swap2\n      swap1\n      pop\n      jump\t// out\n        /* \"#utility.yul\":8179:8321   */\n    tag_96:\n        /* \"#utility.yul\":8229:8238   */\n      0x00\n        /* \"#utility.yul\":8262:8315   */\n      tag_203\n        /* \"#utility.yul\":8280:8314   */\n      tag_204\n        /* \"#utility.yul\":8289:8313   */\n      tag_205\n        /* \"#utility.yul\":8307:8312   */\n      dup5\n        /* \"#utility.yul\":8289:8313   */\n      tag_79\n      jump\t// in\n    tag_205:\n        /* \"#utility.yul\":8280:8314   */\n      tag_95\n      jump\t// in\n    tag_204:\n        /* \"#utility.yul\":8262:8315   */\n      tag_79\n      jump\t// in\n    tag_203:\n        /* \"#utility.yul\":8249:8315   */\n      swap1\n      pop\n        /* \"#utility.yul\":8179:8321   */\n      swap2\n      swap1\n      pop\n      jump\t// out\n        /* \"#utility.yul\":8327:8402   */\n    tag_97:\n        /* \"#utility.yul\":8370:8373   */\n      0x00\n        /* \"#utility.yul\":8391:8396   */\n      dup2\n        /* \"#utility.yul\":8384:8396   */\n      swap1\n      pop\n        /* \"#utility.yul\":8327:8402   */\n      swap2\n      swap1\n      pop\n      jump\t// out\n        /* \"#utility.yul\":8408:8677   */\n    tag_98:\n        /* \"#utility.yul\":8518:8557   */\n      tag_208\n        /* \"#utility.yul\":8549:8556   */\n      dup4\n        /* \"#utility.yul\":8518:8557   */\n      tag_96\n      jump\t// in\n    tag_208:\n        /* \"#utility.yul\":8579:8670   */\n      tag_209\n        /* \"#utility.yul\":8628:8669   */\n      tag_210\n        /* \"#utility.yul\":8652:8668   */\n      dup3\n        /* \"#utility.yul\":8628:8669   */\n      tag_97\n      jump\t// in\n    tag_210:\n        /* \"#utility.yul\":8620:8626   */\n      dup5\n        /* \"#utility.yul\":8613:8617   */\n      dup5\n        /* \"#utility.yul\":8607:8618   */\n      sload\n        /* \"#utility.yul\":8579:8670   */\n      tag_94\n      jump\t// in\n    tag_209:\n        /* \"#utility.yul\":8573:8577   */\n      dup3\n        /* \"#utility.yul\":8566:8671   */\n      sstore\n        /* \"#utility.yul\":8484:8677   */\n      pop\n        /* \"#utility.yul\":8408:8677   */\n      pop\n      pop\n      pop\n      jump\t// out\n        /* \"#utility.yul\":8683:8756   */\n    tag_99:\n        /* \"#utility.yul\":8728:8731   */\n      0x00\n        /* \"#utility.yul\":8683:8756   */\n      swap1\n      jump\t// out\n        /* \"#utility.yul\":8762:8951   */\n    tag_100:\n        /* \"#utility.yul\":8839:8871   */\n      tag_213\n      tag_99\n      jump\t// in\n    tag_213:\n        /* \"#utility.yul\":8880:8945   */\n      tag_214\n        /* \"#utility.yul\":8938:8944   */\n      dup2\n        /* \"#utility.yul\":8930:8936   */\n      dup5\n        /* \"#utility.yul\":8924:8928   */\n      dup5\n        /* \"#utility.yul\":8880:8945   */\n      tag_98\n      jump\t// in\n    tag_214:\n        /* \"#utility.yul\":8815:8951   */\n      pop\n        /* \"#utility.yul\":8762:8951   */\n      pop\n      pop\n      jump\t// out\n        /* \"#utility.yul\":8957:9143   */\n    tag_101:\n        /* \"#utility.yul\":9017:9137   */\n    tag_216:\n        /* \"#utility.yul\":9034:9037   */\n      dup2\n        /* \"#utility.yul\":9027:9032   */\n      dup2\n        /* \"#utility.yul\":9024:9038   */\n      lt\n        /* \"#utility.yul\":9017:9137   */\n      iszero\n      tag_218\n      jumpi\n        /* \"#utility.yul\":9088:9127   */\n      tag_219\n        /* \"#utility.yul\":9125:9126   */\n      0x00\n        /* \"#utility.yul\":9118:9123   */\n      dup3\n        /* \"#utility.yul\":9088:9127   */\n      tag_100\n      jump\t// in\n    tag_219:\n        /* \"#utility.yul\":9061:9062   */\n      0x01\n        /* \"#utility.yul\":9054:9059   */\n      dup2\n        /* \"#utility.yul\":9050:9063   */\n      add\n        /* \"#utility.yul\":9041:9063   */\n      swap1\n      pop\n        /* \"#utility.yul\":9017:9137   */\n      jump(tag_216)\n    tag_218:\n        /* \"#utility.yul\":8957:9143   */\n      pop\n      pop\n      jump\t// out\n        /* \"#utility.yul\":9149:9692   */\n    tag_102:\n        /* \"#utility.yul\":9250:9252   */\n      0x1f\n        /* \"#utility.yul\":9245:9248   */\n      dup3\n        /* \"#utility.yul\":9242:9253   */\n      gt\n        /* \"#utility.yul\":9239:9685   */\n      iszero\n      tag_221\n      jumpi\n        /* \"#utility.yul\":9284:9322   */\n      tag_222\n        /* \"#utility.yul\":9316:9321   */\n      dup2\n        /* \"#utility.yul\":9284:9322   */\n      tag_91\n      jump\t// in\n    tag_222:\n        /* \"#utility.yul\":9368:9397   */\n      tag_223\n        /* \"#utility.yul\":9386:9396   */\n      dup5\n        /* \"#utility.yul\":9368:9397   */\n      tag_92\n      jump\t// in\n    tag_223:\n        /* \"#utility.yul\":9358:9366   */\n      dup2\n        /* \"#utility.yul\":9354:9398   */\n      add\n        /* \"#utility.yul\":9551:9553   */\n      0x20\n        /* \"#utility.yul\":9539:9549   */\n      dup6\n        /* \"#utility.yul\":9536:9554   */\n      lt\n        /* \"#utility.yul\":9533:9582   */\n      iszero\n      tag_224\n      jumpi\n        /* \"#utility.yul\":9572:9580   */\n      dup2\n        /* \"#utility.yul\":9557:9580   */\n      swap1\n      pop\n        /* \"#utility.yul\":9533:9582   */\n    tag_224:\n        /* \"#utility.yul\":9595:9675   */\n      tag_225\n        /* \"#utility.yul\":9651:9673   */\n      tag_226\n        /* \"#utility.yul\":9669:9672   */\n      dup6\n        /* \"#utility.yul\":9651:9673   */\n      tag_92\n      jump\t// in\n    tag_226:\n        /* \"#utility.yul\":9641:9649   */\n      dup4\n        /* \"#utility.yul\":9637:9674   */\n      add\n        /* \"#utility.yul\":9624:9635   */\n      dup3\n        /* \"#utility.yul\":9595:9675   */\n      tag_101\n      jump\t// in\n    tag_225:\n        /* \"#utility.yul\":9254:9685   */\n      pop\n      pop\n        /* \"#utility.yul\":9239:9685   */\n    tag_221:\n        /* \"#utility.yul\":9149:9692   */\n      pop\n      pop\n      pop\n      jump\t// out\n        /* \"#utility.yul\":9698:9815   */\n    tag_103:\n        /* \"#utility.yul\":9752:9760   */\n      0x00\n        /* \"#utility.yul\":9802:9807   */\n      dup3\n        /* \"#utility.yul\":9796:9800   */\n      dup3\n        /* \"#utility.yul\":9792:9808   */\n      shr\n        /* \"#utility.yul\":9771:9808   */\n      swap1\n      pop\n        /* \"#utility.yul\":9698:9815   */\n      swap3\n      swap2\n      pop\n      pop\n      jump\t// out\n        /* \"#utility.yul\":9821:9990   */\n    tag_104:\n        /* \"#utility.yul\":9865:9871   */\n      0x00\n        /* \"#utility.yul\":9898:9949   */\n      tag_229\n        /* \"#utility.yul\":9946:9947   */\n      0x00\n        /* \"#utility.yul\":9942:9948   */\n      not\n        /* \"#utility.yul\":9934:9939   */\n      dup5\n        /* \"#utility.yul\":9931:9932   */\n      0x08\n        /* \"#utility.yul\":9927:9940   */\n      mul\n        /* \"#utility.yul\":9898:9949   */\n      tag_103\n      jump\t// in\n    tag_229:\n        /* \"#utility.yul\":9894:9950   */\n      not\n        /* \"#utility.yul\":9979:9983   */\n      dup1\n        /* \"#utility.yul\":9973:9977   */\n      dup4\n        /* \"#utility.yul\":9969:9984   */\n      and\n        /* \"#utility.yul\":9959:9984   */\n      swap2\n      pop\n        /* \"#utility.yul\":9872:9990   */\n      pop\n        /* \"#utility.yul\":9821:9990   */\n      swap3\n      swap2\n      pop\n      pop\n      jump\t// out\n        /* \"#utility.yul\":9995:10290   */\n    tag_105:\n        /* \"#utility.yul\":10071:10075   */\n      0x00\n        /* \"#utility.yul\":10217:10246   */\n      tag_231\n        /* \"#utility.yul\":10242:10245   */\n      dup4\n        /* \"#utility.yul\":10236:10240   */\n      dup4\n        /* \"#utility.yul\":10217:10246   */\n      tag_104\n      jump\t// in\n    tag_231:\n        /* \"#utility.yul\":10209:10246   */\n      swap2\n      pop\n        /* \"#utility.yul\":10279:10282   */\n      dup3\n        /* \"#utility.yul\":10276:10277   */\n      0x02\n        /* \"#utility.yul\":10272:10283   */\n      mul\n        /* \"#utility.yul\":10266:10270   */\n      dup3\n        /* \"#utility.yul\":10263:10284   */\n      or\n        /* \"#utility.yul\":10255:10284   */\n      swap1\n      pop\n        /* \"#utility.yul\":9995:10290   */\n      swap3\n      swap2\n      pop\n      pop\n      jump\t// out\n        /* \"#utility.yul\":10295:11690   */\n    tag_37:\n        /* \"#utility.yul\":10412:10449   */\n      tag_233\n        /* \"#utility.yul\":10445:10448   */\n      dup3\n        /* \"#utility.yul\":10412:10449   */\n      tag_83\n      jump\t// in\n    tag_233:\n        /* \"#utility.yul\":10514:10532   */\n      0xffffffffffffffff\n        /* \"#utility.yul\":10506:10512   */\n      dup2\n        /* \"#utility.yul\":10503:10533   */\n      gt\n        /* \"#utility.yul\":10500:10556   */\n      iszero\n      tag_234\n      jumpi\n        /* \"#utility.yul\":10536:10554   */\n      tag_235\n      tag_72\n      jump\t// in\n    tag_235:\n        /* \"#utility.yul\":10500:10556   */\n    tag_234:\n        /* \"#utility.yul\":10580:10618   */\n      tag_236\n        /* \"#utility.yul\":10612:10616   */\n      dup3\n        /* \"#utility.yul\":10606:10617   */\n      sload\n        /* \"#utility.yul\":10580:10618   */\n      tag_61\n      jump\t// in\n    tag_236:\n        /* \"#utility.yul\":10665:10732   */\n      tag_237\n        /* \"#utility.yul\":10725:10731   */\n      dup3\n        /* \"#utility.yul\":10717:10723   */\n      dup3\n        /* \"#utility.yul\":10711:10715   */\n      dup6\n        /* \"#utility.yul\":10665:10732   */\n      tag_102\n      jump\t// in\n    tag_237:\n        /* \"#utility.yul\":10759:10760   */\n      0x00\n        /* \"#utility.yul\":10783:10787   */\n      0x20\n        /* \"#utility.yul\":10770:10787   */\n      swap1\n      pop\n        /* \"#utility.yul\":10815:10817   */\n      0x1f\n        /* \"#utility.yul\":10807:10813   */\n      dup4\n        /* \"#utility.yul\":10804:10818   */\n      gt\n        /* \"#utility.yul\":10832:10833   */\n      0x01\n        /* \"#utility.yul\":10827:11445   */\n      dup2\n      eq\n      tag_239\n      jumpi\n        /* \"#utility.yul\":11489:11490   */\n      0x00\n        /* \"#utility.yul\":11506:11512   */\n      dup5\n        /* \"#utility.yul\":11503:11580   */\n      iszero\n      tag_240\n      jumpi\n        /* \"#utility.yul\":11555:11564   */\n      dup3\n        /* \"#utility.yul\":11550:11553   */\n      dup8\n        /* \"#utility.yul\":11546:11565   */\n      add\n        /* \"#utility.yul\":11540:11566   */\n      mload\n        /* \"#utility.yul\":11531:11566   */\n      swap1\n      pop\n        /* \"#utility.yul\":11503:11580   */\n    tag_240:\n        /* \"#utility.yul\":11606:11673   */\n      tag_241\n        /* \"#utility.yul\":11666:11672   */\n      dup6\n        /* \"#utility.yul\":11659:11664   */\n      dup3\n        /* \"#utility.yul\":11606:11673   */\n      tag_105\n      jump\t// in\n    tag_241:\n        /* \"#utility.yul\":11600:11604   */\n      dup7\n        /* \"#utility.yul\":11593:11674   */\n      sstore\n        /* \"#utility.yul\":11462:11684   */\n      pop\n        /* \"#utility.yul\":10797:11684   */\n      jump(tag_238)\n        /* \"#utility.yul\":10827:11445   */\n    tag_239:\n        /* \"#utility.yul\":10879:10883   */\n      0x1f\n        /* \"#utility.yul\":10875:10884   */\n      not\n        /* \"#utility.yul\":10867:10873   */\n      dup5\n        /* \"#utility.yul\":10863:10885   */\n      and\n        /* \"#utility.yul\":10913:10950   */\n      tag_242\n        /* \"#utility.yul\":10945:10949   */\n      dup7\n        /* \"#utility.yul\":10913:10950   */\n      tag_91\n      jump\t// in\n    tag_242:\n        /* \"#utility.yul\":10972:10973   */\n      0x00\n        /* \"#utility.yul\":10986:11194   */\n    tag_243:\n        /* \"#utility.yul\":11000:11007   */\n      dup3\n        /* \"#utility.yul\":10997:10998   */\n      dup2\n        /* \"#utility.yul\":10994:11008   */\n      lt\n        /* \"#utility.yul\":10986:11194   */\n      iszero\n      tag_245\n      jumpi\n        /* \"#utility.yul\":11079:11088   */\n      dup5\n        /* \"#utility.yul\":11074:11077   */\n      dup10\n        /* \"#utility.yul\":11070:11089   */\n      add\n        /* \"#utility.yul\":11064:11090   */\n      mload\n        /* \"#utility.yul\":11056:11062   */\n      dup3\n        /* \"#utility.yul\":11049:11091   */\n      sstore\n        /* \"#utility.yul\":11130:11131   */\n      0x01\n        /* \"#utility.yul\":11122:11128   */\n      dup3\n        /* \"#utility.yul\":11118:11132   */\n      add\n        /* \"#utility.yul\":11108:11132   */\n      swap2\n      pop\n        /* \"#utility.yul\":11177:11179   */\n      0x20\n        /* \"#utility.yul\":11166:11175   */\n      dup6\n        /* \"#utility.yul\":11162:11180   */\n      add\n        /* \"#utility.yul\":11149:11180   */\n      swap5\n      pop\n        /* \"#utility.yul\":11023:11027   */\n      0x20\n        /* \"#utility.yul\":11020:11021   */\n      dup2\n        /* \"#utility.yul\":11016:11028   */\n      add\n        /* \"#utility.yul\":11011:11028   */\n      swap1\n      pop\n        /* \"#utility.yul\":10986:11194   */\n      jump(tag_243)\n    tag_245:\n        /* \"#utility.yul\":11222:11228   */\n      dup7\n        /* \"#utility.yul\":11213:11220   */\n      dup4\n        /* \"#utility.yul\":11210:11229   */\n      lt\n        /* \"#utility.yul\":11207:11386   */\n      iszero\n      tag_246\n      jumpi\n        /* \"#utility.yul\":11280:11289   */\n      dup5\n        /* \"#utility.yul\":11275:11278   */\n      dup10\n        /* \"#utility.yul\":11271:11290   */\n      add\n        /* \"#utility.yul\":11265:11291   */\n      mload\n        /* \"#utility.yul\":11323:11371   */\n      tag_247\n        /* \"#utility.yul\":11365:11369   */\n      0x1f\n        /* \"#utility.yul\":11357:11363   */\n      dup10\n        /* \"#utility.yul\":11353:11370   */\n      and\n        /* \"#utility.yul\":11342:11351   */\n      dup3\n        /* \"#utility.yul\":11323:11371   */\n      tag_104\n      jump\t// in\n    tag_247:\n        /* \"#utility.yul\":11315:11321   */\n      dup4\n        /* \"#utility.yul\":11308:11372   */\n      sstore\n        /* \"#utility.yul\":11230:11386   */\n      pop\n        /* \"#utility.yul\":11207:11386   */\n    tag_246:\n        /* \"#utility.yul\":11432:11433   */\n      0x01\n        /* \"#utility.yul\":11428:11429   */\n      0x02\n        /* \"#utility.yul\":11420:11426   */\n      dup9\n        /* \"#utility.yul\":11416:11430   */\n      mul\n        /* \"#utility.yul\":11412:11434   */\n      add\n        /* \"#utility.yul\":11406:11410   */\n      dup9\n        /* \"#utility.yul\":11399:11435   */\n      sstore\n        /* \"#utility.yul\":10834:11445   */\n      pop\n      pop\n      pop\n        /* \"#utility.yul\":10797:11684   */\n    tag_238:\n      pop\n        /* \"#utility.yul\":10387:11690   */\n      pop\n      pop\n      pop\n        /* \"#utility.yul\":10295:11690   */\n      pop\n      pop\n      jump\t// out\n        /* \"#utility.yul\":11696:12217   */\n    tag_39:\n        /* \"#utility.yul\":11859:11863   */\n      0x00\n        /* \"#utility.yul\":11897:11899   */\n      0x60\n        /* \"#utility.yul\":11886:11895   */\n      dup3\n        /* \"#utility.yul\":11882:11900   */\n      add\n        /* \"#utility.yul\":11874:11900   */\n      swap1\n      pop\n        /* \"#utility.yul\":11910:11981   */\n      tag_249\n        /* \"#utility.yul\":11978:11979   */\n      0x00\n        /* \"#utility.yul\":11967:11976   */\n      dup4\n        /* \"#utility.yul\":11963:11980   */\n      add\n        /* \"#utility.yul\":11954:11960   */\n      dup7\n        /* \"#utility.yul\":11910:11981   */\n      tag_82\n      jump\t// in\n    tag_249:\n        /* \"#utility.yul\":12028:12037   */\n      dup2\n        /* \"#utility.yul\":12022:12026   */\n      dup2\n        /* \"#utility.yul\":12018:12038   */\n      sub\n        /* \"#utility.yul\":12013:12015   */\n      0x20\n        /* \"#utility.yul\":12002:12011   */\n      dup4\n        /* \"#utility.yul\":11998:12016   */\n      add\n        /* \"#utility.yul\":11991:12039   */\n      mstore\n        /* \"#utility.yul\":12056:12134   */\n      tag_250\n        /* \"#utility.yul\":12129:12133   */\n      dup2\n        /* \"#utility.yul\":12120:12126   */\n      dup6\n        /* \"#utility.yul\":12056:12134   */\n      tag_86\n      jump\t// in\n    tag_250:\n        /* \"#utility.yul\":12048:12134   */\n      swap1\n      pop\n        /* \"#utility.yul\":12144:12210   */\n      tag_251\n        /* \"#utility.yul\":12206:12208   */\n      0x40\n        /* \"#utility.yul\":12195:12204   */\n      dup4\n        /* \"#utility.yul\":12191:12209   */\n      add\n        /* \"#utility.yul\":12182:12188   */\n      dup5\n        /* \"#utility.yul\":12144:12210   */\n      tag_88\n      jump\t// in\n    tag_251:\n        /* \"#utility.yul\":11696:12217   */\n      swap5\n      swap4\n      pop\n      pop\n      pop\n      pop\n      jump\t// out\n        /* \"#utility.yul\":12223:12394   */\n    tag_106:\n        /* \"#utility.yul\":12363:12386   */\n      0x5461736b20686173206265656e2064656c657465640000000000000000000000\n        /* \"#utility.yul\":12359:12360   */\n      0x00\n        /* \"#utility.yul\":12351:12357   */\n      dup3\n        /* \"#utility.yul\":12347:12361   */\n      add\n        /* \"#utility.yul\":12340:12387   */\n      mstore\n        /* \"#utility.yul\":12223:12394   */\n      pop\n      jump\t// out\n        /* \"#utility.yul\":12400:12766   */\n    tag_107:\n        /* \"#utility.yul\":12542:12545   */\n      0x00\n        /* \"#utility.yul\":12563:12630   */\n      tag_254\n        /* \"#utility.yul\":12627:12629   */\n      0x15\n        /* \"#utility.yul\":12622:12625   */\n      dup4\n        /* \"#utility.yul\":12563:12630   */\n      tag_84\n      jump\t// in\n    tag_254:\n        /* \"#utility.yul\":12556:12630   */\n      swap2\n      pop\n        /* \"#utility.yul\":12639:12732   */\n      tag_255\n        /* \"#utility.yul\":12728:12731   */\n      dup3\n        /* \"#utility.yul\":12639:12732   */\n      tag_106\n      jump\t// in\n    tag_255:\n        /* \"#utility.yul\":12757:12759   */\n      0x20\n        /* \"#utility.yul\":12752:12755   */\n      dup3\n        /* \"#utility.yul\":12748:12760   */\n      add\n        /* \"#utility.yul\":12741:12760   */\n      swap1\n      pop\n        /* \"#utility.yul\":12400:12766   */\n      swap2\n      swap1\n      pop\n      jump\t// out\n        /* \"#utility.yul\":12772:13191   */\n    tag_43:\n        /* \"#utility.yul\":12938:12942   */\n      0x00\n        /* \"#utility.yul\":12976:12978   */\n      0x20\n        /* \"#utility.yul\":12965:12974   */\n      dup3\n        /* \"#utility.yul\":12961:12979   */\n      add\n        /* \"#utility.yul\":12953:12979   */\n      swap1\n      pop\n        /* \"#utility.yul\":13025:13034   */\n      dup2\n        /* \"#utility.yul\":13019:13023   */\n      dup2\n        /* \"#utility.yul\":13015:13035   */\n      sub\n        /* \"#utility.yul\":13011:13012   */\n      0x00\n        /* \"#utility.yul\":13000:13009   */\n      dup4\n        /* \"#utility.yul\":12996:13013   */\n      add\n        /* \"#utility.yul\":12989:13036   */\n      mstore\n        /* \"#utility.yul\":13053:13184   */\n      tag_257\n        /* \"#utility.yul\":13179:13183   */\n      dup2\n        /* \"#utility.yul\":13053:13184   */\n      tag_107\n      jump\t// in\n    tag_257:\n        /* \"#utility.yul\":13045:13184   */\n      swap1\n      pop\n        /* \"#utility.yul\":12772:13191   */\n      swap2\n      swap1\n      pop\n      jump\t// out\n        /* \"#utility.yul\":13197:13517   */\n    tag_45:\n        /* \"#utility.yul\":13312:13316   */\n      0x00\n        /* \"#utility.yul\":13350:13352   */\n      0x40\n        /* \"#utility.yul\":13339:13348   */\n      dup3\n        /* \"#utility.yul\":13335:13353   */\n      add\n        /* \"#utility.yul\":13327:13353   */\n      swap1\n      pop\n        /* \"#utility.yul\":13363:13434   */\n      tag_259\n        /* \"#utility.yul\":13431:13432   */\n      0x00\n        /* \"#utility.yul\":13420:13429   */\n      dup4\n        /* \"#utility.yul\":13416:13433   */\n      add\n        /* \"#utility.yul\":13407:13413   */\n      dup6\n        /* \"#utility.yul\":13363:13434   */\n      tag_82\n      jump\t// in\n    tag_259:\n        /* \"#utility.yul\":13444:13510   */\n      tag_260\n        /* \"#utility.yul\":13506:13508   */\n      0x20\n        /* \"#utility.yul\":13495:13504   */\n      dup4\n        /* \"#utility.yul\":13491:13509   */\n      add\n        /* \"#utility.yul\":13482:13488   */\n      dup5\n        /* \"#utility.yul\":13444:13510   */\n      tag_88\n      jump\t// in\n    tag_260:\n        /* \"#utility.yul\":13197:13517   */\n      swap4\n      swap3\n      pop\n      pop\n      pop\n      jump\t// out\n        /* \"#utility.yul\":13523:13702   */\n    tag_108:\n        /* \"#utility.yul\":13663:13694   */\n      0x5461736b2068617320616c7265616479206265656e2064656c65746564000000\n        /* \"#utility.yul\":13659:13660   */\n      0x00\n        /* \"#utility.yul\":13651:13657   */\n      dup3\n        /* \"#utility.yul\":13647:13661   */\n      add\n        /* \"#utility.yul\":13640:13695   */\n      mstore\n        /* \"#utility.yul\":13523:13702   */\n      pop\n      jump\t// out\n        /* \"#utility.yul\":13708:14074   */\n    tag_109:\n        /* \"#utility.yul\":13850:13853   */\n      0x00\n        /* \"#utility.yul\":13871:13938   */\n      tag_263\n        /* \"#utility.yul\":13935:13937   */\n      0x1d\n        /* \"#utility.yul\":13930:13933   */\n      dup4\n        /* \"#utility.yul\":13871:13938   */\n      tag_84\n      jump\t// in\n    tag_263:\n        /* \"#utility.yul\":13864:13938   */\n      swap2\n      pop\n        /* \"#utility.yul\":13947:14040   */\n      tag_264\n        /* \"#utility.yul\":14036:14039   */\n      dup3\n        /* \"#utility.yul\":13947:14040   */\n      tag_108\n      jump\t// in\n    tag_264:\n        /* \"#utility.yul\":14065:14067   */\n      0x20\n        /* \"#utility.yul\":14060:14063   */\n      dup3\n        /* \"#utility.yul\":14056:14068   */\n      add\n        /* \"#utility.yul\":14049:14068   */\n      swap1\n      pop\n        /* \"#utility.yul\":13708:14074   */\n      swap2\n      swap1\n      pop\n      jump\t// out\n        /* \"#utility.yul\":14080:14499   */\n    tag_49:\n        /* \"#utility.yul\":14246:14250   */\n      0x00\n        /* \"#utility.yul\":14284:14286   */\n      0x20\n        /* \"#utility.yul\":14273:14282   */\n      dup3\n        /* \"#utility.yul\":14269:14287   */\n      add\n        /* \"#utility.yul\":14261:14287   */\n      swap1\n      pop\n        /* \"#utility.yul\":14333:14342   */\n      dup2\n        /* \"#utility.yul\":14327:14331   */\n      dup2\n        /* \"#utility.yul\":14323:14343   */\n      sub\n        /* \"#utility.yul\":14319:14320   */\n      0x00\n        /* \"#utility.yul\":14308:14317   */\n      dup4\n        /* \"#utility.yul\":14304:14321   */\n      add\n        /* \"#utility.yul\":14297:14344   */\n      mstore\n        /* \"#utility.yul\":14361:14492   */\n      tag_266\n        /* \"#utility.yul\":14487:14491   */\n      dup2\n        /* \"#utility.yul\":14361:14492   */\n      tag_109\n      jump\t// in\n    tag_266:\n        /* \"#utility.yul\":14353:14492   */\n      swap1\n      pop\n        /* \"#utility.yul\":14080:14499   */\n      swap2\n      swap1\n      pop\n      jump\t// out\n        /* \"#utility.yul\":14505:14678   */\n    tag_110:\n        /* \"#utility.yul\":14645:14670   */\n      0x436f6e74656e742063616e6e6f7420626520656d707479000000000000000000\n        /* \"#utility.yul\":14641:14642   */\n      0x00\n        /* \"#utility.yul\":14633:14639   */\n      dup3\n        /* \"#utility.yul\":14629:14643   */\n      add\n        /* \"#utility.yul\":14622:14671   */\n      mstore\n        /* \"#utility.yul\":14505:14678   */\n      pop\n      jump\t// out\n        /* \"#utility.yul\":14684:15050   */\n    tag_111:\n        /* \"#utility.yul\":14826:14829   */\n      0x00\n        /* \"#utility.yul\":14847:14914   */\n      tag_269\n        /* \"#utility.yul\":14911:14913   */\n      0x17\n        /* \"#utility.yul\":14906:14909   */\n      dup4\n        /* \"#utility.yul\":14847:14914   */\n      tag_84\n      jump\t// in\n    tag_269:\n        /* \"#utility.yul\":14840:14914   */\n      swap2\n      pop\n        /* \"#utility.yul\":14923:15016   */\n      tag_270\n        /* \"#utility.yul\":15012:15015   */\n      dup3\n        /* \"#utility.yul\":14923:15016   */\n      tag_110\n      jump\t// in\n    tag_270:\n        /* \"#utility.yul\":15041:15043   */\n      0x20\n        /* \"#utility.yul\":15036:15039   */\n      dup3\n        /* \"#utility.yul\":15032:15044   */\n      add\n        /* \"#utility.yul\":15025:15044   */\n      swap1\n      pop\n        /* \"#utility.yul\":14684:15050   */\n      swap2\n      swap1\n      pop\n      jump\t// out\n        /* \"#utility.yul\":15056:15475   */\n    tag_54:\n        /* \"#utility.yul\":15222:15226   */\n      0x00\n        /* \"#utility.yul\":15260:15262   */\n      0x20\n        /* \"#utility.yul\":15249:15258   */\n      dup3\n        /* \"#utility.yul\":15245:15263   */\n      add\n        /* \"#utility.yul\":15237:15263   */\n      swap1\n      pop\n        /* \"#utility.yul\":15309:15318   */\n      dup2\n        /* \"#utility.yul\":15303:15307   */\n      dup2\n        /* \"#utility.yul\":15299:15319   */\n      sub\n        /* \"#utility.yul\":15295:15296   */\n      0x00\n        /* \"#utility.yul\":15284:15293   */\n      dup4\n        /* \"#utility.yul\":15280:15297   */\n      add\n        /* \"#utility.yul\":15273:15320   */\n      mstore\n        /* \"#utility.yul\":15337:15468   */\n      tag_272\n        /* \"#utility.yul\":15463:15467   */\n      dup2\n        /* \"#utility.yul\":15337:15468   */\n      tag_111\n      jump\t// in\n    tag_272:\n        /* \"#utility.yul\":15329:15468   */\n      swap1\n      pop\n        /* \"#utility.yul\":15056:15475   */\n      swap2\n      swap1\n      pop\n      jump\t// out\n        /* \"#utility.yul\":15481:15904   */\n    tag_59:\n        /* \"#utility.yul\":15622:15626   */\n      0x00\n        /* \"#utility.yul\":15660:15662   */\n      0x40\n        /* \"#utility.yul\":15649:15658   */\n      dup3\n        /* \"#utility.yul\":15645:15663   */\n      add\n        /* \"#utility.yul\":15637:15663   */\n      swap1\n      pop\n        /* \"#utility.yul\":15673:15744   */\n      tag_274\n        /* \"#utility.yul\":15741:15742   */\n      0x00\n        /* \"#utility.yul\":15730:15739   */\n      dup4\n        /* \"#utility.yul\":15726:15743   */\n      add\n        /* \"#utility.yul\":15717:15723   */\n      dup6\n        /* \"#utility.yul\":15673:15744   */\n      tag_82\n      jump\t// in\n    tag_274:\n        /* \"#utility.yul\":15791:15800   */\n      dup2\n        /* \"#utility.yul\":15785:15789   */\n      dup2\n        /* \"#utility.yul\":15781:15801   */\n      sub\n        /* \"#utility.yul\":15776:15778   */\n      0x20\n        /* \"#utility.yul\":15765:15774   */\n      dup4\n        /* \"#utility.yul\":15761:15779   */\n      add\n        /* \"#utility.yul\":15754:15802   */\n      mstore\n        /* \"#utility.yul\":15819:15897   */\n      tag_275\n        /* \"#utility.yul\":15892:15896   */\n      dup2\n        /* \"#utility.yul\":15883:15889   */\n      dup5\n        /* \"#utility.yul\":15819:15897   */\n      tag_86\n      jump\t// in\n    tag_275:\n        /* \"#utility.yul\":15811:15897   */\n      swap1\n      pop\n        /* \"#utility.yul\":15481:15904   */\n      swap4\n      swap3\n      pop\n      pop\n      pop\n      jump\t// out\n\n    auxdata: 0xa2646970667358221220952b5d2929b45f5a456564a5f15033bcaf1a913d063f0aa4b3a40204b871f92364736f6c63430008190033\n}\n",
				"bytecode": {
					"linkReferences": {},
					"object": "60806040525f8055348015610012575f80fd5b506100576040518060400160405280600c81526020017f5461736b204578616d706c65000000000000000000000000000000000000000081525061005c60201b60201c565b610591565b5f8081548092919061006d9061017f565b919050555060405180608001604052805f5481526020018281526020015f151581526020015f151581525060015f805481526020019081526020015f205f820151815f015560208201518160010190816100c791906103f7565b506040820151816002015f6101000a81548160ff02191690831515021790555060608201518160020160016101000a81548160ff0219169083151502179055509050507f05d0fb833127fc08168556d0e7ca9554fc3f6bc843b3b7d2bf1c35aea6bab6605f54825f60405161013e93929190610555565b60405180910390a150565b7f4e487b71000000000000000000000000000000000000000000000000000000005f52601160045260245ffd5b5f819050919050565b5f61018982610176565b91507fffffffffffffffffffffffffffffffffffffffffffffffffffffffffffffffff82036101bb576101ba610149565b5b600182019050919050565b5f81519050919050565b7f4e487b71000000000000000000000000000000000000000000000000000000005f52604160045260245ffd5b7f4e487b71000000000000000000000000000000000000000000000000000000005f52602260045260245ffd5b5f600282049050600182168061024157607f821691505b602082108103610254576102536101fd565b5b50919050565b5f819050815f5260205f209050919050565b5f6020601f8301049050919050565b5f82821b905092915050565b5f600883026102b67fffffffffffffffffffffffffffffffffffffffffffffffffffffffffffffffff8261027b565b6102c0868361027b565b95508019841693508086168417925050509392505050565b5f819050919050565b5f6102fb6102f66102f184610176565b6102d8565b610176565b9050919050565b5f819050919050565b610314836102e1565b61032861032082610302565b848454610287565b825550505050565b5f90565b61033c610330565b61034781848461030b565b505050565b5b8181101561036a5761035f5f82610334565b60018101905061034d565b5050565b601f8211156103af576103808161025a565b6103898461026c565b81016020851015610398578190505b6103ac6103a48561026c565b83018261034c565b50505b505050565b5f82821c905092915050565b5f6103cf5f19846008026103b4565b1980831691505092915050565b5f6103e783836103c0565b9150826002028217905092915050565b610400826101c6565b67ffffffffffffffff811115610419576104186101d0565b5b610423825461022a565b61042e82828561036e565b5f60209050601f83116001811461045f575f841561044d578287015190505b61045785826103dc565b8655506104be565b601f19841661046d8661025a565b5f5b828110156104945784890151825560018201915060208501945060208101905061046f565b868310156104b157848901516104ad601f8916826103c0565b8355505b6001600288020188555050505b505050505050565b6104cf81610176565b82525050565b5f82825260208201905092915050565b8281835e5f83830152505050565b5f601f19601f8301169050919050565b5f61050d826101c6565b61051781856104d5565b93506105278185602086016104e5565b610530816104f3565b840191505092915050565b5f8115159050919050565b61054f8161053b565b82525050565b5f6060820190506105685f8301866104c6565b818103602083015261057a8185610503565b90506105896040830184610546565b949350505050565b610dec8061059e5f395ff3fe608060405234801561000f575f80fd5b5060043610610060575f3560e01c8063111002aa14610064578063455f502414610080578063560f31921461009c57806386533f6c146100b85780638d977672146100d4578063b6cb58a514610107575b5f80fd5b61007e600480360381019061007991906106c5565b610125565b005b61009a6004803603810190610095919061073f565b610212565b005b6100b660048036038101906100b1919061073f565b6102f1565b005b6100d260048036038101906100cd919061076a565b6103af565b005b6100ee60048036038101906100e9919061073f565b6104a8565b6040516100fe949392919061084d565b60405180910390f35b61010f610573565b60405161011c9190610897565b60405180910390f35b5f80815480929190610136906108dd565b919050555060405180608001604052805f5481526020018281526020015f151581526020015f151581525060015f805481526020019081526020015f205f820151815f015560208201518160010190816101909190610b1e565b506040820151816002015f6101000a81548160ff02191690831515021790555060608201518160020160016101000a81548160ff0219169083151502179055509050507f05d0fb833127fc08168556d0e7ca9554fc3f6bc843b3b7d2bf1c35aea6bab6605f54825f60405161020793929190610bed565b60405180910390a150565b5f60015f8381526020019081526020015f2090508060020160019054906101000a900460ff1615610278576040517f08c379a000000000000000000000000000000000000000000000000000000000815260040161026f90610c73565b60405180910390fd5b806002015f9054906101000a900460ff1615816002015f6101000a81548160ff0219169083151502179055507fe21fa966ca5cd02748c0752352d18c48165e61cb55b4c29cccf924b5a95fcff182826002015f9054906101000a900460ff166040516102e5929190610c91565b60405180910390a15050565b5f60015f8381526020019081526020015f2090508060020160019054906101000a900460ff1615610357576040517f08c379a000000000000000000000000000000000000000000000000000000000815260040161034e90610d02565b60405180910390fd5b60018160020160016101000a81548160ff0219169083151502179055507fd078b251d950cc55c44340be1db732337ef4939a76e1367ee271ad2cb19c46af826040516103a39190610897565b60405180910390a15050565b5f8151116103f2576040517f08c379a00000000000000000000000000000000000000000000000000000000081526004016103e990610d6a565b60405180910390fd5b5f60015f8481526020019081526020015f2090508060020160019054906101000a900460ff1615610458576040517f08c379a000000000000000000000000000000000000000000000000000000000815260040161044f90610c73565b60405180910390fd5b818160010190816104699190610b1e565b507fde038a66d64727fc277f5f5f3d50b98d205e4ae705bfb8ac824cea4877b9be49838360405161049b929190610d88565b60405180910390a1505050565b6001602052805f5260405f205f91509050805f0154908060010180546104cd90610951565b80601f01602080910402602001604051908101604052809291908181526020018280546104f990610951565b80156105445780601f1061051b57610100808354040283529160200191610544565b820191905f5260205f20905b81548152906001019060200180831161052757829003601f168201915b505050505090806002015f9054906101000a900460ff16908060020160019054906101000a900460ff16905084565b5f5481565b5f604051905090565b5f80fd5b5f80fd5b5f80fd5b5f80fd5b5f601f19601f8301169050919050565b7f4e487b71000000000000000000000000000000000000000000000000000000005f52604160045260245ffd5b6105d782610591565b810181811067ffffffffffffffff821117156105f6576105f56105a1565b5b80604052505050565b5f610608610578565b905061061482826105ce565b919050565b5f67ffffffffffffffff821115610633576106326105a1565b5b61063c82610591565b9050602081019050919050565b828183375f83830152505050565b5f61066961066484610619565b6105ff565b9050828152602081018484840111156106855761068461058d565b5b610690848285610649565b509392505050565b5f82601f8301126106ac576106ab610589565b5b81356106bc848260208601610657565b91505092915050565b5f602082840312156106da576106d9610581565b5b5f82013567ffffffffffffffff8111156106f7576106f6610585565b5b61070384828501610698565b91505092915050565b5f819050919050565b61071e8161070c565b8114610728575f80fd5b50565b5f8135905061073981610715565b92915050565b5f6020828403121561075457610753610581565b5b5f6107618482850161072b565b91505092915050565b5f80604083850312156107805761077f610581565b5b5f61078d8582860161072b565b925050602083013567ffffffffffffffff8111156107ae576107ad610585565b5b6107ba85828601610698565b9150509250929050565b6107cd8161070c565b82525050565b5f81519050919050565b5f82825260208201905092915050565b8281835e5f83830152505050565b5f610805826107d3565b61080f81856107dd565b935061081f8185602086016107ed565b61082881610591565b840191505092915050565b5f8115159050919050565b61084781610833565b82525050565b5f6080820190506108605f8301876107c4565b818103602083015261087281866107fb565b9050610881604083018561083e565b61088e606083018461083e565b95945050505050565b5f6020820190506108aa5f8301846107c4565b92915050565b7f4e487b71000000000000000000000000000000000000000000000000000000005f52601160045260245ffd5b5f6108e78261070c565b91507fffffffffffffffffffffffffffffffffffffffffffffffffffffffffffffffff8203610919576109186108b0565b5b600182019050919050565b7f4e487b71000000000000000000000000000000000000000000000000000000005f52602260045260245ffd5b5f600282049050600182168061096857607f821691505b60208210810361097b5761097a610924565b5b50919050565b5f819050815f5260205f209050919050565b5f6020601f8301049050919050565b5f82821b905092915050565b5f600883026109dd7fffffffffffffffffffffffffffffffffffffffffffffffffffffffffffffffff826109a2565b6109e786836109a2565b95508019841693508086168417925050509392505050565b5f819050919050565b5f610a22610a1d610a188461070c565b6109ff565b61070c565b9050919050565b5f819050919050565b610a3b83610a08565b610a4f610a4782610a29565b8484546109ae565b825550505050565b5f90565b610a63610a57565b610a6e818484610a32565b505050565b5b81811015610a9157610a865f82610a5b565b600181019050610a74565b5050565b601f821115610ad657610aa781610981565b610ab084610993565b81016020851015610abf578190505b610ad3610acb85610993565b830182610a73565b50505b505050565b5f82821c905092915050565b5f610af65f1984600802610adb565b1980831691505092915050565b5f610b0e8383610ae7565b9150826002028217905092915050565b610b27826107d3565b67ffffffffffffffff811115610b4057610b3f6105a1565b5b610b4a8254610951565b610b55828285610a95565b5f60209050601f831160018114610b86575f8415610b74578287015190505b610b7e8582610b03565b865550610be5565b601f198416610b9486610981565b5f5b82811015610bbb57848901518255600182019150602085019450602081019050610b96565b86831015610bd85784890151610bd4601f891682610ae7565b8355505b6001600288020188555050505b505050505050565b5f606082019050610c005f8301866107c4565b8181036020830152610c1281856107fb565b9050610c21604083018461083e565b949350505050565b7f5461736b20686173206265656e2064656c6574656400000000000000000000005f82015250565b5f610c5d6015836107dd565b9150610c6882610c29565b602082019050919050565b5f6020820190508181035f830152610c8a81610c51565b9050919050565b5f604082019050610ca45f8301856107c4565b610cb1602083018461083e565b9392505050565b7f5461736b2068617320616c7265616479206265656e2064656c657465640000005f82015250565b5f610cec601d836107dd565b9150610cf782610cb8565b602082019050919050565b5f6020820190508181035f830152610d1981610ce0565b9050919050565b7f436f6e74656e742063616e6e6f7420626520656d7074790000000000000000005f82015250565b5f610d546017836107dd565b9150610d5f82610d20565b602082019050919050565b5f6020820190508181035f830152610d8181610d48565b9050919050565b5f604082019050610d9b5f8301856107c4565b8181036020830152610dad81846107fb565b9050939250505056fea2646970667358221220952b5d2929b45f5a456564a5f15033bcaf1a913d063f0aa4b3a40204b871f92364736f6c63430008190033",
					"opcodes": "PUSH1 0x80 PUSH1 0x40 MSTORE PUSH0 DUP1 SSTORE CALLVALUE DUP1 ISZERO PUSH2 0x12 JUMPI PUSH0 DUP1 REVERT JUMPDEST POP PUSH2 0x57 PUSH1 0x40 MLOAD DUP1 PUSH1 0x40 ADD PUSH1 0x40 MSTORE DUP1 PUSH1 0xC DUP2 MSTORE PUSH1 0x20 ADD PUSH32 0x5461736B204578616D706C650000000000000000000000000000000000000000 DUP2 MSTORE POP PUSH2 0x5C PUSH1 0x20 SHL PUSH1 0x20 SHR JUMP JUMPDEST PUSH2 0x591 JUMP JUMPDEST PUSH0 DUP1 DUP2 SLOAD DUP1 SWAP3 SWAP2 SWAP1 PUSH2 0x6D SWAP1 PUSH2 0x17F JUMP JUMPDEST SWAP2 SWAP1 POP SSTORE POP PUSH1 0x40 MLOAD DUP1 PUSH1 0x80 ADD PUSH1 0x40 MSTORE DUP1 PUSH0 SLOAD DUP2 MSTORE PUSH1 0x20 ADD DUP3 DUP2 MSTORE PUSH1 0x20 ADD PUSH0 ISZERO ISZERO DUP2 MSTORE PUSH1 0x20 ADD PUSH0 ISZERO ISZERO DUP2 MSTORE POP PUSH1 0x1 PUSH0 DUP1 SLOAD DUP2 MSTORE PUSH1 0x20 ADD SWAP1 DUP2 MSTORE PUSH1 0x20 ADD PUSH0 KECCAK256 PUSH0 DUP3 ADD MLOAD DUP2 PUSH0 ADD SSTORE PUSH1 0x20 DUP3 ADD MLOAD DUP2 PUSH1 0x1 ADD SWAP1 DUP2 PUSH2 0xC7 SWAP2 SWAP1 PUSH2 0x3F7 JUMP JUMPDEST POP PUSH1 0x40 DUP3 ADD MLOAD DUP2 PUSH1 0x2 ADD PUSH0 PUSH2 0x100 EXP DUP2 SLOAD DUP2 PUSH1 0xFF MUL NOT AND SWAP1 DUP4 ISZERO ISZERO MUL OR SWAP1 SSTORE POP PUSH1 0x60 DUP3 ADD MLOAD DUP2 PUSH1 0x2 ADD PUSH1 0x1 PUSH2 0x100 EXP DUP2 SLOAD DUP2 PUSH1 0xFF MUL NOT AND SWAP1 DUP4 ISZERO ISZERO MUL OR SWAP1 SSTORE POP SWAP1 POP POP PUSH32 0x5D0FB833127FC08168556D0E7CA9554FC3F6BC843B3B7D2BF1C35AEA6BAB660 PUSH0 SLOAD DUP3 PUSH0 PUSH1 0x40 MLOAD PUSH2 0x13E SWAP4 SWAP3 SWAP2 SWAP1 PUSH2 0x555 JUMP JUMPDEST PUSH1 0x40 MLOAD DUP1 SWAP2 SUB SWAP1 LOG1 POP JUMP JUMPDEST PUSH32 0x4E487B7100000000000000000000000000000000000000000000000000000000 PUSH0 MSTORE PUSH1 0x11 PUSH1 0x4 MSTORE PUSH1 0x24 PUSH0 REVERT JUMPDEST PUSH0 DUP2 SWAP1 POP SWAP2 SWAP1 POP JUMP JUMPDEST PUSH0 PUSH2 0x189 DUP3 PUSH2 0x176 JUMP JUMPDEST SWAP2 POP PUSH32 0xFFFFFFFFFFFFFFFFFFFFFFFFFFFFFFFFFFFFFFFFFFFFFFFFFFFFFFFFFFFFFFFF DUP3 SUB PUSH2 0x1BB JUMPI PUSH2 0x1BA PUSH2 0x149 JUMP JUMPDEST JUMPDEST PUSH1 0x1 DUP3 ADD SWAP1 POP SWAP2 SWAP1 POP JUMP JUMPDEST PUSH0 DUP2 MLOAD SWAP1 POP SWAP2 SWAP1 POP JUMP JUMPDEST PUSH32 0x4E487B7100000000000000000000000000000000000000000000000000000000 PUSH0 MSTORE PUSH1 0x41 PUSH1 0x4 MSTORE PUSH1 0x24 PUSH0 REVERT JUMPDEST PUSH32 0x4E487B7100000000000000000000000000000000000000000000000000000000 PUSH0 MSTORE PUSH1 0x22 PUSH1 0x4 MSTORE PUSH1 0x24 PUSH0 REVERT JUMPDEST PUSH0 PUSH1 0x2 DUP3 DIV SWAP1 POP PUSH1 0x1 DUP3 AND DUP1 PUSH2 0x241 JUMPI PUSH1 0x7F DUP3 AND SWAP2 POP JUMPDEST PUSH1 0x20 DUP3 LT DUP2 SUB PUSH2 0x254 JUMPI PUSH2 0x253 PUSH2 0x1FD JUMP JUMPDEST JUMPDEST POP SWAP2 SWAP1 POP JUMP JUMPDEST PUSH0 DUP2 SWAP1 POP DUP2 PUSH0 MSTORE PUSH1 0x20 PUSH0 KECCAK256 SWAP1 POP SWAP2 SWAP1 POP JUMP JUMPDEST PUSH0 PUSH1 0x20 PUSH1 0x1F DUP4 ADD DIV SWAP1 POP SWAP2 SWAP1 POP JUMP JUMPDEST PUSH0 DUP3 DUP3 SHL SWAP1 POP SWAP3 SWAP2 POP POP JUMP JUMPDEST PUSH0 PUSH1 0x8 DUP4 MUL PUSH2 0x2B6 PUSH32 0xFFFFFFFFFFFFFFFFFFFFFFFFFFFFFFFFFFFFFFFFFFFFFFFFFFFFFFFFFFFFFFFF DUP3 PUSH2 0x27B JUMP JUMPDEST PUSH2 0x2C0 DUP7 DUP4 PUSH2 0x27B JUMP JUMPDEST SWAP6 POP DUP1 NOT DUP5 AND SWAP4 POP DUP1 DUP7 AND DUP5 OR SWAP3 POP POP POP SWAP4 SWAP3 POP POP POP JUMP JUMPDEST PUSH0 DUP2 SWAP1 POP SWAP2 SWAP1 POP JUMP JUMPDEST PUSH0 PUSH2 0x2FB PUSH2 0x2F6 PUSH2 0x2F1 DUP5 PUSH2 0x176 JUMP JUMPDEST PUSH2 0x2D8 JUMP JUMPDEST PUSH2 0x176 JUMP JUMPDEST SWAP1 POP SWAP2 SWAP1 POP JUMP JUMPDEST PUSH0 DUP2 SWAP1 POP SWAP2 SWAP1 POP JUMP JUMPDEST PUSH2 0x314 DUP4 PUSH2 0x2E1 JUMP JUMPDEST PUSH2 0x328 PUSH2 0x320 DUP3 PUSH2 0x302 JUMP JUMPDEST DUP5 DUP5 SLOAD PUSH2 0x287 JUMP JUMPDEST DUP3 SSTORE POP POP POP POP JUMP JUMPDEST PUSH0 SWAP1 JUMP JUMPDEST PUSH2 0x33C PUSH2 0x330 JUMP JUMPDEST PUSH2 0x347 DUP2 DUP5 DUP5 PUSH2 0x30B JUMP JUMPDEST POP POP POP JUMP JUMPDEST JUMPDEST DUP2 DUP2 LT ISZERO PUSH2 0x36A JUMPI PUSH2 0x35F PUSH0 DUP3 PUSH2 0x334 JUMP JUMPDEST PUSH1 0x1 DUP2 ADD SWAP1 POP PUSH2 0x34D JUMP JUMPDEST POP POP JUMP JUMPDEST PUSH1 0x1F DUP3 GT ISZERO PUSH2 0x3AF JUMPI PUSH2 0x380 DUP2 PUSH2 0x25A JUMP JUMPDEST PUSH2 0x389 DUP5 PUSH2 0x26C JUMP JUMPDEST DUP2 ADD PUSH1 0x20 DUP6 LT ISZERO PUSH2 0x398 JUMPI DUP2 SWAP1 POP JUMPDEST PUSH2 0x3AC PUSH2 0x3A4 DUP6 PUSH2 0x26C JUMP JUMPDEST DUP4 ADD DUP3 PUSH2 0x34C JUMP JUMPDEST POP POP JUMPDEST POP POP POP JUMP JUMPDEST PUSH0 DUP3 DUP3 SHR SWAP1 POP SWAP3 SWAP2 POP POP JUMP JUMPDEST PUSH0 PUSH2 0x3CF PUSH0 NOT DUP5 PUSH1 0x8 MUL PUSH2 0x3B4 JUMP JUMPDEST NOT DUP1 DUP4 AND SWAP2 POP POP SWAP3 SWAP2 POP POP JUMP JUMPDEST PUSH0 PUSH2 0x3E7 DUP4 DUP4 PUSH2 0x3C0 JUMP JUMPDEST SWAP2 POP DUP3 PUSH1 0x2 MUL DUP3 OR SWAP1 POP SWAP3 SWAP2 POP POP JUMP JUMPDEST PUSH2 0x400 DUP3 PUSH2 0x1C6 JUMP JUMPDEST PUSH8 0xFFFFFFFFFFFFFFFF DUP2 GT ISZERO PUSH2 0x419 JUMPI PUSH2 0x418 PUSH2 0x1D0 JUMP JUMPDEST JUMPDEST PUSH2 0x423 DUP3 SLOAD PUSH2 0x22A JUMP JUMPDEST PUSH2 0x42E DUP3 DUP3 DUP6 PUSH2 0x36E JUMP JUMPDEST PUSH0 PUSH1 0x20 SWAP1 POP PUSH1 0x1F DUP4 GT PUSH1 0x1 DUP2 EQ PUSH2 0x45F JUMPI PUSH0 DUP5 ISZERO PUSH2 0x44D JUMPI DUP3 DUP8 ADD MLOAD SWAP1 POP JUMPDEST PUSH2 0x457 DUP6 DUP3 PUSH2 0x3DC JUMP JUMPDEST DUP7 SSTORE POP PUSH2 0x4BE JUMP JUMPDEST PUSH1 0x1F NOT DUP5 AND PUSH2 0x46D DUP7 PUSH2 0x25A JUMP JUMPDEST PUSH0 JUMPDEST DUP3 DUP2 LT ISZERO PUSH2 0x494 JUMPI DUP5 DUP10 ADD MLOAD DUP3 SSTORE PUSH1 0x1 DUP3 ADD SWAP2 POP PUSH1 0x20 DUP6 ADD SWAP5 POP PUSH1 0x20 DUP2 ADD SWAP1 POP PUSH2 0x46F JUMP JUMPDEST DUP7 DUP4 LT ISZERO PUSH2 0x4B1 JUMPI DUP5 DUP10 ADD MLOAD PUSH2 0x4AD PUSH1 0x1F DUP10 AND DUP3 PUSH2 0x3C0 JUMP JUMPDEST DUP4 SSTORE POP JUMPDEST PUSH1 0x1 PUSH1 0x2 DUP9 MUL ADD DUP9 SSTORE POP POP POP JUMPDEST POP POP POP POP POP POP JUMP JUMPDEST PUSH2 0x4CF DUP2 PUSH2 0x176 JUMP JUMPDEST DUP3 MSTORE POP POP JUMP JUMPDEST PUSH0 DUP3 DUP3 MSTORE PUSH1 0x20 DUP3 ADD SWAP1 POP SWAP3 SWAP2 POP POP JUMP JUMPDEST DUP3 DUP2 DUP4 MCOPY PUSH0 DUP4 DUP4 ADD MSTORE POP POP POP JUMP JUMPDEST PUSH0 PUSH1 0x1F NOT PUSH1 0x1F DUP4 ADD AND SWAP1 POP SWAP2 SWAP1 POP JUMP JUMPDEST PUSH0 PUSH2 0x50D DUP3 PUSH2 0x1C6 JUMP JUMPDEST PUSH2 0x517 DUP2 DUP6 PUSH2 0x4D5 JUMP JUMPDEST SWAP4 POP PUSH2 0x527 DUP2 DUP6 PUSH1 0x20 DUP7 ADD PUSH2 0x4E5 JUMP JUMPDEST PUSH2 0x530 DUP2 PUSH2 0x4F3 JUMP JUMPDEST DUP5 ADD SWAP2 POP POP SWAP3 SWAP2 POP POP JUMP JUMPDEST PUSH0 DUP2 ISZERO ISZERO SWAP1 POP SWAP2 SWAP1 POP JUMP JUMPDEST PUSH2 0x54F DUP2 PUSH2 0x53B JUMP JUMPDEST DUP3 MSTORE POP POP JUMP JUMPDEST PUSH0 PUSH1 0x60 DUP3 ADD SWAP1 POP PUSH2 0x568 PUSH0 DUP4 ADD DUP7 PUSH2 0x4C6 JUMP JUMPDEST DUP2 DUP2 SUB PUSH1 0x20 DUP4 ADD MSTORE PUSH2 0x57A DUP2 DUP6 PUSH2 0x503 JUMP JUMPDEST SWAP1 POP PUSH2 0x589 PUSH1 0x40 DUP4 ADD DUP5 PUSH2 0x546 JUMP JUMPDEST SWAP5 SWAP4 POP POP POP POP JUMP JUMPDEST PUSH2 0xDEC DUP1 PUSH2 0x59E PUSH0 CODECOPY PUSH0 RETURN INVALID PUSH1 0x80 PUSH1 0x40 MSTORE CALLVALUE DUP1 ISZERO PUSH2 0xF JUMPI PUSH0 DUP1 REVERT JUMPDEST POP PUSH1 0x4 CALLDATASIZE LT PUSH2 0x60 JUMPI PUSH0 CALLDATALOAD PUSH1 0xE0 SHR DUP1 PUSH4 0x111002AA EQ PUSH2 0x64 JUMPI DUP1 PUSH4 0x455F5024 EQ PUSH2 0x80 JUMPI DUP1 PUSH4 0x560F3192 EQ PUSH2 0x9C JUMPI DUP1 PUSH4 0x86533F6C EQ PUSH2 0xB8 JUMPI DUP1 PUSH4 0x8D977672 EQ PUSH2 0xD4 JUMPI DUP1 PUSH4 0xB6CB58A5 EQ PUSH2 0x107 JUMPI JUMPDEST PUSH0 DUP1 REVERT JUMPDEST PUSH2 0x7E PUSH1 0x4 DUP1 CALLDATASIZE SUB DUP2 ADD SWAP1 PUSH2 0x79 SWAP2 SWAP1 PUSH2 0x6C5 JUMP JUMPDEST PUSH2 0x125 JUMP JUMPDEST STOP JUMPDEST PUSH2 0x9A PUSH1 0x4 DUP1 CALLDATASIZE SUB DUP2 ADD SWAP1 PUSH2 0x95 SWAP2 SWAP1 PUSH2 0x73F JUMP JUMPDEST PUSH2 0x212 JUMP JUMPDEST STOP JUMPDEST PUSH2 0xB6 PUSH1 0x4 DUP1 CALLDATASIZE SUB DUP2 ADD SWAP1 PUSH2 0xB1 SWAP2 SWAP1 PUSH2 0x73F JUMP JUMPDEST PUSH2 0x2F1 JUMP JUMPDEST STOP JUMPDEST PUSH2 0xD2 PUSH1 0x4 DUP1 CALLDATASIZE SUB DUP2 ADD SWAP1 PUSH2 0xCD SWAP2 SWAP1 PUSH2 0x76A JUMP JUMPDEST PUSH2 0x3AF JUMP JUMPDEST STOP JUMPDEST PUSH2 0xEE PUSH1 0x4 DUP1 CALLDATASIZE SUB DUP2 ADD SWAP1 PUSH2 0xE9 SWAP2 SWAP1 PUSH2 0x73F JUMP JUMPDEST PUSH2 0x4A8 JUMP JUMPDEST PUSH1 0x40 MLOAD PUSH2 0xFE SWAP5 SWAP4 SWAP3 SWAP2 SWAP1 PUSH2 0x84D JUMP JUMPDEST PUSH1 0x40 MLOAD DUP1 SWAP2 SUB SWAP1 RETURN JUMPDEST PUSH2 0x10F PUSH2 0x573 JUMP JUMPDEST PUSH1 0x40 MLOAD PUSH2 0x11C SWAP2 SWAP1 PUSH2 0x897 JUMP JUMPDEST PUSH1 0x40 MLOAD DUP1 SWAP2 SUB SWAP1 RETURN JUMPDEST PUSH0 DUP1 DUP2 SLOAD DUP1 SWAP3 SWAP2 SWAP1 PUSH2 0x136 SWAP1 PUSH2 0x8DD JUMP JUMPDEST SWAP2 SWAP1 POP SSTORE POP PUSH1 0x40 MLOAD DUP1 PUSH1 0x80 ADD PUSH1 0x40 MSTORE DUP1 PUSH0 SLOAD DUP2 MSTORE PUSH1 0x20 ADD DUP3 DUP2 MSTORE PUSH1 0x20 ADD PUSH0 ISZERO ISZERO DUP2 MSTORE PUSH1 0x20 ADD PUSH0 ISZERO ISZERO DUP2 MSTORE POP PUSH1 0x1 PUSH0 DUP1 SLOAD DUP2 MSTORE PUSH1 0x20 ADD SWAP1 DUP2 MSTORE PUSH1 0x20 ADD PUSH0 KECCAK256 PUSH0 DUP3 ADD MLOAD DUP2 PUSH0 ADD SSTORE PUSH1 0x20 DUP3 ADD MLOAD DUP2 PUSH1 0x1 ADD SWAP1 DUP2 PUSH2 0x190 SWAP2 SWAP1 PUSH2 0xB1E JUMP JUMPDEST POP PUSH1 0x40 DUP3 ADD MLOAD DUP2 PUSH1 0x2 ADD PUSH0 PUSH2 0x100 EXP DUP2 SLOAD DUP2 PUSH1 0xFF MUL NOT AND SWAP1 DUP4 ISZERO ISZERO MUL OR SWAP1 SSTORE POP PUSH1 0x60 DUP3 ADD MLOAD DUP2 PUSH1 0x2 ADD PUSH1 0x1 PUSH2 0x100 EXP DUP2 SLOAD DUP2 PUSH1 0xFF MUL NOT AND SWAP1 DUP4 ISZERO ISZERO MUL OR SWAP1 SSTORE POP SWAP1 POP POP PUSH32 0x5D0FB833127FC08168556D0E7CA9554FC3F6BC843B3B7D2BF1C35AEA6BAB660 PUSH0 SLOAD DUP3 PUSH0 PUSH1 0x40 MLOAD PUSH2 0x207 SWAP4 SWAP3 SWAP2 SWAP1 PUSH2 0xBED JUMP JUMPDEST PUSH1 0x40 MLOAD DUP1 SWAP2 SUB SWAP1 LOG1 POP JUMP JUMPDEST PUSH0 PUSH1 0x1 PUSH0 DUP4 DUP2 MSTORE PUSH1 0x20 ADD SWAP1 DUP2 MSTORE PUSH1 0x20 ADD PUSH0 KECCAK256 SWAP1 POP DUP1 PUSH1 0x2 ADD PUSH1 0x1 SWAP1 SLOAD SWAP1 PUSH2 0x100 EXP SWAP1 DIV PUSH1 0xFF AND ISZERO PUSH2 0x278 JUMPI PUSH1 0x40 MLOAD PUSH32 0x8C379A000000000000000000000000000000000000000000000000000000000 DUP2 MSTORE PUSH1 0x4 ADD PUSH2 0x26F SWAP1 PUSH2 0xC73 JUMP JUMPDEST PUSH1 0x40 MLOAD DUP1 SWAP2 SUB SWAP1 REVERT JUMPDEST DUP1 PUSH1 0x2 ADD PUSH0 SWAP1 SLOAD SWAP1 PUSH2 0x100 EXP SWAP1 DIV PUSH1 0xFF AND ISZERO DUP2 PUSH1 0x2 ADD PUSH0 PUSH2 0x100 EXP DUP2 SLOAD DUP2 PUSH1 0xFF MUL NOT AND SWAP1 DUP4 ISZERO ISZERO MUL OR SWAP1 SSTORE POP PUSH32 0xE21FA966CA5CD02748C0752352D18C48165E61CB55B4C29CCCF924B5A95FCFF1 DUP3 DUP3 PUSH1 0x2 ADD PUSH0 SWAP1 SLOAD SWAP1 PUSH2 0x100 EXP SWAP1 DIV PUSH1 0xFF AND PUSH1 0x40 MLOAD PUSH2 0x2E5 SWAP3 SWAP2 SWAP1 PUSH2 0xC91 JUMP JUMPDEST PUSH1 0x40 MLOAD DUP1 SWAP2 SUB SWAP1 LOG1 POP POP JUMP JUMPDEST PUSH0 PUSH1 0x1 PUSH0 DUP4 DUP2 MSTORE PUSH1 0x20 ADD SWAP1 DUP2 MSTORE PUSH1 0x20 ADD PUSH0 KECCAK256 SWAP1 POP DUP1 PUSH1 0x2 ADD PUSH1 0x1 SWAP1 SLOAD SWAP1 PUSH2 0x100 EXP SWAP1 DIV PUSH1 0xFF AND ISZERO PUSH2 0x357 JUMPI PUSH1 0x40 MLOAD PUSH32 0x8C379A000000000000000000000000000000000000000000000000000000000 DUP2 MSTORE PUSH1 0x4 ADD PUSH2 0x34E SWAP1 PUSH2 0xD02 JUMP JUMPDEST PUSH1 0x40 MLOAD DUP1 SWAP2 SUB SWAP1 REVERT JUMPDEST PUSH1 0x1 DUP2 PUSH1 0x2 ADD PUSH1 0x1 PUSH2 0x100 EXP DUP2 SLOAD DUP2 PUSH1 0xFF MUL NOT AND SWAP1 DUP4 ISZERO ISZERO MUL OR SWAP1 SSTORE POP PUSH32 0xD078B251D950CC55C44340BE1DB732337EF4939A76E1367EE271AD2CB19C46AF DUP3 PUSH1 0x40 MLOAD PUSH2 0x3A3 SWAP2 SWAP1 PUSH2 0x897 JUMP JUMPDEST PUSH1 0x40 MLOAD DUP1 SWAP2 SUB SWAP1 LOG1 POP POP JUMP JUMPDEST PUSH0 DUP2 MLOAD GT PUSH2 0x3F2 JUMPI PUSH1 0x40 MLOAD PUSH32 0x8C379A000000000000000000000000000000000000000000000000000000000 DUP2 MSTORE PUSH1 0x4 ADD PUSH2 0x3E9 SWAP1 PUSH2 0xD6A JUMP JUMPDEST PUSH1 0x40 MLOAD DUP1 SWAP2 SUB SWAP1 REVERT JUMPDEST PUSH0 PUSH1 0x1 PUSH0 DUP5 DUP2 MSTORE PUSH1 0x20 ADD SWAP1 DUP2 MSTORE PUSH1 0x20 ADD PUSH0 KECCAK256 SWAP1 POP DUP1 PUSH1 0x2 ADD PUSH1 0x1 SWAP1 SLOAD SWAP1 PUSH2 0x100 EXP SWAP1 DIV PUSH1 0xFF AND ISZERO PUSH2 0x458 JUMPI PUSH1 0x40 MLOAD PUSH32 0x8C379A000000000000000000000000000000000000000000000000000000000 DUP2 MSTORE PUSH1 0x4 ADD PUSH2 0x44F SWAP1 PUSH2 0xC73 JUMP JUMPDEST PUSH1 0x40 MLOAD DUP1 SWAP2 SUB SWAP1 REVERT JUMPDEST DUP2 DUP2 PUSH1 0x1 ADD SWAP1 DUP2 PUSH2 0x469 SWAP2 SWAP1 PUSH2 0xB1E JUMP JUMPDEST POP PUSH32 0xDE038A66D64727FC277F5F5F3D50B98D205E4AE705BFB8AC824CEA4877B9BE49 DUP4 DUP4 PUSH1 0x40 MLOAD PUSH2 0x49B SWAP3 SWAP2 SWAP1 PUSH2 0xD88 JUMP JUMPDEST PUSH1 0x40 MLOAD DUP1 SWAP2 SUB SWAP1 LOG1 POP POP POP JUMP JUMPDEST PUSH1 0x1 PUSH1 0x20 MSTORE DUP1 PUSH0 MSTORE PUSH1 0x40 PUSH0 KECCAK256 PUSH0 SWAP2 POP SWAP1 POP DUP1 PUSH0 ADD SLOAD SWAP1 DUP1 PUSH1 0x1 ADD DUP1 SLOAD PUSH2 0x4CD SWAP1 PUSH2 0x951 JUMP JUMPDEST DUP1 PUSH1 0x1F ADD PUSH1 0x20 DUP1 SWAP2 DIV MUL PUSH1 0x20 ADD PUSH1 0x40 MLOAD SWAP1 DUP2 ADD PUSH1 0x40 MSTORE DUP1 SWAP3 SWAP2 SWAP1 DUP2 DUP2 MSTORE PUSH1 0x20 ADD DUP3 DUP1 SLOAD PUSH2 0x4F9 SWAP1 PUSH2 0x951 JUMP JUMPDEST DUP1 ISZERO PUSH2 0x544 JUMPI DUP1 PUSH1 0x1F LT PUSH2 0x51B JUMPI PUSH2 0x100 DUP1 DUP4 SLOAD DIV MUL DUP4 MSTORE SWAP2 PUSH1 0x20 ADD SWAP2 PUSH2 0x544 JUMP JUMPDEST DUP3 ADD SWAP2 SWAP1 PUSH0 MSTORE PUSH1 0x20 PUSH0 KECCAK256 SWAP1 JUMPDEST DUP2 SLOAD DUP2 MSTORE SWAP1 PUSH1 0x1 ADD SWAP1 PUSH1 0x20 ADD DUP1 DUP4 GT PUSH2 0x527 JUMPI DUP3 SWAP1 SUB PUSH1 0x1F AND DUP3 ADD SWAP2 JUMPDEST POP POP POP POP POP SWAP1 DUP1 PUSH1 0x2 ADD PUSH0 SWAP1 SLOAD SWAP1 PUSH2 0x100 EXP SWAP1 DIV PUSH1 0xFF AND SWAP1 DUP1 PUSH1 0x2 ADD PUSH1 0x1 SWAP1 SLOAD SWAP1 PUSH2 0x100 EXP SWAP1 DIV PUSH1 0xFF AND SWAP1 POP DUP5 JUMP JUMPDEST PUSH0 SLOAD DUP2 JUMP JUMPDEST PUSH0 PUSH1 0x40 MLOAD SWAP1 POP SWAP1 JUMP JUMPDEST PUSH0 DUP1 REVERT JUMPDEST PUSH0 DUP1 REVERT JUMPDEST PUSH0 DUP1 REVERT JUMPDEST PUSH0 DUP1 REVERT JUMPDEST PUSH0 PUSH1 0x1F NOT PUSH1 0x1F DUP4 ADD AND SWAP1 POP SWAP2 SWAP1 POP JUMP JUMPDEST PUSH32 0x4E487B7100000000000000000000000000000000000000000000000000000000 PUSH0 MSTORE PUSH1 0x41 PUSH1 0x4 MSTORE PUSH1 0x24 PUSH0 REVERT JUMPDEST PUSH2 0x5D7 DUP3 PUSH2 0x591 JUMP JUMPDEST DUP2 ADD DUP2 DUP2 LT PUSH8 0xFFFFFFFFFFFFFFFF DUP3 GT OR ISZERO PUSH2 0x5F6 JUMPI PUSH2 0x5F5 PUSH2 0x5A1 JUMP JUMPDEST JUMPDEST DUP1 PUSH1 0x40 MSTORE POP POP POP JUMP JUMPDEST PUSH0 PUSH2 0x608 PUSH2 0x578 JUMP JUMPDEST SWAP1 POP PUSH2 0x614 DUP3 DUP3 PUSH2 0x5CE JUMP JUMPDEST SWAP2 SWAP1 POP JUMP JUMPDEST PUSH0 PUSH8 0xFFFFFFFFFFFFFFFF DUP3 GT ISZERO PUSH2 0x633 JUMPI PUSH2 0x632 PUSH2 0x5A1 JUMP JUMPDEST JUMPDEST PUSH2 0x63C DUP3 PUSH2 0x591 JUMP JUMPDEST SWAP1 POP PUSH1 0x20 DUP2 ADD SWAP1 POP SWAP2 SWAP1 POP JUMP JUMPDEST DUP3 DUP2 DUP4 CALLDATACOPY PUSH0 DUP4 DUP4 ADD MSTORE POP POP POP JUMP JUMPDEST PUSH0 PUSH2 0x669 PUSH2 0x664 DUP5 PUSH2 0x619 JUMP JUMPDEST PUSH2 0x5FF JUMP JUMPDEST SWAP1 POP DUP3 DUP2 MSTORE PUSH1 0x20 DUP2 ADD DUP5 DUP5 DUP5 ADD GT ISZERO PUSH2 0x685 JUMPI PUSH2 0x684 PUSH2 0x58D JUMP JUMPDEST JUMPDEST PUSH2 0x690 DUP5 DUP3 DUP6 PUSH2 0x649 JUMP JUMPDEST POP SWAP4 SWAP3 POP POP POP JUMP JUMPDEST PUSH0 DUP3 PUSH1 0x1F DUP4 ADD SLT PUSH2 0x6AC JUMPI PUSH2 0x6AB PUSH2 0x589 JUMP JUMPDEST JUMPDEST DUP2 CALLDATALOAD PUSH2 0x6BC DUP5 DUP3 PUSH1 0x20 DUP7 ADD PUSH2 0x657 JUMP JUMPDEST SWAP2 POP POP SWAP3 SWAP2 POP POP JUMP JUMPDEST PUSH0 PUSH1 0x20 DUP3 DUP5 SUB SLT ISZERO PUSH2 0x6DA JUMPI PUSH2 0x6D9 PUSH2 0x581 JUMP JUMPDEST JUMPDEST PUSH0 DUP3 ADD CALLDATALOAD PUSH8 0xFFFFFFFFFFFFFFFF DUP2 GT ISZERO PUSH2 0x6F7 JUMPI PUSH2 0x6F6 PUSH2 0x585 JUMP JUMPDEST JUMPDEST PUSH2 0x703 DUP5 DUP3 DUP6 ADD PUSH2 0x698 JUMP JUMPDEST SWAP2 POP POP SWAP3 SWAP2 POP POP JUMP JUMPDEST PUSH0 DUP2 SWAP1 POP SWAP2 SWAP1 POP JUMP JUMPDEST PUSH2 0x71E DUP2 PUSH2 0x70C JUMP JUMPDEST DUP2 EQ PUSH2 0x728 JUMPI PUSH0 DUP1 REVERT JUMPDEST POP JUMP JUMPDEST PUSH0 DUP2 CALLDATALOAD SWAP1 POP PUSH2 0x739 DUP2 PUSH2 0x715 JUMP JUMPDEST SWAP3 SWAP2 POP POP JUMP JUMPDEST PUSH0 PUSH1 0x20 DUP3 DUP5 SUB SLT ISZERO PUSH2 0x754 JUMPI PUSH2 0x753 PUSH2 0x581 JUMP JUMPDEST JUMPDEST PUSH0 PUSH2 0x761 DUP5 DUP3 DUP6 ADD PUSH2 0x72B JUMP JUMPDEST SWAP2 POP POP SWAP3 SWAP2 POP POP JUMP JUMPDEST PUSH0 DUP1 PUSH1 0x40 DUP4 DUP6 SUB SLT ISZERO PUSH2 0x780 JUMPI PUSH2 0x77F PUSH2 0x581 JUMP JUMPDEST JUMPDEST PUSH0 PUSH2 0x78D DUP6 DUP3 DUP7 ADD PUSH2 0x72B JUMP JUMPDEST SWAP3 POP POP PUSH1 0x20 DUP4 ADD CALLDATALOAD PUSH8 0xFFFFFFFFFFFFFFFF DUP2 GT ISZERO PUSH2 0x7AE JUMPI PUSH2 0x7AD PUSH2 0x585 JUMP JUMPDEST JUMPDEST PUSH2 0x7BA DUP6 DUP3 DUP7 ADD PUSH2 0x698 JUMP JUMPDEST SWAP2 POP POP SWAP3 POP SWAP3 SWAP1 POP JUMP JUMPDEST PUSH2 0x7CD DUP2 PUSH2 0x70C JUMP JUMPDEST DUP3 MSTORE POP POP JUMP JUMPDEST PUSH0 DUP2 MLOAD SWAP1 POP SWAP2 SWAP1 POP JUMP JUMPDEST PUSH0 DUP3 DUP3 MSTORE PUSH1 0x20 DUP3 ADD SWAP1 POP SWAP3 SWAP2 POP POP JUMP JUMPDEST DUP3 DUP2 DUP4 MCOPY PUSH0 DUP4 DUP4 ADD MSTORE POP POP POP JUMP JUMPDEST PUSH0 PUSH2 0x805 DUP3 PUSH2 0x7D3 JUMP JUMPDEST PUSH2 0x80F DUP2 DUP6 PUSH2 0x7DD JUMP JUMPDEST SWAP4 POP PUSH2 0x81F DUP2 DUP6 PUSH1 0x20 DUP7 ADD PUSH2 0x7ED JUMP JUMPDEST PUSH2 0x828 DUP2 PUSH2 0x591 JUMP JUMPDEST DUP5 ADD SWAP2 POP POP SWAP3 SWAP2 POP POP JUMP JUMPDEST PUSH0 DUP2 ISZERO ISZERO SWAP1 POP SWAP2 SWAP1 POP JUMP JUMPDEST PUSH2 0x847 DUP2 PUSH2 0x833 JUMP JUMPDEST DUP3 MSTORE POP POP JUMP JUMPDEST PUSH0 PUSH1 0x80 DUP3 ADD SWAP1 POP PUSH2 0x860 PUSH0 DUP4 ADD DUP8 PUSH2 0x7C4 JUMP JUMPDEST DUP2 DUP2 SUB PUSH1 0x20 DUP4 ADD MSTORE PUSH2 0x872 DUP2 DUP7 PUSH2 0x7FB JUMP JUMPDEST SWAP1 POP PUSH2 0x881 PUSH1 0x40 DUP4 ADD DUP6 PUSH2 0x83E JUMP JUMPDEST PUSH2 0x88E PUSH1 0x60 DUP4 ADD DUP5 PUSH2 0x83E JUMP JUMPDEST SWAP6 SWAP5 POP POP POP POP POP JUMP JUMPDEST PUSH0 PUSH1 0x20 DUP3 ADD SWAP1 POP PUSH2 0x8AA PUSH0 DUP4 ADD DUP5 PUSH2 0x7C4 JUMP JUMPDEST SWAP3 SWAP2 POP POP JUMP JUMPDEST PUSH32 0x4E487B7100000000000000000000000000000000000000000000000000000000 PUSH0 MSTORE PUSH1 0x11 PUSH1 0x4 MSTORE PUSH1 0x24 PUSH0 REVERT JUMPDEST PUSH0 PUSH2 0x8E7 DUP3 PUSH2 0x70C JUMP JUMPDEST SWAP2 POP PUSH32 0xFFFFFFFFFFFFFFFFFFFFFFFFFFFFFFFFFFFFFFFFFFFFFFFFFFFFFFFFFFFFFFFF DUP3 SUB PUSH2 0x919 JUMPI PUSH2 0x918 PUSH2 0x8B0 JUMP JUMPDEST JUMPDEST PUSH1 0x1 DUP3 ADD SWAP1 POP SWAP2 SWAP1 POP JUMP JUMPDEST PUSH32 0x4E487B7100000000000000000000000000000000000000000000000000000000 PUSH0 MSTORE PUSH1 0x22 PUSH1 0x4 MSTORE PUSH1 0x24 PUSH0 REVERT JUMPDEST PUSH0 PUSH1 0x2 DUP3 DIV SWAP1 POP PUSH1 0x1 DUP3 AND DUP1 PUSH2 0x968 JUMPI PUSH1 0x7F DUP3 AND SWAP2 POP JUMPDEST PUSH1 0x20 DUP3 LT DUP2 SUB PUSH2 0x97B JUMPI PUSH2 0x97A PUSH2 0x924 JUMP JUMPDEST JUMPDEST POP SWAP2 SWAP1 POP JUMP JUMPDEST PUSH0 DUP2 SWAP1 POP DUP2 PUSH0 MSTORE PUSH1 0x20 PUSH0 KECCAK256 SWAP1 POP SWAP2 SWAP1 POP JUMP JUMPDEST PUSH0 PUSH1 0x20 PUSH1 0x1F DUP4 ADD DIV SWAP1 POP SWAP2 SWAP1 POP JUMP JUMPDEST PUSH0 DUP3 DUP3 SHL SWAP1 POP SWAP3 SWAP2 POP POP JUMP JUMPDEST PUSH0 PUSH1 0x8 DUP4 MUL PUSH2 0x9DD PUSH32 0xFFFFFFFFFFFFFFFFFFFFFFFFFFFFFFFFFFFFFFFFFFFFFFFFFFFFFFFFFFFFFFFF DUP3 PUSH2 0x9A2 JUMP JUMPDEST PUSH2 0x9E7 DUP7 DUP4 PUSH2 0x9A2 JUMP JUMPDEST SWAP6 POP DUP1 NOT DUP5 AND SWAP4 POP DUP1 DUP7 AND DUP5 OR SWAP3 POP POP POP SWAP4 SWAP3 POP POP POP JUMP JUMPDEST PUSH0 DUP2 SWAP1 POP SWAP2 SWAP1 POP JUMP JUMPDEST PUSH0 PUSH2 0xA22 PUSH2 0xA1D PUSH2 0xA18 DUP5 PUSH2 0x70C JUMP JUMPDEST PUSH2 0x9FF JUMP JUMPDEST PUSH2 0x70C JUMP JUMPDEST SWAP1 POP SWAP2 SWAP1 POP JUMP JUMPDEST PUSH0 DUP2 SWAP1 POP SWAP2 SWAP1 POP JUMP JUMPDEST PUSH2 0xA3B DUP4 PUSH2 0xA08 JUMP JUMPDEST PUSH2 0xA4F PUSH2 0xA47 DUP3 PUSH2 0xA29 JUMP JUMPDEST DUP5 DUP5 SLOAD PUSH2 0x9AE JUMP JUMPDEST DUP3 SSTORE POP POP POP POP JUMP JUMPDEST PUSH0 SWAP1 JUMP JUMPDEST PUSH2 0xA63 PUSH2 0xA57 JUMP JUMPDEST PUSH2 0xA6E DUP2 DUP5 DUP5 PUSH2 0xA32 JUMP JUMPDEST POP POP POP JUMP JUMPDEST JUMPDEST DUP2 DUP2 LT ISZERO PUSH2 0xA91 JUMPI PUSH2 0xA86 PUSH0 DUP3 PUSH2 0xA5B JUMP JUMPDEST PUSH1 0x1 DUP2 ADD SWAP1 POP PUSH2 0xA74 JUMP JUMPDEST POP POP JUMP JUMPDEST PUSH1 0x1F DUP3 GT ISZERO PUSH2 0xAD6 JUMPI PUSH2 0xAA7 DUP2 PUSH2 0x981 JUMP JUMPDEST PUSH2 0xAB0 DUP5 PUSH2 0x993 JUMP JUMPDEST DUP2 ADD PUSH1 0x20 DUP6 LT ISZERO PUSH2 0xABF JUMPI DUP2 SWAP1 POP JUMPDEST PUSH2 0xAD3 PUSH2 0xACB DUP6 PUSH2 0x993 JUMP JUMPDEST DUP4 ADD DUP3 PUSH2 0xA73 JUMP JUMPDEST POP POP JUMPDEST POP POP POP JUMP JUMPDEST PUSH0 DUP3 DUP3 SHR SWAP1 POP SWAP3 SWAP2 POP POP JUMP JUMPDEST PUSH0 PUSH2 0xAF6 PUSH0 NOT DUP5 PUSH1 0x8 MUL PUSH2 0xADB JUMP JUMPDEST NOT DUP1 DUP4 AND SWAP2 POP POP SWAP3 SWAP2 POP POP JUMP JUMPDEST PUSH0 PUSH2 0xB0E DUP4 DUP4 PUSH2 0xAE7 JUMP JUMPDEST SWAP2 POP DUP3 PUSH1 0x2 MUL DUP3 OR SWAP1 POP SWAP3 SWAP2 POP POP JUMP JUMPDEST PUSH2 0xB27 DUP3 PUSH2 0x7D3 JUMP JUMPDEST PUSH8 0xFFFFFFFFFFFFFFFF DUP2 GT ISZERO PUSH2 0xB40 JUMPI PUSH2 0xB3F PUSH2 0x5A1 JUMP JUMPDEST JUMPDEST PUSH2 0xB4A DUP3 SLOAD PUSH2 0x951 JUMP JUMPDEST PUSH2 0xB55 DUP3 DUP3 DUP6 PUSH2 0xA95 JUMP JUMPDEST PUSH0 PUSH1 0x20 SWAP1 POP PUSH1 0x1F DUP4 GT PUSH1 0x1 DUP2 EQ PUSH2 0xB86 JUMPI PUSH0 DUP5 ISZERO PUSH2 0xB74 JUMPI DUP3 DUP8 ADD MLOAD SWAP1 POP JUMPDEST PUSH2 0xB7E DUP6 DUP3 PUSH2 0xB03 JUMP JUMPDEST DUP7 SSTORE POP PUSH2 0xBE5 JUMP JUMPDEST PUSH1 0x1F NOT DUP5 AND PUSH2 0xB94 DUP7 PUSH2 0x981 JUMP JUMPDEST PUSH0 JUMPDEST DUP3 DUP2 LT ISZERO PUSH2 0xBBB JUMPI DUP5 DUP10 ADD MLOAD DUP3 SSTORE PUSH1 0x1 DUP3 ADD SWAP2 POP PUSH1 0x20 DUP6 ADD SWAP5 POP PUSH1 0x20 DUP2 ADD SWAP1 POP PUSH2 0xB96 JUMP JUMPDEST DUP7 DUP4 LT ISZERO PUSH2 0xBD8 JUMPI DUP5 DUP10 ADD MLOAD PUSH2 0xBD4 PUSH1 0x1F DUP10 AND DUP3 PUSH2 0xAE7 JUMP JUMPDEST DUP4 SSTORE POP JUMPDEST PUSH1 0x1 PUSH1 0x2 DUP9 MUL ADD DUP9 SSTORE POP POP POP JUMPDEST POP POP POP POP POP POP JUMP JUMPDEST PUSH0 PUSH1 0x60 DUP3 ADD SWAP1 POP PUSH2 0xC00 PUSH0 DUP4 ADD DUP7 PUSH2 0x7C4 JUMP JUMPDEST DUP2 DUP2 SUB PUSH1 0x20 DUP4 ADD MSTORE PUSH2 0xC12 DUP2 DUP6 PUSH2 0x7FB JUMP JUMPDEST SWAP1 POP PUSH2 0xC21 PUSH1 0x40 DUP4 ADD DUP5 PUSH2 0x83E JUMP JUMPDEST SWAP5 SWAP4 POP POP POP POP JUMP JUMPDEST PUSH32 0x5461736B20686173206265656E2064656C657465640000000000000000000000 PUSH0 DUP3 ADD MSTORE POP JUMP JUMPDEST PUSH0 PUSH2 0xC5D PUSH1 0x15 DUP4 PUSH2 0x7DD JUMP JUMPDEST SWAP2 POP PUSH2 0xC68 DUP3 PUSH2 0xC29 JUMP JUMPDEST PUSH1 0x20 DUP3 ADD SWAP1 POP SWAP2 SWAP1 POP JUMP JUMPDEST PUSH0 PUSH1 0x20 DUP3 ADD SWAP1 POP DUP2 DUP2 SUB PUSH0 DUP4 ADD MSTORE PUSH2 0xC8A DUP2 PUSH2 0xC51 JUMP JUMPDEST SWAP1 POP SWAP2 SWAP1 POP JUMP JUMPDEST PUSH0 PUSH1 0x40 DUP3 ADD SWAP1 POP PUSH2 0xCA4 PUSH0 DUP4 ADD DUP6 PUSH2 0x7C4 JUMP JUMPDEST PUSH2 0xCB1 PUSH1 0x20 DUP4 ADD DUP5 PUSH2 0x83E JUMP JUMPDEST SWAP4 SWAP3 POP POP POP JUMP JUMPDEST PUSH32 0x5461736B2068617320616C7265616479206265656E2064656C65746564000000 PUSH0 DUP3 ADD MSTORE POP JUMP JUMPDEST PUSH0 PUSH2 0xCEC PUSH1 0x1D DUP4 PUSH2 0x7DD JUMP JUMPDEST SWAP2 POP PUSH2 0xCF7 DUP3 PUSH2 0xCB8 JUMP JUMPDEST PUSH1 0x20 DUP3 ADD SWAP1 POP SWAP2 SWAP1 POP JUMP JUMPDEST PUSH0 PUSH1 0x20 DUP3 ADD SWAP1 POP DUP2 DUP2 SUB PUSH0 DUP4 ADD MSTORE PUSH2 0xD19 DUP2 PUSH2 0xCE0 JUMP JUMPDEST SWAP1 POP SWAP2 SWAP1 POP JUMP JUMPDEST PUSH32 0x436F6E74656E742063616E6E6F7420626520656D707479000000000000000000 PUSH0 DUP3 ADD MSTORE POP JUMP JUMPDEST PUSH0 PUSH2 0xD54 PUSH1 0x17 DUP4 PUSH2 0x7DD JUMP JUMPDEST SWAP2 POP PUSH2 0xD5F DUP3 PUSH2 0xD20 JUMP JUMPDEST PUSH1 0x20 DUP3 ADD SWAP1 POP SWAP2 SWAP1 POP JUMP JUMPDEST PUSH0 PUSH1 0x20 DUP3 ADD SWAP1 POP DUP2 DUP2 SUB PUSH0 DUP4 ADD MSTORE PUSH2 0xD81 DUP2 PUSH2 0xD48 JUMP JUMPDEST SWAP1 POP SWAP2 SWAP1 POP JUMP JUMPDEST PUSH0 PUSH1 0x40 DUP3 ADD SWAP1 POP PUSH2 0xD9B PUSH0 DUP4 ADD DUP6 PUSH2 0x7C4 JUMP JUMPDEST DUP2 DUP2 SUB PUSH1 0x20 DUP4 ADD MSTORE PUSH2 0xDAD DUP2 DUP5 PUSH2 0x7FB JUMP JUMPDEST SWAP1 POP SWAP4 SWAP3 POP POP POP JUMP INVALID LOG2 PUSH5 0x6970667358 0x22 SLT KECCAK256 SWAP6 0x2B TSTORE 0x29 0x29 0xB4 PUSH0 GAS GASLIMIT PUSH6 0x64A5F15033BC 0xAF BYTE SWAP2 RETURNDATASIZE MOD EXTCODEHASH EXP LOG4 0xB3 LOG4 MUL DIV 0xB8 PUSH18 0xF92364736F6C634300081900330000000000 "
				},
				"gasEstimates": {
					"creation": {
						"codeDepositCost": "712800",
						"executionCost": "infinite",
						"totalCost": "infinite"
					},
					"external": {
						"createTask(string)": "infinite",
						"deleteTask(uint256)": "infinite",
						"taskCount()": "2512",
						"tasks(uint256)": "infinite",
						"toggleCompleted(uint256)": "infinite",
						"updateTask(uint256,string)": "infinite"
					}
				},
				"methodIdentifiers": {
					"createTask(string)": "111002aa",
					"deleteTask(uint256)": "560f3192",
					"taskCount()": "b6cb58a5",
					"tasks(uint256)": "8d977672",
					"toggleCompleted(uint256)": "455f5024",
					"updateTask(uint256,string)": "86533f6c"
				}
			},
			"storageLayout": {
				"storage": [
					{
						"astId": 4,
						"contract": "contracts/todolist.sol:TodoList",
						"label": "taskCount",
						"offset": 0,
						"slot": "0",
						"type": "t_uint256"
					},
					{
						"astId": 18,
						"contract": "contracts/todolist.sol:TodoList",
						"label": "tasks",
						"offset": 0,
						"slot": "1",
						"type": "t_mapping(t_uint256,t_struct(Task)13_storage)"
					}
				],
				"types": {
					"t_bool": {
						"encoding": "inplace",
						"label": "bool",
						"numberOfBytes": "1"
					},
					"t_mapping(t_uint256,t_struct(Task)13_storage)": {
						"encoding": "mapping",
						"key": "t_uint256",
						"label": "mapping(uint256 => struct TodoList.Task)",
						"numberOfBytes": "32",
						"value": "t_struct(Task)13_storage"
					},
					"t_string_storage": {
						"encoding": "bytes",
						"label": "string",
						"numberOfBytes": "32"
					},
					"t_struct(Task)13_storage": {
						"encoding": "inplace",
						"label": "struct TodoList.Task",
						"members": [
							{
								"astId": 6,
								"contract": "contracts/todolist.sol:TodoList",
								"label": "id",
								"offset": 0,
								"slot": "0",
								"type": "t_uint256"
							},
							{
								"astId": 8,
								"contract": "contracts/todolist.sol:TodoList",
								"label": "content",
								"offset": 0,
								"slot": "1",
								"type": "t_string_storage"
							},
							{
								"astId": 10,
								"contract": "contracts/todolist.sol:TodoList",
								"label": "completed",
								"offset": 0,
								"slot": "2",
								"type": "t_bool"
							},
							{
								"astId": 12,
								"contract": "contracts/todolist.sol:TodoList",
								"label": "deleted",
								"offset": 1,
								"slot": "2",
								"type": "t_bool"
							}
						],
						"numberOfBytes": "96"
					},
					"t_uint256": {
						"encoding": "inplace",
						"label": "uint256",
						"numberOfBytes": "32"
					}
				}
			},
			"userdoc": {
				"kind": "user",
				"methods": {},
				"version": 1
			}
		}
	}
}