{
	"contracts/Storage.sol": {
		"Storage": {
			"abi": [
				{
					"inputs": [],
					"stateMutability": "nonpayable",
					"type": "constructor"
				},
				{
					"inputs": [],
					"name": "data",
					"outputs": [
						{
							"internalType": "uint256",
							"name": "",
							"type": "uint256"
						}
					],
					"stateMutability": "view",
					"type": "function"
				},
				{
					"inputs": [],
					"name": "getData",
					"outputs": [
						{
							"internalType": "uint256",
							"name": "",
							"type": "uint256"
						}
					],
					"stateMutability": "view",
					"type": "function"
				},
				{
					"inputs": [
						{
							"internalType": "uint256",
							"name": "_data",
							"type": "uint256"
						}
					],
					"name": "setData",
					"outputs": [],
					"stateMutability": "nonpayable",
					"type": "function"
				}
			],
			"devdoc": {
				"kind": "dev",
				"methods": {},
				"version": 1
			},
			"evm": {
				"assembly": "    /* \"contracts/Storage.sol\":59:306  contract Storage {... */\n  mstore(0x40, 0x80)\n    /* \"contracts/Storage.sol\":106:144  constructor(){... */\n  callvalue\n  dup1\n  iszero\n  tag_1\n  jumpi\n  0x00\n  dup1\n  revert\ntag_1:\n  pop\n    /* \"contracts/Storage.sol\":136:137  0 */\n  0x00\n    /* \"contracts/Storage.sol\":129:137  data = 0 */\n  dup1\n  sstore\n    /* \"contracts/Storage.sol\":59:306  contract Storage {... */\n  dataSize(sub_0)\n  dup1\n  dataOffset(sub_0)\n  0x00\n  codecopy\n  0x00\n  return\nstop\n\nsub_0: assembly {\n        /* \"contracts/Storage.sol\":59:306  contract Storage {... */\n      mstore(0x40, 0x80)\n      callvalue\n      dup1\n      iszero\n      tag_1\n      jumpi\n      0x00\n      dup1\n      revert\n    tag_1:\n      pop\n      jumpi(tag_2, lt(calldatasize, 0x04))\n      shr(0xe0, calldataload(0x00))\n      dup1\n      0x3bc5de30\n      eq\n      tag_3\n      jumpi\n      dup1\n      0x5b4b73a9\n      eq\n      tag_4\n      jumpi\n      dup1\n      0x73d4a13a\n      eq\n      tag_5\n      jumpi\n    tag_2:\n      0x00\n      dup1\n      revert\n        /* \"contracts/Storage.sol\":230:304  function getData() public view returns (uint) {... */\n    tag_3:\n        /* \"contracts/Storage.sol\":270:274  uint */\n      0x00\n        /* \"contracts/Storage.sol\":293:297  data */\n      sload\n        /* \"contracts/Storage.sol\":230:304  function getData() public view returns (uint) {... */\n    tag_6:\n      mload(0x40)\n        /* \"#utility.yul\":160:185   */\n      swap1\n      dup2\n      mstore\n        /* \"#utility.yul\":148:150   */\n      0x20\n        /* \"#utility.yul\":133:151   */\n      add\n        /* \"contracts/Storage.sol\":230:304  function getData() public view returns (uint) {... */\n      mload(0x40)\n      dup1\n      swap2\n      sub\n      swap1\n      return\n        /* \"contracts/Storage.sol\":151:223  function setData(uint _data) public {... */\n    tag_4:\n      tag_10\n      tag_11\n      calldatasize\n      0x04\n      tag_12\n      jump\t// in\n    tag_11:\n      tag_13\n      jump\t// in\n    tag_10:\n      stop\n        /* \"contracts/Storage.sol\":82:98  uint public data */\n    tag_5:\n      tag_6\n      sload(0x00)\n      dup2\n      jump\n        /* \"contracts/Storage.sol\":151:223  function setData(uint _data) public {... */\n    tag_13:\n        /* \"contracts/Storage.sol\":211:216  _data */\n      dup1\n        /* \"contracts/Storage.sol\":204:208  data */\n      sload(0x00)\n        /* \"contracts/Storage.sol\":204:216  data + _data */\n      tag_19\n      swap2\n      swap1\n      tag_20\n      jump\t// in\n    tag_19:\n        /* \"contracts/Storage.sol\":197:201  data */\n      0x00\n        /* \"contracts/Storage.sol\":197:216  data = data + _data */\n      sstore\n      pop\n        /* \"contracts/Storage.sol\":151:223  function setData(uint _data) public {... */\n      jump\t// out\n        /* \"#utility.yul\":196:376   */\n    tag_12:\n        /* \"#utility.yul\":255:261   */\n      0x00\n        /* \"#utility.yul\":308:310   */\n      0x20\n        /* \"#utility.yul\":296:305   */\n      dup3\n        /* \"#utility.yul\":287:294   */\n      dup5\n        /* \"#utility.yul\":283:306   */\n      sub\n        /* \"#utility.yul\":279:311   */\n      slt\n        /* \"#utility.yul\":276:328   */\n      iszero\n      tag_24\n      jumpi\n        /* \"#utility.yul\":324:325   */\n      0x00\n        /* \"#utility.yul\":321:322   */\n      dup1\n        /* \"#utility.yul\":314:326   */\n      revert\n        /* \"#utility.yul\":276:328   */\n    tag_24:\n      pop\n        /* \"#utility.yul\":347:370   */\n      calldataload\n      swap2\n        /* \"#utility.yul\":196:376   */\n      swap1\n      pop\n      jump\t// out\n        /* \"#utility.yul\":381:603   */\n    tag_20:\n        /* \"#utility.yul\":446:455   */\n      dup1\n      dup3\n      add\n        /* \"#utility.yul\":467:477   */\n      dup1\n      dup3\n      gt\n        /* \"#utility.yul\":464:597   */\n      iszero\n      tag_26\n      jumpi\n        /* \"#utility.yul\":519:529   */\n      0x4e487b71\n        /* \"#utility.yul\":514:517   */\n      0xe0\n        /* \"#utility.yul\":510:530   */\n      shl\n        /* \"#utility.yul\":507:508   */\n      0x00\n        /* \"#utility.yul\":500:531   */\n      mstore\n        /* \"#utility.yul\":554:558   */\n      0x11\n        /* \"#utility.yul\":551:552   */\n      0x04\n        /* \"#utility.yul\":544:559   */\n      mstore\n        /* \"#utility.yul\":582:586   */\n      0x24\n        /* \"#utility.yul\":579:580   */\n      0x00\n        /* \"#utility.yul\":572:587   */\n      revert\n        /* \"#utility.yul\":464:597   */\n    tag_26:\n        /* \"#utility.yul\":381:603   */\n      swap3\n      swap2\n      pop\n      pop\n      jump\t// out\n\n    auxdata: 0xa2646970667358221220e0499c2f3676b0f87abfcd75435be81bdf9928270f55a21efae30b6b6c324bea64736f6c63430008190033\n}\n",
				"bytecode": {
					"linkReferences": {},
					"object": "6080604052348015600e575f80fd5b505f805560eb8061001e5f395ff3fe6080604052348015600e575f80fd5b5060043610603a575f3560e01c80633bc5de3014603e5780635b4b73a914605357806373d4a13a146064575b5f80fd5b5f545b60405190815260200160405180910390f35b6062605e366004607b565b606b565b005b60415f5481565b805f54607691906091565b5f5550565b5f60208284031215608a575f80fd5b5035919050565b8082018082111560af57634e487b7160e01b5f52601160045260245ffd5b9291505056fea2646970667358221220e0499c2f3676b0f87abfcd75435be81bdf9928270f55a21efae30b6b6c324bea64736f6c63430008190033",
					"opcodes": "PUSH1 0x80 PUSH1 0x40 MSTORE CALLVALUE DUP1 ISZERO PUSH1 0xE JUMPI PUSH0 DUP1 REVERT JUMPDEST POP PUSH0 DUP1 SSTORE PUSH1 0xEB DUP1 PUSH2 0x1E PUSH0 CODECOPY PUSH0 RETURN INVALID PUSH1 0x80 PUSH1 0x40 MSTORE CALLVALUE DUP1 ISZERO PUSH1 0xE JUMPI PUSH0 DUP1 REVERT JUMPDEST POP PUSH1 0x4 CALLDATASIZE LT PUSH1 0x3A JUMPI PUSH0 CALLDATALOAD PUSH1 0xE0 SHR DUP1 PUSH4 0x3BC5DE30 EQ PUSH1 0x3E JUMPI DUP1 PUSH4 0x5B4B73A9 EQ PUSH1 0x53 JUMPI DUP1 PUSH4 0x73D4A13A EQ PUSH1 0x64 JUMPI JUMPDEST PUSH0 DUP1 REVERT JUMPDEST PUSH0 SLOAD JUMPDEST PUSH1 0x40 MLOAD SWAP1 DUP2 MSTORE PUSH1 0x20 ADD PUSH1 0x40 MLOAD DUP1 SWAP2 SUB SWAP1 RETURN JUMPDEST PUSH1 0x62 PUSH1 0x5E CALLDATASIZE PUSH1 0x4 PUSH1 0x7B JUMP JUMPDEST PUSH1 0x6B JUMP JUMPDEST STOP JUMPDEST PUSH1 0x41 PUSH0 SLOAD DUP2 JUMP JUMPDEST DUP1 PUSH0 SLOAD PUSH1 0x76 SWAP2 SWAP1 PUSH1 0x91 JUMP JUMPDEST PUSH0 SSTORE POP JUMP JUMPDEST PUSH0 PUSH1 0x20 DUP3 DUP5 SUB SLT ISZERO PUSH1 0x8A JUMPI PUSH0 DUP1 REVERT JUMPDEST POP CALLDATALOAD SWAP2 SWAP1 POP JUMP JUMPDEST DUP1 DUP3 ADD DUP1 DUP3 GT ISZERO PUSH1 0xAF JUMPI PUSH4 0x4E487B71 PUSH1 0xE0 SHL PUSH0 MSTORE PUSH1 0x11 PUSH1 0x4 MSTORE PUSH1 0x24 PUSH0 REVERT JUMPDEST SWAP3 SWAP2 POP POP JUMP INVALID LOG2 PUSH5 0x6970667358 0x22 SLT KECCAK256 0xE0 BLOBHASH SWAP13 0x2F CALLDATASIZE PUSH23 0xB0F87ABFCD75435BE81BDF9928270F55A21EFAE30B6B6C ORIGIN 0x4B 0xEA PUSH5 0x736F6C6343 STOP ADDMOD NOT STOP CALLER "
				},
				"gasEstimates": {
					"creation": {
						"codeDepositCost": "47000",
						"executionCost": "5102",
						"totalCost": "52102"
					},
					"external": {
						"data()": "2303",
						"getData()": "2245",
						"setData(uint256)": "24503"
					}
				},
				"methodIdentifiers": {
					"data()": "73d4a13a",
					"getData()": "3bc5de30",
					"setData(uint256)": "5b4b73a9"
				}
			},
			"storageLayout": {
				"storage": [
					{
						"astId": 3,
						"contract": "contracts/Storage.sol:Storage",
						"label": "data",
						"offset": 0,
						"slot": "0",
						"type": "t_uint256"
					}
				],
				"types": {
					"t_uint256": {
						"encoding": "inplace",
						"label": "uint256",
						"numberOfBytes": "32"
					}
				}
			},
			"userdoc": {
				"kind": "user",
				"methods": {},
				"version": 1
			}
		}
	}
}