{
	"contracts/CriminalCaseFiling.sol": {
		"CriminalCaseFiling": {
			"abi": [
				{
					"anonymous": false,
					"inputs": [
						{
							"indexed": false,
							"internalType": "uint256",
							"name": "id",
							"type": "uint256"
						}
					],
					"name": "CaseDeleted",
					"type": "event"
				},
				{
					"anonymous": false,
					"inputs": [
						{
							"indexed": false,
							"internalType": "uint256",
							"name": "id",
							"type": "uint256"
						},
						{
							"indexed": false,
							"internalType": "string",
							"name": "dateTimeOfIncident",
							"type": "string"
						},
						{
							"indexed": false,
							"internalType": "string",
							"name": "location",
							"type": "string"
						},
						{
							"indexed": false,
							"internalType": "string",
							"name": "victimName",
							"type": "string"
						},
						{
							"indexed": false,
							"internalType": "string",
							"name": "suspectName",
							"type": "string"
						},
						{
							"indexed": false,
							"internalType": "string",
							"name": "description",
							"type": "string"
						},
						{
							"indexed": false,
							"internalType": "string",
							"name": "charges",
							"type": "string"
						},
						{
							"indexed": false,
							"internalType": "string",
							"name": "arrestInformation",
							"type": "string"
						},
						{
							"indexed": false,
							"internalType": "string",
							"name": "evidence",
							"type": "string"
						}
					],
					"name": "CaseFiled",
					"type": "event"
				},
				{
					"anonymous": false,
					"inputs": [
						{
							"indexed": false,
							"internalType": "uint256",
							"name": "id",
							"type": "uint256"
						},
						{
							"indexed": false,
							"internalType": "string",
							"name": "dateTimeOfIncident",
							"type": "string"
						},
						{
							"indexed": false,
							"internalType": "string",
							"name": "location",
							"type": "string"
						},
						{
							"indexed": false,
							"internalType": "string",
							"name": "victimName",
							"type": "string"
						},
						{
							"indexed": false,
							"internalType": "string",
							"name": "suspectName",
							"type": "string"
						},
						{
							"indexed": false,
							"internalType": "string",
							"name": "description",
							"type": "string"
						},
						{
							"indexed": false,
							"internalType": "string",
							"name": "charges",
							"type": "string"
						},
						{
							"indexed": false,
							"internalType": "string",
							"name": "arrestInformation",
							"type": "string"
						},
						{
							"indexed": false,
							"internalType": "string",
							"name": "evidence",
							"type": "string"
						}
					],
					"name": "CaseUpdated",
					"type": "event"
				},
				{
					"inputs": [],
					"name": "caseCount",
					"outputs": [
						{
							"internalType": "uint256",
							"name": "",
							"type": "uint256"
						}
					],
					"stateMutability": "view",
					"type": "function"
				},
				{
					"inputs": [
						{
							"internalType": "uint256",
							"name": "",
							"type": "uint256"
						}
					],
					"name": "cases",
					"outputs": [
						{
							"internalType": "uint256",
							"name": "id",
							"type": "uint256"
						},
						{
							"internalType": "string",
							"name": "dateTimeOfIncident",
							"type": "string"
						},
						{
							"internalType": "string",
							"name": "location",
							"type": "string"
						},
						{
							"internalType": "string",
							"name": "victimName",
							"type": "string"
						},
						{
							"internalType": "string",
							"name": "suspectName",
							"type": "string"
						},
						{
							"internalType": "string",
							"name": "description",
							"type": "string"
						},
						{
							"internalType": "string",
							"name": "charges",
							"type": "string"
						},
						{
							"internalType": "string",
							"name": "arrestInformation",
							"type": "string"
						},
						{
							"internalType": "string",
							"name": "evidence",
							"type": "string"
						},
						{
							"internalType": "bool",
							"name": "deleted",
							"type": "bool"
						}
					],
					"stateMutability": "view",
					"type": "function"
				},
				{
					"inputs": [
						{
							"internalType": "string",
							"name": "_dateTimeOfIncident",
							"type": "string"
						},
						{
							"internalType": "string",
							"name": "_location",
							"type": "string"
						},
						{
							"internalType": "string",
							"name": "_victimName",
							"type": "string"
						},
						{
							"internalType": "string",
							"name": "_suspectName",
							"type": "string"
						},
						{
							"internalType": "string",
							"name": "_description",
							"type": "string"
						},
						{
							"internalType": "string",
							"name": "_charges",
							"type": "string"
						},
						{
							"internalType": "string",
							"name": "_arrestInformation",
							"type": "string"
						},
						{
							"internalType": "string",
							"name": "_evidence",
							"type": "string"
						}
					],
					"name": "createCase",
					"outputs": [],
					"stateMutability": "nonpayable",
					"type": "function"
				},
				{
					"inputs": [
						{
							"internalType": "uint256",
							"name": "_id",
							"type": "uint256"
						}
					],
					"name": "deleteCase",
					"outputs": [],
					"stateMutability": "nonpayable",
					"type": "function"
				},
				{
					"inputs": [],
					"name": "getCriminalCaseCount",
					"outputs": [
						{
							"internalType": "uint256",
							"name": "",
							"type": "uint256"
						}
					],
					"stateMutability": "view",
					"type": "function"
				},
				{
					"inputs": [
						{
							"internalType": "uint256",
							"name": "_id",
							"type": "uint256"
						},
						{
							"internalType": "string",
							"name": "_dateTimeOfIncident",
							"type": "string"
						},
						{
							"internalType": "string",
							"name": "_location",
							"type": "string"
						},
						{
							"internalType": "string",
							"name": "_victimName",
							"type": "string"
						},
						{
							"internalType": "string",
							"name": "_suspectName",
							"type": "string"
						},
						{
							"internalType": "string",
							"name": "_description",
							"type": "string"
						},
						{
							"internalType": "string",
							"name": "_charges",
							"type": "string"
						},
						{
							"internalType": "string",
							"name": "_arrestInformation",
							"type": "string"
						},
						{
							"internalType": "string",
							"name": "_evidence",
							"type": "string"
						}
					],
					"name": "updateCase",
					"outputs": [],
					"stateMutability": "nonpayable",
					"type": "function"
				}
			],
			"devdoc": {
				"kind": "dev",
				"methods": {},
				"version": 1
			},
			"evm": {
				"assembly": "    /* \"contracts/CriminalCaseFiling.sol\":60:3485  contract CriminalCaseFiling {... */\n  mstore(0x40, 0x80)\n    /* \"contracts/CriminalCaseFiling.sol\":119:120  0 */\n  0x00\n    /* \"contracts/CriminalCaseFiling.sol\":95:120  uint public caseCount = 0 */\n  dup1\n  sstore\n    /* \"contracts/CriminalCaseFiling.sol\":60:3485  contract CriminalCaseFiling {... */\n  callvalue\n  dup1\n  iszero\n  tag_1\n  jumpi\n  0x00\n  dup1\n  revert\ntag_1:\n  pop\n  dataSize(sub_0)\n  dup1\n  dataOffset(sub_0)\n  0x00\n  codecopy\n  0x00\n  return\nstop\n\nsub_0: assembly {\n        /* \"contracts/CriminalCaseFiling.sol\":60:3485  contract CriminalCaseFiling {... */\n      mstore(0x40, 0x80)\n      callvalue\n      dup1\n      iszero\n      tag_1\n      jumpi\n      0x00\n      dup1\n      revert\n    tag_1:\n      pop\n      jumpi(tag_2, lt(calldatasize, 0x04))\n      shr(0xe0, calldataload(0x00))\n      dup1\n      0x412cceed\n      eq\n      tag_3\n      jumpi\n      dup1\n      0x62007628\n      eq\n      tag_4\n      jumpi\n      dup1\n      0x95893fb4\n      eq\n      tag_5\n      jumpi\n      dup1\n      0xd590bf49\n      eq\n      tag_6\n      jumpi\n      dup1\n      0xda2d7e95\n      eq\n      tag_7\n      jumpi\n      dup1\n      0xf09790dd\n      eq\n      tag_8\n      jumpi\n    tag_2:\n      0x00\n      dup1\n      revert\n        /* \"contracts/CriminalCaseFiling.sol\":1094:1188  function getCriminalCaseCount() public view returns (uint) {... */\n    tag_3:\n      tag_9\n      tag_10\n      jump\t// in\n    tag_9:\n      mload(0x40)\n      tag_11\n      swap2\n      swap1\n      tag_12\n      jump\t// in\n    tag_11:\n      mload(0x40)\n      dup1\n      swap2\n      sub\n      swap1\n      return\n        /* \"contracts/CriminalCaseFiling.sol\":2159:3249  function updateCase(... */\n    tag_4:\n      tag_13\n      0x04\n      dup1\n      calldatasize\n      sub\n      dup2\n      add\n      swap1\n      tag_14\n      swap2\n      swap1\n      tag_15\n      jump\t// in\n    tag_14:\n      tag_16\n      jump\t// in\n    tag_13:\n      stop\n        /* \"contracts/CriminalCaseFiling.sol\":1196:2151  function createCase(... */\n    tag_5:\n      tag_17\n      0x04\n      dup1\n      calldatasize\n      sub\n      dup2\n      add\n      swap1\n      tag_18\n      swap2\n      swap1\n      tag_19\n      jump\t// in\n    tag_18:\n      tag_20\n      jump\t// in\n    tag_17:\n      stop\n        /* \"contracts/CriminalCaseFiling.sol\":3257:3482  function deleteCase(uint _id) public {... */\n    tag_6:\n      tag_21\n      0x04\n      dup1\n      calldatasize\n      sub\n      dup2\n      add\n      swap1\n      tag_22\n      swap2\n      swap1\n      tag_23\n      jump\t// in\n    tag_22:\n      tag_24\n      jump\t// in\n    tag_21:\n      stop\n        /* \"contracts/CriminalCaseFiling.sol\":95:120  uint public caseCount = 0 */\n    tag_7:\n      tag_25\n      tag_26\n      jump\t// in\n    tag_25:\n      mload(0x40)\n      tag_27\n      swap2\n      swap1\n      tag_12\n      jump\t// in\n    tag_27:\n      mload(0x40)\n      dup1\n      swap2\n      sub\n      swap1\n      return\n        /* \"contracts/CriminalCaseFiling.sol\":440:482  mapping(uint => CriminalCase) public cases */\n    tag_8:\n      tag_28\n      0x04\n      dup1\n      calldatasize\n      sub\n      dup2\n      add\n      swap1\n      tag_29\n      swap2\n      swap1\n      tag_23\n      jump\t// in\n    tag_29:\n      tag_30\n      jump\t// in\n    tag_28:\n      mload(0x40)\n      tag_31\n      swap11\n      swap10\n      swap9\n      swap8\n      swap7\n      swap6\n      swap5\n      swap4\n      swap3\n      swap2\n      swap1\n      tag_32\n      jump\t// in\n    tag_31:\n      mload(0x40)\n      dup1\n      swap2\n      sub\n      swap1\n      return\n        /* \"contracts/CriminalCaseFiling.sol\":1094:1188  function getCriminalCaseCount() public view returns (uint) {... */\n    tag_10:\n        /* \"contracts/CriminalCaseFiling.sol\":1147:1151  uint */\n      0x00\n        /* \"contracts/CriminalCaseFiling.sol\":1171:1180  caseCount */\n      dup1\n      sload\n        /* \"contracts/CriminalCaseFiling.sol\":1164:1180  return caseCount */\n      swap1\n      pop\n        /* \"contracts/CriminalCaseFiling.sol\":1094:1188  function getCriminalCaseCount() public view returns (uint) {... */\n      swap1\n      jump\t// out\n        /* \"contracts/CriminalCaseFiling.sol\":2159:3249  function updateCase(... */\n    tag_16:\n        /* \"contracts/CriminalCaseFiling.sol\":2521:2547  CriminalCase storage _case */\n      0x00\n        /* \"contracts/CriminalCaseFiling.sol\":2550:2555  cases */\n      0x01\n        /* \"contracts/CriminalCaseFiling.sol\":2550:2560  cases[_id] */\n      0x00\n        /* \"contracts/CriminalCaseFiling.sol\":2556:2559  _id */\n      dup12\n        /* \"contracts/CriminalCaseFiling.sol\":2550:2560  cases[_id] */\n      dup2\n      mstore\n      0x20\n      add\n      swap1\n      dup2\n      mstore\n      0x20\n      add\n      0x00\n      keccak256\n        /* \"contracts/CriminalCaseFiling.sol\":2521:2560  CriminalCase storage _case = cases[_id] */\n      swap1\n      pop\n        /* \"contracts/CriminalCaseFiling.sol\":2580:2585  _case */\n      dup1\n        /* \"contracts/CriminalCaseFiling.sol\":2580:2593  _case.deleted */\n      0x09\n      add\n      0x00\n      swap1\n      sload\n      swap1\n      0x0100\n      exp\n      swap1\n      div\n      0xff\n      and\n        /* \"contracts/CriminalCaseFiling.sol\":2579:2593  !_case.deleted */\n      iszero\n        /* \"contracts/CriminalCaseFiling.sol\":2571:2619  require(!_case.deleted, \"Case has been deleted\") */\n      tag_35\n      jumpi\n      mload(0x40)\n      0x08c379a000000000000000000000000000000000000000000000000000000000\n      dup2\n      mstore\n      0x04\n      add\n      tag_36\n      swap1\n      tag_37\n      jump\t// in\n    tag_36:\n      mload(0x40)\n      dup1\n      swap2\n      sub\n      swap1\n      revert\n    tag_35:\n        /* \"contracts/CriminalCaseFiling.sol\":2657:2676  _dateTimeOfIncident */\n      dup9\n        /* \"contracts/CriminalCaseFiling.sol\":2630:2635  _case */\n      dup2\n        /* \"contracts/CriminalCaseFiling.sol\":2630:2654  _case.dateTimeOfIncident */\n      0x01\n      add\n        /* \"contracts/CriminalCaseFiling.sol\":2630:2676  _case.dateTimeOfIncident = _dateTimeOfIncident */\n      swap1\n      dup2\n      tag_38\n      swap2\n      swap1\n      tag_39\n      jump\t// in\n    tag_38:\n      pop\n        /* \"contracts/CriminalCaseFiling.sol\":2704:2713  _location */\n      dup8\n        /* \"contracts/CriminalCaseFiling.sol\":2687:2692  _case */\n      dup2\n        /* \"contracts/CriminalCaseFiling.sol\":2687:2701  _case.location */\n      0x02\n      add\n        /* \"contracts/CriminalCaseFiling.sol\":2687:2713  _case.location = _location */\n      swap1\n      dup2\n      tag_40\n      swap2\n      swap1\n      tag_39\n      jump\t// in\n    tag_40:\n      pop\n        /* \"contracts/CriminalCaseFiling.sol\":2743:2754  _victimName */\n      dup7\n        /* \"contracts/CriminalCaseFiling.sol\":2724:2729  _case */\n      dup2\n        /* \"contracts/CriminalCaseFiling.sol\":2724:2740  _case.victimName */\n      0x03\n      add\n        /* \"contracts/CriminalCaseFiling.sol\":2724:2754  _case.victimName = _victimName */\n      swap1\n      dup2\n      tag_41\n      swap2\n      swap1\n      tag_39\n      jump\t// in\n    tag_41:\n      pop\n        /* \"contracts/CriminalCaseFiling.sol\":2785:2797  _suspectName */\n      dup6\n        /* \"contracts/CriminalCaseFiling.sol\":2765:2770  _case */\n      dup2\n        /* \"contracts/CriminalCaseFiling.sol\":2765:2782  _case.suspectName */\n      0x04\n      add\n        /* \"contracts/CriminalCaseFiling.sol\":2765:2797  _case.suspectName = _suspectName */\n      swap1\n      dup2\n      tag_42\n      swap2\n      swap1\n      tag_39\n      jump\t// in\n    tag_42:\n      pop\n        /* \"contracts/CriminalCaseFiling.sol\":2828:2840  _description */\n      dup5\n        /* \"contracts/CriminalCaseFiling.sol\":2808:2813  _case */\n      dup2\n        /* \"contracts/CriminalCaseFiling.sol\":2808:2825  _case.description */\n      0x05\n      add\n        /* \"contracts/CriminalCaseFiling.sol\":2808:2840  _case.description = _description */\n      swap1\n      dup2\n      tag_43\n      swap2\n      swap1\n      tag_39\n      jump\t// in\n    tag_43:\n      pop\n        /* \"contracts/CriminalCaseFiling.sol\":2867:2875  _charges */\n      dup4\n        /* \"contracts/CriminalCaseFiling.sol\":2851:2856  _case */\n      dup2\n        /* \"contracts/CriminalCaseFiling.sol\":2851:2864  _case.charges */\n      0x06\n      add\n        /* \"contracts/CriminalCaseFiling.sol\":2851:2875  _case.charges = _charges */\n      swap1\n      dup2\n      tag_44\n      swap2\n      swap1\n      tag_39\n      jump\t// in\n    tag_44:\n      pop\n        /* \"contracts/CriminalCaseFiling.sol\":2912:2930  _arrestInformation */\n      dup3\n        /* \"contracts/CriminalCaseFiling.sol\":2886:2891  _case */\n      dup2\n        /* \"contracts/CriminalCaseFiling.sol\":2886:2909  _case.arrestInformation */\n      0x07\n      add\n        /* \"contracts/CriminalCaseFiling.sol\":2886:2930  _case.arrestInformation = _arrestInformation */\n      swap1\n      dup2\n      tag_45\n      swap2\n      swap1\n      tag_39\n      jump\t// in\n    tag_45:\n      pop\n        /* \"contracts/CriminalCaseFiling.sol\":2958:2967  _evidence */\n      dup2\n        /* \"contracts/CriminalCaseFiling.sol\":2941:2946  _case */\n      dup2\n        /* \"contracts/CriminalCaseFiling.sol\":2941:2955  _case.evidence */\n      0x08\n      add\n        /* \"contracts/CriminalCaseFiling.sol\":2941:2967  _case.evidence = _evidence */\n      swap1\n      dup2\n      tag_46\n      swap2\n      swap1\n      tag_39\n      jump\t// in\n    tag_46:\n      pop\n        /* \"contracts/CriminalCaseFiling.sol\":2983:3241  CaseUpdated(... */\n      0x44a6c3cfc25700b9e32ab4f5966c3faaeacbb4555a15e4239da1104b34213447\n        /* \"contracts/CriminalCaseFiling.sol\":3009:3012  _id */\n      dup11\n        /* \"contracts/CriminalCaseFiling.sol\":3027:3046  _dateTimeOfIncident */\n      dup11\n        /* \"contracts/CriminalCaseFiling.sol\":3061:3070  _location */\n      dup11\n        /* \"contracts/CriminalCaseFiling.sol\":3085:3096  _victimName */\n      dup11\n        /* \"contracts/CriminalCaseFiling.sol\":3111:3123  _suspectName */\n      dup11\n        /* \"contracts/CriminalCaseFiling.sol\":3138:3150  _description */\n      dup11\n        /* \"contracts/CriminalCaseFiling.sol\":3165:3173  _charges */\n      dup11\n        /* \"contracts/CriminalCaseFiling.sol\":3188:3206  _arrestInformation */\n      dup11\n        /* \"contracts/CriminalCaseFiling.sol\":3221:3230  _evidence */\n      dup11\n        /* \"contracts/CriminalCaseFiling.sol\":2983:3241  CaseUpdated(... */\n      mload(0x40)\n      tag_47\n      swap10\n      swap9\n      swap8\n      swap7\n      swap6\n      swap5\n      swap4\n      swap3\n      swap2\n      swap1\n      tag_48\n      jump\t// in\n    tag_47:\n      mload(0x40)\n      dup1\n      swap2\n      sub\n      swap1\n      log1\n        /* \"contracts/CriminalCaseFiling.sol\":2510:3249  {... */\n      pop\n        /* \"contracts/CriminalCaseFiling.sol\":2159:3249  function updateCase(... */\n      pop\n      pop\n      pop\n      pop\n      pop\n      pop\n      pop\n      pop\n      pop\n      jump\t// out\n        /* \"contracts/CriminalCaseFiling.sol\":1196:2151  function createCase(... */\n    tag_20:\n        /* \"contracts/CriminalCaseFiling.sol\":1539:1548  caseCount */\n      0x00\n      dup1\n        /* \"contracts/CriminalCaseFiling.sol\":1539:1550  caseCount++ */\n      dup2\n      sload\n      dup1\n      swap3\n      swap2\n      swap1\n      tag_50\n      swap1\n      tag_51\n      jump\t// in\n    tag_50:\n      swap2\n      swap1\n      pop\n      sstore\n      pop\n        /* \"contracts/CriminalCaseFiling.sol\":1580:1865  CriminalCase(... */\n      mload(0x40)\n      dup1\n      0x0140\n      add\n      0x40\n      mstore\n      dup1\n        /* \"contracts/CriminalCaseFiling.sol\":1607:1616  caseCount */\n      sload(0x00)\n        /* \"contracts/CriminalCaseFiling.sol\":1580:1865  CriminalCase(... */\n      dup2\n      mstore\n      0x20\n      add\n        /* \"contracts/CriminalCaseFiling.sol\":1631:1650  _dateTimeOfIncident */\n      dup10\n        /* \"contracts/CriminalCaseFiling.sol\":1580:1865  CriminalCase(... */\n      dup2\n      mstore\n      0x20\n      add\n        /* \"contracts/CriminalCaseFiling.sol\":1665:1674  _location */\n      dup9\n        /* \"contracts/CriminalCaseFiling.sol\":1580:1865  CriminalCase(... */\n      dup2\n      mstore\n      0x20\n      add\n        /* \"contracts/CriminalCaseFiling.sol\":1689:1700  _victimName */\n      dup8\n        /* \"contracts/CriminalCaseFiling.sol\":1580:1865  CriminalCase(... */\n      dup2\n      mstore\n      0x20\n      add\n        /* \"contracts/CriminalCaseFiling.sol\":1715:1727  _suspectName */\n      dup7\n        /* \"contracts/CriminalCaseFiling.sol\":1580:1865  CriminalCase(... */\n      dup2\n      mstore\n      0x20\n      add\n        /* \"contracts/CriminalCaseFiling.sol\":1742:1754  _description */\n      dup6\n        /* \"contracts/CriminalCaseFiling.sol\":1580:1865  CriminalCase(... */\n      dup2\n      mstore\n      0x20\n      add\n        /* \"contracts/CriminalCaseFiling.sol\":1769:1777  _charges */\n      dup5\n        /* \"contracts/CriminalCaseFiling.sol\":1580:1865  CriminalCase(... */\n      dup2\n      mstore\n      0x20\n      add\n        /* \"contracts/CriminalCaseFiling.sol\":1792:1810  _arrestInformation */\n      dup4\n        /* \"contracts/CriminalCaseFiling.sol\":1580:1865  CriminalCase(... */\n      dup2\n      mstore\n      0x20\n      add\n        /* \"contracts/CriminalCaseFiling.sol\":1825:1834  _evidence */\n      dup3\n        /* \"contracts/CriminalCaseFiling.sol\":1580:1865  CriminalCase(... */\n      dup2\n      mstore\n      0x20\n      add\n        /* \"contracts/CriminalCaseFiling.sol\":1849:1854  false */\n      0x00\n        /* \"contracts/CriminalCaseFiling.sol\":1580:1865  CriminalCase(... */\n      iszero\n      iszero\n      dup2\n      mstore\n      pop\n        /* \"contracts/CriminalCaseFiling.sol\":1561:1566  cases */\n      0x01\n        /* \"contracts/CriminalCaseFiling.sol\":1561:1577  cases[caseCount] */\n      0x00\n        /* \"contracts/CriminalCaseFiling.sol\":1567:1576  caseCount */\n      dup1\n      sload\n        /* \"contracts/CriminalCaseFiling.sol\":1561:1577  cases[caseCount] */\n      dup2\n      mstore\n      0x20\n      add\n      swap1\n      dup2\n      mstore\n      0x20\n      add\n      0x00\n      keccak256\n        /* \"contracts/CriminalCaseFiling.sol\":1561:1865  cases[caseCount] = CriminalCase(... */\n      0x00\n      dup3\n      add\n      mload\n      dup2\n      0x00\n      add\n      sstore\n      0x20\n      dup3\n      add\n      mload\n      dup2\n      0x01\n      add\n      swap1\n      dup2\n      tag_52\n      swap2\n      swap1\n      tag_39\n      jump\t// in\n    tag_52:\n      pop\n      0x40\n      dup3\n      add\n      mload\n      dup2\n      0x02\n      add\n      swap1\n      dup2\n      tag_53\n      swap2\n      swap1\n      tag_39\n      jump\t// in\n    tag_53:\n      pop\n      0x60\n      dup3\n      add\n      mload\n      dup2\n      0x03\n      add\n      swap1\n      dup2\n      tag_54\n      swap2\n      swap1\n      tag_39\n      jump\t// in\n    tag_54:\n      pop\n      0x80\n      dup3\n      add\n      mload\n      dup2\n      0x04\n      add\n      swap1\n      dup2\n      tag_55\n      swap2\n      swap1\n      tag_39\n      jump\t// in\n    tag_55:\n      pop\n      0xa0\n      dup3\n      add\n      mload\n      dup2\n      0x05\n      add\n      swap1\n      dup2\n      tag_56\n      swap2\n      swap1\n      tag_39\n      jump\t// in\n    tag_56:\n      pop\n      0xc0\n      dup3\n      add\n      mload\n      dup2\n      0x06\n      add\n      swap1\n      dup2\n      tag_57\n      swap2\n      swap1\n      tag_39\n      jump\t// in\n    tag_57:\n      pop\n      0xe0\n      dup3\n      add\n      mload\n      dup2\n      0x07\n      add\n      swap1\n      dup2\n      tag_58\n      swap2\n      swap1\n      tag_39\n      jump\t// in\n    tag_58:\n      pop\n      0x0100\n      dup3\n      add\n      mload\n      dup2\n      0x08\n      add\n      swap1\n      dup2\n      tag_59\n      swap2\n      swap1\n      tag_39\n      jump\t// in\n    tag_59:\n      pop\n      0x0120\n      dup3\n      add\n      mload\n      dup2\n      0x09\n      add\n      exp(0x0100, 0x00)\n      dup2\n      sload\n      dup2\n      0xff\n      mul\n      not\n      and\n      swap1\n      dup4\n      iszero\n      iszero\n      mul\n      or\n      swap1\n      sstore\n      pop\n      swap1\n      pop\n      pop\n        /* \"contracts/CriminalCaseFiling.sol\":1881:2143  CaseFiled(... */\n      0x2935fe3fc14c7d9a0a9e035fcfacba7e8cde60b3608ce984173dc6288f1ce66b\n        /* \"contracts/CriminalCaseFiling.sol\":1905:1914  caseCount */\n      sload(0x00)\n        /* \"contracts/CriminalCaseFiling.sol\":1929:1948  _dateTimeOfIncident */\n      dup10\n        /* \"contracts/CriminalCaseFiling.sol\":1963:1972  _location */\n      dup10\n        /* \"contracts/CriminalCaseFiling.sol\":1987:1998  _victimName */\n      dup10\n        /* \"contracts/CriminalCaseFiling.sol\":2013:2025  _suspectName */\n      dup10\n        /* \"contracts/CriminalCaseFiling.sol\":2040:2052  _description */\n      dup10\n        /* \"contracts/CriminalCaseFiling.sol\":2067:2075  _charges */\n      dup10\n        /* \"contracts/CriminalCaseFiling.sol\":2090:2108  _arrestInformation */\n      dup10\n        /* \"contracts/CriminalCaseFiling.sol\":2123:2132  _evidence */\n      dup10\n        /* \"contracts/CriminalCaseFiling.sol\":1881:2143  CaseFiled(... */\n      mload(0x40)\n      tag_60\n      swap10\n      swap9\n      swap8\n      swap7\n      swap6\n      swap5\n      swap4\n      swap3\n      swap2\n      swap1\n      tag_48\n      jump\t// in\n    tag_60:\n      mload(0x40)\n      dup1\n      swap2\n      sub\n      swap1\n      log1\n        /* \"contracts/CriminalCaseFiling.sol\":1196:2151  function createCase(... */\n      pop\n      pop\n      pop\n      pop\n      pop\n      pop\n      pop\n      pop\n      jump\t// out\n        /* \"contracts/CriminalCaseFiling.sol\":3257:3482  function deleteCase(uint _id) public {... */\n    tag_24:\n        /* \"contracts/CriminalCaseFiling.sol\":3305:3331  CriminalCase storage _case */\n      0x00\n        /* \"contracts/CriminalCaseFiling.sol\":3334:3339  cases */\n      0x01\n        /* \"contracts/CriminalCaseFiling.sol\":3334:3344  cases[_id] */\n      0x00\n        /* \"contracts/CriminalCaseFiling.sol\":3340:3343  _id */\n      dup4\n        /* \"contracts/CriminalCaseFiling.sol\":3334:3344  cases[_id] */\n      dup2\n      mstore\n      0x20\n      add\n      swap1\n      dup2\n      mstore\n      0x20\n      add\n      0x00\n      keccak256\n        /* \"contracts/CriminalCaseFiling.sol\":3305:3344  CriminalCase storage _case = cases[_id] */\n      swap1\n      pop\n        /* \"contracts/CriminalCaseFiling.sol\":3364:3369  _case */\n      dup1\n        /* \"contracts/CriminalCaseFiling.sol\":3364:3377  _case.deleted */\n      0x09\n      add\n      0x00\n      swap1\n      sload\n      swap1\n      0x0100\n      exp\n      swap1\n      div\n      0xff\n      and\n        /* \"contracts/CriminalCaseFiling.sol\":3363:3377  !_case.deleted */\n      iszero\n        /* \"contracts/CriminalCaseFiling.sol\":3355:3411  require(!_case.deleted, \"Case has already been deleted\") */\n      tag_62\n      jumpi\n      mload(0x40)\n      0x08c379a000000000000000000000000000000000000000000000000000000000\n      dup2\n      mstore\n      0x04\n      add\n      tag_63\n      swap1\n      tag_64\n      jump\t// in\n    tag_63:\n      mload(0x40)\n      dup1\n      swap2\n      sub\n      swap1\n      revert\n    tag_62:\n        /* \"contracts/CriminalCaseFiling.sol\":3438:3442  true */\n      0x01\n        /* \"contracts/CriminalCaseFiling.sol\":3422:3427  _case */\n      dup2\n        /* \"contracts/CriminalCaseFiling.sol\":3422:3435  _case.deleted */\n      0x09\n      add\n      0x00\n        /* \"contracts/CriminalCaseFiling.sol\":3422:3442  _case.deleted = true */\n      0x0100\n      exp\n      dup2\n      sload\n      dup2\n      0xff\n      mul\n      not\n      and\n      swap1\n      dup4\n      iszero\n      iszero\n      mul\n      or\n      swap1\n      sstore\n      pop\n        /* \"contracts/CriminalCaseFiling.sol\":3458:3474  CaseDeleted(_id) */\n      0x7f4e40db189f7c6b22866542cebe5936f88d24cee53fc9583694b2d51884ddf3\n        /* \"contracts/CriminalCaseFiling.sol\":3470:3473  _id */\n      dup3\n        /* \"contracts/CriminalCaseFiling.sol\":3458:3474  CaseDeleted(_id) */\n      mload(0x40)\n      tag_65\n      swap2\n      swap1\n      tag_12\n      jump\t// in\n    tag_65:\n      mload(0x40)\n      dup1\n      swap2\n      sub\n      swap1\n      log1\n        /* \"contracts/CriminalCaseFiling.sol\":3294:3482  {... */\n      pop\n        /* \"contracts/CriminalCaseFiling.sol\":3257:3482  function deleteCase(uint _id) public {... */\n      pop\n      jump\t// out\n        /* \"contracts/CriminalCaseFiling.sol\":95:120  uint public caseCount = 0 */\n    tag_26:\n      sload(0x00)\n      dup2\n      jump\t// out\n        /* \"contracts/CriminalCaseFiling.sol\":440:482  mapping(uint => CriminalCase) public cases */\n    tag_30:\n      mstore(0x20, 0x01)\n      dup1\n      0x00\n      mstore\n      keccak256(0x00, 0x40)\n      0x00\n      swap2\n      pop\n      swap1\n      pop\n      dup1\n      0x00\n      add\n      sload\n      swap1\n      dup1\n      0x01\n      add\n      dup1\n      sload\n      tag_66\n      swap1\n      tag_67\n      jump\t// in\n    tag_66:\n      dup1\n      0x1f\n      add\n      0x20\n      dup1\n      swap2\n      div\n      mul\n      0x20\n      add\n      mload(0x40)\n      swap1\n      dup2\n      add\n      0x40\n      mstore\n      dup1\n      swap3\n      swap2\n      swap1\n      dup2\n      dup2\n      mstore\n      0x20\n      add\n      dup3\n      dup1\n      sload\n      tag_68\n      swap1\n      tag_67\n      jump\t// in\n    tag_68:\n      dup1\n      iszero\n      tag_69\n      jumpi\n      dup1\n      0x1f\n      lt\n      tag_70\n      jumpi\n      0x0100\n      dup1\n      dup4\n      sload\n      div\n      mul\n      dup4\n      mstore\n      swap2\n      0x20\n      add\n      swap2\n      jump(tag_69)\n    tag_70:\n      dup3\n      add\n      swap2\n      swap1\n      0x00\n      mstore\n      keccak256(0x00, 0x20)\n      swap1\n    tag_71:\n      dup2\n      sload\n      dup2\n      mstore\n      swap1\n      0x01\n      add\n      swap1\n      0x20\n      add\n      dup1\n      dup4\n      gt\n      tag_71\n      jumpi\n      dup3\n      swap1\n      sub\n      0x1f\n      and\n      dup3\n      add\n      swap2\n    tag_69:\n      pop\n      pop\n      pop\n      pop\n      pop\n      swap1\n      dup1\n      0x02\n      add\n      dup1\n      sload\n      tag_72\n      swap1\n      tag_67\n      jump\t// in\n    tag_72:\n      dup1\n      0x1f\n      add\n      0x20\n      dup1\n      swap2\n      div\n      mul\n      0x20\n      add\n      mload(0x40)\n      swap1\n      dup2\n      add\n      0x40\n      mstore\n      dup1\n      swap3\n      swap2\n      swap1\n      dup2\n      dup2\n      mstore\n      0x20\n      add\n      dup3\n      dup1\n      sload\n      tag_73\n      swap1\n      tag_67\n      jump\t// in\n    tag_73:\n      dup1\n      iszero\n      tag_74\n      jumpi\n      dup1\n      0x1f\n      lt\n      tag_75\n      jumpi\n      0x0100\n      dup1\n      dup4\n      sload\n      div\n      mul\n      dup4\n      mstore\n      swap2\n      0x20\n      add\n      swap2\n      jump(tag_74)\n    tag_75:\n      dup3\n      add\n      swap2\n      swap1\n      0x00\n      mstore\n      keccak256(0x00, 0x20)\n      swap1\n    tag_76:\n      dup2\n      sload\n      dup2\n      mstore\n      swap1\n      0x01\n      add\n      swap1\n      0x20\n      add\n      dup1\n      dup4\n      gt\n      tag_76\n      jumpi\n      dup3\n      swap1\n      sub\n      0x1f\n      and\n      dup3\n      add\n      swap2\n    tag_74:\n      pop\n      pop\n      pop\n      pop\n      pop\n      swap1\n      dup1\n      0x03\n      add\n      dup1\n      sload\n      tag_77\n      swap1\n      tag_67\n      jump\t// in\n    tag_77:\n      dup1\n      0x1f\n      add\n      0x20\n      dup1\n      swap2\n      div\n      mul\n      0x20\n      add\n      mload(0x40)\n      swap1\n      dup2\n      add\n      0x40\n      mstore\n      dup1\n      swap3\n      swap2\n      swap1\n      dup2\n      dup2\n      mstore\n      0x20\n      add\n      dup3\n      dup1\n      sload\n      tag_78\n      swap1\n      tag_67\n      jump\t// in\n    tag_78:\n      dup1\n      iszero\n      tag_79\n      jumpi\n      dup1\n      0x1f\n      lt\n      tag_80\n      jumpi\n      0x0100\n      dup1\n      dup4\n      sload\n      div\n      mul\n      dup4\n      mstore\n      swap2\n      0x20\n      add\n      swap2\n      jump(tag_79)\n    tag_80:\n      dup3\n      add\n      swap2\n      swap1\n      0x00\n      mstore\n      keccak256(0x00, 0x20)\n      swap1\n    tag_81:\n      dup2\n      sload\n      dup2\n      mstore\n      swap1\n      0x01\n      add\n      swap1\n      0x20\n      add\n      dup1\n      dup4\n      gt\n      tag_81\n      jumpi\n      dup3\n      swap1\n      sub\n      0x1f\n      and\n      dup3\n      add\n      swap2\n    tag_79:\n      pop\n      pop\n      pop\n      pop\n      pop\n      swap1\n      dup1\n      0x04\n      add\n      dup1\n      sload\n      tag_82\n      swap1\n      tag_67\n      jump\t// in\n    tag_82:\n      dup1\n      0x1f\n      add\n      0x20\n      dup1\n      swap2\n      div\n      mul\n      0x20\n      add\n      mload(0x40)\n      swap1\n      dup2\n      add\n      0x40\n      mstore\n      dup1\n      swap3\n      swap2\n      swap1\n      dup2\n      dup2\n      mstore\n      0x20\n      add\n      dup3\n      dup1\n      sload\n      tag_83\n      swap1\n      tag_67\n      jump\t// in\n    tag_83:\n      dup1\n      iszero\n      tag_84\n      jumpi\n      dup1\n      0x1f\n      lt\n      tag_85\n      jumpi\n      0x0100\n      dup1\n      dup4\n      sload\n      div\n      mul\n      dup4\n      mstore\n      swap2\n      0x20\n      add\n      swap2\n      jump(tag_84)\n    tag_85:\n      dup3\n      add\n      swap2\n      swap1\n      0x00\n      mstore\n      keccak256(0x00, 0x20)\n      swap1\n    tag_86:\n      dup2\n      sload\n      dup2\n      mstore\n      swap1\n      0x01\n      add\n      swap1\n      0x20\n      add\n      dup1\n      dup4\n      gt\n      tag_86\n      jumpi\n      dup3\n      swap1\n      sub\n      0x1f\n      and\n      dup3\n      add\n      swap2\n    tag_84:\n      pop\n      pop\n      pop\n      pop\n      pop\n      swap1\n      dup1\n      0x05\n      add\n      dup1\n      sload\n      tag_87\n      swap1\n      tag_67\n      jump\t// in\n    tag_87:\n      dup1\n      0x1f\n      add\n      0x20\n      dup1\n      swap2\n      div\n      mul\n      0x20\n      add\n      mload(0x40)\n      swap1\n      dup2\n      add\n      0x40\n      mstore\n      dup1\n      swap3\n      swap2\n      swap1\n      dup2\n      dup2\n      mstore\n      0x20\n      add\n      dup3\n      dup1\n      sload\n      tag_88\n      swap1\n      tag_67\n      jump\t// in\n    tag_88:\n      dup1\n      iszero\n      tag_89\n      jumpi\n      dup1\n      0x1f\n      lt\n      tag_90\n      jumpi\n      0x0100\n      dup1\n      dup4\n      sload\n      div\n      mul\n      dup4\n      mstore\n      swap2\n      0x20\n      add\n      swap2\n      jump(tag_89)\n    tag_90:\n      dup3\n      add\n      swap2\n      swap1\n      0x00\n      mstore\n      keccak256(0x00, 0x20)\n      swap1\n    tag_91:\n      dup2\n      sload\n      dup2\n      mstore\n      swap1\n      0x01\n      add\n      swap1\n      0x20\n      add\n      dup1\n      dup4\n      gt\n      tag_91\n      jumpi\n      dup3\n      swap1\n      sub\n      0x1f\n      and\n      dup3\n      add\n      swap2\n    tag_89:\n      pop\n      pop\n      pop\n      pop\n      pop\n      swap1\n      dup1\n      0x06\n      add\n      dup1\n      sload\n      tag_92\n      swap1\n      tag_67\n      jump\t// in\n    tag_92:\n      dup1\n      0x1f\n      add\n      0x20\n      dup1\n      swap2\n      div\n      mul\n      0x20\n      add\n      mload(0x40)\n      swap1\n      dup2\n      add\n      0x40\n      mstore\n      dup1\n      swap3\n      swap2\n      swap1\n      dup2\n      dup2\n      mstore\n      0x20\n      add\n      dup3\n      dup1\n      sload\n      tag_93\n      swap1\n      tag_67\n      jump\t// in\n    tag_93:\n      dup1\n      iszero\n      tag_94\n      jumpi\n      dup1\n      0x1f\n      lt\n      tag_95\n      jumpi\n      0x0100\n      dup1\n      dup4\n      sload\n      div\n      mul\n      dup4\n      mstore\n      swap2\n      0x20\n      add\n      swap2\n      jump(tag_94)\n    tag_95:\n      dup3\n      add\n      swap2\n      swap1\n      0x00\n      mstore\n      keccak256(0x00, 0x20)\n      swap1\n    tag_96:\n      dup2\n      sload\n      dup2\n      mstore\n      swap1\n      0x01\n      add\n      swap1\n      0x20\n      add\n      dup1\n      dup4\n      gt\n      tag_96\n      jumpi\n      dup3\n      swap1\n      sub\n      0x1f\n      and\n      dup3\n      add\n      swap2\n    tag_94:\n      pop\n      pop\n      pop\n      pop\n      pop\n      swap1\n      dup1\n      0x07\n      add\n      dup1\n      sload\n      tag_97\n      swap1\n      tag_67\n      jump\t// in\n    tag_97:\n      dup1\n      0x1f\n      add\n      0x20\n      dup1\n      swap2\n      div\n      mul\n      0x20\n      add\n      mload(0x40)\n      swap1\n      dup2\n      add\n      0x40\n      mstore\n      dup1\n      swap3\n      swap2\n      swap1\n      dup2\n      dup2\n      mstore\n      0x20\n      add\n      dup3\n      dup1\n      sload\n      tag_98\n      swap1\n      tag_67\n      jump\t// in\n    tag_98:\n      dup1\n      iszero\n      tag_99\n      jumpi\n      dup1\n      0x1f\n      lt\n      tag_100\n      jumpi\n      0x0100\n      dup1\n      dup4\n      sload\n      div\n      mul\n      dup4\n      mstore\n      swap2\n      0x20\n      add\n      swap2\n      jump(tag_99)\n    tag_100:\n      dup3\n      add\n      swap2\n      swap1\n      0x00\n      mstore\n      keccak256(0x00, 0x20)\n      swap1\n    tag_101:\n      dup2\n      sload\n      dup2\n      mstore\n      swap1\n      0x01\n      add\n      swap1\n      0x20\n      add\n      dup1\n      dup4\n      gt\n      tag_101\n      jumpi\n      dup3\n      swap1\n      sub\n      0x1f\n      and\n      dup3\n      add\n      swap2\n    tag_99:\n      pop\n      pop\n      pop\n      pop\n      pop\n      swap1\n      dup1\n      0x08\n      add\n      dup1\n      sload\n      tag_102\n      swap1\n      tag_67\n      jump\t// in\n    tag_102:\n      dup1\n      0x1f\n      add\n      0x20\n      dup1\n      swap2\n      div\n      mul\n      0x20\n      add\n      mload(0x40)\n      swap1\n      dup2\n      add\n      0x40\n      mstore\n      dup1\n      swap3\n      swap2\n      swap1\n      dup2\n      dup2\n      mstore\n      0x20\n      add\n      dup3\n      dup1\n      sload\n      tag_103\n      swap1\n      tag_67\n      jump\t// in\n    tag_103:\n      dup1\n      iszero\n      tag_104\n      jumpi\n      dup1\n      0x1f\n      lt\n      tag_105\n      jumpi\n      0x0100\n      dup1\n      dup4\n      sload\n      div\n      mul\n      dup4\n      mstore\n      swap2\n      0x20\n      add\n      swap2\n      jump(tag_104)\n    tag_105:\n      dup3\n      add\n      swap2\n      swap1\n      0x00\n      mstore\n      keccak256(0x00, 0x20)\n      swap1\n    tag_106:\n      dup2\n      sload\n      dup2\n      mstore\n      swap1\n      0x01\n      add\n      swap1\n      0x20\n      add\n      dup1\n      dup4\n      gt\n      tag_106\n      jumpi\n      dup3\n      swap1\n      sub\n      0x1f\n      and\n      dup3\n      add\n      swap2\n    tag_104:\n      pop\n      pop\n      pop\n      pop\n      pop\n      swap1\n      dup1\n      0x09\n      add\n      0x00\n      swap1\n      sload\n      swap1\n      0x0100\n      exp\n      swap1\n      div\n      0xff\n      and\n      swap1\n      pop\n      dup11\n      jump\t// out\n        /* \"#utility.yul\":7:84   */\n    tag_107:\n        /* \"#utility.yul\":44:51   */\n      0x00\n        /* \"#utility.yul\":73:78   */\n      dup2\n        /* \"#utility.yul\":62:78   */\n      swap1\n      pop\n        /* \"#utility.yul\":7:84   */\n      swap2\n      swap1\n      pop\n      jump\t// out\n        /* \"#utility.yul\":90:208   */\n    tag_108:\n        /* \"#utility.yul\":177:201   */\n      tag_154\n        /* \"#utility.yul\":195:200   */\n      dup2\n        /* \"#utility.yul\":177:201   */\n      tag_107\n      jump\t// in\n    tag_154:\n        /* \"#utility.yul\":172:175   */\n      dup3\n        /* \"#utility.yul\":165:202   */\n      mstore\n        /* \"#utility.yul\":90:208   */\n      pop\n      pop\n      jump\t// out\n        /* \"#utility.yul\":214:436   */\n    tag_12:\n        /* \"#utility.yul\":307:311   */\n      0x00\n        /* \"#utility.yul\":345:347   */\n      0x20\n        /* \"#utility.yul\":334:343   */\n      dup3\n        /* \"#utility.yul\":330:348   */\n      add\n        /* \"#utility.yul\":322:348   */\n      swap1\n      pop\n        /* \"#utility.yul\":358:429   */\n      tag_156\n        /* \"#utility.yul\":426:427   */\n      0x00\n        /* \"#utility.yul\":415:424   */\n      dup4\n        /* \"#utility.yul\":411:428   */\n      add\n        /* \"#utility.yul\":402:408   */\n      dup5\n        /* \"#utility.yul\":358:429   */\n      tag_108\n      jump\t// in\n    tag_156:\n        /* \"#utility.yul\":214:436   */\n      swap3\n      swap2\n      pop\n      pop\n      jump\t// out\n        /* \"#utility.yul\":442:517   */\n    tag_109:\n        /* \"#utility.yul\":475:481   */\n      0x00\n        /* \"#utility.yul\":508:510   */\n      0x40\n        /* \"#utility.yul\":502:511   */\n      mload\n        /* \"#utility.yul\":492:511   */\n      swap1\n      pop\n        /* \"#utility.yul\":442:517   */\n      swap1\n      jump\t// out\n        /* \"#utility.yul\":523:640   */\n    tag_110:\n        /* \"#utility.yul\":632:633   */\n      0x00\n        /* \"#utility.yul\":629:630   */\n      dup1\n        /* \"#utility.yul\":622:634   */\n      revert\n        /* \"#utility.yul\":646:763   */\n    tag_111:\n        /* \"#utility.yul\":755:756   */\n      0x00\n        /* \"#utility.yul\":752:753   */\n      dup1\n        /* \"#utility.yul\":745:757   */\n      revert\n        /* \"#utility.yul\":769:891   */\n    tag_112:\n        /* \"#utility.yul\":842:866   */\n      tag_161\n        /* \"#utility.yul\":860:865   */\n      dup2\n        /* \"#utility.yul\":842:866   */\n      tag_107\n      jump\t// in\n    tag_161:\n        /* \"#utility.yul\":835:840   */\n      dup2\n        /* \"#utility.yul\":832:867   */\n      eq\n        /* \"#utility.yul\":822:885   */\n      tag_162\n      jumpi\n        /* \"#utility.yul\":881:882   */\n      0x00\n        /* \"#utility.yul\":878:879   */\n      dup1\n        /* \"#utility.yul\":871:883   */\n      revert\n        /* \"#utility.yul\":822:885   */\n    tag_162:\n        /* \"#utility.yul\":769:891   */\n      pop\n      jump\t// out\n        /* \"#utility.yul\":897:1036   */\n    tag_113:\n        /* \"#utility.yul\":943:948   */\n      0x00\n        /* \"#utility.yul\":981:987   */\n      dup2\n        /* \"#utility.yul\":968:988   */\n      calldataload\n        /* \"#utility.yul\":959:988   */\n      swap1\n      pop\n        /* \"#utility.yul\":997:1030   */\n      tag_164\n        /* \"#utility.yul\":1024:1029   */\n      dup2\n        /* \"#utility.yul\":997:1030   */\n      tag_112\n      jump\t// in\n    tag_164:\n        /* \"#utility.yul\":897:1036   */\n      swap3\n      swap2\n      pop\n      pop\n      jump\t// out\n        /* \"#utility.yul\":1042:1159   */\n    tag_114:\n        /* \"#utility.yul\":1151:1152   */\n      0x00\n        /* \"#utility.yul\":1148:1149   */\n      dup1\n        /* \"#utility.yul\":1141:1153   */\n      revert\n        /* \"#utility.yul\":1165:1282   */\n    tag_115:\n        /* \"#utility.yul\":1274:1275   */\n      0x00\n        /* \"#utility.yul\":1271:1272   */\n      dup1\n        /* \"#utility.yul\":1264:1276   */\n      revert\n        /* \"#utility.yul\":1288:1390   */\n    tag_116:\n        /* \"#utility.yul\":1329:1335   */\n      0x00\n        /* \"#utility.yul\":1380:1382   */\n      0x1f\n        /* \"#utility.yul\":1376:1383   */\n      not\n        /* \"#utility.yul\":1371:1373   */\n      0x1f\n        /* \"#utility.yul\":1364:1369   */\n      dup4\n        /* \"#utility.yul\":1360:1374   */\n      add\n        /* \"#utility.yul\":1356:1384   */\n      and\n        /* \"#utility.yul\":1346:1384   */\n      swap1\n      pop\n        /* \"#utility.yul\":1288:1390   */\n      swap2\n      swap1\n      pop\n      jump\t// out\n        /* \"#utility.yul\":1396:1576   */\n    tag_117:\n        /* \"#utility.yul\":1444:1521   */\n      0x4e487b7100000000000000000000000000000000000000000000000000000000\n        /* \"#utility.yul\":1441:1442   */\n      0x00\n        /* \"#utility.yul\":1434:1522   */\n      mstore\n        /* \"#utility.yul\":1541:1545   */\n      0x41\n        /* \"#utility.yul\":1538:1539   */\n      0x04\n        /* \"#utility.yul\":1531:1546   */\n      mstore\n        /* \"#utility.yul\":1565:1569   */\n      0x24\n        /* \"#utility.yul\":1562:1563   */\n      0x00\n        /* \"#utility.yul\":1555:1570   */\n      revert\n        /* \"#utility.yul\":1582:1863   */\n    tag_118:\n        /* \"#utility.yul\":1665:1692   */\n      tag_170\n        /* \"#utility.yul\":1687:1691   */\n      dup3\n        /* \"#utility.yul\":1665:1692   */\n      tag_116\n      jump\t// in\n    tag_170:\n        /* \"#utility.yul\":1657:1663   */\n      dup2\n        /* \"#utility.yul\":1653:1693   */\n      add\n        /* \"#utility.yul\":1795:1801   */\n      dup2\n        /* \"#utility.yul\":1783:1793   */\n      dup2\n        /* \"#utility.yul\":1780:1802   */\n      lt\n        /* \"#utility.yul\":1759:1777   */\n      0xffffffffffffffff\n        /* \"#utility.yul\":1747:1757   */\n      dup3\n        /* \"#utility.yul\":1744:1778   */\n      gt\n        /* \"#utility.yul\":1741:1803   */\n      or\n        /* \"#utility.yul\":1738:1826   */\n      iszero\n      tag_171\n      jumpi\n        /* \"#utility.yul\":1806:1824   */\n      tag_172\n      tag_117\n      jump\t// in\n    tag_172:\n        /* \"#utility.yul\":1738:1826   */\n    tag_171:\n        /* \"#utility.yul\":1846:1856   */\n      dup1\n        /* \"#utility.yul\":1842:1844   */\n      0x40\n        /* \"#utility.yul\":1835:1857   */\n      mstore\n        /* \"#utility.yul\":1625:1863   */\n      pop\n        /* \"#utility.yul\":1582:1863   */\n      pop\n      pop\n      jump\t// out\n        /* \"#utility.yul\":1869:1998   */\n    tag_119:\n        /* \"#utility.yul\":1903:1909   */\n      0x00\n        /* \"#utility.yul\":1930:1950   */\n      tag_174\n      tag_109\n      jump\t// in\n    tag_174:\n        /* \"#utility.yul\":1920:1950   */\n      swap1\n      pop\n        /* \"#utility.yul\":1959:1992   */\n      tag_175\n        /* \"#utility.yul\":1987:1991   */\n      dup3\n        /* \"#utility.yul\":1979:1985   */\n      dup3\n        /* \"#utility.yul\":1959:1992   */\n      tag_118\n      jump\t// in\n    tag_175:\n        /* \"#utility.yul\":1869:1998   */\n      swap2\n      swap1\n      pop\n      jump\t// out\n        /* \"#utility.yul\":2004:2312   */\n    tag_120:\n        /* \"#utility.yul\":2066:2070   */\n      0x00\n        /* \"#utility.yul\":2156:2174   */\n      0xffffffffffffffff\n        /* \"#utility.yul\":2148:2154   */\n      dup3\n        /* \"#utility.yul\":2145:2175   */\n      gt\n        /* \"#utility.yul\":2142:2198   */\n      iszero\n      tag_177\n      jumpi\n        /* \"#utility.yul\":2178:2196   */\n      tag_178\n      tag_117\n      jump\t// in\n    tag_178:\n        /* \"#utility.yul\":2142:2198   */\n    tag_177:\n        /* \"#utility.yul\":2216:2245   */\n      tag_179\n        /* \"#utility.yul\":2238:2244   */\n      dup3\n        /* \"#utility.yul\":2216:2245   */\n      tag_116\n      jump\t// in\n    tag_179:\n        /* \"#utility.yul\":2208:2245   */\n      swap1\n      pop\n        /* \"#utility.yul\":2300:2304   */\n      0x20\n        /* \"#utility.yul\":2294:2298   */\n      dup2\n        /* \"#utility.yul\":2290:2305   */\n      add\n        /* \"#utility.yul\":2282:2305   */\n      swap1\n      pop\n        /* \"#utility.yul\":2004:2312   */\n      swap2\n      swap1\n      pop\n      jump\t// out\n        /* \"#utility.yul\":2318:2466   */\n    tag_121:\n        /* \"#utility.yul\":2416:2422   */\n      dup3\n        /* \"#utility.yul\":2411:2414   */\n      dup2\n        /* \"#utility.yul\":2406:2409   */\n      dup4\n        /* \"#utility.yul\":2393:2423   */\n      calldatacopy\n        /* \"#utility.yul\":2457:2458   */\n      0x00\n        /* \"#utility.yul\":2448:2454   */\n      dup4\n        /* \"#utility.yul\":2443:2446   */\n      dup4\n        /* \"#utility.yul\":2439:2455   */\n      add\n        /* \"#utility.yul\":2432:2459   */\n      mstore\n        /* \"#utility.yul\":2318:2466   */\n      pop\n      pop\n      pop\n      jump\t// out\n        /* \"#utility.yul\":2472:2897   */\n    tag_122:\n        /* \"#utility.yul\":2550:2555   */\n      0x00\n        /* \"#utility.yul\":2575:2641   */\n      tag_182\n        /* \"#utility.yul\":2591:2640   */\n      tag_183\n        /* \"#utility.yul\":2633:2639   */\n      dup5\n        /* \"#utility.yul\":2591:2640   */\n      tag_120\n      jump\t// in\n    tag_183:\n        /* \"#utility.yul\":2575:2641   */\n      tag_119\n      jump\t// in\n    tag_182:\n        /* \"#utility.yul\":2566:2641   */\n      swap1\n      pop\n        /* \"#utility.yul\":2664:2670   */\n      dup3\n        /* \"#utility.yul\":2657:2662   */\n      dup2\n        /* \"#utility.yul\":2650:2671   */\n      mstore\n        /* \"#utility.yul\":2702:2706   */\n      0x20\n        /* \"#utility.yul\":2695:2700   */\n      dup2\n        /* \"#utility.yul\":2691:2707   */\n      add\n        /* \"#utility.yul\":2740:2743   */\n      dup5\n        /* \"#utility.yul\":2731:2737   */\n      dup5\n        /* \"#utility.yul\":2726:2729   */\n      dup5\n        /* \"#utility.yul\":2722:2738   */\n      add\n        /* \"#utility.yul\":2719:2744   */\n      gt\n        /* \"#utility.yul\":2716:2828   */\n      iszero\n      tag_184\n      jumpi\n        /* \"#utility.yul\":2747:2826   */\n      tag_185\n      tag_115\n      jump\t// in\n    tag_185:\n        /* \"#utility.yul\":2716:2828   */\n    tag_184:\n        /* \"#utility.yul\":2837:2891   */\n      tag_186\n        /* \"#utility.yul\":2884:2890   */\n      dup5\n        /* \"#utility.yul\":2879:2882   */\n      dup3\n        /* \"#utility.yul\":2874:2877   */\n      dup6\n        /* \"#utility.yul\":2837:2891   */\n      tag_121\n      jump\t// in\n    tag_186:\n        /* \"#utility.yul\":2556:2897   */\n      pop\n        /* \"#utility.yul\":2472:2897   */\n      swap4\n      swap3\n      pop\n      pop\n      pop\n      jump\t// out\n        /* \"#utility.yul\":2917:3257   */\n    tag_123:\n        /* \"#utility.yul\":2973:2978   */\n      0x00\n        /* \"#utility.yul\":3022:3025   */\n      dup3\n        /* \"#utility.yul\":3015:3019   */\n      0x1f\n        /* \"#utility.yul\":3007:3013   */\n      dup4\n        /* \"#utility.yul\":3003:3020   */\n      add\n        /* \"#utility.yul\":2999:3026   */\n      slt\n        /* \"#utility.yul\":2989:3111   */\n      tag_188\n      jumpi\n        /* \"#utility.yul\":3030:3109   */\n      tag_189\n      tag_114\n      jump\t// in\n    tag_189:\n        /* \"#utility.yul\":2989:3111   */\n    tag_188:\n        /* \"#utility.yul\":3147:3153   */\n      dup2\n        /* \"#utility.yul\":3134:3154   */\n      calldataload\n        /* \"#utility.yul\":3172:3251   */\n      tag_190\n        /* \"#utility.yul\":3247:3250   */\n      dup5\n        /* \"#utility.yul\":3239:3245   */\n      dup3\n        /* \"#utility.yul\":3232:3236   */\n      0x20\n        /* \"#utility.yul\":3224:3230   */\n      dup7\n        /* \"#utility.yul\":3220:3237   */\n      add\n        /* \"#utility.yul\":3172:3251   */\n      tag_122\n      jump\t// in\n    tag_190:\n        /* \"#utility.yul\":3163:3251   */\n      swap2\n      pop\n        /* \"#utility.yul\":2979:3257   */\n      pop\n        /* \"#utility.yul\":2917:3257   */\n      swap3\n      swap2\n      pop\n      pop\n      jump\t// out\n        /* \"#utility.yul\":3263:6198   */\n    tag_15:\n        /* \"#utility.yul\":3474:3480   */\n      0x00\n        /* \"#utility.yul\":3482:3488   */\n      dup1\n        /* \"#utility.yul\":3490:3496   */\n      0x00\n        /* \"#utility.yul\":3498:3504   */\n      dup1\n        /* \"#utility.yul\":3506:3512   */\n      0x00\n        /* \"#utility.yul\":3514:3520   */\n      dup1\n        /* \"#utility.yul\":3522:3528   */\n      0x00\n        /* \"#utility.yul\":3530:3536   */\n      dup1\n        /* \"#utility.yul\":3538:3544   */\n      0x00\n        /* \"#utility.yul\":3587:3590   */\n      0x0120\n        /* \"#utility.yul\":3575:3584   */\n      dup11\n        /* \"#utility.yul\":3566:3573   */\n      dup13\n        /* \"#utility.yul\":3562:3585   */\n      sub\n        /* \"#utility.yul\":3558:3591   */\n      slt\n        /* \"#utility.yul\":3555:3675   */\n      iszero\n      tag_192\n      jumpi\n        /* \"#utility.yul\":3594:3673   */\n      tag_193\n      tag_110\n      jump\t// in\n    tag_193:\n        /* \"#utility.yul\":3555:3675   */\n    tag_192:\n        /* \"#utility.yul\":3714:3715   */\n      0x00\n        /* \"#utility.yul\":3739:3792   */\n      tag_194\n        /* \"#utility.yul\":3784:3791   */\n      dup13\n        /* \"#utility.yul\":3775:3781   */\n      dup3\n        /* \"#utility.yul\":3764:3773   */\n      dup14\n        /* \"#utility.yul\":3760:3782   */\n      add\n        /* \"#utility.yul\":3739:3792   */\n      tag_113\n      jump\t// in\n    tag_194:\n        /* \"#utility.yul\":3729:3792   */\n      swap10\n      pop\n        /* \"#utility.yul\":3685:3802   */\n      pop\n        /* \"#utility.yul\":3869:3871   */\n      0x20\n        /* \"#utility.yul\":3858:3867   */\n      dup11\n        /* \"#utility.yul\":3854:3872   */\n      add\n        /* \"#utility.yul\":3841:3873   */\n      calldataload\n        /* \"#utility.yul\":3900:3918   */\n      0xffffffffffffffff\n        /* \"#utility.yul\":3892:3898   */\n      dup2\n        /* \"#utility.yul\":3889:3919   */\n      gt\n        /* \"#utility.yul\":3886:4003   */\n      iszero\n      tag_195\n      jumpi\n        /* \"#utility.yul\":3922:4001   */\n      tag_196\n      tag_111\n      jump\t// in\n    tag_196:\n        /* \"#utility.yul\":3886:4003   */\n    tag_195:\n        /* \"#utility.yul\":4027:4090   */\n      tag_197\n        /* \"#utility.yul\":4082:4089   */\n      dup13\n        /* \"#utility.yul\":4073:4079   */\n      dup3\n        /* \"#utility.yul\":4062:4071   */\n      dup14\n        /* \"#utility.yul\":4058:4080   */\n      add\n        /* \"#utility.yul\":4027:4090   */\n      tag_123\n      jump\t// in\n    tag_197:\n        /* \"#utility.yul\":4017:4090   */\n      swap9\n      pop\n        /* \"#utility.yul\":3812:4100   */\n      pop\n        /* \"#utility.yul\":4167:4169   */\n      0x40\n        /* \"#utility.yul\":4156:4165   */\n      dup11\n        /* \"#utility.yul\":4152:4170   */\n      add\n        /* \"#utility.yul\":4139:4171   */\n      calldataload\n        /* \"#utility.yul\":4198:4216   */\n      0xffffffffffffffff\n        /* \"#utility.yul\":4190:4196   */\n      dup2\n        /* \"#utility.yul\":4187:4217   */\n      gt\n        /* \"#utility.yul\":4184:4301   */\n      iszero\n      tag_198\n      jumpi\n        /* \"#utility.yul\":4220:4299   */\n      tag_199\n      tag_111\n      jump\t// in\n    tag_199:\n        /* \"#utility.yul\":4184:4301   */\n    tag_198:\n        /* \"#utility.yul\":4325:4388   */\n      tag_200\n        /* \"#utility.yul\":4380:4387   */\n      dup13\n        /* \"#utility.yul\":4371:4377   */\n      dup3\n        /* \"#utility.yul\":4360:4369   */\n      dup14\n        /* \"#utility.yul\":4356:4378   */\n      add\n        /* \"#utility.yul\":4325:4388   */\n      tag_123\n      jump\t// in\n    tag_200:\n        /* \"#utility.yul\":4315:4388   */\n      swap8\n      pop\n        /* \"#utility.yul\":4110:4398   */\n      pop\n        /* \"#utility.yul\":4465:4467   */\n      0x60\n        /* \"#utility.yul\":4454:4463   */\n      dup11\n        /* \"#utility.yul\":4450:4468   */\n      add\n        /* \"#utility.yul\":4437:4469   */\n      calldataload\n        /* \"#utility.yul\":4496:4514   */\n      0xffffffffffffffff\n        /* \"#utility.yul\":4488:4494   */\n      dup2\n        /* \"#utility.yul\":4485:4515   */\n      gt\n        /* \"#utility.yul\":4482:4599   */\n      iszero\n      tag_201\n      jumpi\n        /* \"#utility.yul\":4518:4597   */\n      tag_202\n      tag_111\n      jump\t// in\n    tag_202:\n        /* \"#utility.yul\":4482:4599   */\n    tag_201:\n        /* \"#utility.yul\":4623:4686   */\n      tag_203\n        /* \"#utility.yul\":4678:4685   */\n      dup13\n        /* \"#utility.yul\":4669:4675   */\n      dup3\n        /* \"#utility.yul\":4658:4667   */\n      dup14\n        /* \"#utility.yul\":4654:4676   */\n      add\n        /* \"#utility.yul\":4623:4686   */\n      tag_123\n      jump\t// in\n    tag_203:\n        /* \"#utility.yul\":4613:4686   */\n      swap7\n      pop\n        /* \"#utility.yul\":4408:4696   */\n      pop\n        /* \"#utility.yul\":4763:4766   */\n      0x80\n        /* \"#utility.yul\":4752:4761   */\n      dup11\n        /* \"#utility.yul\":4748:4767   */\n      add\n        /* \"#utility.yul\":4735:4768   */\n      calldataload\n        /* \"#utility.yul\":4795:4813   */\n      0xffffffffffffffff\n        /* \"#utility.yul\":4787:4793   */\n      dup2\n        /* \"#utility.yul\":4784:4814   */\n      gt\n        /* \"#utility.yul\":4781:4898   */\n      iszero\n      tag_204\n      jumpi\n        /* \"#utility.yul\":4817:4896   */\n      tag_205\n      tag_111\n      jump\t// in\n    tag_205:\n        /* \"#utility.yul\":4781:4898   */\n    tag_204:\n        /* \"#utility.yul\":4922:4985   */\n      tag_206\n        /* \"#utility.yul\":4977:4984   */\n      dup13\n        /* \"#utility.yul\":4968:4974   */\n      dup3\n        /* \"#utility.yul\":4957:4966   */\n      dup14\n        /* \"#utility.yul\":4953:4975   */\n      add\n        /* \"#utility.yul\":4922:4985   */\n      tag_123\n      jump\t// in\n    tag_206:\n        /* \"#utility.yul\":4912:4985   */\n      swap6\n      pop\n        /* \"#utility.yul\":4706:4995   */\n      pop\n        /* \"#utility.yul\":5062:5065   */\n      0xa0\n        /* \"#utility.yul\":5051:5060   */\n      dup11\n        /* \"#utility.yul\":5047:5066   */\n      add\n        /* \"#utility.yul\":5034:5067   */\n      calldataload\n        /* \"#utility.yul\":5094:5112   */\n      0xffffffffffffffff\n        /* \"#utility.yul\":5086:5092   */\n      dup2\n        /* \"#utility.yul\":5083:5113   */\n      gt\n        /* \"#utility.yul\":5080:5197   */\n      iszero\n      tag_207\n      jumpi\n        /* \"#utility.yul\":5116:5195   */\n      tag_208\n      tag_111\n      jump\t// in\n    tag_208:\n        /* \"#utility.yul\":5080:5197   */\n    tag_207:\n        /* \"#utility.yul\":5221:5284   */\n      tag_209\n        /* \"#utility.yul\":5276:5283   */\n      dup13\n        /* \"#utility.yul\":5267:5273   */\n      dup3\n        /* \"#utility.yul\":5256:5265   */\n      dup14\n        /* \"#utility.yul\":5252:5274   */\n      add\n        /* \"#utility.yul\":5221:5284   */\n      tag_123\n      jump\t// in\n    tag_209:\n        /* \"#utility.yul\":5211:5284   */\n      swap5\n      pop\n        /* \"#utility.yul\":5005:5294   */\n      pop\n        /* \"#utility.yul\":5361:5364   */\n      0xc0\n        /* \"#utility.yul\":5350:5359   */\n      dup11\n        /* \"#utility.yul\":5346:5365   */\n      add\n        /* \"#utility.yul\":5333:5366   */\n      calldataload\n        /* \"#utility.yul\":5393:5411   */\n      0xffffffffffffffff\n        /* \"#utility.yul\":5385:5391   */\n      dup2\n        /* \"#utility.yul\":5382:5412   */\n      gt\n        /* \"#utility.yul\":5379:5496   */\n      iszero\n      tag_210\n      jumpi\n        /* \"#utility.yul\":5415:5494   */\n      tag_211\n      tag_111\n      jump\t// in\n    tag_211:\n        /* \"#utility.yul\":5379:5496   */\n    tag_210:\n        /* \"#utility.yul\":5520:5583   */\n      tag_212\n        /* \"#utility.yul\":5575:5582   */\n      dup13\n        /* \"#utility.yul\":5566:5572   */\n      dup3\n        /* \"#utility.yul\":5555:5564   */\n      dup14\n        /* \"#utility.yul\":5551:5573   */\n      add\n        /* \"#utility.yul\":5520:5583   */\n      tag_123\n      jump\t// in\n    tag_212:\n        /* \"#utility.yul\":5510:5583   */\n      swap4\n      pop\n        /* \"#utility.yul\":5304:5593   */\n      pop\n        /* \"#utility.yul\":5660:5663   */\n      0xe0\n        /* \"#utility.yul\":5649:5658   */\n      dup11\n        /* \"#utility.yul\":5645:5664   */\n      add\n        /* \"#utility.yul\":5632:5665   */\n      calldataload\n        /* \"#utility.yul\":5692:5710   */\n      0xffffffffffffffff\n        /* \"#utility.yul\":5684:5690   */\n      dup2\n        /* \"#utility.yul\":5681:5711   */\n      gt\n        /* \"#utility.yul\":5678:5795   */\n      iszero\n      tag_213\n      jumpi\n        /* \"#utility.yul\":5714:5793   */\n      tag_214\n      tag_111\n      jump\t// in\n    tag_214:\n        /* \"#utility.yul\":5678:5795   */\n    tag_213:\n        /* \"#utility.yul\":5819:5882   */\n      tag_215\n        /* \"#utility.yul\":5874:5881   */\n      dup13\n        /* \"#utility.yul\":5865:5871   */\n      dup3\n        /* \"#utility.yul\":5854:5863   */\n      dup14\n        /* \"#utility.yul\":5850:5872   */\n      add\n        /* \"#utility.yul\":5819:5882   */\n      tag_123\n      jump\t// in\n    tag_215:\n        /* \"#utility.yul\":5809:5882   */\n      swap3\n      pop\n        /* \"#utility.yul\":5603:5892   */\n      pop\n        /* \"#utility.yul\":5959:5962   */\n      0x0100\n        /* \"#utility.yul\":5948:5957   */\n      dup11\n        /* \"#utility.yul\":5944:5963   */\n      add\n        /* \"#utility.yul\":5931:5964   */\n      calldataload\n        /* \"#utility.yul\":5991:6009   */\n      0xffffffffffffffff\n        /* \"#utility.yul\":5983:5989   */\n      dup2\n        /* \"#utility.yul\":5980:6010   */\n      gt\n        /* \"#utility.yul\":5977:6094   */\n      iszero\n      tag_216\n      jumpi\n        /* \"#utility.yul\":6013:6092   */\n      tag_217\n      tag_111\n      jump\t// in\n    tag_217:\n        /* \"#utility.yul\":5977:6094   */\n    tag_216:\n        /* \"#utility.yul\":6118:6181   */\n      tag_218\n        /* \"#utility.yul\":6173:6180   */\n      dup13\n        /* \"#utility.yul\":6164:6170   */\n      dup3\n        /* \"#utility.yul\":6153:6162   */\n      dup14\n        /* \"#utility.yul\":6149:6171   */\n      add\n        /* \"#utility.yul\":6118:6181   */\n      tag_123\n      jump\t// in\n    tag_218:\n        /* \"#utility.yul\":6108:6181   */\n      swap2\n      pop\n        /* \"#utility.yul\":5902:6191   */\n      pop\n        /* \"#utility.yul\":3263:6198   */\n      swap3\n      swap6\n      swap9\n      pop\n      swap3\n      swap6\n      swap9\n      pop\n      swap3\n      swap6\n      swap9\n      jump\t// out\n        /* \"#utility.yul\":6204:8993   */\n    tag_19:\n        /* \"#utility.yul\":6406:6412   */\n      0x00\n        /* \"#utility.yul\":6414:6420   */\n      dup1\n        /* \"#utility.yul\":6422:6428   */\n      0x00\n        /* \"#utility.yul\":6430:6436   */\n      dup1\n        /* \"#utility.yul\":6438:6444   */\n      0x00\n        /* \"#utility.yul\":6446:6452   */\n      dup1\n        /* \"#utility.yul\":6454:6460   */\n      0x00\n        /* \"#utility.yul\":6462:6468   */\n      dup1\n        /* \"#utility.yul\":6511:6514   */\n      0x0100\n        /* \"#utility.yul\":6499:6508   */\n      dup10\n        /* \"#utility.yul\":6490:6497   */\n      dup12\n        /* \"#utility.yul\":6486:6509   */\n      sub\n        /* \"#utility.yul\":6482:6515   */\n      slt\n        /* \"#utility.yul\":6479:6599   */\n      iszero\n      tag_220\n      jumpi\n        /* \"#utility.yul\":6518:6597   */\n      tag_221\n      tag_110\n      jump\t// in\n    tag_221:\n        /* \"#utility.yul\":6479:6599   */\n    tag_220:\n        /* \"#utility.yul\":6666:6667   */\n      0x00\n        /* \"#utility.yul\":6655:6664   */\n      dup10\n        /* \"#utility.yul\":6651:6668   */\n      add\n        /* \"#utility.yul\":6638:6669   */\n      calldataload\n        /* \"#utility.yul\":6696:6714   */\n      0xffffffffffffffff\n        /* \"#utility.yul\":6688:6694   */\n      dup2\n        /* \"#utility.yul\":6685:6715   */\n      gt\n        /* \"#utility.yul\":6682:6799   */\n      iszero\n      tag_222\n      jumpi\n        /* \"#utility.yul\":6718:6797   */\n      tag_223\n      tag_111\n      jump\t// in\n    tag_223:\n        /* \"#utility.yul\":6682:6799   */\n    tag_222:\n        /* \"#utility.yul\":6823:6886   */\n      tag_224\n        /* \"#utility.yul\":6878:6885   */\n      dup12\n        /* \"#utility.yul\":6869:6875   */\n      dup3\n        /* \"#utility.yul\":6858:6867   */\n      dup13\n        /* \"#utility.yul\":6854:6876   */\n      add\n        /* \"#utility.yul\":6823:6886   */\n      tag_123\n      jump\t// in\n    tag_224:\n        /* \"#utility.yul\":6813:6886   */\n      swap9\n      pop\n        /* \"#utility.yul\":6609:6896   */\n      pop\n        /* \"#utility.yul\":6963:6965   */\n      0x20\n        /* \"#utility.yul\":6952:6961   */\n      dup10\n        /* \"#utility.yul\":6948:6966   */\n      add\n        /* \"#utility.yul\":6935:6967   */\n      calldataload\n        /* \"#utility.yul\":6994:7012   */\n      0xffffffffffffffff\n        /* \"#utility.yul\":6986:6992   */\n      dup2\n        /* \"#utility.yul\":6983:7013   */\n      gt\n        /* \"#utility.yul\":6980:7097   */\n      iszero\n      tag_225\n      jumpi\n        /* \"#utility.yul\":7016:7095   */\n      tag_226\n      tag_111\n      jump\t// in\n    tag_226:\n        /* \"#utility.yul\":6980:7097   */\n    tag_225:\n        /* \"#utility.yul\":7121:7184   */\n      tag_227\n        /* \"#utility.yul\":7176:7183   */\n      dup12\n        /* \"#utility.yul\":7167:7173   */\n      dup3\n        /* \"#utility.yul\":7156:7165   */\n      dup13\n        /* \"#utility.yul\":7152:7174   */\n      add\n        /* \"#utility.yul\":7121:7184   */\n      tag_123\n      jump\t// in\n    tag_227:\n        /* \"#utility.yul\":7111:7184   */\n      swap8\n      pop\n        /* \"#utility.yul\":6906:7194   */\n      pop\n        /* \"#utility.yul\":7261:7263   */\n      0x40\n        /* \"#utility.yul\":7250:7259   */\n      dup10\n        /* \"#utility.yul\":7246:7264   */\n      add\n        /* \"#utility.yul\":7233:7265   */\n      calldataload\n        /* \"#utility.yul\":7292:7310   */\n      0xffffffffffffffff\n        /* \"#utility.yul\":7284:7290   */\n      dup2\n        /* \"#utility.yul\":7281:7311   */\n      gt\n        /* \"#utility.yul\":7278:7395   */\n      iszero\n      tag_228\n      jumpi\n        /* \"#utility.yul\":7314:7393   */\n      tag_229\n      tag_111\n      jump\t// in\n    tag_229:\n        /* \"#utility.yul\":7278:7395   */\n    tag_228:\n        /* \"#utility.yul\":7419:7482   */\n      tag_230\n        /* \"#utility.yul\":7474:7481   */\n      dup12\n        /* \"#utility.yul\":7465:7471   */\n      dup3\n        /* \"#utility.yul\":7454:7463   */\n      dup13\n        /* \"#utility.yul\":7450:7472   */\n      add\n        /* \"#utility.yul\":7419:7482   */\n      tag_123\n      jump\t// in\n    tag_230:\n        /* \"#utility.yul\":7409:7482   */\n      swap7\n      pop\n        /* \"#utility.yul\":7204:7492   */\n      pop\n        /* \"#utility.yul\":7559:7561   */\n      0x60\n        /* \"#utility.yul\":7548:7557   */\n      dup10\n        /* \"#utility.yul\":7544:7562   */\n      add\n        /* \"#utility.yul\":7531:7563   */\n      calldataload\n        /* \"#utility.yul\":7590:7608   */\n      0xffffffffffffffff\n        /* \"#utility.yul\":7582:7588   */\n      dup2\n        /* \"#utility.yul\":7579:7609   */\n      gt\n        /* \"#utility.yul\":7576:7693   */\n      iszero\n      tag_231\n      jumpi\n        /* \"#utility.yul\":7612:7691   */\n      tag_232\n      tag_111\n      jump\t// in\n    tag_232:\n        /* \"#utility.yul\":7576:7693   */\n    tag_231:\n        /* \"#utility.yul\":7717:7780   */\n      tag_233\n        /* \"#utility.yul\":7772:7779   */\n      dup12\n        /* \"#utility.yul\":7763:7769   */\n      dup3\n        /* \"#utility.yul\":7752:7761   */\n      dup13\n        /* \"#utility.yul\":7748:7770   */\n      add\n        /* \"#utility.yul\":7717:7780   */\n      tag_123\n      jump\t// in\n    tag_233:\n        /* \"#utility.yul\":7707:7780   */\n      swap6\n      pop\n        /* \"#utility.yul\":7502:7790   */\n      pop\n        /* \"#utility.yul\":7857:7860   */\n      0x80\n        /* \"#utility.yul\":7846:7855   */\n      dup10\n        /* \"#utility.yul\":7842:7861   */\n      add\n        /* \"#utility.yul\":7829:7862   */\n      calldataload\n        /* \"#utility.yul\":7889:7907   */\n      0xffffffffffffffff\n        /* \"#utility.yul\":7881:7887   */\n      dup2\n        /* \"#utility.yul\":7878:7908   */\n      gt\n        /* \"#utility.yul\":7875:7992   */\n      iszero\n      tag_234\n      jumpi\n        /* \"#utility.yul\":7911:7990   */\n      tag_235\n      tag_111\n      jump\t// in\n    tag_235:\n        /* \"#utility.yul\":7875:7992   */\n    tag_234:\n        /* \"#utility.yul\":8016:8079   */\n      tag_236\n        /* \"#utility.yul\":8071:8078   */\n      dup12\n        /* \"#utility.yul\":8062:8068   */\n      dup3\n        /* \"#utility.yul\":8051:8060   */\n      dup13\n        /* \"#utility.yul\":8047:8069   */\n      add\n        /* \"#utility.yul\":8016:8079   */\n      tag_123\n      jump\t// in\n    tag_236:\n        /* \"#utility.yul\":8006:8079   */\n      swap5\n      pop\n        /* \"#utility.yul\":7800:8089   */\n      pop\n        /* \"#utility.yul\":8156:8159   */\n      0xa0\n        /* \"#utility.yul\":8145:8154   */\n      dup10\n        /* \"#utility.yul\":8141:8160   */\n      add\n        /* \"#utility.yul\":8128:8161   */\n      calldataload\n        /* \"#utility.yul\":8188:8206   */\n      0xffffffffffffffff\n        /* \"#utility.yul\":8180:8186   */\n      dup2\n        /* \"#utility.yul\":8177:8207   */\n      gt\n        /* \"#utility.yul\":8174:8291   */\n      iszero\n      tag_237\n      jumpi\n        /* \"#utility.yul\":8210:8289   */\n      tag_238\n      tag_111\n      jump\t// in\n    tag_238:\n        /* \"#utility.yul\":8174:8291   */\n    tag_237:\n        /* \"#utility.yul\":8315:8378   */\n      tag_239\n        /* \"#utility.yul\":8370:8377   */\n      dup12\n        /* \"#utility.yul\":8361:8367   */\n      dup3\n        /* \"#utility.yul\":8350:8359   */\n      dup13\n        /* \"#utility.yul\":8346:8368   */\n      add\n        /* \"#utility.yul\":8315:8378   */\n      tag_123\n      jump\t// in\n    tag_239:\n        /* \"#utility.yul\":8305:8378   */\n      swap4\n      pop\n        /* \"#utility.yul\":8099:8388   */\n      pop\n        /* \"#utility.yul\":8455:8458   */\n      0xc0\n        /* \"#utility.yul\":8444:8453   */\n      dup10\n        /* \"#utility.yul\":8440:8459   */\n      add\n        /* \"#utility.yul\":8427:8460   */\n      calldataload\n        /* \"#utility.yul\":8487:8505   */\n      0xffffffffffffffff\n        /* \"#utility.yul\":8479:8485   */\n      dup2\n        /* \"#utility.yul\":8476:8506   */\n      gt\n        /* \"#utility.yul\":8473:8590   */\n      iszero\n      tag_240\n      jumpi\n        /* \"#utility.yul\":8509:8588   */\n      tag_241\n      tag_111\n      jump\t// in\n    tag_241:\n        /* \"#utility.yul\":8473:8590   */\n    tag_240:\n        /* \"#utility.yul\":8614:8677   */\n      tag_242\n        /* \"#utility.yul\":8669:8676   */\n      dup12\n        /* \"#utility.yul\":8660:8666   */\n      dup3\n        /* \"#utility.yul\":8649:8658   */\n      dup13\n        /* \"#utility.yul\":8645:8667   */\n      add\n        /* \"#utility.yul\":8614:8677   */\n      tag_123\n      jump\t// in\n    tag_242:\n        /* \"#utility.yul\":8604:8677   */\n      swap3\n      pop\n        /* \"#utility.yul\":8398:8687   */\n      pop\n        /* \"#utility.yul\":8754:8757   */\n      0xe0\n        /* \"#utility.yul\":8743:8752   */\n      dup10\n        /* \"#utility.yul\":8739:8758   */\n      add\n        /* \"#utility.yul\":8726:8759   */\n      calldataload\n        /* \"#utility.yul\":8786:8804   */\n      0xffffffffffffffff\n        /* \"#utility.yul\":8778:8784   */\n      dup2\n        /* \"#utility.yul\":8775:8805   */\n      gt\n        /* \"#utility.yul\":8772:8889   */\n      iszero\n      tag_243\n      jumpi\n        /* \"#utility.yul\":8808:8887   */\n      tag_244\n      tag_111\n      jump\t// in\n    tag_244:\n        /* \"#utility.yul\":8772:8889   */\n    tag_243:\n        /* \"#utility.yul\":8913:8976   */\n      tag_245\n        /* \"#utility.yul\":8968:8975   */\n      dup12\n        /* \"#utility.yul\":8959:8965   */\n      dup3\n        /* \"#utility.yul\":8948:8957   */\n      dup13\n        /* \"#utility.yul\":8944:8966   */\n      add\n        /* \"#utility.yul\":8913:8976   */\n      tag_123\n      jump\t// in\n    tag_245:\n        /* \"#utility.yul\":8903:8976   */\n      swap2\n      pop\n        /* \"#utility.yul\":8697:8986   */\n      pop\n        /* \"#utility.yul\":6204:8993   */\n      swap3\n      swap6\n      swap9\n      pop\n      swap3\n      swap6\n      swap9\n      swap1\n      swap4\n      swap7\n      pop\n      jump\t// out\n        /* \"#utility.yul\":8999:9328   */\n    tag_23:\n        /* \"#utility.yul\":9058:9064   */\n      0x00\n        /* \"#utility.yul\":9107:9109   */\n      0x20\n        /* \"#utility.yul\":9095:9104   */\n      dup3\n        /* \"#utility.yul\":9086:9093   */\n      dup5\n        /* \"#utility.yul\":9082:9105   */\n      sub\n        /* \"#utility.yul\":9078:9110   */\n      slt\n        /* \"#utility.yul\":9075:9194   */\n      iszero\n      tag_247\n      jumpi\n        /* \"#utility.yul\":9113:9192   */\n      tag_248\n      tag_110\n      jump\t// in\n    tag_248:\n        /* \"#utility.yul\":9075:9194   */\n    tag_247:\n        /* \"#utility.yul\":9233:9234   */\n      0x00\n        /* \"#utility.yul\":9258:9311   */\n      tag_249\n        /* \"#utility.yul\":9303:9310   */\n      dup5\n        /* \"#utility.yul\":9294:9300   */\n      dup3\n        /* \"#utility.yul\":9283:9292   */\n      dup6\n        /* \"#utility.yul\":9279:9301   */\n      add\n        /* \"#utility.yul\":9258:9311   */\n      tag_113\n      jump\t// in\n    tag_249:\n        /* \"#utility.yul\":9248:9311   */\n      swap2\n      pop\n        /* \"#utility.yul\":9204:9321   */\n      pop\n        /* \"#utility.yul\":8999:9328   */\n      swap3\n      swap2\n      pop\n      pop\n      jump\t// out\n        /* \"#utility.yul\":9334:9433   */\n    tag_124:\n        /* \"#utility.yul\":9386:9392   */\n      0x00\n        /* \"#utility.yul\":9420:9425   */\n      dup2\n        /* \"#utility.yul\":9414:9426   */\n      mload\n        /* \"#utility.yul\":9404:9426   */\n      swap1\n      pop\n        /* \"#utility.yul\":9334:9433   */\n      swap2\n      swap1\n      pop\n      jump\t// out\n        /* \"#utility.yul\":9439:9608   */\n    tag_125:\n        /* \"#utility.yul\":9523:9534   */\n      0x00\n        /* \"#utility.yul\":9557:9563   */\n      dup3\n        /* \"#utility.yul\":9552:9555   */\n      dup3\n        /* \"#utility.yul\":9545:9564   */\n      mstore\n        /* \"#utility.yul\":9597:9601   */\n      0x20\n        /* \"#utility.yul\":9592:9595   */\n      dup3\n        /* \"#utility.yul\":9588:9602   */\n      add\n        /* \"#utility.yul\":9573:9602   */\n      swap1\n      pop\n        /* \"#utility.yul\":9439:9608   */\n      swap3\n      swap2\n      pop\n      pop\n      jump\t// out\n        /* \"#utility.yul\":9614:9753   */\n    tag_126:\n        /* \"#utility.yul\":9703:9709   */\n      dup3\n        /* \"#utility.yul\":9698:9701   */\n      dup2\n        /* \"#utility.yul\":9693:9696   */\n      dup4\n        /* \"#utility.yul\":9687:9710   */\n      mcopy\n        /* \"#utility.yul\":9744:9745   */\n      0x00\n        /* \"#utility.yul\":9735:9741   */\n      dup4\n        /* \"#utility.yul\":9730:9733   */\n      dup4\n        /* \"#utility.yul\":9726:9742   */\n      add\n        /* \"#utility.yul\":9719:9746   */\n      mstore\n        /* \"#utility.yul\":9614:9753   */\n      pop\n      pop\n      pop\n      jump\t// out\n        /* \"#utility.yul\":9759:10136   */\n    tag_127:\n        /* \"#utility.yul\":9847:9850   */\n      0x00\n        /* \"#utility.yul\":9875:9914   */\n      tag_254\n        /* \"#utility.yul\":9908:9913   */\n      dup3\n        /* \"#utility.yul\":9875:9914   */\n      tag_124\n      jump\t// in\n    tag_254:\n        /* \"#utility.yul\":9930:10001   */\n      tag_255\n        /* \"#utility.yul\":9994:10000   */\n      dup2\n        /* \"#utility.yul\":9989:9992   */\n      dup6\n        /* \"#utility.yul\":9930:10001   */\n      tag_125\n      jump\t// in\n    tag_255:\n        /* \"#utility.yul\":9923:10001   */\n      swap4\n      pop\n        /* \"#utility.yul\":10010:10075   */\n      tag_256\n        /* \"#utility.yul\":10068:10074   */\n      dup2\n        /* \"#utility.yul\":10063:10066   */\n      dup6\n        /* \"#utility.yul\":10056:10060   */\n      0x20\n        /* \"#utility.yul\":10049:10054   */\n      dup7\n        /* \"#utility.yul\":10045:10061   */\n      add\n        /* \"#utility.yul\":10010:10075   */\n      tag_126\n      jump\t// in\n    tag_256:\n        /* \"#utility.yul\":10100:10129   */\n      tag_257\n        /* \"#utility.yul\":10122:10128   */\n      dup2\n        /* \"#utility.yul\":10100:10129   */\n      tag_116\n      jump\t// in\n    tag_257:\n        /* \"#utility.yul\":10095:10098   */\n      dup5\n        /* \"#utility.yul\":10091:10130   */\n      add\n        /* \"#utility.yul\":10084:10130   */\n      swap2\n      pop\n        /* \"#utility.yul\":9851:10136   */\n      pop\n        /* \"#utility.yul\":9759:10136   */\n      swap3\n      swap2\n      pop\n      pop\n      jump\t// out\n        /* \"#utility.yul\":10142:10232   */\n    tag_128:\n        /* \"#utility.yul\":10176:10183   */\n      0x00\n        /* \"#utility.yul\":10219:10224   */\n      dup2\n        /* \"#utility.yul\":10212:10225   */\n      iszero\n        /* \"#utility.yul\":10205:10226   */\n      iszero\n        /* \"#utility.yul\":10194:10226   */\n      swap1\n      pop\n        /* \"#utility.yul\":10142:10232   */\n      swap2\n      swap1\n      pop\n      jump\t// out\n        /* \"#utility.yul\":10238:10347   */\n    tag_129:\n        /* \"#utility.yul\":10319:10340   */\n      tag_260\n        /* \"#utility.yul\":10334:10339   */\n      dup2\n        /* \"#utility.yul\":10319:10340   */\n      tag_128\n      jump\t// in\n    tag_260:\n        /* \"#utility.yul\":10314:10317   */\n      dup3\n        /* \"#utility.yul\":10307:10341   */\n      mstore\n        /* \"#utility.yul\":10238:10347   */\n      pop\n      pop\n      jump\t// out\n        /* \"#utility.yul\":10353:12288   */\n    tag_32:\n        /* \"#utility.yul\":10852:10856   */\n      0x00\n        /* \"#utility.yul\":10890:10893   */\n      0x0140\n        /* \"#utility.yul\":10879:10888   */\n      dup3\n        /* \"#utility.yul\":10875:10894   */\n      add\n        /* \"#utility.yul\":10867:10894   */\n      swap1\n      pop\n        /* \"#utility.yul\":10904:10975   */\n      tag_262\n        /* \"#utility.yul\":10972:10973   */\n      0x00\n        /* \"#utility.yul\":10961:10970   */\n      dup4\n        /* \"#utility.yul\":10957:10974   */\n      add\n        /* \"#utility.yul\":10948:10954   */\n      dup14\n        /* \"#utility.yul\":10904:10975   */\n      tag_108\n      jump\t// in\n    tag_262:\n        /* \"#utility.yul\":11022:11031   */\n      dup2\n        /* \"#utility.yul\":11016:11020   */\n      dup2\n        /* \"#utility.yul\":11012:11032   */\n      sub\n        /* \"#utility.yul\":11007:11009   */\n      0x20\n        /* \"#utility.yul\":10996:11005   */\n      dup4\n        /* \"#utility.yul\":10992:11010   */\n      add\n        /* \"#utility.yul\":10985:11033   */\n      mstore\n        /* \"#utility.yul\":11050:11128   */\n      tag_263\n        /* \"#utility.yul\":11123:11127   */\n      dup2\n        /* \"#utility.yul\":11114:11120   */\n      dup13\n        /* \"#utility.yul\":11050:11128   */\n      tag_127\n      jump\t// in\n    tag_263:\n        /* \"#utility.yul\":11042:11128   */\n      swap1\n      pop\n        /* \"#utility.yul\":11175:11184   */\n      dup2\n        /* \"#utility.yul\":11169:11173   */\n      dup2\n        /* \"#utility.yul\":11165:11185   */\n      sub\n        /* \"#utility.yul\":11160:11162   */\n      0x40\n        /* \"#utility.yul\":11149:11158   */\n      dup4\n        /* \"#utility.yul\":11145:11163   */\n      add\n        /* \"#utility.yul\":11138:11186   */\n      mstore\n        /* \"#utility.yul\":11203:11281   */\n      tag_264\n        /* \"#utility.yul\":11276:11280   */\n      dup2\n        /* \"#utility.yul\":11267:11273   */\n      dup12\n        /* \"#utility.yul\":11203:11281   */\n      tag_127\n      jump\t// in\n    tag_264:\n        /* \"#utility.yul\":11195:11281   */\n      swap1\n      pop\n        /* \"#utility.yul\":11328:11337   */\n      dup2\n        /* \"#utility.yul\":11322:11326   */\n      dup2\n        /* \"#utility.yul\":11318:11338   */\n      sub\n        /* \"#utility.yul\":11313:11315   */\n      0x60\n        /* \"#utility.yul\":11302:11311   */\n      dup4\n        /* \"#utility.yul\":11298:11316   */\n      add\n        /* \"#utility.yul\":11291:11339   */\n      mstore\n        /* \"#utility.yul\":11356:11434   */\n      tag_265\n        /* \"#utility.yul\":11429:11433   */\n      dup2\n        /* \"#utility.yul\":11420:11426   */\n      dup11\n        /* \"#utility.yul\":11356:11434   */\n      tag_127\n      jump\t// in\n    tag_265:\n        /* \"#utility.yul\":11348:11434   */\n      swap1\n      pop\n        /* \"#utility.yul\":11482:11491   */\n      dup2\n        /* \"#utility.yul\":11476:11480   */\n      dup2\n        /* \"#utility.yul\":11472:11492   */\n      sub\n        /* \"#utility.yul\":11466:11469   */\n      0x80\n        /* \"#utility.yul\":11455:11464   */\n      dup4\n        /* \"#utility.yul\":11451:11470   */\n      add\n        /* \"#utility.yul\":11444:11493   */\n      mstore\n        /* \"#utility.yul\":11510:11588   */\n      tag_266\n        /* \"#utility.yul\":11583:11587   */\n      dup2\n        /* \"#utility.yul\":11574:11580   */\n      dup10\n        /* \"#utility.yul\":11510:11588   */\n      tag_127\n      jump\t// in\n    tag_266:\n        /* \"#utility.yul\":11502:11588   */\n      swap1\n      pop\n        /* \"#utility.yul\":11636:11645   */\n      dup2\n        /* \"#utility.yul\":11630:11634   */\n      dup2\n        /* \"#utility.yul\":11626:11646   */\n      sub\n        /* \"#utility.yul\":11620:11623   */\n      0xa0\n        /* \"#utility.yul\":11609:11618   */\n      dup4\n        /* \"#utility.yul\":11605:11624   */\n      add\n        /* \"#utility.yul\":11598:11647   */\n      mstore\n        /* \"#utility.yul\":11664:11742   */\n      tag_267\n        /* \"#utility.yul\":11737:11741   */\n      dup2\n        /* \"#utility.yul\":11728:11734   */\n      dup9\n        /* \"#utility.yul\":11664:11742   */\n      tag_127\n      jump\t// in\n    tag_267:\n        /* \"#utility.yul\":11656:11742   */\n      swap1\n      pop\n        /* \"#utility.yul\":11790:11799   */\n      dup2\n        /* \"#utility.yul\":11784:11788   */\n      dup2\n        /* \"#utility.yul\":11780:11800   */\n      sub\n        /* \"#utility.yul\":11774:11777   */\n      0xc0\n        /* \"#utility.yul\":11763:11772   */\n      dup4\n        /* \"#utility.yul\":11759:11778   */\n      add\n        /* \"#utility.yul\":11752:11801   */\n      mstore\n        /* \"#utility.yul\":11818:11896   */\n      tag_268\n        /* \"#utility.yul\":11891:11895   */\n      dup2\n        /* \"#utility.yul\":11882:11888   */\n      dup8\n        /* \"#utility.yul\":11818:11896   */\n      tag_127\n      jump\t// in\n    tag_268:\n        /* \"#utility.yul\":11810:11896   */\n      swap1\n      pop\n        /* \"#utility.yul\":11944:11953   */\n      dup2\n        /* \"#utility.yul\":11938:11942   */\n      dup2\n        /* \"#utility.yul\":11934:11954   */\n      sub\n        /* \"#utility.yul\":11928:11931   */\n      0xe0\n        /* \"#utility.yul\":11917:11926   */\n      dup4\n        /* \"#utility.yul\":11913:11932   */\n      add\n        /* \"#utility.yul\":11906:11955   */\n      mstore\n        /* \"#utility.yul\":11972:12050   */\n      tag_269\n        /* \"#utility.yul\":12045:12049   */\n      dup2\n        /* \"#utility.yul\":12036:12042   */\n      dup7\n        /* \"#utility.yul\":11972:12050   */\n      tag_127\n      jump\t// in\n    tag_269:\n        /* \"#utility.yul\":11964:12050   */\n      swap1\n      pop\n        /* \"#utility.yul\":12098:12107   */\n      dup2\n        /* \"#utility.yul\":12092:12096   */\n      dup2\n        /* \"#utility.yul\":12088:12108   */\n      sub\n        /* \"#utility.yul\":12082:12085   */\n      0x0100\n        /* \"#utility.yul\":12071:12080   */\n      dup4\n        /* \"#utility.yul\":12067:12086   */\n      add\n        /* \"#utility.yul\":12060:12109   */\n      mstore\n        /* \"#utility.yul\":12126:12204   */\n      tag_270\n        /* \"#utility.yul\":12199:12203   */\n      dup2\n        /* \"#utility.yul\":12190:12196   */\n      dup6\n        /* \"#utility.yul\":12126:12204   */\n      tag_127\n      jump\t// in\n    tag_270:\n        /* \"#utility.yul\":12118:12204   */\n      swap1\n      pop\n        /* \"#utility.yul\":12214:12281   */\n      tag_271\n        /* \"#utility.yul\":12276:12279   */\n      0x0120\n        /* \"#utility.yul\":12265:12274   */\n      dup4\n        /* \"#utility.yul\":12261:12280   */\n      add\n        /* \"#utility.yul\":12252:12258   */\n      dup5\n        /* \"#utility.yul\":12214:12281   */\n      tag_129\n      jump\t// in\n    tag_271:\n        /* \"#utility.yul\":10353:12288   */\n      swap12\n      swap11\n      pop\n      pop\n      pop\n      pop\n      pop\n      pop\n      pop\n      pop\n      pop\n      pop\n      pop\n      jump\t// out\n        /* \"#utility.yul\":12294:12465   */\n    tag_130:\n        /* \"#utility.yul\":12434:12457   */\n      0x4361736520686173206265656e2064656c657465640000000000000000000000\n        /* \"#utility.yul\":12430:12431   */\n      0x00\n        /* \"#utility.yul\":12422:12428   */\n      dup3\n        /* \"#utility.yul\":12418:12432   */\n      add\n        /* \"#utility.yul\":12411:12458   */\n      mstore\n        /* \"#utility.yul\":12294:12465   */\n      pop\n      jump\t// out\n        /* \"#utility.yul\":12471:12837   */\n    tag_131:\n        /* \"#utility.yul\":12613:12616   */\n      0x00\n        /* \"#utility.yul\":12634:12701   */\n      tag_274\n        /* \"#utility.yul\":12698:12700   */\n      0x15\n        /* \"#utility.yul\":12693:12696   */\n      dup4\n        /* \"#utility.yul\":12634:12701   */\n      tag_125\n      jump\t// in\n    tag_274:\n        /* \"#utility.yul\":12627:12701   */\n      swap2\n      pop\n        /* \"#utility.yul\":12710:12803   */\n      tag_275\n        /* \"#utility.yul\":12799:12802   */\n      dup3\n        /* \"#utility.yul\":12710:12803   */\n      tag_130\n      jump\t// in\n    tag_275:\n        /* \"#utility.yul\":12828:12830   */\n      0x20\n        /* \"#utility.yul\":12823:12826   */\n      dup3\n        /* \"#utility.yul\":12819:12831   */\n      add\n        /* \"#utility.yul\":12812:12831   */\n      swap1\n      pop\n        /* \"#utility.yul\":12471:12837   */\n      swap2\n      swap1\n      pop\n      jump\t// out\n        /* \"#utility.yul\":12843:13262   */\n    tag_37:\n        /* \"#utility.yul\":13009:13013   */\n      0x00\n        /* \"#utility.yul\":13047:13049   */\n      0x20\n        /* \"#utility.yul\":13036:13045   */\n      dup3\n        /* \"#utility.yul\":13032:13050   */\n      add\n        /* \"#utility.yul\":13024:13050   */\n      swap1\n      pop\n        /* \"#utility.yul\":13096:13105   */\n      dup2\n        /* \"#utility.yul\":13090:13094   */\n      dup2\n        /* \"#utility.yul\":13086:13106   */\n      sub\n        /* \"#utility.yul\":13082:13083   */\n      0x00\n        /* \"#utility.yul\":13071:13080   */\n      dup4\n        /* \"#utility.yul\":13067:13084   */\n      add\n        /* \"#utility.yul\":13060:13107   */\n      mstore\n        /* \"#utility.yul\":13124:13255   */\n      tag_277\n        /* \"#utility.yul\":13250:13254   */\n      dup2\n        /* \"#utility.yul\":13124:13255   */\n      tag_131\n      jump\t// in\n    tag_277:\n        /* \"#utility.yul\":13116:13255   */\n      swap1\n      pop\n        /* \"#utility.yul\":12843:13262   */\n      swap2\n      swap1\n      pop\n      jump\t// out\n        /* \"#utility.yul\":13268:13448   */\n    tag_132:\n        /* \"#utility.yul\":13316:13393   */\n      0x4e487b7100000000000000000000000000000000000000000000000000000000\n        /* \"#utility.yul\":13313:13314   */\n      0x00\n        /* \"#utility.yul\":13306:13394   */\n      mstore\n        /* \"#utility.yul\":13413:13417   */\n      0x22\n        /* \"#utility.yul\":13410:13411   */\n      0x04\n        /* \"#utility.yul\":13403:13418   */\n      mstore\n        /* \"#utility.yul\":13437:13441   */\n      0x24\n        /* \"#utility.yul\":13434:13435   */\n      0x00\n        /* \"#utility.yul\":13427:13442   */\n      revert\n        /* \"#utility.yul\":13454:13774   */\n    tag_67:\n        /* \"#utility.yul\":13498:13504   */\n      0x00\n        /* \"#utility.yul\":13535:13536   */\n      0x02\n        /* \"#utility.yul\":13529:13533   */\n      dup3\n        /* \"#utility.yul\":13525:13537   */\n      div\n        /* \"#utility.yul\":13515:13537   */\n      swap1\n      pop\n        /* \"#utility.yul\":13582:13583   */\n      0x01\n        /* \"#utility.yul\":13576:13580   */\n      dup3\n        /* \"#utility.yul\":13572:13584   */\n      and\n        /* \"#utility.yul\":13603:13621   */\n      dup1\n        /* \"#utility.yul\":13593:13674   */\n      tag_280\n      jumpi\n        /* \"#utility.yul\":13659:13663   */\n      0x7f\n        /* \"#utility.yul\":13651:13657   */\n      dup3\n        /* \"#utility.yul\":13647:13664   */\n      and\n        /* \"#utility.yul\":13637:13664   */\n      swap2\n      pop\n        /* \"#utility.yul\":13593:13674   */\n    tag_280:\n        /* \"#utility.yul\":13721:13723   */\n      0x20\n        /* \"#utility.yul\":13713:13719   */\n      dup3\n        /* \"#utility.yul\":13710:13724   */\n      lt\n        /* \"#utility.yul\":13690:13708   */\n      dup2\n        /* \"#utility.yul\":13687:13725   */\n      sub\n        /* \"#utility.yul\":13684:13768   */\n      tag_281\n      jumpi\n        /* \"#utility.yul\":13740:13758   */\n      tag_282\n      tag_132\n      jump\t// in\n    tag_282:\n        /* \"#utility.yul\":13684:13768   */\n    tag_281:\n        /* \"#utility.yul\":13505:13774   */\n      pop\n        /* \"#utility.yul\":13454:13774   */\n      swap2\n      swap1\n      pop\n      jump\t// out\n        /* \"#utility.yul\":13780:13921   */\n    tag_133:\n        /* \"#utility.yul\":13829:13833   */\n      0x00\n        /* \"#utility.yul\":13852:13855   */\n      dup2\n        /* \"#utility.yul\":13844:13855   */\n      swap1\n      pop\n        /* \"#utility.yul\":13875:13878   */\n      dup2\n        /* \"#utility.yul\":13872:13873   */\n      0x00\n        /* \"#utility.yul\":13865:13879   */\n      mstore\n        /* \"#utility.yul\":13909:13913   */\n      0x20\n        /* \"#utility.yul\":13906:13907   */\n      0x00\n        /* \"#utility.yul\":13896:13914   */\n      keccak256\n        /* \"#utility.yul\":13888:13914   */\n      swap1\n      pop\n        /* \"#utility.yul\":13780:13921   */\n      swap2\n      swap1\n      pop\n      jump\t// out\n        /* \"#utility.yul\":13927:14020   */\n    tag_134:\n        /* \"#utility.yul\":13964:13970   */\n      0x00\n        /* \"#utility.yul\":14011:14013   */\n      0x20\n        /* \"#utility.yul\":14006:14008   */\n      0x1f\n        /* \"#utility.yul\":13999:14004   */\n      dup4\n        /* \"#utility.yul\":13995:14009   */\n      add\n        /* \"#utility.yul\":13991:14014   */\n      div\n        /* \"#utility.yul\":13981:14014   */\n      swap1\n      pop\n        /* \"#utility.yul\":13927:14020   */\n      swap2\n      swap1\n      pop\n      jump\t// out\n        /* \"#utility.yul\":14026:14133   */\n    tag_135:\n        /* \"#utility.yul\":14070:14078   */\n      0x00\n        /* \"#utility.yul\":14120:14125   */\n      dup3\n        /* \"#utility.yul\":14114:14118   */\n      dup3\n        /* \"#utility.yul\":14110:14126   */\n      shl\n        /* \"#utility.yul\":14089:14126   */\n      swap1\n      pop\n        /* \"#utility.yul\":14026:14133   */\n      swap3\n      swap2\n      pop\n      pop\n      jump\t// out\n        /* \"#utility.yul\":14139:14532   */\n    tag_136:\n        /* \"#utility.yul\":14208:14214   */\n      0x00\n        /* \"#utility.yul\":14258:14259   */\n      0x08\n        /* \"#utility.yul\":14246:14256   */\n      dup4\n        /* \"#utility.yul\":14242:14260   */\n      mul\n        /* \"#utility.yul\":14281:14378   */\n      tag_287\n        /* \"#utility.yul\":14311:14377   */\n      0xffffffffffffffffffffffffffffffffffffffffffffffffffffffffffffffff\n        /* \"#utility.yul\":14300:14309   */\n      dup3\n        /* \"#utility.yul\":14281:14378   */\n      tag_135\n      jump\t// in\n    tag_287:\n        /* \"#utility.yul\":14399:14438   */\n      tag_288\n        /* \"#utility.yul\":14429:14437   */\n      dup7\n        /* \"#utility.yul\":14418:14427   */\n      dup4\n        /* \"#utility.yul\":14399:14438   */\n      tag_135\n      jump\t// in\n    tag_288:\n        /* \"#utility.yul\":14387:14438   */\n      swap6\n      pop\n        /* \"#utility.yul\":14471:14475   */\n      dup1\n        /* \"#utility.yul\":14467:14476   */\n      not\n        /* \"#utility.yul\":14460:14465   */\n      dup5\n        /* \"#utility.yul\":14456:14477   */\n      and\n        /* \"#utility.yul\":14447:14477   */\n      swap4\n      pop\n        /* \"#utility.yul\":14520:14524   */\n      dup1\n        /* \"#utility.yul\":14510:14518   */\n      dup7\n        /* \"#utility.yul\":14506:14525   */\n      and\n        /* \"#utility.yul\":14499:14504   */\n      dup5\n        /* \"#utility.yul\":14496:14526   */\n      or\n        /* \"#utility.yul\":14486:14526   */\n      swap3\n      pop\n        /* \"#utility.yul\":14215:14532   */\n      pop\n      pop\n        /* \"#utility.yul\":14139:14532   */\n      swap4\n      swap3\n      pop\n      pop\n      pop\n      jump\t// out\n        /* \"#utility.yul\":14538:14598   */\n    tag_137:\n        /* \"#utility.yul\":14566:14569   */\n      0x00\n        /* \"#utility.yul\":14587:14592   */\n      dup2\n        /* \"#utility.yul\":14580:14592   */\n      swap1\n      pop\n        /* \"#utility.yul\":14538:14598   */\n      swap2\n      swap1\n      pop\n      jump\t// out\n        /* \"#utility.yul\":14604:14746   */\n    tag_138:\n        /* \"#utility.yul\":14654:14663   */\n      0x00\n        /* \"#utility.yul\":14687:14740   */\n      tag_291\n        /* \"#utility.yul\":14705:14739   */\n      tag_292\n        /* \"#utility.yul\":14714:14738   */\n      tag_293\n        /* \"#utility.yul\":14732:14737   */\n      dup5\n        /* \"#utility.yul\":14714:14738   */\n      tag_107\n      jump\t// in\n    tag_293:\n        /* \"#utility.yul\":14705:14739   */\n      tag_137\n      jump\t// in\n    tag_292:\n        /* \"#utility.yul\":14687:14740   */\n      tag_107\n      jump\t// in\n    tag_291:\n        /* \"#utility.yul\":14674:14740   */\n      swap1\n      pop\n        /* \"#utility.yul\":14604:14746   */\n      swap2\n      swap1\n      pop\n      jump\t// out\n        /* \"#utility.yul\":14752:14827   */\n    tag_139:\n        /* \"#utility.yul\":14795:14798   */\n      0x00\n        /* \"#utility.yul\":14816:14821   */\n      dup2\n        /* \"#utility.yul\":14809:14821   */\n      swap1\n      pop\n        /* \"#utility.yul\":14752:14827   */\n      swap2\n      swap1\n      pop\n      jump\t// out\n        /* \"#utility.yul\":14833:15102   */\n    tag_140:\n        /* \"#utility.yul\":14943:14982   */\n      tag_296\n        /* \"#utility.yul\":14974:14981   */\n      dup4\n        /* \"#utility.yul\":14943:14982   */\n      tag_138\n      jump\t// in\n    tag_296:\n        /* \"#utility.yul\":15004:15095   */\n      tag_297\n        /* \"#utility.yul\":15053:15094   */\n      tag_298\n        /* \"#utility.yul\":15077:15093   */\n      dup3\n        /* \"#utility.yul\":15053:15094   */\n      tag_139\n      jump\t// in\n    tag_298:\n        /* \"#utility.yul\":15045:15051   */\n      dup5\n        /* \"#utility.yul\":15038:15042   */\n      dup5\n        /* \"#utility.yul\":15032:15043   */\n      sload\n        /* \"#utility.yul\":15004:15095   */\n      tag_136\n      jump\t// in\n    tag_297:\n        /* \"#utility.yul\":14998:15002   */\n      dup3\n        /* \"#utility.yul\":14991:15096   */\n      sstore\n        /* \"#utility.yul\":14909:15102   */\n      pop\n        /* \"#utility.yul\":14833:15102   */\n      pop\n      pop\n      pop\n      jump\t// out\n        /* \"#utility.yul\":15108:15181   */\n    tag_141:\n        /* \"#utility.yul\":15153:15156   */\n      0x00\n        /* \"#utility.yul\":15108:15181   */\n      swap1\n      jump\t// out\n        /* \"#utility.yul\":15187:15376   */\n    tag_142:\n        /* \"#utility.yul\":15264:15296   */\n      tag_301\n      tag_141\n      jump\t// in\n    tag_301:\n        /* \"#utility.yul\":15305:15370   */\n      tag_302\n        /* \"#utility.yul\":15363:15369   */\n      dup2\n        /* \"#utility.yul\":15355:15361   */\n      dup5\n        /* \"#utility.yul\":15349:15353   */\n      dup5\n        /* \"#utility.yul\":15305:15370   */\n      tag_140\n      jump\t// in\n    tag_302:\n        /* \"#utility.yul\":15240:15376   */\n      pop\n        /* \"#utility.yul\":15187:15376   */\n      pop\n      pop\n      jump\t// out\n        /* \"#utility.yul\":15382:15568   */\n    tag_143:\n        /* \"#utility.yul\":15442:15562   */\n    tag_304:\n        /* \"#utility.yul\":15459:15462   */\n      dup2\n        /* \"#utility.yul\":15452:15457   */\n      dup2\n        /* \"#utility.yul\":15449:15463   */\n      lt\n        /* \"#utility.yul\":15442:15562   */\n      iszero\n      tag_306\n      jumpi\n        /* \"#utility.yul\":15513:15552   */\n      tag_307\n        /* \"#utility.yul\":15550:15551   */\n      0x00\n        /* \"#utility.yul\":15543:15548   */\n      dup3\n        /* \"#utility.yul\":15513:15552   */\n      tag_142\n      jump\t// in\n    tag_307:\n        /* \"#utility.yul\":15486:15487   */\n      0x01\n        /* \"#utility.yul\":15479:15484   */\n      dup2\n        /* \"#utility.yul\":15475:15488   */\n      add\n        /* \"#utility.yul\":15466:15488   */\n      swap1\n      pop\n        /* \"#utility.yul\":15442:15562   */\n      jump(tag_304)\n    tag_306:\n        /* \"#utility.yul\":15382:15568   */\n      pop\n      pop\n      jump\t// out\n        /* \"#utility.yul\":15574:16117   */\n    tag_144:\n        /* \"#utility.yul\":15675:15677   */\n      0x1f\n        /* \"#utility.yul\":15670:15673   */\n      dup3\n        /* \"#utility.yul\":15667:15678   */\n      gt\n        /* \"#utility.yul\":15664:16110   */\n      iszero\n      tag_309\n      jumpi\n        /* \"#utility.yul\":15709:15747   */\n      tag_310\n        /* \"#utility.yul\":15741:15746   */\n      dup2\n        /* \"#utility.yul\":15709:15747   */\n      tag_133\n      jump\t// in\n    tag_310:\n        /* \"#utility.yul\":15793:15822   */\n      tag_311\n        /* \"#utility.yul\":15811:15821   */\n      dup5\n        /* \"#utility.yul\":15793:15822   */\n      tag_134\n      jump\t// in\n    tag_311:\n        /* \"#utility.yul\":15783:15791   */\n      dup2\n        /* \"#utility.yul\":15779:15823   */\n      add\n        /* \"#utility.yul\":15976:15978   */\n      0x20\n        /* \"#utility.yul\":15964:15974   */\n      dup6\n        /* \"#utility.yul\":15961:15979   */\n      lt\n        /* \"#utility.yul\":15958:16007   */\n      iszero\n      tag_312\n      jumpi\n        /* \"#utility.yul\":15997:16005   */\n      dup2\n        /* \"#utility.yul\":15982:16005   */\n      swap1\n      pop\n        /* \"#utility.yul\":15958:16007   */\n    tag_312:\n        /* \"#utility.yul\":16020:16100   */\n      tag_313\n        /* \"#utility.yul\":16076:16098   */\n      tag_314\n        /* \"#utility.yul\":16094:16097   */\n      dup6\n        /* \"#utility.yul\":16076:16098   */\n      tag_134\n      jump\t// in\n    tag_314:\n        /* \"#utility.yul\":16066:16074   */\n      dup4\n        /* \"#utility.yul\":16062:16099   */\n      add\n        /* \"#utility.yul\":16049:16060   */\n      dup3\n        /* \"#utility.yul\":16020:16100   */\n      tag_143\n      jump\t// in\n    tag_313:\n        /* \"#utility.yul\":15679:16110   */\n      pop\n      pop\n        /* \"#utility.yul\":15664:16110   */\n    tag_309:\n        /* \"#utility.yul\":15574:16117   */\n      pop\n      pop\n      pop\n      jump\t// out\n        /* \"#utility.yul\":16123:16240   */\n    tag_145:\n        /* \"#utility.yul\":16177:16185   */\n      0x00\n        /* \"#utility.yul\":16227:16232   */\n      dup3\n        /* \"#utility.yul\":16221:16225   */\n      dup3\n        /* \"#utility.yul\":16217:16233   */\n      shr\n        /* \"#utility.yul\":16196:16233   */\n      swap1\n      pop\n        /* \"#utility.yul\":16123:16240   */\n      swap3\n      swap2\n      pop\n      pop\n      jump\t// out\n        /* \"#utility.yul\":16246:16415   */\n    tag_146:\n        /* \"#utility.yul\":16290:16296   */\n      0x00\n        /* \"#utility.yul\":16323:16374   */\n      tag_317\n        /* \"#utility.yul\":16371:16372   */\n      0x00\n        /* \"#utility.yul\":16367:16373   */\n      not\n        /* \"#utility.yul\":16359:16364   */\n      dup5\n        /* \"#utility.yul\":16356:16357   */\n      0x08\n        /* \"#utility.yul\":16352:16365   */\n      mul\n        /* \"#utility.yul\":16323:16374   */\n      tag_145\n      jump\t// in\n    tag_317:\n        /* \"#utility.yul\":16319:16375   */\n      not\n        /* \"#utility.yul\":16404:16408   */\n      dup1\n        /* \"#utility.yul\":16398:16402   */\n      dup4\n        /* \"#utility.yul\":16394:16409   */\n      and\n        /* \"#utility.yul\":16384:16409   */\n      swap2\n      pop\n        /* \"#utility.yul\":16297:16415   */\n      pop\n        /* \"#utility.yul\":16246:16415   */\n      swap3\n      swap2\n      pop\n      pop\n      jump\t// out\n        /* \"#utility.yul\":16420:16715   */\n    tag_147:\n        /* \"#utility.yul\":16496:16500   */\n      0x00\n        /* \"#utility.yul\":16642:16671   */\n      tag_319\n        /* \"#utility.yul\":16667:16670   */\n      dup4\n        /* \"#utility.yul\":16661:16665   */\n      dup4\n        /* \"#utility.yul\":16642:16671   */\n      tag_146\n      jump\t// in\n    tag_319:\n        /* \"#utility.yul\":16634:16671   */\n      swap2\n      pop\n        /* \"#utility.yul\":16704:16707   */\n      dup3\n        /* \"#utility.yul\":16701:16702   */\n      0x02\n        /* \"#utility.yul\":16697:16708   */\n      mul\n        /* \"#utility.yul\":16691:16695   */\n      dup3\n        /* \"#utility.yul\":16688:16709   */\n      or\n        /* \"#utility.yul\":16680:16709   */\n      swap1\n      pop\n        /* \"#utility.yul\":16420:16715   */\n      swap3\n      swap2\n      pop\n      pop\n      jump\t// out\n        /* \"#utility.yul\":16720:18115   */\n    tag_39:\n        /* \"#utility.yul\":16837:16874   */\n      tag_321\n        /* \"#utility.yul\":16870:16873   */\n      dup3\n        /* \"#utility.yul\":16837:16874   */\n      tag_124\n      jump\t// in\n    tag_321:\n        /* \"#utility.yul\":16939:16957   */\n      0xffffffffffffffff\n        /* \"#utility.yul\":16931:16937   */\n      dup2\n        /* \"#utility.yul\":16928:16958   */\n      gt\n        /* \"#utility.yul\":16925:16981   */\n      iszero\n      tag_322\n      jumpi\n        /* \"#utility.yul\":16961:16979   */\n      tag_323\n      tag_117\n      jump\t// in\n    tag_323:\n        /* \"#utility.yul\":16925:16981   */\n    tag_322:\n        /* \"#utility.yul\":17005:17043   */\n      tag_324\n        /* \"#utility.yul\":17037:17041   */\n      dup3\n        /* \"#utility.yul\":17031:17042   */\n      sload\n        /* \"#utility.yul\":17005:17043   */\n      tag_67\n      jump\t// in\n    tag_324:\n        /* \"#utility.yul\":17090:17157   */\n      tag_325\n        /* \"#utility.yul\":17150:17156   */\n      dup3\n        /* \"#utility.yul\":17142:17148   */\n      dup3\n        /* \"#utility.yul\":17136:17140   */\n      dup6\n        /* \"#utility.yul\":17090:17157   */\n      tag_144\n      jump\t// in\n    tag_325:\n        /* \"#utility.yul\":17184:17185   */\n      0x00\n        /* \"#utility.yul\":17208:17212   */\n      0x20\n        /* \"#utility.yul\":17195:17212   */\n      swap1\n      pop\n        /* \"#utility.yul\":17240:17242   */\n      0x1f\n        /* \"#utility.yul\":17232:17238   */\n      dup4\n        /* \"#utility.yul\":17229:17243   */\n      gt\n        /* \"#utility.yul\":17257:17258   */\n      0x01\n        /* \"#utility.yul\":17252:17870   */\n      dup2\n      eq\n      tag_327\n      jumpi\n        /* \"#utility.yul\":17914:17915   */\n      0x00\n        /* \"#utility.yul\":17931:17937   */\n      dup5\n        /* \"#utility.yul\":17928:18005   */\n      iszero\n      tag_328\n      jumpi\n        /* \"#utility.yul\":17980:17989   */\n      dup3\n        /* \"#utility.yul\":17975:17978   */\n      dup8\n        /* \"#utility.yul\":17971:17990   */\n      add\n        /* \"#utility.yul\":17965:17991   */\n      mload\n        /* \"#utility.yul\":17956:17991   */\n      swap1\n      pop\n        /* \"#utility.yul\":17928:18005   */\n    tag_328:\n        /* \"#utility.yul\":18031:18098   */\n      tag_329\n        /* \"#utility.yul\":18091:18097   */\n      dup6\n        /* \"#utility.yul\":18084:18089   */\n      dup3\n        /* \"#utility.yul\":18031:18098   */\n      tag_147\n      jump\t// in\n    tag_329:\n        /* \"#utility.yul\":18025:18029   */\n      dup7\n        /* \"#utility.yul\":18018:18099   */\n      sstore\n        /* \"#utility.yul\":17887:18109   */\n      pop\n        /* \"#utility.yul\":17222:18109   */\n      jump(tag_326)\n        /* \"#utility.yul\":17252:17870   */\n    tag_327:\n        /* \"#utility.yul\":17304:17308   */\n      0x1f\n        /* \"#utility.yul\":17300:17309   */\n      not\n        /* \"#utility.yul\":17292:17298   */\n      dup5\n        /* \"#utility.yul\":17288:17310   */\n      and\n        /* \"#utility.yul\":17338:17375   */\n      tag_330\n        /* \"#utility.yul\":17370:17374   */\n      dup7\n        /* \"#utility.yul\":17338:17375   */\n      tag_133\n      jump\t// in\n    tag_330:\n        /* \"#utility.yul\":17397:17398   */\n      0x00\n        /* \"#utility.yul\":17411:17619   */\n    tag_331:\n        /* \"#utility.yul\":17425:17432   */\n      dup3\n        /* \"#utility.yul\":17422:17423   */\n      dup2\n        /* \"#utility.yul\":17419:17433   */\n      lt\n        /* \"#utility.yul\":17411:17619   */\n      iszero\n      tag_333\n      jumpi\n        /* \"#utility.yul\":17504:17513   */\n      dup5\n        /* \"#utility.yul\":17499:17502   */\n      dup10\n        /* \"#utility.yul\":17495:17514   */\n      add\n        /* \"#utility.yul\":17489:17515   */\n      mload\n        /* \"#utility.yul\":17481:17487   */\n      dup3\n        /* \"#utility.yul\":17474:17516   */\n      sstore\n        /* \"#utility.yul\":17555:17556   */\n      0x01\n        /* \"#utility.yul\":17547:17553   */\n      dup3\n        /* \"#utility.yul\":17543:17557   */\n      add\n        /* \"#utility.yul\":17533:17557   */\n      swap2\n      pop\n        /* \"#utility.yul\":17602:17604   */\n      0x20\n        /* \"#utility.yul\":17591:17600   */\n      dup6\n        /* \"#utility.yul\":17587:17605   */\n      add\n        /* \"#utility.yul\":17574:17605   */\n      swap5\n      pop\n        /* \"#utility.yul\":17448:17452   */\n      0x20\n        /* \"#utility.yul\":17445:17446   */\n      dup2\n        /* \"#utility.yul\":17441:17453   */\n      add\n        /* \"#utility.yul\":17436:17453   */\n      swap1\n      pop\n        /* \"#utility.yul\":17411:17619   */\n      jump(tag_331)\n    tag_333:\n        /* \"#utility.yul\":17647:17653   */\n      dup7\n        /* \"#utility.yul\":17638:17645   */\n      dup4\n        /* \"#utility.yul\":17635:17654   */\n      lt\n        /* \"#utility.yul\":17632:17811   */\n      iszero\n      tag_334\n      jumpi\n        /* \"#utility.yul\":17705:17714   */\n      dup5\n        /* \"#utility.yul\":17700:17703   */\n      dup10\n        /* \"#utility.yul\":17696:17715   */\n      add\n        /* \"#utility.yul\":17690:17716   */\n      mload\n        /* \"#utility.yul\":17748:17796   */\n      tag_335\n        /* \"#utility.yul\":17790:17794   */\n      0x1f\n        /* \"#utility.yul\":17782:17788   */\n      dup10\n        /* \"#utility.yul\":17778:17795   */\n      and\n        /* \"#utility.yul\":17767:17776   */\n      dup3\n        /* \"#utility.yul\":17748:17796   */\n      tag_146\n      jump\t// in\n    tag_335:\n        /* \"#utility.yul\":17740:17746   */\n      dup4\n        /* \"#utility.yul\":17733:17797   */\n      sstore\n        /* \"#utility.yul\":17655:17811   */\n      pop\n        /* \"#utility.yul\":17632:17811   */\n    tag_334:\n        /* \"#utility.yul\":17857:17858   */\n      0x01\n        /* \"#utility.yul\":17853:17854   */\n      0x02\n        /* \"#utility.yul\":17845:17851   */\n      dup9\n        /* \"#utility.yul\":17841:17855   */\n      mul\n        /* \"#utility.yul\":17837:17859   */\n      add\n        /* \"#utility.yul\":17831:17835   */\n      dup9\n        /* \"#utility.yul\":17824:17860   */\n      sstore\n        /* \"#utility.yul\":17259:17870   */\n      pop\n      pop\n      pop\n        /* \"#utility.yul\":17222:18109   */\n    tag_326:\n      pop\n        /* \"#utility.yul\":16812:18115   */\n      pop\n      pop\n      pop\n        /* \"#utility.yul\":16720:18115   */\n      pop\n      pop\n      jump\t// out\n        /* \"#utility.yul\":18121:19957   */\n    tag_48:\n        /* \"#utility.yul\":18598:18602   */\n      0x00\n        /* \"#utility.yul\":18636:18639   */\n      0x0120\n        /* \"#utility.yul\":18625:18634   */\n      dup3\n        /* \"#utility.yul\":18621:18640   */\n      add\n        /* \"#utility.yul\":18613:18640   */\n      swap1\n      pop\n        /* \"#utility.yul\":18650:18721   */\n      tag_337\n        /* \"#utility.yul\":18718:18719   */\n      0x00\n        /* \"#utility.yul\":18707:18716   */\n      dup4\n        /* \"#utility.yul\":18703:18720   */\n      add\n        /* \"#utility.yul\":18694:18700   */\n      dup13\n        /* \"#utility.yul\":18650:18721   */\n      tag_108\n      jump\t// in\n    tag_337:\n        /* \"#utility.yul\":18768:18777   */\n      dup2\n        /* \"#utility.yul\":18762:18766   */\n      dup2\n        /* \"#utility.yul\":18758:18778   */\n      sub\n        /* \"#utility.yul\":18753:18755   */\n      0x20\n        /* \"#utility.yul\":18742:18751   */\n      dup4\n        /* \"#utility.yul\":18738:18756   */\n      add\n        /* \"#utility.yul\":18731:18779   */\n      mstore\n        /* \"#utility.yul\":18796:18874   */\n      tag_338\n        /* \"#utility.yul\":18869:18873   */\n      dup2\n        /* \"#utility.yul\":18860:18866   */\n      dup12\n        /* \"#utility.yul\":18796:18874   */\n      tag_127\n      jump\t// in\n    tag_338:\n        /* \"#utility.yul\":18788:18874   */\n      swap1\n      pop\n        /* \"#utility.yul\":18921:18930   */\n      dup2\n        /* \"#utility.yul\":18915:18919   */\n      dup2\n        /* \"#utility.yul\":18911:18931   */\n      sub\n        /* \"#utility.yul\":18906:18908   */\n      0x40\n        /* \"#utility.yul\":18895:18904   */\n      dup4\n        /* \"#utility.yul\":18891:18909   */\n      add\n        /* \"#utility.yul\":18884:18932   */\n      mstore\n        /* \"#utility.yul\":18949:19027   */\n      tag_339\n        /* \"#utility.yul\":19022:19026   */\n      dup2\n        /* \"#utility.yul\":19013:19019   */\n      dup11\n        /* \"#utility.yul\":18949:19027   */\n      tag_127\n      jump\t// in\n    tag_339:\n        /* \"#utility.yul\":18941:19027   */\n      swap1\n      pop\n        /* \"#utility.yul\":19074:19083   */\n      dup2\n        /* \"#utility.yul\":19068:19072   */\n      dup2\n        /* \"#utility.yul\":19064:19084   */\n      sub\n        /* \"#utility.yul\":19059:19061   */\n      0x60\n        /* \"#utility.yul\":19048:19057   */\n      dup4\n        /* \"#utility.yul\":19044:19062   */\n      add\n        /* \"#utility.yul\":19037:19085   */\n      mstore\n        /* \"#utility.yul\":19102:19180   */\n      tag_340\n        /* \"#utility.yul\":19175:19179   */\n      dup2\n        /* \"#utility.yul\":19166:19172   */\n      dup10\n        /* \"#utility.yul\":19102:19180   */\n      tag_127\n      jump\t// in\n    tag_340:\n        /* \"#utility.yul\":19094:19180   */\n      swap1\n      pop\n        /* \"#utility.yul\":19228:19237   */\n      dup2\n        /* \"#utility.yul\":19222:19226   */\n      dup2\n        /* \"#utility.yul\":19218:19238   */\n      sub\n        /* \"#utility.yul\":19212:19215   */\n      0x80\n        /* \"#utility.yul\":19201:19210   */\n      dup4\n        /* \"#utility.yul\":19197:19216   */\n      add\n        /* \"#utility.yul\":19190:19239   */\n      mstore\n        /* \"#utility.yul\":19256:19334   */\n      tag_341\n        /* \"#utility.yul\":19329:19333   */\n      dup2\n        /* \"#utility.yul\":19320:19326   */\n      dup9\n        /* \"#utility.yul\":19256:19334   */\n      tag_127\n      jump\t// in\n    tag_341:\n        /* \"#utility.yul\":19248:19334   */\n      swap1\n      pop\n        /* \"#utility.yul\":19382:19391   */\n      dup2\n        /* \"#utility.yul\":19376:19380   */\n      dup2\n        /* \"#utility.yul\":19372:19392   */\n      sub\n        /* \"#utility.yul\":19366:19369   */\n      0xa0\n        /* \"#utility.yul\":19355:19364   */\n      dup4\n        /* \"#utility.yul\":19351:19370   */\n      add\n        /* \"#utility.yul\":19344:19393   */\n      mstore\n        /* \"#utility.yul\":19410:19488   */\n      tag_342\n        /* \"#utility.yul\":19483:19487   */\n      dup2\n        /* \"#utility.yul\":19474:19480   */\n      dup8\n        /* \"#utility.yul\":19410:19488   */\n      tag_127\n      jump\t// in\n    tag_342:\n        /* \"#utility.yul\":19402:19488   */\n      swap1\n      pop\n        /* \"#utility.yul\":19536:19545   */\n      dup2\n        /* \"#utility.yul\":19530:19534   */\n      dup2\n        /* \"#utility.yul\":19526:19546   */\n      sub\n        /* \"#utility.yul\":19520:19523   */\n      0xc0\n        /* \"#utility.yul\":19509:19518   */\n      dup4\n        /* \"#utility.yul\":19505:19524   */\n      add\n        /* \"#utility.yul\":19498:19547   */\n      mstore\n        /* \"#utility.yul\":19564:19642   */\n      tag_343\n        /* \"#utility.yul\":19637:19641   */\n      dup2\n        /* \"#utility.yul\":19628:19634   */\n      dup7\n        /* \"#utility.yul\":19564:19642   */\n      tag_127\n      jump\t// in\n    tag_343:\n        /* \"#utility.yul\":19556:19642   */\n      swap1\n      pop\n        /* \"#utility.yul\":19690:19699   */\n      dup2\n        /* \"#utility.yul\":19684:19688   */\n      dup2\n        /* \"#utility.yul\":19680:19700   */\n      sub\n        /* \"#utility.yul\":19674:19677   */\n      0xe0\n        /* \"#utility.yul\":19663:19672   */\n      dup4\n        /* \"#utility.yul\":19659:19678   */\n      add\n        /* \"#utility.yul\":19652:19701   */\n      mstore\n        /* \"#utility.yul\":19718:19796   */\n      tag_344\n        /* \"#utility.yul\":19791:19795   */\n      dup2\n        /* \"#utility.yul\":19782:19788   */\n      dup6\n        /* \"#utility.yul\":19718:19796   */\n      tag_127\n      jump\t// in\n    tag_344:\n        /* \"#utility.yul\":19710:19796   */\n      swap1\n      pop\n        /* \"#utility.yul\":19844:19853   */\n      dup2\n        /* \"#utility.yul\":19838:19842   */\n      dup2\n        /* \"#utility.yul\":19834:19854   */\n      sub\n        /* \"#utility.yul\":19828:19831   */\n      0x0100\n        /* \"#utility.yul\":19817:19826   */\n      dup4\n        /* \"#utility.yul\":19813:19832   */\n      add\n        /* \"#utility.yul\":19806:19855   */\n      mstore\n        /* \"#utility.yul\":19872:19950   */\n      tag_345\n        /* \"#utility.yul\":19945:19949   */\n      dup2\n        /* \"#utility.yul\":19936:19942   */\n      dup5\n        /* \"#utility.yul\":19872:19950   */\n      tag_127\n      jump\t// in\n    tag_345:\n        /* \"#utility.yul\":19864:19950   */\n      swap1\n      pop\n        /* \"#utility.yul\":18121:19957   */\n      swap11\n      swap10\n      pop\n      pop\n      pop\n      pop\n      pop\n      pop\n      pop\n      pop\n      pop\n      pop\n      jump\t// out\n        /* \"#utility.yul\":19963:20143   */\n    tag_148:\n        /* \"#utility.yul\":20011:20088   */\n      0x4e487b7100000000000000000000000000000000000000000000000000000000\n        /* \"#utility.yul\":20008:20009   */\n      0x00\n        /* \"#utility.yul\":20001:20089   */\n      mstore\n        /* \"#utility.yul\":20108:20112   */\n      0x11\n        /* \"#utility.yul\":20105:20106   */\n      0x04\n        /* \"#utility.yul\":20098:20113   */\n      mstore\n        /* \"#utility.yul\":20132:20136   */\n      0x24\n        /* \"#utility.yul\":20129:20130   */\n      0x00\n        /* \"#utility.yul\":20122:20137   */\n      revert\n        /* \"#utility.yul\":20149:20382   */\n    tag_51:\n        /* \"#utility.yul\":20188:20191   */\n      0x00\n        /* \"#utility.yul\":20211:20235   */\n      tag_348\n        /* \"#utility.yul\":20229:20234   */\n      dup3\n        /* \"#utility.yul\":20211:20235   */\n      tag_107\n      jump\t// in\n    tag_348:\n        /* \"#utility.yul\":20202:20235   */\n      swap2\n      pop\n        /* \"#utility.yul\":20257:20323   */\n      0xffffffffffffffffffffffffffffffffffffffffffffffffffffffffffffffff\n        /* \"#utility.yul\":20250:20255   */\n      dup3\n        /* \"#utility.yul\":20247:20324   */\n      sub\n        /* \"#utility.yul\":20244:20347   */\n      tag_349\n      jumpi\n        /* \"#utility.yul\":20327:20345   */\n      tag_350\n      tag_148\n      jump\t// in\n    tag_350:\n        /* \"#utility.yul\":20244:20347   */\n    tag_349:\n        /* \"#utility.yul\":20374:20375   */\n      0x01\n        /* \"#utility.yul\":20367:20372   */\n      dup3\n        /* \"#utility.yul\":20363:20376   */\n      add\n        /* \"#utility.yul\":20356:20376   */\n      swap1\n      pop\n        /* \"#utility.yul\":20149:20382   */\n      swap2\n      swap1\n      pop\n      jump\t// out\n        /* \"#utility.yul\":20388:20567   */\n    tag_149:\n        /* \"#utility.yul\":20528:20559   */\n      0x436173652068617320616c7265616479206265656e2064656c65746564000000\n        /* \"#utility.yul\":20524:20525   */\n      0x00\n        /* \"#utility.yul\":20516:20522   */\n      dup3\n        /* \"#utility.yul\":20512:20526   */\n      add\n        /* \"#utility.yul\":20505:20560   */\n      mstore\n        /* \"#utility.yul\":20388:20567   */\n      pop\n      jump\t// out\n        /* \"#utility.yul\":20573:20939   */\n    tag_150:\n        /* \"#utility.yul\":20715:20718   */\n      0x00\n        /* \"#utility.yul\":20736:20803   */\n      tag_353\n        /* \"#utility.yul\":20800:20802   */\n      0x1d\n        /* \"#utility.yul\":20795:20798   */\n      dup4\n        /* \"#utility.yul\":20736:20803   */\n      tag_125\n      jump\t// in\n    tag_353:\n        /* \"#utility.yul\":20729:20803   */\n      swap2\n      pop\n        /* \"#utility.yul\":20812:20905   */\n      tag_354\n        /* \"#utility.yul\":20901:20904   */\n      dup3\n        /* \"#utility.yul\":20812:20905   */\n      tag_149\n      jump\t// in\n    tag_354:\n        /* \"#utility.yul\":20930:20932   */\n      0x20\n        /* \"#utility.yul\":20925:20928   */\n      dup3\n        /* \"#utility.yul\":20921:20933   */\n      add\n        /* \"#utility.yul\":20914:20933   */\n      swap1\n      pop\n        /* \"#utility.yul\":20573:20939   */\n      swap2\n      swap1\n      pop\n      jump\t// out\n        /* \"#utility.yul\":20945:21364   */\n    tag_64:\n        /* \"#utility.yul\":21111:21115   */\n      0x00\n        /* \"#utility.yul\":21149:21151   */\n      0x20\n        /* \"#utility.yul\":21138:21147   */\n      dup3\n        /* \"#utility.yul\":21134:21152   */\n      add\n        /* \"#utility.yul\":21126:21152   */\n      swap1\n      pop\n        /* \"#utility.yul\":21198:21207   */\n      dup2\n        /* \"#utility.yul\":21192:21196   */\n      dup2\n        /* \"#utility.yul\":21188:21208   */\n      sub\n        /* \"#utility.yul\":21184:21185   */\n      0x00\n        /* \"#utility.yul\":21173:21182   */\n      dup4\n        /* \"#utility.yul\":21169:21186   */\n      add\n        /* \"#utility.yul\":21162:21209   */\n      mstore\n        /* \"#utility.yul\":21226:21357   */\n      tag_356\n        /* \"#utility.yul\":21352:21356   */\n      dup2\n        /* \"#utility.yul\":21226:21357   */\n      tag_150\n      jump\t// in\n    tag_356:\n        /* \"#utility.yul\":21218:21357   */\n      swap1\n      pop\n        /* \"#utility.yul\":20945:21364   */\n      swap2\n      swap1\n      pop\n      jump\t// out\n\n    auxdata: 0xa26469706673582212205d3eaa4d9303c627ba758d5be723d200af4c8aa6d335623c74c93f785ce5385964736f6c63430008190033\n}\n",
				"bytecode": {
					"linkReferences": {},
					"object": "60806040525f80553480156011575f80fd5b506114c38061001f5f395ff3fe608060405234801561000f575f80fd5b5060043610610060575f3560e01c8063412cceed14610064578063620076281461008257806395893fb41461009e578063d590bf49146100ba578063da2d7e95146100d6578063f09790dd146100f4575b5f80fd5b61006c61012d565b6040516100799190610981565b60405180910390f35b61009c60048036038101906100979190610b11565b610135565b005b6100b860048036038101906100b39190610cb5565b61027d565b005b6100d460048036038101906100cf9190610e46565b61041c565b005b6100de6104d8565b6040516100eb9190610981565b60405180910390f35b61010e60048036038101906101099190610e46565b6104dd565b6040516101249a99989796959493929190610eeb565b60405180910390f35b5f8054905090565b5f60015f8b81526020019081526020015f209050806009015f9054906101000a900460ff161561019a576040517f08c379a000000000000000000000000000000000000000000000000000000000815260040161019190611007565b60405180910390fd5b888160010190816101ab919061121f565b50878160020190816101bd919061121f565b50868160030190816101cf919061121f565b50858160040190816101e1919061121f565b50848160050190816101f3919061121f565b5083816006019081610205919061121f565b5082816007019081610217919061121f565b5081816008019081610229919061121f565b507f44a6c3cfc25700b9e32ab4f5966c3faaeacbb4555a15e4239da1104b342134478a8a8a8a8a8a8a8a8a604051610269999897969594939291906112ee565b60405180910390a150505050505050505050565b5f8081548092919061028e906113de565b91905055506040518061014001604052805f5481526020018981526020018881526020018781526020018681526020018581526020018481526020018381526020018281526020015f151581525060015f805481526020019081526020015f205f820151815f0155602082015181600101908161030b919061121f565b506040820151816002019081610321919061121f565b506060820151816003019081610337919061121f565b50608082015181600401908161034d919061121f565b5060a0820151816005019081610363919061121f565b5060c0820151816006019081610379919061121f565b5060e082015181600701908161038f919061121f565b506101008201518160080190816103a6919061121f565b50610120820151816009015f6101000a81548160ff0219169083151502179055509050507f2935fe3fc14c7d9a0a9e035fcfacba7e8cde60b3608ce984173dc6288f1ce66b5f54898989898989898960405161040a999897969594939291906112ee565b60405180910390a15050505050505050565b5f60015f8381526020019081526020015f209050806009015f9054906101000a900460ff1615610481576040517f08c379a00000000000000000000000000000000000000000000000000000000081526004016104789061146f565b60405180910390fd5b6001816009015f6101000a81548160ff0219169083151502179055507f7f4e40db189f7c6b22866542cebe5936f88d24cee53fc9583694b2d51884ddf3826040516104cc9190610981565b60405180910390a15050565b5f5481565b6001602052805f5260405f205f91509050805f01549080600101805461050290611052565b80601f016020809104026020016040519081016040528092919081815260200182805461052e90611052565b80156105795780601f1061055057610100808354040283529160200191610579565b820191905f5260205f20905b81548152906001019060200180831161055c57829003601f168201915b50505050509080600201805461058e90611052565b80601f01602080910402602001604051908101604052809291908181526020018280546105ba90611052565b80156106055780601f106105dc57610100808354040283529160200191610605565b820191905f5260205f20905b8154815290600101906020018083116105e857829003601f168201915b50505050509080600301805461061a90611052565b80601f016020809104026020016040519081016040528092919081815260200182805461064690611052565b80156106915780601f1061066857610100808354040283529160200191610691565b820191905f5260205f20905b81548152906001019060200180831161067457829003601f168201915b5050505050908060040180546106a690611052565b80601f01602080910402602001604051908101604052809291908181526020018280546106d290611052565b801561071d5780601f106106f45761010080835404028352916020019161071d565b820191905f5260205f20905b81548152906001019060200180831161070057829003601f168201915b50505050509080600501805461073290611052565b80601f016020809104026020016040519081016040528092919081815260200182805461075e90611052565b80156107a95780601f10610780576101008083540402835291602001916107a9565b820191905f5260205f20905b81548152906001019060200180831161078c57829003601f168201915b5050505050908060060180546107be90611052565b80601f01602080910402602001604051908101604052809291908181526020018280546107ea90611052565b80156108355780601f1061080c57610100808354040283529160200191610835565b820191905f5260205f20905b81548152906001019060200180831161081857829003601f168201915b50505050509080600701805461084a90611052565b80601f016020809104026020016040519081016040528092919081815260200182805461087690611052565b80156108c15780601f10610898576101008083540402835291602001916108c1565b820191905f5260205f20905b8154815290600101906020018083116108a457829003601f168201915b5050505050908060080180546108d690611052565b80601f016020809104026020016040519081016040528092919081815260200182805461090290611052565b801561094d5780601f106109245761010080835404028352916020019161094d565b820191905f5260205f20905b81548152906001019060200180831161093057829003601f168201915b505050505090806009015f9054906101000a900460ff1690508a565b5f819050919050565b61097b81610969565b82525050565b5f6020820190506109945f830184610972565b92915050565b5f604051905090565b5f80fd5b5f80fd5b6109b481610969565b81146109be575f80fd5b50565b5f813590506109cf816109ab565b92915050565b5f80fd5b5f80fd5b5f601f19601f8301169050919050565b7f4e487b71000000000000000000000000000000000000000000000000000000005f52604160045260245ffd5b610a23826109dd565b810181811067ffffffffffffffff82111715610a4257610a416109ed565b5b80604052505050565b5f610a5461099a565b9050610a608282610a1a565b919050565b5f67ffffffffffffffff821115610a7f57610a7e6109ed565b5b610a88826109dd565b9050602081019050919050565b828183375f83830152505050565b5f610ab5610ab084610a65565b610a4b565b905082815260208101848484011115610ad157610ad06109d9565b5b610adc848285610a95565b509392505050565b5f82601f830112610af857610af76109d5565b5b8135610b08848260208601610aa3565b91505092915050565b5f805f805f805f805f6101208a8c031215610b2f57610b2e6109a3565b5b5f610b3c8c828d016109c1565b99505060208a013567ffffffffffffffff811115610b5d57610b5c6109a7565b5b610b698c828d01610ae4565b98505060408a013567ffffffffffffffff811115610b8a57610b896109a7565b5b610b968c828d01610ae4565b97505060608a013567ffffffffffffffff811115610bb757610bb66109a7565b5b610bc38c828d01610ae4565b96505060808a013567ffffffffffffffff811115610be457610be36109a7565b5b610bf08c828d01610ae4565b95505060a08a013567ffffffffffffffff811115610c1157610c106109a7565b5b610c1d8c828d01610ae4565b94505060c08a013567ffffffffffffffff811115610c3e57610c3d6109a7565b5b610c4a8c828d01610ae4565b93505060e08a013567ffffffffffffffff811115610c6b57610c6a6109a7565b5b610c778c828d01610ae4565b9250506101008a013567ffffffffffffffff811115610c9957610c986109a7565b5b610ca58c828d01610ae4565b9150509295985092959850929598565b5f805f805f805f80610100898b031215610cd257610cd16109a3565b5b5f89013567ffffffffffffffff811115610cef57610cee6109a7565b5b610cfb8b828c01610ae4565b985050602089013567ffffffffffffffff811115610d1c57610d1b6109a7565b5b610d288b828c01610ae4565b975050604089013567ffffffffffffffff811115610d4957610d486109a7565b5b610d558b828c01610ae4565b965050606089013567ffffffffffffffff811115610d7657610d756109a7565b5b610d828b828c01610ae4565b955050608089013567ffffffffffffffff811115610da357610da26109a7565b5b610daf8b828c01610ae4565b94505060a089013567ffffffffffffffff811115610dd057610dcf6109a7565b5b610ddc8b828c01610ae4565b93505060c089013567ffffffffffffffff811115610dfd57610dfc6109a7565b5b610e098b828c01610ae4565b92505060e089013567ffffffffffffffff811115610e2a57610e296109a7565b5b610e368b828c01610ae4565b9150509295985092959890939650565b5f60208284031215610e5b57610e5a6109a3565b5b5f610e68848285016109c1565b91505092915050565b5f81519050919050565b5f82825260208201905092915050565b8281835e5f83830152505050565b5f610ea382610e71565b610ead8185610e7b565b9350610ebd818560208601610e8b565b610ec6816109dd565b840191505092915050565b5f8115159050919050565b610ee581610ed1565b82525050565b5f61014082019050610eff5f83018d610972565b8181036020830152610f11818c610e99565b90508181036040830152610f25818b610e99565b90508181036060830152610f39818a610e99565b90508181036080830152610f4d8189610e99565b905081810360a0830152610f618188610e99565b905081810360c0830152610f758187610e99565b905081810360e0830152610f898186610e99565b9050818103610100830152610f9e8185610e99565b9050610fae610120830184610edc565b9b9a5050505050505050505050565b7f4361736520686173206265656e2064656c6574656400000000000000000000005f82015250565b5f610ff1601583610e7b565b9150610ffc82610fbd565b602082019050919050565b5f6020820190508181035f83015261101e81610fe5565b9050919050565b7f4e487b71000000000000000000000000000000000000000000000000000000005f52602260045260245ffd5b5f600282049050600182168061106957607f821691505b60208210810361107c5761107b611025565b5b50919050565b5f819050815f5260205f209050919050565b5f6020601f8301049050919050565b5f82821b905092915050565b5f600883026110de7fffffffffffffffffffffffffffffffffffffffffffffffffffffffffffffffff826110a3565b6110e886836110a3565b95508019841693508086168417925050509392505050565b5f819050919050565b5f61112361111e61111984610969565b611100565b610969565b9050919050565b5f819050919050565b61113c83611109565b6111506111488261112a565b8484546110af565b825550505050565b5f90565b611164611158565b61116f818484611133565b505050565b5b81811015611192576111875f8261115c565b600181019050611175565b5050565b601f8211156111d7576111a881611082565b6111b184611094565b810160208510156111c0578190505b6111d46111cc85611094565b830182611174565b50505b505050565b5f82821c905092915050565b5f6111f75f19846008026111dc565b1980831691505092915050565b5f61120f83836111e8565b9150826002028217905092915050565b61122882610e71565b67ffffffffffffffff811115611241576112406109ed565b5b61124b8254611052565b611256828285611196565b5f60209050601f831160018114611287575f8415611275578287015190505b61127f8582611204565b8655506112e6565b601f19841661129586611082565b5f5b828110156112bc57848901518255600182019150602085019450602081019050611297565b868310156112d957848901516112d5601f8916826111e8565b8355505b6001600288020188555050505b505050505050565b5f610120820190506113025f83018c610972565b8181036020830152611314818b610e99565b90508181036040830152611328818a610e99565b9050818103606083015261133c8189610e99565b905081810360808301526113508188610e99565b905081810360a08301526113648187610e99565b905081810360c08301526113788186610e99565b905081810360e083015261138c8185610e99565b90508181036101008301526113a18184610e99565b90509a9950505050505050505050565b7f4e487b71000000000000000000000000000000000000000000000000000000005f52601160045260245ffd5b5f6113e882610969565b91507fffffffffffffffffffffffffffffffffffffffffffffffffffffffffffffffff820361141a576114196113b1565b5b600182019050919050565b7f436173652068617320616c7265616479206265656e2064656c657465640000005f82015250565b5f611459601d83610e7b565b915061146482611425565b602082019050919050565b5f6020820190508181035f8301526114868161144d565b905091905056fea26469706673582212205d3eaa4d9303c627ba758d5be723d200af4c8aa6d335623c74c93f785ce5385964736f6c63430008190033",
					"opcodes": "PUSH1 0x80 PUSH1 0x40 MSTORE PUSH0 DUP1 SSTORE CALLVALUE DUP1 ISZERO PUSH1 0x11 JUMPI PUSH0 DUP1 REVERT JUMPDEST POP PUSH2 0x14C3 DUP1 PUSH2 0x1F PUSH0 CODECOPY PUSH0 RETURN INVALID PUSH1 0x80 PUSH1 0x40 MSTORE CALLVALUE DUP1 ISZERO PUSH2 0xF JUMPI PUSH0 DUP1 REVERT JUMPDEST POP PUSH1 0x4 CALLDATASIZE LT PUSH2 0x60 JUMPI PUSH0 CALLDATALOAD PUSH1 0xE0 SHR DUP1 PUSH4 0x412CCEED EQ PUSH2 0x64 JUMPI DUP1 PUSH4 0x62007628 EQ PUSH2 0x82 JUMPI DUP1 PUSH4 0x95893FB4 EQ PUSH2 0x9E JUMPI DUP1 PUSH4 0xD590BF49 EQ PUSH2 0xBA JUMPI DUP1 PUSH4 0xDA2D7E95 EQ PUSH2 0xD6 JUMPI DUP1 PUSH4 0xF09790DD EQ PUSH2 0xF4 JUMPI JUMPDEST PUSH0 DUP1 REVERT JUMPDEST PUSH2 0x6C PUSH2 0x12D JUMP JUMPDEST PUSH1 0x40 MLOAD PUSH2 0x79 SWAP2 SWAP1 PUSH2 0x981 JUMP JUMPDEST PUSH1 0x40 MLOAD DUP1 SWAP2 SUB SWAP1 RETURN JUMPDEST PUSH2 0x9C PUSH1 0x4 DUP1 CALLDATASIZE SUB DUP2 ADD SWAP1 PUSH2 0x97 SWAP2 SWAP1 PUSH2 0xB11 JUMP JUMPDEST PUSH2 0x135 JUMP JUMPDEST STOP JUMPDEST PUSH2 0xB8 PUSH1 0x4 DUP1 CALLDATASIZE SUB DUP2 ADD SWAP1 PUSH2 0xB3 SWAP2 SWAP1 PUSH2 0xCB5 JUMP JUMPDEST PUSH2 0x27D JUMP JUMPDEST STOP JUMPDEST PUSH2 0xD4 PUSH1 0x4 DUP1 CALLDATASIZE SUB DUP2 ADD SWAP1 PUSH2 0xCF SWAP2 SWAP1 PUSH2 0xE46 JUMP JUMPDEST PUSH2 0x41C JUMP JUMPDEST STOP JUMPDEST PUSH2 0xDE PUSH2 0x4D8 JUMP JUMPDEST PUSH1 0x40 MLOAD PUSH2 0xEB SWAP2 SWAP1 PUSH2 0x981 JUMP JUMPDEST PUSH1 0x40 MLOAD DUP1 SWAP2 SUB SWAP1 RETURN JUMPDEST PUSH2 0x10E PUSH1 0x4 DUP1 CALLDATASIZE SUB DUP2 ADD SWAP1 PUSH2 0x109 SWAP2 SWAP1 PUSH2 0xE46 JUMP JUMPDEST PUSH2 0x4DD JUMP JUMPDEST PUSH1 0x40 MLOAD PUSH2 0x124 SWAP11 SWAP10 SWAP9 SWAP8 SWAP7 SWAP6 SWAP5 SWAP4 SWAP3 SWAP2 SWAP1 PUSH2 0xEEB JUMP JUMPDEST PUSH1 0x40 MLOAD DUP1 SWAP2 SUB SWAP1 RETURN JUMPDEST PUSH0 DUP1 SLOAD SWAP1 POP SWAP1 JUMP JUMPDEST PUSH0 PUSH1 0x1 PUSH0 DUP12 DUP2 MSTORE PUSH1 0x20 ADD SWAP1 DUP2 MSTORE PUSH1 0x20 ADD PUSH0 KECCAK256 SWAP1 POP DUP1 PUSH1 0x9 ADD PUSH0 SWAP1 SLOAD SWAP1 PUSH2 0x100 EXP SWAP1 DIV PUSH1 0xFF AND ISZERO PUSH2 0x19A JUMPI PUSH1 0x40 MLOAD PUSH32 0x8C379A000000000000000000000000000000000000000000000000000000000 DUP2 MSTORE PUSH1 0x4 ADD PUSH2 0x191 SWAP1 PUSH2 0x1007 JUMP JUMPDEST PUSH1 0x40 MLOAD DUP1 SWAP2 SUB SWAP1 REVERT JUMPDEST DUP9 DUP2 PUSH1 0x1 ADD SWAP1 DUP2 PUSH2 0x1AB SWAP2 SWAP1 PUSH2 0x121F JUMP JUMPDEST POP DUP8 DUP2 PUSH1 0x2 ADD SWAP1 DUP2 PUSH2 0x1BD SWAP2 SWAP1 PUSH2 0x121F JUMP JUMPDEST POP DUP7 DUP2 PUSH1 0x3 ADD SWAP1 DUP2 PUSH2 0x1CF SWAP2 SWAP1 PUSH2 0x121F JUMP JUMPDEST POP DUP6 DUP2 PUSH1 0x4 ADD SWAP1 DUP2 PUSH2 0x1E1 SWAP2 SWAP1 PUSH2 0x121F JUMP JUMPDEST POP DUP5 DUP2 PUSH1 0x5 ADD SWAP1 DUP2 PUSH2 0x1F3 SWAP2 SWAP1 PUSH2 0x121F JUMP JUMPDEST POP DUP4 DUP2 PUSH1 0x6 ADD SWAP1 DUP2 PUSH2 0x205 SWAP2 SWAP1 PUSH2 0x121F JUMP JUMPDEST POP DUP3 DUP2 PUSH1 0x7 ADD SWAP1 DUP2 PUSH2 0x217 SWAP2 SWAP1 PUSH2 0x121F JUMP JUMPDEST POP DUP2 DUP2 PUSH1 0x8 ADD SWAP1 DUP2 PUSH2 0x229 SWAP2 SWAP1 PUSH2 0x121F JUMP JUMPDEST POP PUSH32 0x44A6C3CFC25700B9E32AB4F5966C3FAAEACBB4555A15E4239DA1104B34213447 DUP11 DUP11 DUP11 DUP11 DUP11 DUP11 DUP11 DUP11 DUP11 PUSH1 0x40 MLOAD PUSH2 0x269 SWAP10 SWAP9 SWAP8 SWAP7 SWAP6 SWAP5 SWAP4 SWAP3 SWAP2 SWAP1 PUSH2 0x12EE JUMP JUMPDEST PUSH1 0x40 MLOAD DUP1 SWAP2 SUB SWAP1 LOG1 POP POP POP POP POP POP POP POP POP POP JUMP JUMPDEST PUSH0 DUP1 DUP2 SLOAD DUP1 SWAP3 SWAP2 SWAP1 PUSH2 0x28E SWAP1 PUSH2 0x13DE JUMP JUMPDEST SWAP2 SWAP1 POP SSTORE POP PUSH1 0x40 MLOAD DUP1 PUSH2 0x140 ADD PUSH1 0x40 MSTORE DUP1 PUSH0 SLOAD DUP2 MSTORE PUSH1 0x20 ADD DUP10 DUP2 MSTORE PUSH1 0x20 ADD DUP9 DUP2 MSTORE PUSH1 0x20 ADD DUP8 DUP2 MSTORE PUSH1 0x20 ADD DUP7 DUP2 MSTORE PUSH1 0x20 ADD DUP6 DUP2 MSTORE PUSH1 0x20 ADD DUP5 DUP2 MSTORE PUSH1 0x20 ADD DUP4 DUP2 MSTORE PUSH1 0x20 ADD DUP3 DUP2 MSTORE PUSH1 0x20 ADD PUSH0 ISZERO ISZERO DUP2 MSTORE POP PUSH1 0x1 PUSH0 DUP1 SLOAD DUP2 MSTORE PUSH1 0x20 ADD SWAP1 DUP2 MSTORE PUSH1 0x20 ADD PUSH0 KECCAK256 PUSH0 DUP3 ADD MLOAD DUP2 PUSH0 ADD SSTORE PUSH1 0x20 DUP3 ADD MLOAD DUP2 PUSH1 0x1 ADD SWAP1 DUP2 PUSH2 0x30B SWAP2 SWAP1 PUSH2 0x121F JUMP JUMPDEST POP PUSH1 0x40 DUP3 ADD MLOAD DUP2 PUSH1 0x2 ADD SWAP1 DUP2 PUSH2 0x321 SWAP2 SWAP1 PUSH2 0x121F JUMP JUMPDEST POP PUSH1 0x60 DUP3 ADD MLOAD DUP2 PUSH1 0x3 ADD SWAP1 DUP2 PUSH2 0x337 SWAP2 SWAP1 PUSH2 0x121F JUMP JUMPDEST POP PUSH1 0x80 DUP3 ADD MLOAD DUP2 PUSH1 0x4 ADD SWAP1 DUP2 PUSH2 0x34D SWAP2 SWAP1 PUSH2 0x121F JUMP JUMPDEST POP PUSH1 0xA0 DUP3 ADD MLOAD DUP2 PUSH1 0x5 ADD SWAP1 DUP2 PUSH2 0x363 SWAP2 SWAP1 PUSH2 0x121F JUMP JUMPDEST POP PUSH1 0xC0 DUP3 ADD MLOAD DUP2 PUSH1 0x6 ADD SWAP1 DUP2 PUSH2 0x379 SWAP2 SWAP1 PUSH2 0x121F JUMP JUMPDEST POP PUSH1 0xE0 DUP3 ADD MLOAD DUP2 PUSH1 0x7 ADD SWAP1 DUP2 PUSH2 0x38F SWAP2 SWAP1 PUSH2 0x121F JUMP JUMPDEST POP PUSH2 0x100 DUP3 ADD MLOAD DUP2 PUSH1 0x8 ADD SWAP1 DUP2 PUSH2 0x3A6 SWAP2 SWAP1 PUSH2 0x121F JUMP JUMPDEST POP PUSH2 0x120 DUP3 ADD MLOAD DUP2 PUSH1 0x9 ADD PUSH0 PUSH2 0x100 EXP DUP2 SLOAD DUP2 PUSH1 0xFF MUL NOT AND SWAP1 DUP4 ISZERO ISZERO MUL OR SWAP1 SSTORE POP SWAP1 POP POP PUSH32 0x2935FE3FC14C7D9A0A9E035FCFACBA7E8CDE60B3608CE984173DC6288F1CE66B PUSH0 SLOAD DUP10 DUP10 DUP10 DUP10 DUP10 DUP10 DUP10 DUP10 PUSH1 0x40 MLOAD PUSH2 0x40A SWAP10 SWAP9 SWAP8 SWAP7 SWAP6 SWAP5 SWAP4 SWAP3 SWAP2 SWAP1 PUSH2 0x12EE JUMP JUMPDEST PUSH1 0x40 MLOAD DUP1 SWAP2 SUB SWAP1 LOG1 POP POP POP POP POP POP POP POP JUMP JUMPDEST PUSH0 PUSH1 0x1 PUSH0 DUP4 DUP2 MSTORE PUSH1 0x20 ADD SWAP1 DUP2 MSTORE PUSH1 0x20 ADD PUSH0 KECCAK256 SWAP1 POP DUP1 PUSH1 0x9 ADD PUSH0 SWAP1 SLOAD SWAP1 PUSH2 0x100 EXP SWAP1 DIV PUSH1 0xFF AND ISZERO PUSH2 0x481 JUMPI PUSH1 0x40 MLOAD PUSH32 0x8C379A000000000000000000000000000000000000000000000000000000000 DUP2 MSTORE PUSH1 0x4 ADD PUSH2 0x478 SWAP1 PUSH2 0x146F JUMP JUMPDEST PUSH1 0x40 MLOAD DUP1 SWAP2 SUB SWAP1 REVERT JUMPDEST PUSH1 0x1 DUP2 PUSH1 0x9 ADD PUSH0 PUSH2 0x100 EXP DUP2 SLOAD DUP2 PUSH1 0xFF MUL NOT AND SWAP1 DUP4 ISZERO ISZERO MUL OR SWAP1 SSTORE POP PUSH32 0x7F4E40DB189F7C6B22866542CEBE5936F88D24CEE53FC9583694B2D51884DDF3 DUP3 PUSH1 0x40 MLOAD PUSH2 0x4CC SWAP2 SWAP1 PUSH2 0x981 JUMP JUMPDEST PUSH1 0x40 MLOAD DUP1 SWAP2 SUB SWAP1 LOG1 POP POP JUMP JUMPDEST PUSH0 SLOAD DUP2 JUMP JUMPDEST PUSH1 0x1 PUSH1 0x20 MSTORE DUP1 PUSH0 MSTORE PUSH1 0x40 PUSH0 KECCAK256 PUSH0 SWAP2 POP SWAP1 POP DUP1 PUSH0 ADD SLOAD SWAP1 DUP1 PUSH1 0x1 ADD DUP1 SLOAD PUSH2 0x502 SWAP1 PUSH2 0x1052 JUMP JUMPDEST DUP1 PUSH1 0x1F ADD PUSH1 0x20 DUP1 SWAP2 DIV MUL PUSH1 0x20 ADD PUSH1 0x40 MLOAD SWAP1 DUP2 ADD PUSH1 0x40 MSTORE DUP1 SWAP3 SWAP2 SWAP1 DUP2 DUP2 MSTORE PUSH1 0x20 ADD DUP3 DUP1 SLOAD PUSH2 0x52E SWAP1 PUSH2 0x1052 JUMP JUMPDEST DUP1 ISZERO PUSH2 0x579 JUMPI DUP1 PUSH1 0x1F LT PUSH2 0x550 JUMPI PUSH2 0x100 DUP1 DUP4 SLOAD DIV MUL DUP4 MSTORE SWAP2 PUSH1 0x20 ADD SWAP2 PUSH2 0x579 JUMP JUMPDEST DUP3 ADD SWAP2 SWAP1 PUSH0 MSTORE PUSH1 0x20 PUSH0 KECCAK256 SWAP1 JUMPDEST DUP2 SLOAD DUP2 MSTORE SWAP1 PUSH1 0x1 ADD SWAP1 PUSH1 0x20 ADD DUP1 DUP4 GT PUSH2 0x55C JUMPI DUP3 SWAP1 SUB PUSH1 0x1F AND DUP3 ADD SWAP2 JUMPDEST POP POP POP POP POP SWAP1 DUP1 PUSH1 0x2 ADD DUP1 SLOAD PUSH2 0x58E SWAP1 PUSH2 0x1052 JUMP JUMPDEST DUP1 PUSH1 0x1F ADD PUSH1 0x20 DUP1 SWAP2 DIV MUL PUSH1 0x20 ADD PUSH1 0x40 MLOAD SWAP1 DUP2 ADD PUSH1 0x40 MSTORE DUP1 SWAP3 SWAP2 SWAP1 DUP2 DUP2 MSTORE PUSH1 0x20 ADD DUP3 DUP1 SLOAD PUSH2 0x5BA SWAP1 PUSH2 0x1052 JUMP JUMPDEST DUP1 ISZERO PUSH2 0x605 JUMPI DUP1 PUSH1 0x1F LT PUSH2 0x5DC JUMPI PUSH2 0x100 DUP1 DUP4 SLOAD DIV MUL DUP4 MSTORE SWAP2 PUSH1 0x20 ADD SWAP2 PUSH2 0x605 JUMP JUMPDEST DUP3 ADD SWAP2 SWAP1 PUSH0 MSTORE PUSH1 0x20 PUSH0 KECCAK256 SWAP1 JUMPDEST DUP2 SLOAD DUP2 MSTORE SWAP1 PUSH1 0x1 ADD SWAP1 PUSH1 0x20 ADD DUP1 DUP4 GT PUSH2 0x5E8 JUMPI DUP3 SWAP1 SUB PUSH1 0x1F AND DUP3 ADD SWAP2 JUMPDEST POP POP POP POP POP SWAP1 DUP1 PUSH1 0x3 ADD DUP1 SLOAD PUSH2 0x61A SWAP1 PUSH2 0x1052 JUMP JUMPDEST DUP1 PUSH1 0x1F ADD PUSH1 0x20 DUP1 SWAP2 DIV MUL PUSH1 0x20 ADD PUSH1 0x40 MLOAD SWAP1 DUP2 ADD PUSH1 0x40 MSTORE DUP1 SWAP3 SWAP2 SWAP1 DUP2 DUP2 MSTORE PUSH1 0x20 ADD DUP3 DUP1 SLOAD PUSH2 0x646 SWAP1 PUSH2 0x1052 JUMP JUMPDEST DUP1 ISZERO PUSH2 0x691 JUMPI DUP1 PUSH1 0x1F LT PUSH2 0x668 JUMPI PUSH2 0x100 DUP1 DUP4 SLOAD DIV MUL DUP4 MSTORE SWAP2 PUSH1 0x20 ADD SWAP2 PUSH2 0x691 JUMP JUMPDEST DUP3 ADD SWAP2 SWAP1 PUSH0 MSTORE PUSH1 0x20 PUSH0 KECCAK256 SWAP1 JUMPDEST DUP2 SLOAD DUP2 MSTORE SWAP1 PUSH1 0x1 ADD SWAP1 PUSH1 0x20 ADD DUP1 DUP4 GT PUSH2 0x674 JUMPI DUP3 SWAP1 SUB PUSH1 0x1F AND DUP3 ADD SWAP2 JUMPDEST POP POP POP POP POP SWAP1 DUP1 PUSH1 0x4 ADD DUP1 SLOAD PUSH2 0x6A6 SWAP1 PUSH2 0x1052 JUMP JUMPDEST DUP1 PUSH1 0x1F ADD PUSH1 0x20 DUP1 SWAP2 DIV MUL PUSH1 0x20 ADD PUSH1 0x40 MLOAD SWAP1 DUP2 ADD PUSH1 0x40 MSTORE DUP1 SWAP3 SWAP2 SWAP1 DUP2 DUP2 MSTORE PUSH1 0x20 ADD DUP3 DUP1 SLOAD PUSH2 0x6D2 SWAP1 PUSH2 0x1052 JUMP JUMPDEST DUP1 ISZERO PUSH2 0x71D JUMPI DUP1 PUSH1 0x1F LT PUSH2 0x6F4 JUMPI PUSH2 0x100 DUP1 DUP4 SLOAD DIV MUL DUP4 MSTORE SWAP2 PUSH1 0x20 ADD SWAP2 PUSH2 0x71D JUMP JUMPDEST DUP3 ADD SWAP2 SWAP1 PUSH0 MSTORE PUSH1 0x20 PUSH0 KECCAK256 SWAP1 JUMPDEST DUP2 SLOAD DUP2 MSTORE SWAP1 PUSH1 0x1 ADD SWAP1 PUSH1 0x20 ADD DUP1 DUP4 GT PUSH2 0x700 JUMPI DUP3 SWAP1 SUB PUSH1 0x1F AND DUP3 ADD SWAP2 JUMPDEST POP POP POP POP POP SWAP1 DUP1 PUSH1 0x5 ADD DUP1 SLOAD PUSH2 0x732 SWAP1 PUSH2 0x1052 JUMP JUMPDEST DUP1 PUSH1 0x1F ADD PUSH1 0x20 DUP1 SWAP2 DIV MUL PUSH1 0x20 ADD PUSH1 0x40 MLOAD SWAP1 DUP2 ADD PUSH1 0x40 MSTORE DUP1 SWAP3 SWAP2 SWAP1 DUP2 DUP2 MSTORE PUSH1 0x20 ADD DUP3 DUP1 SLOAD PUSH2 0x75E SWAP1 PUSH2 0x1052 JUMP JUMPDEST DUP1 ISZERO PUSH2 0x7A9 JUMPI DUP1 PUSH1 0x1F LT PUSH2 0x780 JUMPI PUSH2 0x100 DUP1 DUP4 SLOAD DIV MUL DUP4 MSTORE SWAP2 PUSH1 0x20 ADD SWAP2 PUSH2 0x7A9 JUMP JUMPDEST DUP3 ADD SWAP2 SWAP1 PUSH0 MSTORE PUSH1 0x20 PUSH0 KECCAK256 SWAP1 JUMPDEST DUP2 SLOAD DUP2 MSTORE SWAP1 PUSH1 0x1 ADD SWAP1 PUSH1 0x20 ADD DUP1 DUP4 GT PUSH2 0x78C JUMPI DUP3 SWAP1 SUB PUSH1 0x1F AND DUP3 ADD SWAP2 JUMPDEST POP POP POP POP POP SWAP1 DUP1 PUSH1 0x6 ADD DUP1 SLOAD PUSH2 0x7BE SWAP1 PUSH2 0x1052 JUMP JUMPDEST DUP1 PUSH1 0x1F ADD PUSH1 0x20 DUP1 SWAP2 DIV MUL PUSH1 0x20 ADD PUSH1 0x40 MLOAD SWAP1 DUP2 ADD PUSH1 0x40 MSTORE DUP1 SWAP3 SWAP2 SWAP1 DUP2 DUP2 MSTORE PUSH1 0x20 ADD DUP3 DUP1 SLOAD PUSH2 0x7EA SWAP1 PUSH2 0x1052 JUMP JUMPDEST DUP1 ISZERO PUSH2 0x835 JUMPI DUP1 PUSH1 0x1F LT PUSH2 0x80C JUMPI PUSH2 0x100 DUP1 DUP4 SLOAD DIV MUL DUP4 MSTORE SWAP2 PUSH1 0x20 ADD SWAP2 PUSH2 0x835 JUMP JUMPDEST DUP3 ADD SWAP2 SWAP1 PUSH0 MSTORE PUSH1 0x20 PUSH0 KECCAK256 SWAP1 JUMPDEST DUP2 SLOAD DUP2 MSTORE SWAP1 PUSH1 0x1 ADD SWAP1 PUSH1 0x20 ADD DUP1 DUP4 GT PUSH2 0x818 JUMPI DUP3 SWAP1 SUB PUSH1 0x1F AND DUP3 ADD SWAP2 JUMPDEST POP POP POP POP POP SWAP1 DUP1 PUSH1 0x7 ADD DUP1 SLOAD PUSH2 0x84A SWAP1 PUSH2 0x1052 JUMP JUMPDEST DUP1 PUSH1 0x1F ADD PUSH1 0x20 DUP1 SWAP2 DIV MUL PUSH1 0x20 ADD PUSH1 0x40 MLOAD SWAP1 DUP2 ADD PUSH1 0x40 MSTORE DUP1 SWAP3 SWAP2 SWAP1 DUP2 DUP2 MSTORE PUSH1 0x20 ADD DUP3 DUP1 SLOAD PUSH2 0x876 SWAP1 PUSH2 0x1052 JUMP JUMPDEST DUP1 ISZERO PUSH2 0x8C1 JUMPI DUP1 PUSH1 0x1F LT PUSH2 0x898 JUMPI PUSH2 0x100 DUP1 DUP4 SLOAD DIV MUL DUP4 MSTORE SWAP2 PUSH1 0x20 ADD SWAP2 PUSH2 0x8C1 JUMP JUMPDEST DUP3 ADD SWAP2 SWAP1 PUSH0 MSTORE PUSH1 0x20 PUSH0 KECCAK256 SWAP1 JUMPDEST DUP2 SLOAD DUP2 MSTORE SWAP1 PUSH1 0x1 ADD SWAP1 PUSH1 0x20 ADD DUP1 DUP4 GT PUSH2 0x8A4 JUMPI DUP3 SWAP1 SUB PUSH1 0x1F AND DUP3 ADD SWAP2 JUMPDEST POP POP POP POP POP SWAP1 DUP1 PUSH1 0x8 ADD DUP1 SLOAD PUSH2 0x8D6 SWAP1 PUSH2 0x1052 JUMP JUMPDEST DUP1 PUSH1 0x1F ADD PUSH1 0x20 DUP1 SWAP2 DIV MUL PUSH1 0x20 ADD PUSH1 0x40 MLOAD SWAP1 DUP2 ADD PUSH1 0x40 MSTORE DUP1 SWAP3 SWAP2 SWAP1 DUP2 DUP2 MSTORE PUSH1 0x20 ADD DUP3 DUP1 SLOAD PUSH2 0x902 SWAP1 PUSH2 0x1052 JUMP JUMPDEST DUP1 ISZERO PUSH2 0x94D JUMPI DUP1 PUSH1 0x1F LT PUSH2 0x924 JUMPI PUSH2 0x100 DUP1 DUP4 SLOAD DIV MUL DUP4 MSTORE SWAP2 PUSH1 0x20 ADD SWAP2 PUSH2 0x94D JUMP JUMPDEST DUP3 ADD SWAP2 SWAP1 PUSH0 MSTORE PUSH1 0x20 PUSH0 KECCAK256 SWAP1 JUMPDEST DUP2 SLOAD DUP2 MSTORE SWAP1 PUSH1 0x1 ADD SWAP1 PUSH1 0x20 ADD DUP1 DUP4 GT PUSH2 0x930 JUMPI DUP3 SWAP1 SUB PUSH1 0x1F AND DUP3 ADD SWAP2 JUMPDEST POP POP POP POP POP SWAP1 DUP1 PUSH1 0x9 ADD PUSH0 SWAP1 SLOAD SWAP1 PUSH2 0x100 EXP SWAP1 DIV PUSH1 0xFF AND SWAP1 POP DUP11 JUMP JUMPDEST PUSH0 DUP2 SWAP1 POP SWAP2 SWAP1 POP JUMP JUMPDEST PUSH2 0x97B DUP2 PUSH2 0x969 JUMP JUMPDEST DUP3 MSTORE POP POP JUMP JUMPDEST PUSH0 PUSH1 0x20 DUP3 ADD SWAP1 POP PUSH2 0x994 PUSH0 DUP4 ADD DUP5 PUSH2 0x972 JUMP JUMPDEST SWAP3 SWAP2 POP POP JUMP JUMPDEST PUSH0 PUSH1 0x40 MLOAD SWAP1 POP SWAP1 JUMP JUMPDEST PUSH0 DUP1 REVERT JUMPDEST PUSH0 DUP1 REVERT JUMPDEST PUSH2 0x9B4 DUP2 PUSH2 0x969 JUMP JUMPDEST DUP2 EQ PUSH2 0x9BE JUMPI PUSH0 DUP1 REVERT JUMPDEST POP JUMP JUMPDEST PUSH0 DUP2 CALLDATALOAD SWAP1 POP PUSH2 0x9CF DUP2 PUSH2 0x9AB JUMP JUMPDEST SWAP3 SWAP2 POP POP JUMP JUMPDEST PUSH0 DUP1 REVERT JUMPDEST PUSH0 DUP1 REVERT JUMPDEST PUSH0 PUSH1 0x1F NOT PUSH1 0x1F DUP4 ADD AND SWAP1 POP SWAP2 SWAP1 POP JUMP JUMPDEST PUSH32 0x4E487B7100000000000000000000000000000000000000000000000000000000 PUSH0 MSTORE PUSH1 0x41 PUSH1 0x4 MSTORE PUSH1 0x24 PUSH0 REVERT JUMPDEST PUSH2 0xA23 DUP3 PUSH2 0x9DD JUMP JUMPDEST DUP2 ADD DUP2 DUP2 LT PUSH8 0xFFFFFFFFFFFFFFFF DUP3 GT OR ISZERO PUSH2 0xA42 JUMPI PUSH2 0xA41 PUSH2 0x9ED JUMP JUMPDEST JUMPDEST DUP1 PUSH1 0x40 MSTORE POP POP POP JUMP JUMPDEST PUSH0 PUSH2 0xA54 PUSH2 0x99A JUMP JUMPDEST SWAP1 POP PUSH2 0xA60 DUP3 DUP3 PUSH2 0xA1A JUMP JUMPDEST SWAP2 SWAP1 POP JUMP JUMPDEST PUSH0 PUSH8 0xFFFFFFFFFFFFFFFF DUP3 GT ISZERO PUSH2 0xA7F JUMPI PUSH2 0xA7E PUSH2 0x9ED JUMP JUMPDEST JUMPDEST PUSH2 0xA88 DUP3 PUSH2 0x9DD JUMP JUMPDEST SWAP1 POP PUSH1 0x20 DUP2 ADD SWAP1 POP SWAP2 SWAP1 POP JUMP JUMPDEST DUP3 DUP2 DUP4 CALLDATACOPY PUSH0 DUP4 DUP4 ADD MSTORE POP POP POP JUMP JUMPDEST PUSH0 PUSH2 0xAB5 PUSH2 0xAB0 DUP5 PUSH2 0xA65 JUMP JUMPDEST PUSH2 0xA4B JUMP JUMPDEST SWAP1 POP DUP3 DUP2 MSTORE PUSH1 0x20 DUP2 ADD DUP5 DUP5 DUP5 ADD GT ISZERO PUSH2 0xAD1 JUMPI PUSH2 0xAD0 PUSH2 0x9D9 JUMP JUMPDEST JUMPDEST PUSH2 0xADC DUP5 DUP3 DUP6 PUSH2 0xA95 JUMP JUMPDEST POP SWAP4 SWAP3 POP POP POP JUMP JUMPDEST PUSH0 DUP3 PUSH1 0x1F DUP4 ADD SLT PUSH2 0xAF8 JUMPI PUSH2 0xAF7 PUSH2 0x9D5 JUMP JUMPDEST JUMPDEST DUP2 CALLDATALOAD PUSH2 0xB08 DUP5 DUP3 PUSH1 0x20 DUP7 ADD PUSH2 0xAA3 JUMP JUMPDEST SWAP2 POP POP SWAP3 SWAP2 POP POP JUMP JUMPDEST PUSH0 DUP1 PUSH0 DUP1 PUSH0 DUP1 PUSH0 DUP1 PUSH0 PUSH2 0x120 DUP11 DUP13 SUB SLT ISZERO PUSH2 0xB2F JUMPI PUSH2 0xB2E PUSH2 0x9A3 JUMP JUMPDEST JUMPDEST PUSH0 PUSH2 0xB3C DUP13 DUP3 DUP14 ADD PUSH2 0x9C1 JUMP JUMPDEST SWAP10 POP POP PUSH1 0x20 DUP11 ADD CALLDATALOAD PUSH8 0xFFFFFFFFFFFFFFFF DUP2 GT ISZERO PUSH2 0xB5D JUMPI PUSH2 0xB5C PUSH2 0x9A7 JUMP JUMPDEST JUMPDEST PUSH2 0xB69 DUP13 DUP3 DUP14 ADD PUSH2 0xAE4 JUMP JUMPDEST SWAP9 POP POP PUSH1 0x40 DUP11 ADD CALLDATALOAD PUSH8 0xFFFFFFFFFFFFFFFF DUP2 GT ISZERO PUSH2 0xB8A JUMPI PUSH2 0xB89 PUSH2 0x9A7 JUMP JUMPDEST JUMPDEST PUSH2 0xB96 DUP13 DUP3 DUP14 ADD PUSH2 0xAE4 JUMP JUMPDEST SWAP8 POP POP PUSH1 0x60 DUP11 ADD CALLDATALOAD PUSH8 0xFFFFFFFFFFFFFFFF DUP2 GT ISZERO PUSH2 0xBB7 JUMPI PUSH2 0xBB6 PUSH2 0x9A7 JUMP JUMPDEST JUMPDEST PUSH2 0xBC3 DUP13 DUP3 DUP14 ADD PUSH2 0xAE4 JUMP JUMPDEST SWAP7 POP POP PUSH1 0x80 DUP11 ADD CALLDATALOAD PUSH8 0xFFFFFFFFFFFFFFFF DUP2 GT ISZERO PUSH2 0xBE4 JUMPI PUSH2 0xBE3 PUSH2 0x9A7 JUMP JUMPDEST JUMPDEST PUSH2 0xBF0 DUP13 DUP3 DUP14 ADD PUSH2 0xAE4 JUMP JUMPDEST SWAP6 POP POP PUSH1 0xA0 DUP11 ADD CALLDATALOAD PUSH8 0xFFFFFFFFFFFFFFFF DUP2 GT ISZERO PUSH2 0xC11 JUMPI PUSH2 0xC10 PUSH2 0x9A7 JUMP JUMPDEST JUMPDEST PUSH2 0xC1D DUP13 DUP3 DUP14 ADD PUSH2 0xAE4 JUMP JUMPDEST SWAP5 POP POP PUSH1 0xC0 DUP11 ADD CALLDATALOAD PUSH8 0xFFFFFFFFFFFFFFFF DUP2 GT ISZERO PUSH2 0xC3E JUMPI PUSH2 0xC3D PUSH2 0x9A7 JUMP JUMPDEST JUMPDEST PUSH2 0xC4A DUP13 DUP3 DUP14 ADD PUSH2 0xAE4 JUMP JUMPDEST SWAP4 POP POP PUSH1 0xE0 DUP11 ADD CALLDATALOAD PUSH8 0xFFFFFFFFFFFFFFFF DUP2 GT ISZERO PUSH2 0xC6B JUMPI PUSH2 0xC6A PUSH2 0x9A7 JUMP JUMPDEST JUMPDEST PUSH2 0xC77 DUP13 DUP3 DUP14 ADD PUSH2 0xAE4 JUMP JUMPDEST SWAP3 POP POP PUSH2 0x100 DUP11 ADD CALLDATALOAD PUSH8 0xFFFFFFFFFFFFFFFF DUP2 GT ISZERO PUSH2 0xC99 JUMPI PUSH2 0xC98 PUSH2 0x9A7 JUMP JUMPDEST JUMPDEST PUSH2 0xCA5 DUP13 DUP3 DUP14 ADD PUSH2 0xAE4 JUMP JUMPDEST SWAP2 POP POP SWAP3 SWAP6 SWAP9 POP SWAP3 SWAP6 SWAP9 POP SWAP3 SWAP6 SWAP9 JUMP JUMPDEST PUSH0 DUP1 PUSH0 DUP1 PUSH0 DUP1 PUSH0 DUP1 PUSH2 0x100 DUP10 DUP12 SUB SLT ISZERO PUSH2 0xCD2 JUMPI PUSH2 0xCD1 PUSH2 0x9A3 JUMP JUMPDEST JUMPDEST PUSH0 DUP10 ADD CALLDATALOAD PUSH8 0xFFFFFFFFFFFFFFFF DUP2 GT ISZERO PUSH2 0xCEF JUMPI PUSH2 0xCEE PUSH2 0x9A7 JUMP JUMPDEST JUMPDEST PUSH2 0xCFB DUP12 DUP3 DUP13 ADD PUSH2 0xAE4 JUMP JUMPDEST SWAP9 POP POP PUSH1 0x20 DUP10 ADD CALLDATALOAD PUSH8 0xFFFFFFFFFFFFFFFF DUP2 GT ISZERO PUSH2 0xD1C JUMPI PUSH2 0xD1B PUSH2 0x9A7 JUMP JUMPDEST JUMPDEST PUSH2 0xD28 DUP12 DUP3 DUP13 ADD PUSH2 0xAE4 JUMP JUMPDEST SWAP8 POP POP PUSH1 0x40 DUP10 ADD CALLDATALOAD PUSH8 0xFFFFFFFFFFFFFFFF DUP2 GT ISZERO PUSH2 0xD49 JUMPI PUSH2 0xD48 PUSH2 0x9A7 JUMP JUMPDEST JUMPDEST PUSH2 0xD55 DUP12 DUP3 DUP13 ADD PUSH2 0xAE4 JUMP JUMPDEST SWAP7 POP POP PUSH1 0x60 DUP10 ADD CALLDATALOAD PUSH8 0xFFFFFFFFFFFFFFFF DUP2 GT ISZERO PUSH2 0xD76 JUMPI PUSH2 0xD75 PUSH2 0x9A7 JUMP JUMPDEST JUMPDEST PUSH2 0xD82 DUP12 DUP3 DUP13 ADD PUSH2 0xAE4 JUMP JUMPDEST SWAP6 POP POP PUSH1 0x80 DUP10 ADD CALLDATALOAD PUSH8 0xFFFFFFFFFFFFFFFF DUP2 GT ISZERO PUSH2 0xDA3 JUMPI PUSH2 0xDA2 PUSH2 0x9A7 JUMP JUMPDEST JUMPDEST PUSH2 0xDAF DUP12 DUP3 DUP13 ADD PUSH2 0xAE4 JUMP JUMPDEST SWAP5 POP POP PUSH1 0xA0 DUP10 ADD CALLDATALOAD PUSH8 0xFFFFFFFFFFFFFFFF DUP2 GT ISZERO PUSH2 0xDD0 JUMPI PUSH2 0xDCF PUSH2 0x9A7 JUMP JUMPDEST JUMPDEST PUSH2 0xDDC DUP12 DUP3 DUP13 ADD PUSH2 0xAE4 JUMP JUMPDEST SWAP4 POP POP PUSH1 0xC0 DUP10 ADD CALLDATALOAD PUSH8 0xFFFFFFFFFFFFFFFF DUP2 GT ISZERO PUSH2 0xDFD JUMPI PUSH2 0xDFC PUSH2 0x9A7 JUMP JUMPDEST JUMPDEST PUSH2 0xE09 DUP12 DUP3 DUP13 ADD PUSH2 0xAE4 JUMP JUMPDEST SWAP3 POP POP PUSH1 0xE0 DUP10 ADD CALLDATALOAD PUSH8 0xFFFFFFFFFFFFFFFF DUP2 GT ISZERO PUSH2 0xE2A JUMPI PUSH2 0xE29 PUSH2 0x9A7 JUMP JUMPDEST JUMPDEST PUSH2 0xE36 DUP12 DUP3 DUP13 ADD PUSH2 0xAE4 JUMP JUMPDEST SWAP2 POP POP SWAP3 SWAP6 SWAP9 POP SWAP3 SWAP6 SWAP9 SWAP1 SWAP4 SWAP7 POP JUMP JUMPDEST PUSH0 PUSH1 0x20 DUP3 DUP5 SUB SLT ISZERO PUSH2 0xE5B JUMPI PUSH2 0xE5A PUSH2 0x9A3 JUMP JUMPDEST JUMPDEST PUSH0 PUSH2 0xE68 DUP5 DUP3 DUP6 ADD PUSH2 0x9C1 JUMP JUMPDEST SWAP2 POP POP SWAP3 SWAP2 POP POP JUMP JUMPDEST PUSH0 DUP2 MLOAD SWAP1 POP SWAP2 SWAP1 POP JUMP JUMPDEST PUSH0 DUP3 DUP3 MSTORE PUSH1 0x20 DUP3 ADD SWAP1 POP SWAP3 SWAP2 POP POP JUMP JUMPDEST DUP3 DUP2 DUP4 MCOPY PUSH0 DUP4 DUP4 ADD MSTORE POP POP POP JUMP JUMPDEST PUSH0 PUSH2 0xEA3 DUP3 PUSH2 0xE71 JUMP JUMPDEST PUSH2 0xEAD DUP2 DUP6 PUSH2 0xE7B JUMP JUMPDEST SWAP4 POP PUSH2 0xEBD DUP2 DUP6 PUSH1 0x20 DUP7 ADD PUSH2 0xE8B JUMP JUMPDEST PUSH2 0xEC6 DUP2 PUSH2 0x9DD JUMP JUMPDEST DUP5 ADD SWAP2 POP POP SWAP3 SWAP2 POP POP JUMP JUMPDEST PUSH0 DUP2 ISZERO ISZERO SWAP1 POP SWAP2 SWAP1 POP JUMP JUMPDEST PUSH2 0xEE5 DUP2 PUSH2 0xED1 JUMP JUMPDEST DUP3 MSTORE POP POP JUMP JUMPDEST PUSH0 PUSH2 0x140 DUP3 ADD SWAP1 POP PUSH2 0xEFF PUSH0 DUP4 ADD DUP14 PUSH2 0x972 JUMP JUMPDEST DUP2 DUP2 SUB PUSH1 0x20 DUP4 ADD MSTORE PUSH2 0xF11 DUP2 DUP13 PUSH2 0xE99 JUMP JUMPDEST SWAP1 POP DUP2 DUP2 SUB PUSH1 0x40 DUP4 ADD MSTORE PUSH2 0xF25 DUP2 DUP12 PUSH2 0xE99 JUMP JUMPDEST SWAP1 POP DUP2 DUP2 SUB PUSH1 0x60 DUP4 ADD MSTORE PUSH2 0xF39 DUP2 DUP11 PUSH2 0xE99 JUMP JUMPDEST SWAP1 POP DUP2 DUP2 SUB PUSH1 0x80 DUP4 ADD MSTORE PUSH2 0xF4D DUP2 DUP10 PUSH2 0xE99 JUMP JUMPDEST SWAP1 POP DUP2 DUP2 SUB PUSH1 0xA0 DUP4 ADD MSTORE PUSH2 0xF61 DUP2 DUP9 PUSH2 0xE99 JUMP JUMPDEST SWAP1 POP DUP2 DUP2 SUB PUSH1 0xC0 DUP4 ADD MSTORE PUSH2 0xF75 DUP2 DUP8 PUSH2 0xE99 JUMP JUMPDEST SWAP1 POP DUP2 DUP2 SUB PUSH1 0xE0 DUP4 ADD MSTORE PUSH2 0xF89 DUP2 DUP7 PUSH2 0xE99 JUMP JUMPDEST SWAP1 POP DUP2 DUP2 SUB PUSH2 0x100 DUP4 ADD MSTORE PUSH2 0xF9E DUP2 DUP6 PUSH2 0xE99 JUMP JUMPDEST SWAP1 POP PUSH2 0xFAE PUSH2 0x120 DUP4 ADD DUP5 PUSH2 0xEDC JUMP JUMPDEST SWAP12 SWAP11 POP POP POP POP POP POP POP POP POP POP POP JUMP JUMPDEST PUSH32 0x4361736520686173206265656E2064656C657465640000000000000000000000 PUSH0 DUP3 ADD MSTORE POP JUMP JUMPDEST PUSH0 PUSH2 0xFF1 PUSH1 0x15 DUP4 PUSH2 0xE7B JUMP JUMPDEST SWAP2 POP PUSH2 0xFFC DUP3 PUSH2 0xFBD JUMP JUMPDEST PUSH1 0x20 DUP3 ADD SWAP1 POP SWAP2 SWAP1 POP JUMP JUMPDEST PUSH0 PUSH1 0x20 DUP3 ADD SWAP1 POP DUP2 DUP2 SUB PUSH0 DUP4 ADD MSTORE PUSH2 0x101E DUP2 PUSH2 0xFE5 JUMP JUMPDEST SWAP1 POP SWAP2 SWAP1 POP JUMP JUMPDEST PUSH32 0x4E487B7100000000000000000000000000000000000000000000000000000000 PUSH0 MSTORE PUSH1 0x22 PUSH1 0x4 MSTORE PUSH1 0x24 PUSH0 REVERT JUMPDEST PUSH0 PUSH1 0x2 DUP3 DIV SWAP1 POP PUSH1 0x1 DUP3 AND DUP1 PUSH2 0x1069 JUMPI PUSH1 0x7F DUP3 AND SWAP2 POP JUMPDEST PUSH1 0x20 DUP3 LT DUP2 SUB PUSH2 0x107C JUMPI PUSH2 0x107B PUSH2 0x1025 JUMP JUMPDEST JUMPDEST POP SWAP2 SWAP1 POP JUMP JUMPDEST PUSH0 DUP2 SWAP1 POP DUP2 PUSH0 MSTORE PUSH1 0x20 PUSH0 KECCAK256 SWAP1 POP SWAP2 SWAP1 POP JUMP JUMPDEST PUSH0 PUSH1 0x20 PUSH1 0x1F DUP4 ADD DIV SWAP1 POP SWAP2 SWAP1 POP JUMP JUMPDEST PUSH0 DUP3 DUP3 SHL SWAP1 POP SWAP3 SWAP2 POP POP JUMP JUMPDEST PUSH0 PUSH1 0x8 DUP4 MUL PUSH2 0x10DE PUSH32 0xFFFFFFFFFFFFFFFFFFFFFFFFFFFFFFFFFFFFFFFFFFFFFFFFFFFFFFFFFFFFFFFF DUP3 PUSH2 0x10A3 JUMP JUMPDEST PUSH2 0x10E8 DUP7 DUP4 PUSH2 0x10A3 JUMP JUMPDEST SWAP6 POP DUP1 NOT DUP5 AND SWAP4 POP DUP1 DUP7 AND DUP5 OR SWAP3 POP POP POP SWAP4 SWAP3 POP POP POP JUMP JUMPDEST PUSH0 DUP2 SWAP1 POP SWAP2 SWAP1 POP JUMP JUMPDEST PUSH0 PUSH2 0x1123 PUSH2 0x111E PUSH2 0x1119 DUP5 PUSH2 0x969 JUMP JUMPDEST PUSH2 0x1100 JUMP JUMPDEST PUSH2 0x969 JUMP JUMPDEST SWAP1 POP SWAP2 SWAP1 POP JUMP JUMPDEST PUSH0 DUP2 SWAP1 POP SWAP2 SWAP1 POP JUMP JUMPDEST PUSH2 0x113C DUP4 PUSH2 0x1109 JUMP JUMPDEST PUSH2 0x1150 PUSH2 0x1148 DUP3 PUSH2 0x112A JUMP JUMPDEST DUP5 DUP5 SLOAD PUSH2 0x10AF JUMP JUMPDEST DUP3 SSTORE POP POP POP POP JUMP JUMPDEST PUSH0 SWAP1 JUMP JUMPDEST PUSH2 0x1164 PUSH2 0x1158 JUMP JUMPDEST PUSH2 0x116F DUP2 DUP5 DUP5 PUSH2 0x1133 JUMP JUMPDEST POP POP POP JUMP JUMPDEST JUMPDEST DUP2 DUP2 LT ISZERO PUSH2 0x1192 JUMPI PUSH2 0x1187 PUSH0 DUP3 PUSH2 0x115C JUMP JUMPDEST PUSH1 0x1 DUP2 ADD SWAP1 POP PUSH2 0x1175 JUMP JUMPDEST POP POP JUMP JUMPDEST PUSH1 0x1F DUP3 GT ISZERO PUSH2 0x11D7 JUMPI PUSH2 0x11A8 DUP2 PUSH2 0x1082 JUMP JUMPDEST PUSH2 0x11B1 DUP5 PUSH2 0x1094 JUMP JUMPDEST DUP2 ADD PUSH1 0x20 DUP6 LT ISZERO PUSH2 0x11C0 JUMPI DUP2 SWAP1 POP JUMPDEST PUSH2 0x11D4 PUSH2 0x11CC DUP6 PUSH2 0x1094 JUMP JUMPDEST DUP4 ADD DUP3 PUSH2 0x1174 JUMP JUMPDEST POP POP JUMPDEST POP POP POP JUMP JUMPDEST PUSH0 DUP3 DUP3 SHR SWAP1 POP SWAP3 SWAP2 POP POP JUMP JUMPDEST PUSH0 PUSH2 0x11F7 PUSH0 NOT DUP5 PUSH1 0x8 MUL PUSH2 0x11DC JUMP JUMPDEST NOT DUP1 DUP4 AND SWAP2 POP POP SWAP3 SWAP2 POP POP JUMP JUMPDEST PUSH0 PUSH2 0x120F DUP4 DUP4 PUSH2 0x11E8 JUMP JUMPDEST SWAP2 POP DUP3 PUSH1 0x2 MUL DUP3 OR SWAP1 POP SWAP3 SWAP2 POP POP JUMP JUMPDEST PUSH2 0x1228 DUP3 PUSH2 0xE71 JUMP JUMPDEST PUSH8 0xFFFFFFFFFFFFFFFF DUP2 GT ISZERO PUSH2 0x1241 JUMPI PUSH2 0x1240 PUSH2 0x9ED JUMP JUMPDEST JUMPDEST PUSH2 0x124B DUP3 SLOAD PUSH2 0x1052 JUMP JUMPDEST PUSH2 0x1256 DUP3 DUP3 DUP6 PUSH2 0x1196 JUMP JUMPDEST PUSH0 PUSH1 0x20 SWAP1 POP PUSH1 0x1F DUP4 GT PUSH1 0x1 DUP2 EQ PUSH2 0x1287 JUMPI PUSH0 DUP5 ISZERO PUSH2 0x1275 JUMPI DUP3 DUP8 ADD MLOAD SWAP1 POP JUMPDEST PUSH2 0x127F DUP6 DUP3 PUSH2 0x1204 JUMP JUMPDEST DUP7 SSTORE POP PUSH2 0x12E6 JUMP JUMPDEST PUSH1 0x1F NOT DUP5 AND PUSH2 0x1295 DUP7 PUSH2 0x1082 JUMP JUMPDEST PUSH0 JUMPDEST DUP3 DUP2 LT ISZERO PUSH2 0x12BC JUMPI DUP5 DUP10 ADD MLOAD DUP3 SSTORE PUSH1 0x1 DUP3 ADD SWAP2 POP PUSH1 0x20 DUP6 ADD SWAP5 POP PUSH1 0x20 DUP2 ADD SWAP1 POP PUSH2 0x1297 JUMP JUMPDEST DUP7 DUP4 LT ISZERO PUSH2 0x12D9 JUMPI DUP5 DUP10 ADD MLOAD PUSH2 0x12D5 PUSH1 0x1F DUP10 AND DUP3 PUSH2 0x11E8 JUMP JUMPDEST DUP4 SSTORE POP JUMPDEST PUSH1 0x1 PUSH1 0x2 DUP9 MUL ADD DUP9 SSTORE POP POP POP JUMPDEST POP POP POP POP POP POP JUMP JUMPDEST PUSH0 PUSH2 0x120 DUP3 ADD SWAP1 POP PUSH2 0x1302 PUSH0 DUP4 ADD DUP13 PUSH2 0x972 JUMP JUMPDEST DUP2 DUP2 SUB PUSH1 0x20 DUP4 ADD MSTORE PUSH2 0x1314 DUP2 DUP12 PUSH2 0xE99 JUMP JUMPDEST SWAP1 POP DUP2 DUP2 SUB PUSH1 0x40 DUP4 ADD MSTORE PUSH2 0x1328 DUP2 DUP11 PUSH2 0xE99 JUMP JUMPDEST SWAP1 POP DUP2 DUP2 SUB PUSH1 0x60 DUP4 ADD MSTORE PUSH2 0x133C DUP2 DUP10 PUSH2 0xE99 JUMP JUMPDEST SWAP1 POP DUP2 DUP2 SUB PUSH1 0x80 DUP4 ADD MSTORE PUSH2 0x1350 DUP2 DUP9 PUSH2 0xE99 JUMP JUMPDEST SWAP1 POP DUP2 DUP2 SUB PUSH1 0xA0 DUP4 ADD MSTORE PUSH2 0x1364 DUP2 DUP8 PUSH2 0xE99 JUMP JUMPDEST SWAP1 POP DUP2 DUP2 SUB PUSH1 0xC0 DUP4 ADD MSTORE PUSH2 0x1378 DUP2 DUP7 PUSH2 0xE99 JUMP JUMPDEST SWAP1 POP DUP2 DUP2 SUB PUSH1 0xE0 DUP4 ADD MSTORE PUSH2 0x138C DUP2 DUP6 PUSH2 0xE99 JUMP JUMPDEST SWAP1 POP DUP2 DUP2 SUB PUSH2 0x100 DUP4 ADD MSTORE PUSH2 0x13A1 DUP2 DUP5 PUSH2 0xE99 JUMP JUMPDEST SWAP1 POP SWAP11 SWAP10 POP POP POP POP POP POP POP POP POP POP JUMP JUMPDEST PUSH32 0x4E487B7100000000000000000000000000000000000000000000000000000000 PUSH0 MSTORE PUSH1 0x11 PUSH1 0x4 MSTORE PUSH1 0x24 PUSH0 REVERT JUMPDEST PUSH0 PUSH2 0x13E8 DUP3 PUSH2 0x969 JUMP JUMPDEST SWAP2 POP PUSH32 0xFFFFFFFFFFFFFFFFFFFFFFFFFFFFFFFFFFFFFFFFFFFFFFFFFFFFFFFFFFFFFFFF DUP3 SUB PUSH2 0x141A JUMPI PUSH2 0x1419 PUSH2 0x13B1 JUMP JUMPDEST JUMPDEST PUSH1 0x1 DUP3 ADD SWAP1 POP SWAP2 SWAP1 POP JUMP JUMPDEST PUSH32 0x436173652068617320616C7265616479206265656E2064656C65746564000000 PUSH0 DUP3 ADD MSTORE POP JUMP JUMPDEST PUSH0 PUSH2 0x1459 PUSH1 0x1D DUP4 PUSH2 0xE7B JUMP JUMPDEST SWAP2 POP PUSH2 0x1464 DUP3 PUSH2 0x1425 JUMP JUMPDEST PUSH1 0x20 DUP3 ADD SWAP1 POP SWAP2 SWAP1 POP JUMP JUMPDEST PUSH0 PUSH1 0x20 DUP3 ADD SWAP1 POP DUP2 DUP2 SUB PUSH0 DUP4 ADD MSTORE PUSH2 0x1486 DUP2 PUSH2 0x144D JUMP JUMPDEST SWAP1 POP SWAP2 SWAP1 POP JUMP INVALID LOG2 PUSH5 0x6970667358 0x22 SLT KECCAK256 TSTORE RETURNDATACOPY 0xAA 0x4D SWAP4 SUB 0xC6 0x27 0xBA PUSH22 0x8D5BE723D200AF4C8AA6D335623C74C93F785CE53859 PUSH5 0x736F6C6343 STOP ADDMOD NOT STOP CALLER "
				},
				"gasEstimates": {
					"creation": {
						"codeDepositCost": "1063000",
						"executionCost": "6110",
						"totalCost": "1069110"
					},
					"external": {
						"caseCount()": "2490",
						"cases(uint256)": "infinite",
						"createCase(string,string,string,string,string,string,string,string)": "infinite",
						"deleteCase(uint256)": "infinite",
						"getCriminalCaseCount()": "2410",
						"updateCase(uint256,string,string,string,string,string,string,string,string)": "infinite"
					}
				},
				"methodIdentifiers": {
					"caseCount()": "da2d7e95",
					"cases(uint256)": "f09790dd",
					"createCase(string,string,string,string,string,string,string,string)": "95893fb4",
					"deleteCase(uint256)": "d590bf49",
					"getCriminalCaseCount()": "412cceed",
					"updateCase(uint256,string,string,string,string,string,string,string,string)": "62007628"
				}
			},
			"storageLayout": {
				"storage": [
					{
						"astId": 4,
						"contract": "contracts/CriminalCaseFiling.sol:CriminalCaseFiling",
						"label": "caseCount",
						"offset": 0,
						"slot": "0",
						"type": "t_uint256"
					},
					{
						"astId": 30,
						"contract": "contracts/CriminalCaseFiling.sol:CriminalCaseFiling",
						"label": "cases",
						"offset": 0,
						"slot": "1",
						"type": "t_mapping(t_uint256,t_struct(CriminalCase)25_storage)"
					}
				],
				"types": {
					"t_bool": {
						"encoding": "inplace",
						"label": "bool",
						"numberOfBytes": "1"
					},
					"t_mapping(t_uint256,t_struct(CriminalCase)25_storage)": {
						"encoding": "mapping",
						"key": "t_uint256",
						"label": "mapping(uint256 => struct CriminalCaseFiling.CriminalCase)",
						"numberOfBytes": "32",
						"value": "t_struct(CriminalCase)25_storage"
					},
					"t_string_storage": {
						"encoding": "bytes",
						"label": "string",
						"numberOfBytes": "32"
					},
					"t_struct(CriminalCase)25_storage": {
						"encoding": "inplace",
						"label": "struct CriminalCaseFiling.CriminalCase",
						"members": [
							{
								"astId": 6,
								"contract": "contracts/CriminalCaseFiling.sol:CriminalCaseFiling",
								"label": "id",
								"offset": 0,
								"slot": "0",
								"type": "t_uint256"
							},
							{
								"astId": 8,
								"contract": "contracts/CriminalCaseFiling.sol:CriminalCaseFiling",
								"label": "dateTimeOfIncident",
								"offset": 0,
								"slot": "1",
								"type": "t_string_storage"
							},
							{
								"astId": 10,
								"contract": "contracts/CriminalCaseFiling.sol:CriminalCaseFiling",
								"label": "location",
								"offset": 0,
								"slot": "2",
								"type": "t_string_storage"
							},
							{
								"astId": 12,
								"contract": "contracts/CriminalCaseFiling.sol:CriminalCaseFiling",
								"label": "victimName",
								"offset": 0,
								"slot": "3",
								"type": "t_string_storage"
							},
							{
								"astId": 14,
								"contract": "contracts/CriminalCaseFiling.sol:CriminalCaseFiling",
								"label": "suspectName",
								"offset": 0,
								"slot": "4",
								"type": "t_string_storage"
							},
							{
								"astId": 16,
								"contract": "contracts/CriminalCaseFiling.sol:CriminalCaseFiling",
								"label": "description",
								"offset": 0,
								"slot": "5",
								"type": "t_string_storage"
							},
							{
								"astId": 18,
								"contract": "contracts/CriminalCaseFiling.sol:CriminalCaseFiling",
								"label": "charges",
								"offset": 0,
								"slot": "6",
								"type": "t_string_storage"
							},
							{
								"astId": 20,
								"contract": "contracts/CriminalCaseFiling.sol:CriminalCaseFiling",
								"label": "arrestInformation",
								"offset": 0,
								"slot": "7",
								"type": "t_string_storage"
							},
							{
								"astId": 22,
								"contract": "contracts/CriminalCaseFiling.sol:CriminalCaseFiling",
								"label": "evidence",
								"offset": 0,
								"slot": "8",
								"type": "t_string_storage"
							},
							{
								"astId": 24,
								"contract": "contracts/CriminalCaseFiling.sol:CriminalCaseFiling",
								"label": "deleted",
								"offset": 0,
								"slot": "9",
								"type": "t_bool"
							}
						],
						"numberOfBytes": "320"
					},
					"t_uint256": {
						"encoding": "inplace",
						"label": "uint256",
						"numberOfBytes": "32"
					}
				}
			},
			"userdoc": {
				"kind": "user",
				"methods": {},
				"version": 1
			}
		}
	}
}